:020000040800F2
:10000000306100205D020008392D0008652A0008D3
:10001000192D0008970E0008D936000800000000CE
:100020000000000000000000000000009D0100082A
:100030005D10000800000000F90100088D2F000885
:1000400077020008770200087702000877020008AC
:10005000770200087702000877020008770200089C
:10006000770200087702000877020008770200088C
:10007000770200087702000877020008990E00084E
:10008000A50E0008B10E00087702000877020008EC
:10009000770200087702000877020008770200085C
:1000A000770200087702000877020008770200084C
:1000B00077020008770200084D3000087702000838
:1000C000770200087702000877020008770200082C
:1000D000092F0008C1360008CD3600087702000855
:1000E000770200087702000877020008770200080C
:1000F00077020008770200087702000877020008FC
:1001000077020008770200087702000877020008EB
:1001100077020008770200087702000877020008DB
:1001200077020008770200087702000877020008CB
:1001300077020008770200087702000877020008BB
:1001400077020008770200087702000877020008AB
:10015000770200087702000877020008770200089B
:10016000770200087702000877020008770200088B
:1001700077020008770200087702000800000000FC
:100180007702000877020008DFF80CD000F0F6FDD7
:100190000048004761440008306100202C4B19687A
:1001A0000868B0E8F04F80F30988BFF36F8F4FF015
:1001B000000080F3118870470000000008480068C4
:1001C000006880F308884FF0000080F3148862B65E
:1001D00061B6BFF34F8FBFF36F8F00DF00BF00BF6B
:1001E00008ED00E0DFF80C00016841F470010160E7
:1001F000704700BF88ED00E0EFF30980BFF36F8F19
:10020000134B1A681EF0100F08BF20ED108A20E96A
:10021000F04F106009B44FF0500080F31188BFF325
:100220004F8FBFF36F8F06F021FC4FF0000080F37B
:10023000118809BC19680868B0E8F04F1EF0100F6B
:1002400008BFB0EC108A80F30988BFF36F8F704746
:1002500030000020EFF3058070470000064880471B
:1002600006480047FEE7FEE7FEE7FEE7FEE7FEE79B
:10027000FEE7FEE7FEE7FEE73D30000889010008E3
:100280002DE9F05F0546002092469B4688460646CB
:10029000814640241BE0284641464746224600F05E
:1002A000D0FB53465A46C01A914110D31146184606
:1002B000224600F0B7FB2D1A67EB01084F46224695
:1002C0000120002100F0AEFB17EB00094E41201E7B
:1002D000A4F10104DFDC484631462A464346BDE826
:1002E000F09FA0F14101192900D82030704740EA61
:1002F00001039B0703D009E008C9121F08C0042AA4
:10030000FAD203E011F8013B00F8013B521EF9D28A
:100310007047D2B201E000F8012B491EFBD27047B2
:100320000022F6E710B513460A4604461946FFF7C1
:10033000F0FF204610BD30B505462A460B4612F8A0
:10034000010B13F8014B08B1A042F8D01CB10028F2
:1003500002D06D1CF1E7284630BDCAB2401E10F82D
:10036000011F8A4202D00029F9D100207047421CA7
:1003700010F8011B0029FBD1801A704710B500222C
:1003800000E0521C835C8C5CA34201D1002BF8D1AD
:10039000D8B2E1B2401A10BD034611F8012B00F8A3
:1003A000012B002AF9D11846704730B505460020C8
:1003B000034600E05B1C934205D2EC5CC85C201A4B
:1003C00001D1002CF6D130BD2DE9FF4F087883B064
:1003D0009946FF2805D0491C2D2804D00024002070
:1003E00008E000200BE00124F9E700EB800003EBBC
:1003F0004000491C0B78FF2BF7D104B14042002389
:100400000293147819461D462D2C01D02B2C04D1B3
:10041000521C2D2C13D000240294AA461478FF2CD1
:100420000FD00A25A3FB057801FB05814FF0000CD6
:1004300003FB0C11521CE3194AEB0101EEE7012406
:10044000EAE7814453EA010002D019F5C87F06DAD1
:1004500003980021C0E9001107B0BDE8F08F002526
:10046000AE4E2F46DFF8B882184600F047FCCDE9C3
:100470000001B9F1000002DAC9F1000400E004460D
:100480000023A74A1AEB030B42EB045A12E0E007E1
:1004900007D02A4633463846414600F0ECF9074675
:1004A00088462A4633461046194600F0E4F90546C8
:1004B0000E466410002CEAD1DDE90001B9F1000F0D
:1004C0005A46534606DA00F0AAFB3A46434600F085
:1004D000A6FB05E000F0CFF93A46434600F0CBF921
:1004E000029A0AB181F00041039AC2E90001B3E720
:1004F0002DE9FF4F1F468DB0D7E901464FF0FF3879
:100500002E2045464FF000090B90B9696D1C0E98DE
:100510008847396A824688470028F6D1BAF1FF3FFA
:100520000AD024F4D064002E11DDBAF12B0F08D0CC
:10053000BAF12D0F0BD102E0404611B08DE744F423
:100540008064B9696D1C0E9888478246761E69469C
:10055000600501D52D2000E02B208DF8000001F171
:10056000010B0DF1200809E0B9696D1C0E98884750
:1005700082460F9844F40074761E0560002E02DD5A
:10058000BAF1300FF0D00B998A453ED144F0800487
:1005900006E00F99681CA9F1010944F40074086091
:1005A000B9696D1C761E0E98884782463028F0D0B7
:1005B0002BE00B998A4505D1200603D444F0800432
:1005C000761E18E0504603F011FA08B30DF113013E
:1005D000761E44F400748B4508D2AAF130000BF863
:1005E000010B200607D5A9F1010003E0200602D483
:1005F00009F101008146A00502D50F99681C086029
:10060000B9696D1C0E9888478246002ED1DC53E0F4
:10061000002E51DDBAF1650F02D0BAF1450F4BD172
:10062000A00549D5B9696D1C24F44074761E0E9856
:1006300088478246002E0CDD2B2804D0BAF12D0FFE
:1006400007D144F48074B9696D1C0E9888478246BE
:10065000761EE00501D52D2100E02B2108F8011BB5
:10066000CDF82C8021E00DF12901761E44F40074B0
:1006700088450CD2AAF1300010F0FF0088F8000085
:1006800002D10B99884509D908F1010806E0E00577
:1006900001D5244801E042F20F708146B9696D1C12
:1006A0000E98884782460F980560002E04DD50465C
:1006B00003F09CF90028D6D1F9690E988847FF20ED
:1006C0008BF8000088F800000020069007904B4649
:1006D0006A4608A906A8FFF777FEA00502D46FF0C6
:1006E00001002AE714F0240F0AD0E00714D1DDE955
:1006F00006123868031D3B600068C0E900120BE079
:10070000DDE9060100F01EFB0146E00704D1386870
:10071000021D3A600068016028460EE700001440A0
:100720000000F03FF1D8FFFF2DE9FE4F804681EA3F
:100730000300C00F0C46009021F0004123F000455B
:10074000B8EB0200A94105D24046214690461C461E
:100750000B46024623F00040104347D0270DC7F355
:100760000A00C3F30A510290401A019040286BDA44
:10077000C3F3130040F4801B0098924620B100237D
:10078000D2EB030A63EB0B0B01985946C0F1400210
:10079000504600F047F906460D4650465946019A24
:1007A00000F05FF910EB08006141002487EA115264
:1007B00084EAE7731A4340D0009A62B3019A012A8F
:1007C0004FEA075215DC001B61EB02014FF00042BB
:1007D00002EA0752CDE90042001C41F58011324681
:1007E0002B4600F0CEF903B0BDE8F08F404621461D
:1007F000F9E7001B61EB0201001C41F580130018B2
:100800005B412018A2F5001747EB030140EAD570C1
:10081000B6196D4111E06D084FEA360645EAC0751C
:100820004FEA0752001B61EB0201001C41F58011E9
:1008300049084FEA30000019514132462B4603B0B7
:10084000BDE8F04F00F08EB900980122400000236F
:10085000D0EB020263EBE073009821464FEAE074AC
:10086000B8EB000061EB0401E9E783F000435BE7CC
:1008700081F0004158E72DE9FE4F81EA030404F0BE
:10088000004421F0004100944FF0000B23F000439E
:1008900050EA01045ED052EA03045BD0C3F30A5469
:1008A000C1F30A552C44A4F2F3340194A0FB025482
:1008B000C1F3130141F48011C3F3130343F4801314
:1008C00001FB024400FB034E840A970A44EA815468
:1008D00047EA8357A4FB076802958D0A05FB078545
:1008E0004FEA932C04FB0C542705029D4FEA06584F
:1008F00047EA1637B5EB08056EEB070C870E920E2C
:1009000047EA811742EA8312A7FB0201B6EB0B010B
:1009100064EB00042B0D43EA0C335E1844EB1C50CF
:10092000DA465146E7FB0201C5F313044FEA0B33E5
:1009300043EA14534FEA0432019C43EA0603A4F14C
:100940000C040294009CCDE900B400F01AF903B045
:10095000BDE8F08F00200146F9E770B5C1F30A52F7
:1009600001F000450024C1F3130140F2FF3341F4CC
:1009700080119A4201DA002070BD40F233439A425E
:10098000A2F2334203DC524200F05BF800E09040F8
:100990002C43F1D0404270BD30B5041E71F100040B
:1009A00004DB4FF00044404264EB0101141E73F17C
:1009B000000405DB1C464FF00043524263EB040386
:1009C0008B4208BF824230BD30B5041E71F1000475
:1009D00004DB4FF00044404264EB0101141E73F14C
:1009E000000405DB1C464FF00043524263EB040356
:1009F000994208BF904230BD30B50B4601460020F9
:100A00002022012409E021FA02F59D4205D303FAD0
:100A100002F5491B04FA02F52844151EA2F1010251
:100A2000F1DC30BD202A04DB203A00FA02F100207C
:100A300070479140C2F1200320FA03F3194390401C
:100A40007047202A04DB203A21FA02F00021704787
:100A500021FA02F3D040C2F1200291400843194626
:100A60007047202A06DBCB17203A41FA02F043EA0E
:100A7000E07306E041FA02F3D040C2F12002914057
:100A8000084319467047426842B1016811F8013BBA
:100A900023B1521EC0E90012184670470121C160FF
:100AA000881E704742685AB1C368016843B98368B9
:100AB0008B4205D0491E521CC0E90012002070472D
:100AC0004FF0FF30704700000FB4002300B589B02D
:100AD0000CA900910B996FF00042CB601E4B06935E
:100AE0001E4B07930423CDE901321D4A08920246AA
:100AF0006B460020FFF7FCFC09B05DF814FB70B5F5
:100B000086B006464FF0FF300091CDE9010100208C
:100B100015460C4604903246694604A8FFF7D4FFF8
:100B200002460498211825B108B1084600E0204685
:100B30002860049800280DD0002A02DD0098884221
:100B400008D0081B0094CDE901043246694604A888
:100B5000FFF7BAFF06B070BD870A0008A50A0008B3
:100B6000A10D000810B5141E73F1000408DA401C32
:100B700041F1000192185B411A4301D120F00100BC
:100B800010BD2DE9F04D92469B4611B1B1FA81F2AC
:100B900002E0B0FA80F220329046FFF743FF0446AD
:100BA0000F4640EA0A0041EA0B0153465A46084301
:100BB00013D0114653EA010019D0C8F14002504643
:100BC000FFF73FFF05460E46504659464246FFF79F
:100BD00029FF084305D0012004E020463946BDE83E
:100BE000F08D0020054346EAE0762C4337430A980F
:100BF0006305E40AA0EB08000022FD0A44EA47541A
:100C00000A3002D500200146E9E7010510196941C3
:100C1000DDE9084500196941BDE8F04DA2E72DE97D
:100C2000F04D81EA030404F0004B21F00045144626
:100C30004FF0000A23F0004150EA050220D054EAA8
:100C400001021DD0C5F30A570246C5F31303C1F3D1
:100C50001300C1F30A5640F4801543F48013A7EB48
:100C60000608101BD64608F2FD3873EB050002D3C8
:100C700008F1010801E092185B41B8F1000F03DAB6
:100C800000200146BDE8F08D00204FF4801106469B
:100C900084460EE0171B73EB050705D3121B63EBAD
:100CA000050306434CEA010C49084FEA300092184C
:100CB0005B4150EA0107EDD152EA030012D082EA0B
:100CC000040083EA0501084305D0101BAB4106D29E
:100CD0000122002306E000224FF0004302E06FF003
:100CE000010253101AEB06004CEB085110EB0A00FE
:100CF00041EB0B01BDE8F04DFFF734BF0EB540F2FC
:100D0000334202920022CDE900221346FFF739FF59
:100D100003B000BDC1F30A52C1F3130140F2FF3327
:100D200041F480119A4202DA00200146704740F2F5
:100D300033439A42A2F2334202DC5242FFF781BEB1
:100D4000FFF770BE01F0004330B421F0004150EADB
:100D5000010206D00A0DA2F56072C1F31301002A48
:100D600002DC30BC00207047440F44EAC104C100DB
:100D7000E01830BC00EBC25000F017B8064C074D2D
:100D800006E0E06840F0010394E80700984710345B
:100D9000AC42F6D3FFF7FCF90C7A00082C7A000875
:100DA000C0B24FF4F05100F037B80029A8BF704727
:100DB000401C490008BF20F00100704710B4B0FA91
:100DC00080FC00FA0CF050EA010404BF10BC70472C
:100DD00049B1CCF1200421FA04F411FA0CF118BF46
:100DE000012121430843A3EB0C01CB1D4FEA006115
:100DF0004FEA102042BF002010BC704700EBC350E8
:100E000010440029A4BF10BC7047401C490008BF13
:100E100020F0010010BC70477F2801D9002208E0B3
:100E2000064A02EB5002C007127800D1120902F004
:100E30000F02012090400840704700007F760008B4
:100E400070B58C1810F8015B15F0070301D110F88C
:100E5000013B2A1106D110F8012B03E010F8016BB9
:100E600001F8016B5B1EF9D12B0705D40023521E3C
:100E70000DD401F8013BFAE710F8013BCB1A921CA4
:100E800003E013F8015B01F8015B521EF9D5A142A2
:100E9000D8D3002070BDFEE7014800F07FB9000004
:100EA000F4010020014800F079B90000E4020020BC
:100EB000014800F073B900004403002001681823C2
:100EC000CAB2103AB2FBF3F2054B6FF30901032AE1
:100ED0009B5CC36500D9091D816508467047000009
:100EE0007C75000810B5014600208B698A6A4FF0B6
:100EF000C07453B1B3F5005F15D072B1012A0CD0A4
:100F0000022A0AD0032A09D104E01AB1012A06D024
:100F1000022A03D1C96AC90100D5012010BDC96ADE
:100F2000A142FAD010BD002AF7D0012AF2D0022A3D
:100F3000F3D0032AF3D010BD30B50468256825F43A
:100F400080252560046863608368402B036803D0B4
:100F500099600068C26030BD9A600068C16030BDB1
:100F600070B503F06EF9040035D021A103F024F927
:100F7000054603F049F9002835D00021284603F042
:100F800015F900282FD01CA103F016F906002AD06D
:100F90001AA103F011F905461AA1304603F00CF925
:100FA0000646284603F039F9E8B1304603F035F932
:100FB000C8B117482969FFF7EFF9154831690A30B8
:100FC000FFF7EAF913480A221149006803F0FBFA17
:100FD000801C05D007E0BDE870400FA002F0AABB5E
:100FE00014A002F0A7FB2046BDE8704003F0B6B89D
:100FF000726573756C7473006E6F770074657874C6
:101000000000000074656D70657261747572650032
:10101000EC03002018000020576561746865722099
:10102000634A534F4E205061727365204661696C6C
:10103000656400005765617468657220446174617D
:101040002073656E6420746F2071756575652074FA
:10105000696D656F75740D0A00000000704700002F
:101060000A21014801F0A8BEF858002003494FF4B6
:10107000006201F5006001F0D1BE0000F8500020D0
:101080000A460146014801F0CFBE0000F858002092
:101090000A460146014801F0F5BE0000F85800205C
:1010A000002801D001490860704700003801002085
:1010B000044A1268002A03D01268002A00D01047A0
:1010C000704700003801002010B50448FFF7E8FF22
:1010D0000248BDE81040001D02F026BB14010020AC
:1010E00072B6FEE72DE9F0410446876D00F0C6FABE
:1010F000064694F835000025022806D08020606559
:1011000084F834500120BDE8F0812068016821F0A6
:10111000160101602068416921F080014161206C65
:1011200008B9A06C20B12068016821F008010160B5
:101130002068016821F0010101600CE000F09EFAD6
:10114000801B052807D920206065032084F835001E
:1011500084F83450D7E720680068C007EED194F8CF
:101160005C103F208840B860012084F8350084F886
:1011700034500020C7E790F83510022903D08021B1
:10118000416501207047052180F83510006801682D
:1011900021F0010101600020704700002DE9F843B3
:1011A00004464FF00009CDF8009063484FF4165103
:1011B000A56D0068B0FBF1F72E6894F85C1008206C
:1011C00000FA01F131420FD021680A6852070BD5AD
:1011D0000A6822F004020A6094F85C108840A86053
:1011E000606D40F00100606594F85C104FF00108FC
:1011F00008FA01F0304208D021684969090604D58F
:10120000A860606D40F00200606594F85C100420F6
:101210008840304208D021680968890704D5A86051
:10122000606D40F00400606594F85C101020884008
:10123000304218D021680968090714D5A8602068D1
:101240000168490304D50068000308D5A16C07E0D4
:101250000168C90503D4016821F008010160216C0F
:1012600009B12046884794F85C102020884030421D
:1012700031D021680968C9062DD5A86094F83500D9
:1012800005282068016806D0490347D50068000397
:101290001DD4616C1CE021F01601016020684169D9
:1012A00021F080014161206C08B9A06C20B1206858
:1012B000016821F00801016094F85C103F2088402B
:1012C000A86084F8358084F83490216D1FE0E16BCC
:1012D00009B120468847606D00282BD0606DC0079B
:1012E00014D0052084F835002068016821F0010140
:1012F00001600098401C0090B84203D82068006844
:10130000C007F6D184F8358084F83490E16C002968
:1013100010D001B02046BDE8F04308470168C90578
:10132000D5D4016821F01001016084F8358084F87B
:101330003490CCE7BDE8F883100000202DE9F0419F
:10134000044600F09BF906465CB1022084F83500A3
:10135000002584F834502068016821F00101016003
:101360000DE00120BDE8F08100F088F9801B052820
:1013700005D920206065032084F83500F2E7206855
:101380000068C007F0D12268116820480140D4E904
:1013900001031843D4E90336334318436369184300
:1013A000A3691843E3691843236A18430843616A31
:1013B000042903D1D4E90B131943084310602068B2
:1013C0004069666A20F0070130460E430127042871
:1013D0000CD1A06A0643E06A40B12046FFF782FDC7
:1013E00020B14020606584F83570BAE72068466116
:1013F0002046FFF763FD94F85C203F219140816017
:10140000656584F835700020ACE700003F8010F07F
:101410002DE9F0410446866D90F83400002501283E
:101420000DD0012084F8340094F835700020012F8D
:1014300007D084F8340002252846BDE8F081022058
:10144000FBE7022784F8357060652046FFF774FDDE
:1014500094F85C103F208840B0602068016841F03B
:1014600016010160206C20B12068016841F008017C
:1014700001602068016841F001010160DCE70000C3
:101480002DE9F84FDFF8BCA10022012503264FF01B
:101490000F090AF1040BAAF1040E00BF0B6805FA4C
:1014A00002F42340A34270D10F7907F00307012F04
:1014B00001D0022F16D187684FEA420806FA08FCCD
:1014C00027EA0C07D1F80CC00CFA08FC4CEA070C10
:1014D000C0F808C04768A7430C79C4F300149440CF
:1014E0003C4344600C79E443A4070AD0C4684FEA43
:1014F000420C06FA0CF7BC438F6807FA0CF7274337
:10150000C7600C7904F00304022C12D1D40800EB5C
:10151000840CDCF820405707FF0E09FA07F824EA8C
:101520000804D1F8108008FA07F848EA0408CCF853
:10153000208004684FEA420C06FA0CF7BC430F798E
:1015400007F0030707FA0CF7274307604C6814F409
:10155000403F70D03C4C276847F4804727602468A0
:1015600022F0030704F480440094384C07EB040C89
:10157000DCF8084897074FEA177809FA08F7BC43E0
:10158000334FB84202D1002724E054E0314FB84233
:1015900001D101271EE0304FB84201D1022719E0E6
:1015A0002E4FB84201D1032714E02D4FB84201D18C
:1015B00004270FE02B4FB84201D105270AE02A4F3C
:1015C000B84201D1062705E0284FB84201D10727CC
:1015D00000E0082707FA08F72743CCF80878DAF87C
:1015E00000405746D1F804C09C435FEACC2C00D59C
:1015F0001C433C60DBF800405F46D1F804C09C43CC
:101600005FEA8C2C00D51C433C60DEF80040774636
:10161000D1F804C09C435FEA8C3C00D51C433C607D
:10162000084F083F3C68D1F804C09C435FEACC3CBB
:1016300000D51C433C60521C102AFFF42FAFBDE8BC
:10164000F88F0000083C014044380240003001405F
:10165000000002400004024000080240000C02406A
:10166000001002400014024000180240001C02401A
:101670000AB1816170470904FBE7000001488068F6
:10168000704700000400002070B5040025D094F8D5
:101690003D00002520B984F83C50204600F0B8F801
:1016A000242084F83D002068016821F001010160D8
:1016B0002068016841F4004101602068016821F45C
:1016C0000041016000F05CFA4D4A6168914201D826
:1016D0004C4900E04C49884201D2012070BD4B4981
:1016E0002368B0FBF1F15E6826F03F060E435E60B2
:1016F0006368934206D94FF4967359434FF47A7353
:10170000B1FBF3F12368491C1E6A26F03F06314302
:1017100019626168914210D84900401EB0FBF1F295
:10172000521CC2F30B02042A01D2042022E0B0FBB7
:10173000F1F0401CC0F30B001CE0A268F2B301EB17
:10174000C10303EB0116431EB3FBF6F35B1C43F42A
:1017500080431B0549D092B301EBC10202EB01119A
:10176000401EB0FBF1F0401CC0F30B0040F4804081
:1017700040F400402168CA694CF6FF739A43104355
:10178000C861D4E9071001432068026822F0C00252
:1017900011430160D4E9030101432068826848F2E3
:1017A000FF339A4311438160D4E90501084321685E
:1017B000CA6822F0FF021043C86001E00EE016E0A4
:1017C0002068016841F0010101602564202084F84F
:1017D0003D00256384F83E50002070BD01EB4106BA
:1017E000431EB3FBF6F35B1CB3E70120C2E701EB3A
:1017F0004101401EB0FBF1F0401CC0F30B00B7E705
:10180000A086010080841E0000093D0040420F00B8
:1018100010B586B0044614216846FEF781FD1349D1
:101820002068884220D112480021026842F002025A
:101830000260006800F002000590C02000901220B5
:10184000CDE9010103200390042004906946094872
:10185000FFF716FE06481030016841F400110160E0
:10186000006800F40010059006B010BD0054004060
:101870003038024000040240024881680278114476
:1018800081607047040000200B4810B5016841F4E6
:1018900000710160016841F480610160016841F4F8
:1018A00080710160032000F09FF80F2000F006F81F
:1018B00000F050F8002010BD003C024030B5054655
:1018C0001F4887B00024016841F0040101600068EE
:1018D00006A900F00400009001A800F031F9049876
:1018E000A8B100F04DF940001649174AB0FBF1F1DC
:1018F0001648491E026040F2E732C0E90324C0E9FD
:101900000114846100F08EFC040003D015E000F0A7
:1019100037F9E9E70D4800F0B3FC04000DD11E20B3
:1019200000F034F8102D07D2002229461E2000F0C6
:101930003BF80748056000E0012407B0204630BDB1
:101940004038024040420F0000080040A40300203D
:10195000080000200C4882B0016841F48041016019
:10196000006800F4804000900748001F016841F0C3
:10197000805101600068002200F0805000900F212B
:10198000901E02B000F010B844380240002809DB75
:1019900000F01F02012191404009800000F1E02089
:1019A000C0F8001170470000F0B40E4B1B680C46E5
:1019B000C3F30223C3F10705042D00D90425191D23
:1019C000072901D2002300E0DB1E012606FA05F1FB
:1019D000491E214099409E40761E16403143F0BC7E
:1019E00001F0B8BE0CED00E0064900F007020868FF
:1019F0004FF6FF03184040EA0220034A10430860F4
:101A0000704700000CED00E00000FA052DE9F047FA
:101A10000E46050065D0DFF81481D8F80000F7B253
:101A200000F00700B04207D288F80070D8F8000034
:101A300000F00700B04254D128683D4C810712D510
:101A4000400703D5206840F4E05020602878000764
:101A500003D5206840F4604020602068A96820F029
:101A6000F000084320602878C0072DD0304968680E
:101A70000839012812D0022813D0032811D0096890
:101A8000890700292DDA216821F003010143216033
:101A9000FFF7F4FD814641F2883A0EE009688903B8
:101AA000EFE709688901ECE7FFF7E8FDA0EB090122
:101AB000514502D90320BDE8F0872068696800F02D
:101AC0000C00B0EB810FEFD1D8F80010404601F0C8
:101AD0000701B14207D90770006800F00700B04263
:101AE00001D00120E7E72878400705D52068E9689C
:101AF00020F4E050084320602878000706D52068CD
:101B0000296920F4604040EAC100206000F058F8E4
:101B10002168084AC1F30311515CC84006490860B6
:101B200006480068FFF7CAFE0020C4E7003C0240F8
:101B300008380240847500081000002008000020CA
:101B40000F2202600C4A136803F00303436013681A
:101B500003F0F0038360136803F4E053C36012687A
:101B60004FF4E05303EAD20202610448006800F037
:101B7000070008607047000008380240003C02403F
:101B80000448054900680968044AC1F38221515C90
:101B9000C8407047100000200838024094750008C3
:101BA0000448054900680968044AC1F34231515CA0
:101BB000C8407047100000200838024094750008A3
:101BC000154810B5006810F00C02144813D01449E1
:101BD000042A0FD0082A0ED10F4C241F2268236834
:101BE00002F03F025B0207D52068C0F38810A0FB1B
:101BF000010106E0084610BD2168C1F38811A1FB70
:101C000000010023FEF73CFB2168C1F30141491CA0
:101C10004900B0FBF1F010BD083802400024F40088
:101C200040787D012DE9F84F04006ED02078DFF870
:101C30004C93C007A9F104054AD009F104000168DA
:101C4000C1F38101012908D00068C0F38100022896
:101C50000AD1D9F80000400206D52868800337D59C
:101C600060680028E1D033E06068B0F5803F10D0B4
:101C7000B0F5A02F286810D020F4803028602868A4
:101C800020F4802028606068A8B1FFF7F7FC0646C2
:101C90000DE0286840F48030F4E740F480202860AC
:101CA000F7E700BFFFF7EAFC801B642873D82868B9
:101CB0008003F7D50CE0FFF7E1FC064605E000BF26
:101CC000FFF7DCFC801B6428F0D828688003F7D479
:101CD0002078DFF8AC8280074FF0000A3ED5A74895
:101CE000001D016811F00C0F08D00068C0F38100DE
:101CF00002280BD1D9F80000400207D428688007D9
:101D000016D5E068012800D112E033E1E068B8B1EF
:101D10000120C8F80000FFF7B1FC064605E000BF4F
:101D2000FFF7ACFC801B0228C0D828688007F7D5D5
:101D30002868216920F0F80040EAC10028600DE021
:101D4000C8F800A0FFF79AFC064604E0FFF796FCEF
:101D5000801B02281FD828688007F7D42078000746
:101D600022D5864F87486169703771B101210160C2
:101D7000FFF784FC064604E0FFF780FC801B022886
:101D800009D838688007F7D50EE0C0F800A0FFF743
:101D900075FC064605E082E0FFF770FC801B022818
:101DA0007DD838688007F7D42078400768D5DFF8F9
:101DB000CCB100270BF13C0BDBF80000C0000BD4CA
:101DC000DBF8001041F08051CBF80010DBF8000088
:101DD000012700F0805000906B4E3068C00510D491
:101DE000306840F480703060FFF748FC009005E0F8
:101DF000FFF744FC0099401A022850D83068C0050B
:101E0000F6D55E4EA0686C3601280FD005283068E4
:101E100010D020F001003060306820F00400306005
:101E2000A068B8B1FFF72AFC00900FE0306840F0DE
:101E30000100F4E740F004003060F7E7FFF71EFC14
:101E40000099411A41F28830814266D83068800793
:101E5000F4D50EE0FFF712FC009007E0FFF70EFC50
:101E60000099411A41F28830814256D83068800783
:101E7000F4D42FB1DBF8001021F08051CBF8001022
:101E8000A069C8B33D49091D0968C1F38101022950
:101E90004AD00228504607D0C8F8600000E03CE075
:101EA000FFF7ECFB04463BE04746C8F86000FFF74D
:101EB000E5FB064605E000BFFFF7E0FB801B0228BC
:101EC0002BD828688001F7D4D4E907010843A16A18
:101ED0002E4A490802EB0141626A41EA8211084335
:101EE00094F82C1040EA0161C9F80010012038660E
:101EF000FFF7C4FB044606E03EE000BFFFF7BEFB71
:101F0000001B022809D828688001F7D534E000BFFB
:101F1000FFF7B4FB001B022802D90320BDE8F88FAD
:101F200028688001F4D427E00128F7D0D9F8000010
:101F3000E26900F4800191421CD1226A00F03F0165
:101F4000914217D147F6C071626A0140B1EB821F1E
:101F500010D1A26A4FF0FF3300F4403103EB52027C
:101F6000B1EB024F06D194F82C1000F07060B0EB8A
:101F7000016F01D00120D1E70020CFE704380240F3
:101F800000004742800E4742007000400000FFFF03
:101F90007047000038B5016804464A688868C04345
:101FA000430606D5C30704D1D3435B0601D4216C95
:101FB00005E0830708D4D3431B0605D4616C01B048
:101FC0002046BDE830400847830603D5430601D5C7
:101FD000C30551D4D3439B064ED443060AD494F888
:101FE0005130032B49D0636D43F004036365CB6824
:101FF0008B680093830609D4636D43F00103636526
:102000008B6800930B6823F040030B60C00506D477
:10201000606D40F008006065206880680090606D29
:10202000002829D02068416821F0E00141600120AA
:1020300084F85100900701D4D00722D0206841686D
:1020400021F003014160114DE06C40B10565E06C89
:10205000FFF791F818B1606D40F040006065A06C2A
:10206000002809D00565A06CFFF785F8002803D08B
:10207000606D40F04000606538BDC86888680090B9
:1020800038BD2046FFF784FF38BD0000152F00083B
:1020900070B5040009D0606A002540B12561656112
:1020A000A56294F8510040B10CE0012070BD606859
:1020B000B0F5827FF4D0E561F2E784F85050204615
:1020C00000F044F8022084F851002068016821F0F3
:1020D00040010160A088218900F4827001F404416C
:1020E0000843A18901F400610843217C01F0020149
:1020F0000843217D01F001010843218B01F40071A7
:102100000843217F01F03801084394F8201001F0C2
:1021100080010843218D01F40051084321680860C3
:10212000A069042101EA104094F8241001F0100184
:102130000843216848602068C16921F40061C161D9
:102140006565012084F85100002070BD2DE9F04341
:1021500087B0064614216846FEF7E2F82A4930683F
:1021600088424ED129480025016841F48041016030
:102170000068264900F4804010390590086840F056
:1021800004000860086800F004000590086840F04A
:10219000020008600868022400F0020005900C208C
:1021A00003274FF005088DE8B10169461848FFF78D
:1021B00067F94FF4806901AACDF8009082E8B00178
:1021C00069461448FFF75CF9144C1348E4E802052B
:1021D0004020A4E82102114844F81459A561E561A2
:1021E00025626562FFF7AAF808B1FEF779FFB464CB
:1021F000002205212420A663FFF7D6FB2420FFF749
:10220000C5FB07B0BDE8F08300380040403802400D
:10221000000802400004024070600240F401002007
:102220007047704710B5040003D094F83D0010B11A
:1022300007E0012010BD002084F83C00204600F09B
:102240001EF8022084F83D00211D206800F004FFE4
:10225000012084F8460084F83E0084F83F0084F8AA
:10226000400084F8410084F8420084F8430084F878
:10227000440084F8450084F83D00002010BD7047FC
:1022800090F83D10012901D001207047022180F80B
:102290003D100168CA6842F00102CA600068114935
:1022A000884214D0B0F1804F11D00F4988420ED02F
:1022B0000E4988420BD00E49884208D00D49884209
:1022C00005D00D49884202D00C49884204D181686A
:1022D00001F00701062903D0016841F00101016006
:1022E000002070470000014000040040000800404A
:1022F000000C004000040140004001400018004074
:1023000070472DE9F04104460068C66805694FF042
:102310000007A90713D5B10711D5F91E01610120E6
:102320002077206880698007204602D0FFF7E8FF09
:1023300004E000F07EF8204600F07CF8277768077C
:1023400016D5700714D521686FF0040008610220CB
:1023500020772068806910F4407F204602D0FFF784
:10236000CFFF04E000F065F8204600F063F827771F
:10237000280715D5300713D521686FF008000861CC
:10238000042020772068C0698007204602D0FFF72C
:10239000B7FF04E000F04DF8204600F04BF8277737
:1023A000E80616D5F00614D521686FF01000086114
:1023B000082020772068C06910F4407F204602D0B2
:1023C000FFF79EFF04E000F034F8204600F032F8FA
:1023D0002777E80708D0F00706D021686FF00100E2
:1023E0000861204600F028F8280608D5300606D5F2
:1023F00021686FF0800008612046FFF711FF680632
:1024000008D5700606D521686FF0400008612046A7
:1024100000F020F8A8060AD5B00608D521686FF0AC
:10242000200008612046BDE8F041FFF7FABEBDE894
:10243000F08170477047000010B500680449884279
:1024400001D1FFF719FABDE81040012001F0FCBFEF
:1024500000080040704738B5044690F84200202834
:1024600001D0022038BD51B14AB1012020630020C3
:102470006063204601F080F8216B012901D0012022
:1024800038BD21680A684968009121680C3151E81B
:10249000002F42F0100241E80023002BF5D138BD97
:1024A00010B50068054A904206D10548FEF7F0FDD8
:1024B000BDE8104004F050B810BD000000440040DA
:1024C000F54C002070470000F8B501680446086824
:1024D000CA684B6910F00F0F4FF0000559D003F098
:1024E000010602F49077374365D0C10705D0D105C6
:1024F00003D5616C41F001016164410705D5D9073D
:1025000003D0616C41F002016164810705D5D907F0
:1025100003D0616C41F004016164010707D502F04A
:102520002001314303D0616C41F008016164616CAA
:1025300000293AD0800604D5900602D5204600F046
:1025400034FF20684069616CC0F38010090700D433
:1025500060B3204600F0F4FE20684069400621D5B3
:102560002068143050E8001F21F0400140E80012BC
:10257000002AF5D1E06BA8B172490165E06BFEF766
:10258000FAFD002811D0E06B016D01B0BDE8F0400C
:10259000084783060FD593060DD52046BDE8F840C1
:1025A00000F003BF2046FFF78DFFF8BD2046FFF780
:1025B00089FF6564F8BD266B2023012E7ED1C606F7
:1025C0007CD5D6067AD508684868009048694FF0EF
:1025D000020640064DD5E26B106840684FF48077E4
:1025E0000004000C3AD0A18D814237D9E085D06932
:1025F000B8422DD020680C3050E8001F21F48071C3
:1026000040E80012002AF5D12068143050E8001F7D
:1026100021F0010140E80012002AF5D120681430B1
:1026200050E8001F21F0400140E80012002AF5D1D7
:1026300084F84230256320680C3050E8001F21F0F8
:10264000100140E80012002AF5D1E06BFEF74AFDC8
:102650006663A08DE18D401A81B206E0A18D8142B2
:10266000A8D1D069B842A5D166632046FFF718FF0C
:10267000F8BDA08DE18D401A81B2E08D0028F7D021
:102680000029F5D020680C3050E8002F22F4907219
:1026900040E80027002FF5D12068143050E8002FC3
:1026A00022F0010240E80027002FF5D184F84230E3
:1026B000256320680C3050E8002F00E006E022F08F
:1026C000100240E80023002BF3D1CDE705062BD5FF
:1026D000150629D594F841002128C9D1A068B0F584
:1026E000805F01D12069B0B1206A411C216221685C
:1026F00000784860E08C401E0004000CE084B7D1F4
:102700002068C16821F08001C1602068C16841F083
:102710004001C160F8BD206A0088C0F3080048602D
:10272000206A801C2062E5E74006F3D55006F1D50B
:10273000CA68204622F04002CA6084F8413000F0A6
:102740008FF9F8BDF931000870B5040004D094F891
:102750004100002510B106E0012070BD84F8405012
:10276000204600F023F8242084F841002068C16846
:1027700021F40051C160204600F078FE2068016914
:1027800021F4904101612068416921F02A014161F1
:102790002068C16841F40051C1606564202084F85C
:1027A000410084F842006563002070BD2DE9F041CE
:1027B00086B0064614216846FDF7B2FDDFF810C169
:1027C00031684448022203230727434D0024614512
:1027D00021D1404914310E6846F010060E60096898
:1027E00001F010010591016841F0010101600068EC
:1027F000694600F00100059058028DE81500CDE90A
:1028000003372846FEF73CFE002205212520FFF76E
:10281000CBF8252056E0DFF8C4C0614554D12D49DE
:102820001031D1F800C04CF4003CC1F800C0096878
:1028300001F400310591016841F001010160006877
:10284000694600F0010005900C208DE81500CDE9E7
:1028500003372846FEF714FE224D21484FF000674B
:102860002860C5E901744FF48068C5E903486C61CC
:10287000AC61EC612C6228466C62FEF75FFD08B12A
:10288000FEF72EFCF563AE63164D15486035183023
:10289000E5E802074020A5E81101124845F814496F
:1028A0006030AC61EC612C626C62FEF747FD08B1F0
:1028B000FEF716FCB563002205212620AE63FFF764
:1028C00073F82620FFF762F806B0BDE8F08100003B
:1028D0000010014030380240000002400044004037
:1028E00088600240E402002090F84230202B01D0A2
:1028F0000220704721B11AB10023036300F08CBE9F
:102900000120704710B50068084988420DD1084978
:10291000002308461A46406804F0D2FABDE8104089
:10292000012203490348FFF7DFBF10BD001001403B
:10293000240100205402002070472DE9F84304468A
:1029400090F84100984616460D46202802D00220F5
:10295000BDE8F88385B17EB100206064212084F851
:102960004100FEF78BFEA6848146E684A0682027FE
:10297000B0F5805F02D003E00120E9E7206910B1E3
:102980002E4600250EE000260CE08021204600F0B7
:102990005EFEA8B9C6B116F8010B21684860E08C4C
:1029A000401EE084E08C4B464FF00002CDF80080E2
:1029B0000028EAD14FF04001204600F048FE40B127
:1029C00084F841700320C3E735F8020BC0F3080018
:1029D000E3E784F841700020BAE7000070B50446D0
:1029E00090F84100202801D0022070BD01B3FAB157
:1029F0002162A284E28400206064212384F84130B3
:102A0000A56B144BEB63A56B134B2B64A56B134B9E
:102A1000EB64A36B186520681346A56B021D28465E
:102A2000FEF7F6FC30B110206064202084F84100ED
:102A3000012070BD21686FF04000086020681430EC
:102A400050E8001F41F0800140E80012002AF5D153
:102A5000002070BDF5320008373300080732000847
:102A600070477047FEE70000114808B5016841F45F
:102A7000001101600068002200F4001000900521A0
:102A80000F20FEF791FF0F20FEF780FF00220521A7
:102A90001020FEF789FF1020FEF778FF00220521A5
:102AA0001120FEF781FFBDE808401120FEF76EBF40
:102AB000303802401CB5094A0021094801F016FDD2
:102AC0000849086000210120CDE900010B46C2023F
:102AD00005A1084804F02AFB1CBD00005875000839
:102AE000612F000800000020746573745F746173C7
:102AF0006B0000007D6500082DE9F04186B01421CF
:102B00006846FDF70DFC41480024016841F00401CE
:102B10000160016801F004010591016841F0800144
:102B20000160016801F080010591016841F0010137
:102B30000160016801F001010591016841F0100197
:102B40000160016801F010010591016841F0020186
:102B50000160016801F002010591016841F008017E
:102B6000016000682A4E00F0080005900022402114
:102B70003046FEF77DFD274F00224FF420413846B6
:102B8000FEF776FDDFF89080002241F6080140460E
:102B9000FEF76EFD01254020CDE90005CDE9025488
:102BA00069463046FEF76CFC68030090CDE901549D
:102BB000694638460394FEF763FCE803CDE9000557
:102BC000CDE9025469463846FEF75AFC40F6080043
:102BD0000090CDE90154694640460394FEF750FC4D
:102BE0002803CDE90005CDE9025469464046FEF7C9
:102BF00047FC802000904FF48810CDE9010469461D
:102C00000648FEF73DFC06B0BDE8F08130380240D2
:102C1000000002400010024000040240000C02408C
:102C20000D4810B50B4901600C49416000214FF47B
:102C300080428160C0E9031241618161C16101622A
:102C4000FEF722FD002803D0BDE81040FEF748BA89
:102C500010BD00000054004048010020A086010083
:102C6000104810B50E4901604FF482714160002197
:102C700002228160C0E90312012242615202C0E9CE
:102C800006210162416281620A21C162FFF700FAF6
:102C9000002803D0BDE81040FEF722BA10BD0000A6
:102CA000003800409C0100200C4810B50A49016022
:102CB0004FF4E1314160002181600C22C160C0E924
:102CC00004128161C161FFF73FFD002803D0BDE818
:102CD0001040FEF705BA10BD00100140540200205C
:102CE0000C4810B50A4901604FF4E1314160002100
:102CF00081600C22C160C0E904128161C161FFF7EB
:102D000023FD002803D0BDE81040FEF7E9B910BD4F
:102D1000004400409C020020FEE700001CB504486F
:102D2000009004480190684601F04AFA1CBD00007A
:102D30007B45000877450008FEE700000A4601468B
:102D40000148FFF74BBE00009C02002070B505460D
:102D5000FEF786F9040007D001462846FEF790F9F1
:102D600000202855204670BD002070BD10B5FEF72C
:102D70007DF9BDE8104003F0EFBBFEF799B9000004
:102D8000012202490248FFF7AFBD000024010020E4
:102D900054020020014603484FF0FF32406804F01F
:102DA000EFB80000240100200A46014664230148D0
:102DB000FFF7C3BD5402002070B50C46034600F077
:102DC00019F8002810D0002210E019899D881144BC
:102DD000B1FBF5F605FB16111D6889B202F101027F
:102DE000695CA14201D190B270BD92B28242ECD333
:102DF000002070BDC28801898A4201D3501A02E0C6
:102E00008088401A104480B2704700B50346FFF72F
:102E1000F1FF9988081A401E80B200BD01608280CF
:102E20000021C180018170472DE9F04115460F4610
:102E30000446FFF7DFFF854200D905465DB1A08853
:102E40002189401A86B221892068B542014405D8FB
:102E50002A46384609E00020BDE8F081324638466F
:102E6000FDF745FAAA1BB8192168FDF740FA208939
:102E7000A1882844B0FBF1F201FB12002081284612
:102E8000EAE700002DE9F04115460F460446FFF73A
:102E9000BCFF854203D913A000F04CFC0CE05DB1EF
:102EA000A088E188401A86B2E1882068B5420844CB
:102EB00005D82A46394609E00020BDE8F0813246AF
:102EC0003946FDF714FAAA1BB9192068FDF70FFA65
:102ED000E088A1882844B0FBF1F201FB1200E080F9
:102EE0002846EAE752696E674275666665725F5703
:102EF000726974653A206E6F20656E6F7567682021
:102F000073706163650A00000148FFF743B8000071
:102F10009C01002010B5806B0021C187C186FFF79E
:102F200037F810BD1CB500F0EBFB02F0BBFA18211E
:102F30004FF48050CDE900010023034A03A1074864
:102F400001F056FB1CBD0000293100084E65747766
:102F50006F726B5F50617273657200001400002025
:102F6000094D4FF4FA74002240212846FEF780FBF9
:102F7000204603F0C5FC012240212846FEF778FBDD
:102F8000204603F0BDFCEEE70000024010B54FF014
:102F9000E020006904F022F9012803D0BDE81040C8
:102FA00003F030BE10BD000030B593B0302168464C
:102FB000FDF7B6F914210CA8FDF7B2F91D4800255C
:102FC000016841F080510160006800F0805011906C
:102FD0001948016841F4804101600068022400F44E
:102FE00080401190012003901020049000940694DA
:102FF0000820CDE90750A820CDE9090404200B9052
:103000006846FEF70FFE08B172B6FEE70CA90F2066
:1030100081E831004FF4A0500F904FF48050109091
:1030200005210CA8FEF7F2FC002801D072B6FEE7DD
:1030300013B030BD403802400070004002480168C3
:1030400041F470010160704788ED00E00148FFF72E
:1030500058B90000A4030020F0B50268274B284DA2
:10306000284E294F294C4FF0804C984209D060459A
:1030700007D0A84205D0B04203D0B84201D0A04248
:1030800004D122F0700E4A6842EA0E0298421BD028
:10309000604519D0A84217D0B04215D0B84213D01D
:1030A000A04211D01A4DA8420ED01A4DA8420BD002
:1030B000194DA84208D0194DA84205D0184DA84274
:1030C00002D0184DA84203D122F44075CA682A43A1
:1030D0004D6922F080022A438D68C5620D688562C1
:1030E000984201D0A04201D109690163016841F011
:1030F00004010160012141610260F0BD0000014056
:103100000004004000080040000C004000040140A2
:1031100000400140004401400048014000180040C8
:10312000001C004000200040ADF5007D684600F026
:10313000D5FA002824D014A16846FDF7FCF8002831
:103140001BD07B216846FDF708F9040010D011A1BF
:10315000FDF7F1F818B12046FDF702FFE6E710A1F0
:103160002046FDF7E8F80028E0D121460FA001E055
:10317000694615A000F0DEFAD8E769461AA0F9E71B
:10318000642001F047FAD1E72B4854545043474597
:10319000543A000022726573756C7473220000004B
:1031A0002273797354696D6532220000526563653C
:1031B00069766564204854545020526573706F6E70
:1031C00073653A2025730A004D616C666F726D65F8
:1031D00064204854545020526573706F6E73653A82
:1031E0002025730A000000004154205265706C795C
:1031F0003A2025730A00000010B5806B0021C185BC
:10320000FFF760F910BD70B5846B2068406994F8D1
:103210004110C0F3C0100025212904D118B1E58464
:10322000204600F0B4F82068406994F84210C0F3DA
:103230008010222904D118B1E585204600F080F8DD
:10324000606C40F0100060642046FFF73BF970BDF1
:1032500010B50146806B096809684FF00002C90586
:103260002ED4C28501680C3151E8003F23F48073ED
:1032700041E80034002CF5D10168143151E8003FD9
:1032800023F0010341E80034002CF5D1016814312A
:1032900051E8003F23F0400341E80034002CF5D111
:1032A000202180F84210016B012909D101680C31FD
:1032B00051E8003F23F0100341E80034002CF5D121
:1032C0004263016B012902D0FFF71CFB10BD818D09
:1032D000FFF7E6F810BD10B5806B01214163016B6B
:1032E000012902D0FFF728FB10BD818D4908FFF7A7
:1032F000D7F810BD10B50146806B09680968C9058B
:1033000016D40021C1840168143151E8002F22F045
:10331000800241E80023002BF5D101680C3151E80F
:10332000002F42F0400241E80023002BF5D110BDF0
:10333000FFF796FB10BD10B5806BFFF792FB10BD39
:1033400001680C3151E8002F22F4907241E800230B
:10335000002BF5D10168143151E8002F22F0010251
:1033600041E80023002BF5D1016B012909D1016847
:103370000C3151E8002F22F0100241E80023002B0D
:10338000F5D1202180F842100021016370470168C7
:103390000C3151E8002F22F0C00241E80023002B3D
:1033A000F5D1202180F84110704708B590F84210FF
:1033B000222901D0022008BD82684FF480539A422E
:1033C00001D1016921B1816A9A421BD04AB10AE058
:1033D0000268816A5268C2F308020A80816A891C05
:1033E00008E0026972B10268526802F07F020A7056
:1033F000816A491C8162C18D491E0904090CC1857D
:1034000003D01BE002685268F1E70168CA6822F045
:103410002002CA600168CA6822F48072CA6001682A
:103420004A6922F001024A61202180F842100021FD
:103430004163026B012A03D0FFF764FA002008BD44
:10344000016301680C3151E8002F22F0100241E8BD
:103450000023002BF5D101680A68D20602D50A685C
:1034600049680091818DFFF71BF8E7E770B50446C6
:1034700000680169E26821F440511143016121694A
:10348000A068E26908436169114308432168CA687A
:1034900049F20C639A430243CA6020684169A269F9
:1034A00021F440711143416131492068884202D0C2
:1034B0003049884202D1FEF773FB01E0FEF760FB62
:1034C000E2690023192164253226B2F5004F6268B3
:1034D00028D0A0FB0101930F9200FCF7D1FE01461A
:1034E000B0FBF5F06FF01802504301EB800006EBE3
:1034F0000010B0FBF5F000F0F002B1FBF5F002EBCC
:103500000012B1FBF5F06FF01803584301EB800097
:1035100006EB0010B0FBF5F000F00F00216810443E
:10352000886070BDA0FB010192185B41FCF7A8FE0A
:103530000146B0FBF5F00201B1FBF5F06FF01803A6
:10354000584301EB800006EBC000B0FBF5F000F043
:10355000F80002EB4002B1FBF5F0584301EB8000AC
:1035600006EBC000B0FBF5F000F00700D6E7000066
:10357000001001400014014038B581620446828584
:10358000002013466064222284F84220E56B1F4A23
:10359000EA63E56B1E4A2A64E56B1E4AEA64E26B45
:1035A00010650A462168E06B091DFDF731FF30B157
:1035B00010206064202084F84200012038BD20687B
:1035C000016840680090206948B120680C3050E8DC
:1035D000001F41F4807140E80012002AF5D12068F4
:1035E000143050E8001F41F0010140E80012002AA9
:1035F000F5D12068143050E8001F41F0400140E848
:103600000012002AF5D1002038BD00005132000818
:10361000D73200080732000881628285C285002106
:103620004164222180F84210016921B10168CA6811
:1036300042F48072CA6001684A6942F001024A613C
:103640000068C16841F02001C160002070472DE989
:10365000F843984617460D460446089E24E0701C21
:1036600022D0FEF70BF8A0EB0800B0421AD8CEB17A
:103670002068C168490717D5802D15D0402D13D07B
:103680000168C94309070FD401680025406800900C
:103690002046FFF755FE0820606484F84050012062
:1036A000BDE8F8830320FBE72068006835EA0000E6
:1036B00004D00020B842D2D00020F1E70120F9E781
:1036C0000148FEF701BF0000540200200148FEF748
:1036D000FBBE00009C020020FEE70000064910B57A
:1036E000096821B1896811B1BDE810400847034855
:1036F00000F020F8002010BD1001002070790008B3
:1037000010B5FDF7E1FC0648006820B1006810B173
:10371000BDE810400047BDE81040024800F00AB87C
:1037200010010020C47900080149086070470000BA
:10373000100100200FB4054B10B503A9044A0298EC
:1037400000F05CF910BC5DF814FB00004D4300086C
:103750003C0100200907090E002804DB00F1E020ED
:1037600080F80014704700F00F0000F1E02080F8AE
:10377000141D704730B528B1144C031F0020216878
:103780000A4605E0084630BD9A4203D81046526802
:10379000002AF9D1002800D041680BD00468A3EBBF
:1037A0000005A54204D11B681C440346046002E0E6
:1037B000436000E023603AB11C68D51AA54203D1EA
:1037C00015682C441C6052685A6030BD40010020CE
:1037D00000B583B09FED060B0A4601468DED000B48
:1037E0006846FDF78CF99DED000B03B000BD0000AD
:1037F00000000000000000002DE9F04782460F4C59
:1038000010480D4E0E4F001B4FF0000820F007052A
:103810004FF0010900221146504600F0EDFD00284E
:1038200002D1306810B10020BDE8F0873C60C4E9E7
:103830000058C6F80090EDE744010020345B0020FA
:1038400040010020305D002002E008C8121F08C1BE
:10385000002AFAD170477047002001E001C1121F11
:10386000002AFBD1704700002DE9FF5F82B00021E4
:10387000DDE90430020DDDF840B0034318D044F612
:103880001050A2F2FF3242431514119801281FD0A4
:10389000A5EB0B00401C5FEA000A4FF000064E4FFC
:1038A000DFF83891B046504615D5CAF1000413E050
:1038B000119801244AA3012801D16FEA0B01029853
:1038C000119AC0E90031C0E9024206B0BDE8F09F9C
:1038D000CBF10000DFE704460021404A491842EBE3
:1038E0000450CDE9001012E0E00707D032463B4615
:1038F00040464946FCF7BFFF8046894632463B4674
:1039000010461946FCF7B7FF06460F466410002C18
:10391000EAD1DDE90401DDE90023BAF1000F06DA9E
:10392000FCF7A9FF42464B46FCF7A5FF05E0FDF773
:1039300076F942464B46FDF772F904460E460022E0
:10394000284BFDF741F803D84FF0FF30014607E060
:103950000022254B20463146FCF7E6FEFDF7DAF95A
:10396000102409E0002C0ADB0A220023FCF788FC63
:10397000039B30321A55641E50EA0102F2D1641CD6
:10398000039AC4F111031444119A012A03D00122AD
:1039900008430DD10AE0084304D000204FF0110B7A
:1039A000119072E7A3EB0B056D1E0DE05B4504DD86
:1039B0004FF0000205F1010504E003DA4FF00002C8
:1039C000A5F10105002AECD002981199C0E9023155
:1039D000C0E9004579E70000000014400000F03F16
:1039E000300000000000F0430000E03F30380A28BB
:1039F00001D2012070470020704700002DE9FF4FE1
:103A000095B09B468946064600250FE2252877D1CA
:103A100000242746F84A0121059400E0044316F8E3
:103A2000013F203B01FA03F01042F7D130782A28F9
:103A300011D06FF02F033078A0F13002092A16D888
:103A4000059A44F0020402EB820203EB42021044A6
:103A5000761C0590EFE759F8042B0592002A03DA4B
:103A6000504244F40054059044F00204761C30782F
:103A70002E2816D116F8010F44F004042A280DD080
:103A80006FF02F023078A0F13003092B09D807EB33
:103A9000870302EB4303C718761CF3E759F8047B4E
:103AA000761C30786C280FD006DC4C2817D068289C
:103AB0000DD06A2814D104E0742810D07A280FD1D0
:103AC0000DE044F400140AE044F4801401E044F4EE
:103AD00040147278824202D104F58014761C761C60
:103AE000307866280BD013DC582877D009DC002802
:103AF00075D04528F6D04628F4D047281AD19DE144
:103B000018E0632835D0642879D0652812D195E172
:103B1000702873D008DC6728F1D069286FD06E2830
:103B20000DD06F2806D1B5E073282CD0752875D03C
:103B3000782874D05A46179990476D1C75E1C4F3E4
:103B40000250022809D003280DD0D9F8001004280B
:103B50000DD00D6009F1040967E1D9F80010EA17EA
:103B6000C1E90052F6E7D9F800100D80F2E70D70B8
:103B7000F0E719F8041B8DF8001000208DF8010003
:103B8000EA46012003E059F804AB4FF0FF3061072B
:103B90004FF0000102D40DE008F101018846B9425E
:103BA0000FDA8045F8DB1AF808100029F4D108E094
:103BB00008F1010188468142FADB1AF80810002951
:103BC000F6D105985B46A0EB080721463846179AC0
:103BD00000F094FA284400EB080507E04DE029E1E5
:103BE0000DE01AF8010B5A4617999047B8F10108F1
:103BF000F7D25B4621463846179A13E142E00A2283
:103C00000092C4F302524FF0000A022A08D059F879
:103C100004CB032A4FEAEC710AD00DE029E02AE038
:103C200009F1070121F00702F2E802C1914609E01B
:103C30000FFA8CFC4FEAEC71042A03D14FFA8CFC8A
:103C40004FEAEC71002907DA0A460021DCF1000C8A
:103C500061EB02012D2202E0220504D52B228DF812
:103C60000420012203E0E20701D02022F7E790467A
:103C700059E00A2102E010220DE010214FF0000A65
:103C800000910BE010224FF0000A44F004040827D2
:103C9000009203E008224FF0000A0092C4F302529F
:103CA000022A05D059F804CB0021032A08D009E0E4
:103CB00009F1070121F00702F2E802C1914605E08F
:103CC0001FFA8CFC042A01D10CF0FF0C4FF0000805
:103CD000220728D5702806D0009B83F0100353EAF2
:103CE0000A0305D00EE040228DF80420012208E0EE
:103CF0005CEA010206D030228DF804208DF8050020
:103D000002229046009B83F0080353EA0A030AD17B
:103D10005CEA010201D1620705D530228DF804204A
:103D20004FF001087F1E582804D034A003900EA83D
:103D300002900DE036A0F9E753466046009AFCF782
:103D40009FFA84460398825C0298401E029002709B
:103D50005CEA0100F0D1029806A9081A00F1200AD5
:103D6000600702D524F4803400E00127574502DDC6
:103D7000A7EB0A0000E0002000EB0A010090059884
:103D80004144401A0590E00306D45B462146179A49
:103D9000059800F0B3F90544002706E001A85A464B
:103DA000C05D179990476D1C7F1C4745F6DBE0030B
:103DB0000CD55B462146179A059800F09FF90544FB
:103DC00004E030205A46179990476D1C0099481E10
:103DD00000900029F5DC08E0029802995A46007824
:103DE000491C0291179990476D1CBAF10001AAF184
:103DF000010AF1DC65E100000928010030313233AD
:103E00003435363738396162636465660000000016
:103E10003031323334353637383941424344454600
:103E20000000000000F058F90544761C30780028A6
:103E30007FF4ECAD19B02846BDE8F08F620700D4DE
:103E4000062709F1070222F0070CFCE80223E146ED
:103E500003F000485FEA080C02D00FF2702C0DE06E
:103E60005FEA045C02D50FF2682C07E05FEAC47CCD
:103E700002D00FF2602C01E0AFF2700C4FF0FF386F
:103E800023F00043CDF850C065280CD006DC45284F
:103E900009D046281DD047283DD13DE0662818D0DE
:103EA00067287ED138E00021112F01DB112000E0CE
:103EB000781CCDE9000106A90EA8FFF7D5FCDDE9C5
:103EC0000F010E9A03910021009207F1010A04915B
:103ED0004DE04FF000400097CDE9011006A90EA873
:103EE000FFF7C2FCDDE90F0203920E9B119900223D
:103EF000DDF80CA00093049211B9791C00EB010AC3
:103F0000B7EB0A0004D4C0F1FF3007F1010A0490B6
:103F1000AAEB0700019044E0012F00DA01270021FD
:103F2000112F01DD112000E03846CDE9000106A97E
:103F30000EA8FFF799FCDDE90F010E9A039100210D
:103F400004910092BA4621070CD40399514500DA36
:103F50008A46BAF1010F05DD009AAAF10101515C10
:103F6000302908D0B84202DA10F1040F06DA012134
:103F7000CDE9011015E0AAF10101E9E7002805DC0F
:103F8000049901440491AAEB000102E0411C51454F
:103F900000DD8A460499401A401C01904FF0004011
:103FA0000290200704D40198504501DBCDF804802D
:103FB00000208DF84F0002980DF14F07B0F1004F2F
:103FC00025D02B200E9002984FF0020800280CDA22
:103FD000404202902D200E9007E00A210298FCF743
:103FE0000BFD3031029007F8011DB8F10001A8F176
:103FF0000108F2DC02980028EFD1791E0E980870B3
:10400000307800F0200040F0450007F8020D12A8BB
:10401000C01B00F107081498007800B1012000EBE4
:104020000A01019801EBE07105984144401A401ED5
:104030000590E00306D45B462146179A059800F0E8
:104040005DF805441498007818B15A4617999047BE
:104050006D1CE00324D55B462146179A059800F0B5
:104060004DF805441CE00498002807DBDDE9030156
:10407000884203DD0098405C179901E017993020D1
:104080005A469047049805F10105401C0490019898
:10409000401E019004D12E205A46179990476D1C5E
:1040A000BAF10001AAF1010ADDDC05E017F8010B05
:1040B0005A46179990476D1CB8F10001A8F1010804
:1040C000F4DC5B462146179A0598ABE62D0000000C
:1040D0002B000000200000002DE9F04104460025DF
:1040E0001E461746880404D405E039462020B04710
:1040F0006D1C641EF9D52846BDE8F0812DE9F0411C
:10410000044600251E469046C80301D5302700E02E
:104110002027880404D505E041463846B0476D1C89
:10412000641EF9D52846BDE8F08110B530B10368AA
:1041300023B1D0E90121914201D204E0002010BD59
:10414000491C816020B1914202D25C5C202CF7D9DD
:104150009142F4D1491E816010BD00002DE9F0416B
:1041600004460027104E1BE0A0892568C0050BD42B
:10417000A06820B1FFF7F2FFA089C00504D4206930
:1041800010B1716888472761A089800504D4206A2E
:1041900010B17168884727627168204688472C46AD
:1041A000002CE1D1BDE8F08124000020002901DAD3
:1041B0000020704700F0D8B8002200F0E0B80000FE
:1041C00030B50D4C0D4A0E4B0E4988B10A6005689A
:1041D00005B10D604B60406800B148600020886008
:1041E0000868904203D14868984200D18C6030BD85
:1041F00081E81C0030BD000039540008F937000880
:104200007537000824000020002803D0007B2028F8
:1042100001D00020704701207047002803D0007BA8
:10422000102801D0002070470120704710B50168A8
:1042300028208847040002D02821FCF771F8204686
:1042400010BD0022114600F06FB800002DE9F047C4
:1042500088B00F4604469A4616461C216846FCF76D
:104260005FF82F480025002C0560456055D0814639
:10427000E7B3CDE900470295D9E90212D9F8100059
:104280000491CDE9052009F10800FFF7CFFF5FEAAF
:1042900000082BD000986F4608B1029808B100279B
:1042A0000BE00198042808D903221EA10098FCF70E
:1042B0007CF810B90298C01C02903846FFF735FF11
:1042C0000146404600F0E8FB68B1BAF1000F13D098
:1042D0006846FFF72AFFDDE90101814203D2029916
:1042E0000098405C40B14046FFF738FFDDE901101F
:1042F00088420AD205460BE01EB102990098084494
:104300003060404608B0BDE8F087081E00D0451E6A
:104310000EB160193060C9E900450020F2E70000E5
:104320001C000020EFBBBF0070B515460E46040010
:1043300009D0FCF71CF8411C2B4632462046BDE84C
:104340007040FFF783BF002070BD704713B54FF07A
:10435000FF33012269460248FEF7EFFA00981CBDC0
:104360005402002000207047002807D0806801E038
:104370000068491E002801D00029F9D170472DE9B5
:10438000F0418846A8B3B8F1000F33D084680AB969
:104390000AE024686CB3216A59B34046FBF7EEFF8C
:1043A0000028F6D120E024681CB3266A5FEA0805DD
:1043B000F9D0002EF7D0B54218D002E098B16D1CAC
:1043C000761C2878FBF78DFF07463078FBF789FFCE
:1043D00087422878F2D0FBF784FF05463078FBF758
:1043E00080FF8542DFD124B1206A10B12046BDE8AC
:1043F000F081FFE70020FAE72DE9F0410B3020F0D3
:104400000706104D19E02068B04215D3B0420AD912
:10441000871B201DD4F80480FBF769FFA019C0E9B1
:104420000078286004E060682860201DFBF75FFFCB
:10443000201D2660BDE8F081251D2C68002CE2D1EE
:104440000020F7E7400100200449002281F8C02045
:1044500051F8BC2F10440860704700000459002038
:10446000FDF712FAFEF7A0FDFEF746FBFEF7FCFA99
:10447000FEF71AFCFEF7F4FBFEF7D2FBFEF730FC6A
:1044800000F006F8FEF716FB00F014F8FEE7000057
:10449000EFF3058010B16FF0050070470448016824
:1044A00011B14FF0FF3070470121016000207047CB
:1044B0008800002010B5EFF3058010B16FF0050003
:1044C00010BD08480168012902D04FF0FF3010BD2F
:1044D000054A002182F8141D0221016002F078FAD9
:1044E000002010BD880000200BE000E02DE9FF4116
:1044F0004FEA01034FF00005EFF30581039549BB37
:1045000040B38027182100244AB3166806B1344608
:1045100096691EB13146761E382E02D21679F607FC
:1045200003D0002004B0BDE8F081566906B1B70899
:10453000D2F808C0BCF1000F0DD0D568602D18D39B
:1045400012693AB136B18DE806103A46214602F0BA
:104550001AFE03900DE0D6685EB912694AB903AA43
:10456000CDE90012BAB2214602F0E0FD012800D0E8
:1045700003950398D6E702F01FB900F0D9BE70B5D5
:1045800013460D46044600221946284602F050FB09
:10459000206008B1002070BD6FF0020070BD10B542
:1045A000531C0BD04FF47A735A43B2FBF3F202F070
:1045B000E7FC012805D06FF0010010BD4FF0FF327D
:1045C000F5E7002010BD10B5531C0CD04FF47A73E2
:1045D0005A43B2FBF3F2002302F0C2FB012805D0DC
:1045E0006FF0010010BD4FF0FF32F4E7002010BD66
:1045F0007CB51546DDE90642CDE90020C4F38F0203
:10460000284602F093FD012802D04FF0FF307CBD18
:1046100000207CBD4FF47A714843B0FBF1F002F00A
:104620006FB92DE9F04107460025C8680C462E46B3
:10463000B0F57A7F5BD2401CE0602168A068095C1D
:104640005B2954D1401CA0602046FFF76EFD4CB1A1
:10465000D4E90110884203D22268125C5D2A33D06B
:10466000884203D3A068401EA06040E0401E04F1D1
:104670001008A0604046FFF7D9FD98B30DB3306035
:1046800046600646A068401CA0602046FFF74DFD2E
:104690002146304600F000FA30B32046FFF745FDD2
:1046A00014B3D4E90110884203D22168095C2C2993
:1046B000E0D06268904217D22168085C5D2813D16F
:1046C00002E005462E46DDE7E068401EE06005B1E9
:1046D0006E602020C7E90250A068401CA060012045
:1046E000BDE8F081FFE715B12846FFF737FD002050
:1046F000F6E7034610B500200246995CA1F13004AC
:10470000092C01D830380AE0A1F14104052C01D868
:10471000373804E0A1F16104052C08D85738084463
:10472000032A00D20001521C042AE6D310BD002047
:1047300010BD00002DE9F0474FF000092DED028B70
:1047400082B007460C004FF02E0A48464D46C84638
:10475000CDF8009041D02368DBB3D4E9012122E0F9
:104760005E18865D342E1BD00ADCA6F12B06092EBE
:104770001CD2DFE806F0151B152F1B1515151500AB
:10478000382E0DD006DC352E0AD0362E08D0372E26
:104790000CD105E0392E03D0452E01D0652E05D170
:1047A0006D1C401C14B10E189642D9D32169681CA7
:1047B0008847060011D0A16820682A460144304687
:1047C000FBF795FD06F80590B8F1000F13D0002017
:1047D0000FE002E04FF00108E2E7002002B0BDEC7C
:1047E000028BBDE8F087315C2E2901D106F800A0CC
:1047F000401CA842F7D369463046FEF7E9FF00980F
:10480000B0EE408AF0EE608A864203D1616930469C
:104810008847E2E79FED150B87ED068B53EC102BD5
:1048200051EC180BFCF7D0F802D86FF000400FE005
:104830009FED100B51EC180B53EC102BFCF7ACF860
:1048400002D84FF0004003E051EC180BFCF785F85C
:1048500078610820F8600099A068891B0844A0606E
:104860006169304688470120B8E700000000C0FFBA
:10487000FFFFDF41000000000000E0C12DE9F04132
:1048800007460026C8680C463546B0F57A7F7BD2CD
:10489000401CE060002C77D0D4E90110884273D22C
:1048A0002168095C7B296FD1401CA0602046FFF77E
:1048B0003CFCD4E90110884203D22268125C7D2AB4
:1048C0004FD08842A0F10100A0605DD204F1100831
:1048D0004046FFF7ABFCE8B30EB3286045600546E1
:1048E000CCB3D4E90110401C88424AD2A0602046D3
:1048F000FFF71BFC2146284600F048F858B3204635
:10490000FFF713FC2869286200202861D4E9011010
:10491000884236D22168095C3A2932D102E0064643
:104920003546DDE7401CA0602046FFF7FEFB214630
:10493000284600F0B1F870B12046FFF7F6FBD4E945
:104940000110884203D22168095C2C29C0D062681A
:10495000904201E014E014E013D22168085C7D2845
:104960000FD1E068401EE06006B175604020C7E9E5
:104970000260A068401CA0600120BDE8F08103E057
:1049800016B13046FFF7EAFB0020F6E72DE9F843C1
:1049900080468B6808684FF00009C418CDF8009075
:1049A00008680E46651CC15C641C22296ED1002279
:1049B000716808E0BCF15C0F04D17F1C8F4265D2A6
:1049C000521C641C641C271A8F4204D294F800C045
:1049D000BCF1220FEED1271A8F4257D2217822291B
:1049E00054D11844201A801A3169401C88470700A6
:1049F0004CD0009737E029785C2905D000986D1CD1
:104A000000F8011B00902EE00220611B012939DB18
:104A10006A78662A14D008DC222A12D02F2A10D0F5
:104A20005C2A0ED0622A2DD108E06E2A0ED0722A9E
:104A30000ED0742A0ED0752A24D10DE0082200E091
:104A40000C22009901F8012B00910BE00A22F8E7F3
:104A50000D22F6E70922F4E76A462146284601F0CE
:104A6000AFFD78B10544A542C5D3009981F8009007
:104A70001021C8E903173068201A401CB0600120DB
:104A8000BDE8F88317B171693846884715B13068B9
:104A9000281AB0600020F3E770B50C0005465ED020
:104AA000206800285BD0A16863680A1D9A4205D877
:104AB0000844042231A1FBF778FC78B3A06862684F
:104AC000411D0126914206D82168052208442DA1E6
:104AD000FBF76BFC28B3A0686268011D914206D801
:104AE00021680422084429A1FBF75FFCE8B1D4E95E
:104AF0000101814203D22268525C222A1DD08142E8
:104B000021D22268525C2D2A02D0303A092A1AD8C2
:104B100021462846BDE87040FFF70CBE0420E8603F
:104B200006E0EE60A068401D04E002206E61E860CF
:104B3000A068001DA060012070BD21462846BDE888
:104B40007040FFF723BF814203D22268525C5B2A88
:104B500007D0814203D22068405C7B2807D0002028
:104B600070BD21462846BDE87040FFF75ABD21467A
:104B70002846BDE87040FFF781BE00006E756C6C82
:104B80000000000066616C7365000000747275655A
:104B9000000000002DE9F041134C0F460546E66881
:104BA0002068001D01F075FD681C07D137B1216830
:104BB000BDE8F0410D48091D01F0BDBD2068354438
:104BC000B5424560216805D2206CBDE8F041091D61
:104BD00001F099BDE06B091D01F095FDA06A8542C9
:104BE00000D2A562BDE8F08130000020EC08002072
:104BF0002DE9F041054601F0ABFD2D4CA068401CAD
:104C0000A06020682B4F10B1606930B32BE02560A5
:104C1000A068012827D1002606EB860007EB80005C
:104C200001F063FD761C382EF6D3234801F05DFDBC
:104C30002148143001F059FD1F48283001F055FD7E
:104C40001D483C3001F051FD1B48503001F04DFD36
:104C50001948E0631430206405E02068E96AC06AFE
:104C6000884200D82560606A401C60626864E86A17
:104C70002169884200D9206100EB800007EB8000A9
:104C8000291D01F058FD01F083FD606900280CD05A
:104C90002068E96AC06A884207D208494FF080500C
:104CA0000860BFF34F8FBFF36F8FBDE8F081000046
:104CB000300000203C0400209C08002004ED00E0AF
:104CC00038B501F045FD104C2068C8B90F4801F017
:104CD0000CFD0E48143001F008FD0C48E060143063
:104CE00020610A4B0020F03B009003F1500210219C
:104CF0000A2001F0BEFF206010B105A101F0CAFD3D
:104D0000BDE8384001F044BD74000020F0090020E7
:104D1000546D72510000000030B4026C0B46002A42
:104D20000BD0C1681144C1608468A14201D30168FD
:104D3000C16030BC1846FBF7DABA30BC70472DE9C9
:104D4000F041856B174604460026026C82B1C7B15C
:104D5000E068FBF7CCFAE168206C091AE160226890
:104D6000914202D2A168081AE060022F16D017E023
:104D70002068A8B9A06802F0B1FA06460020A06039
:104D80000EE06068FBF7B3FA216C6068084460606D
:104D9000A168884204D32068606001E005B16D1EFF
:104DA0006D1CA5633046BDE8F08110B5044690F84F
:104DB0005D0058B101280CD002280FD0502080F39C
:104DC0001188BFF34F8FBFF36F8FFEE7206B01F0A9
:104DD000F3FC2046BDE8104001F0EEBC10BD000021
:104DE00010484FF47051420706D0C01D0D4920F005
:104DF0000700411AC1F570510B4A00230144C2E972
:104E000000030839183A21F0070111604B600B606C
:104E10000B1AC0E9001393604FF0004053605061DB
:104E200070470000D8100020A4000020154E164C3A
:104E3000A6F29C474FF08058DFF8509012E000BF78
:104E400001F086FCF068C568281D01F022FCA0680E
:104E5000401EA0606068401E606001F099FC28461A
:104E6000FFF7A3FF60680028EAD13868012805D958
:104E7000C9F80080BFF34F8FBFF36F8F01F032FC92
:104E8000F0E70000D80800203000002004ED00E02A
:104E900070B51D46049C51B1C4F80020C4E90F014F
:104EA0000121204601F018FF84F84C5070BD2460A9
:104EB000F4E700002DE9F05F8846DDE90B94154624
:104EC000834691009A460A9EA522206BFBF721FAA1
:104ED0006FF00301206B01EB8501084420F0070708
:104EE000780707D0502080F31188BFF34F8FBFF3AE
:104EF0006F8FFEE70025B8F1000F0FD05FF00000C4
:104F0000221818F8001082F8341018F8001011B1A7
:104F1000401C1028F4D384F8435001E084F8345046
:104F2000382E00D33726E662C4E91365201D01F050
:104F3000E7FB04F1180001F0E3FB2461C6F138003F
:104F40006462A0616565A56584F85C505246594667
:104F5000384600F05BFA2060B9F1000F01D0C9F8C3
:104F60000040BDE8F09F000030B5114900E0114657
:104F70000A688242FBD34B685C18844203D14068C4
:104F800018444860084643681C18944209D1084CEC
:104F9000183C2468A24209D052681A4442600A6848
:104FA00012680260814200D0086030BD0460F9E7F9
:104FB000A400002070B5002441600B4D00619142B7
:104FC00006D8D11A8269914206D2011D286907E0EC
:104FD0009A4203D2994201D3012403E0011DE868FB
:104FE00001F091FB204670BD7400002010B504460E
:104FF00001F0AEFBA06B28B15FF0000401F0C8FB2C
:10500000204610BD0124F9E730B589B03C4D6EE073
:105010000498002806DADDE90601059A904704980D
:10502000002864DB069C606910B1201D01F031FB93
:1050300003A800F0D7F8024604980A2857D2DFE800
:1050400000F00505052D334A05052D3394F8280099
:1050500040F0010084F828000599A069059B0144EF
:105060002046FFF7A7FF68B3216A2046884794F8D7
:10507000280040073BD5002000900598A169002337
:1050800042181946204602F033FAD8B9502080F36E
:105090001188BFF34F8FBFF36F8FFEE714F8280F0F
:1050A00020F00100207022E094F8280040F0010078
:1050B00084F828000598A06128B18118134620467D
:1050C000FFF778FF13E0502080F31188BFF34F8F74
:1050D000BFF36F8FFEE794F82800810703D42046C2
:1050E00001F06AFB03E020F0010084F828000022B0
:1050F00004A9286801F044FF002889D109B030BD17
:10510000740000202DE9FC410F46054601F0A6FC85
:1051100001A800F067F80446019818B102F056F9AA
:10512000BDE8FC81254EAFB130690068D0B30027DF
:10513000291B3A46306801F0C1FB02F047F900280C
:10514000EED11F494FF080500860BFF34F8FBFF37F
:105150006F8FE5E7A542EBD802F038F9F0682746F3
:10516000C068C468201D01F094FA94F82800410733
:1051700019D5A0692B4641193A462046FFF71AFF78
:10518000A8B100200346014600902A46204602F0BE
:10519000AFF960B9502080F31188BFF34F8FBFF390
:1051A0006F8FFEE707E020F0010084F82800216AF5
:1051B00020468847B4E70127BAE7000074000020C2
:1051C00004ED00E00648C16B096829B1C16BC968EC
:1051D000C9684968816270474FF0FF31FAE7000003
:1051E0003000002070B5054602F006F8064E044671
:1051F000B068844203D200F009F8012000E00020EA
:1052000028602046B46070BD74000020F8B5194DC8
:1052100020E0C068C4680668201D01F03AFA216ADF
:105220002046884794F82800400713D5A0693044E9
:10523000B04206D924616060211DE86801F063FA7C
:1052400008E000200346014600903246204602F066
:105250004FF938B1E86801680029DAD12969C5E950
:105260000310F8BD502080F31188BFF34F8FBFF3B8
:105270006F8FFEE77400002008484068401C4FF024
:10528000500080F3118804D0BFF34F8FBFF36F8FAE
:10529000FEE7BFF34F8FBFF36F8FFEE7AC00002038
:1052A000074CE068016841B1C0680021D0F80000F7
:1052B000FFF728FFFFF7A8FEF3E701210020F7E73B
:1052C000740000202DE9F041044601F041FA94F900
:1052D000455004F1240609E0606A48B1304602F006
:1052E0003DF808B101F03AFB6D1E6DB2002DF3DC04
:1052F0004FF0FF3684F8456001F04AFA01F028FAD1
:1053000094F9445004F1100709E0206948B1384687
:1053100002F024F808B101F021FB6D1E6DB2002DE2
:10532000F3DC84F84460BDE8F04101F031BA0000DC
:105330002DE9F0410546002701F090FB324E306820
:1053400008B9FFF74DFD706905424ED1C5B3083568
:1053500068070ED005F00700C0F108000544680793
:1053600007D0502080F31188BFF34F8FBFF36F8FAA
:10537000FEE72DB37068854237D8234818300146C0
:105380000C6801E020460C466168A94202D22168FF
:105390000029F7D131688C4227D007682168016065
:1053A00060680837411B10290FD96019420708D0DF
:1053B000502080F31188BFF34F8FBFF36F8FFEE74C
:1053C00013E041606560FFF7CFFD61687068401AC7
:1053D0007060B268904200D2B060706901430020F2
:1053E000C4E90001F068401CF06001F0EFFF7807AD
:1053F00007D0502080F31188BFF34F8FBFF36F8F1A
:10540000FEE73846BDE8F0818C00002010B5031F90
:105410004FF080741C601B1F21F001011960191FDF
:10542000044B0B6014390A60091F6FF00202443804
:105430000A6010BD795200082DE9F04704008A4641
:1054400016D054F8047CD4F800903E1F564500D97D
:1054500056462046FEF78EF90546884632462146D6
:105460005046FEF7C9FF40B1C0F80090BDE8F08794
:10547000BDE8F0470846FEF7BFB944E9017955B1E8
:1054800029686A18211F8A4202D9611B091F2960F5
:10549000C5F80480EAE7024AC2F80080E6E70000A7
:1054A0004001002010B5FDF739FC0F22BDE8104087
:1054B00005210148FFF763B818000020012100F022
:1054C0004DB80B784BB14A7802F00F02082A04D08D
:1054D00002685AB11278134208D090F86000C007F1
:1054E00002D14878C00601D5002070474FF0FF3048
:1054F0007047000010B500F093FA002805D003496A
:10550000896BBDE8104001F015B810BDBC0000204B
:10551000F8B505468089E989401A04B2202607E0DB
:105520008DF80060AA6E012168469047641E24B27F
:10553000002CF5DC297B2846BDE8F84000F07AB85D
:1055400010B500F06DFA002803D0BDE8104000F05F
:1055500049BB10BD4FF0FF31AFF30080F8B50446F2
:10556000481C03D00023E28912B103E00123FAE7CB
:1055700001295DD0A089824201D14D1C58D000255F
:10558000824201D1012901D0184613E0521E401E6B
:10559000E28180B2A08121690D542046BDE8F84027
:1055A000012100F047B822691144421E465C401CAC
:1055B0008E5400B2A289E189521A8242F3DCA0899A
:1055C000401EA081082643B9E089401EE0818DF885
:1055D0000060A26E012168469047A1892069455468
:1055E000B4F90E5009E020690121405D8DF80000FA
:1055F000A26E684690476D1C2DB2A089A842F2DCCD
:1056000020208DF80000A26E012168469047A089F5
:10561000E189401A401C05B208E000BF8DF8006027
:10562000A26E0121684690476D1E2DB2002DF5DC5B
:10563000F8BD000070B50C46054603E003A12846FE
:1056400000F078FF641EE4B2F8D270BD08200800B4
:105650004FF0FF3100F02BBA10B5044600F006F809
:105660002046BDE81040012100F0F6BEF8B5044622
:10567000808900283CD021690025224E0D5494F8E1
:105680006000C00728D0204600F05DFA0820009096
:10569000A189202304F11402206900F04DFD0004CB
:1056A000000CE086E581A58122D017A1204600F0FC
:1056B00041FF00232046A26D616900F019FC010042
:1056C00004D02046BDE8F84000F0B4BB2046B169E4
:1056D000BDE8F84000F02EBF206881682069FAF725
:1056E0004DFE30B1716B204600F024FFA581E581AD
:1056F000F8BD94F8600040F0010084F86000316863
:10570000F1E70000BC0000200D0A00000178272905
:1057100006D0014600200A785C2A03D01046704764
:10572000411CF7E749786E290FD004DC3029F6D008
:10573000622904D105E0722905D0742907D00846F2
:105740007047082070470D2070470A2070470920D5
:105750007047F0B50746002539780A260123284608
:105760002C462D2908D00021CA19002192F800C02A
:10577000BCF1300F04D01EE04FF0FF330121F3E7FE
:105780005178782907D0582905D0622905D04229B7
:1057900003D002210FE003210DE001210BE092F87C
:1057A00000C0BCF12E0F06D192F801C0BCF1000F71
:1057B00001D0042111E012F801CBBCF1000FEED1B1
:1057C000012908D0022903D0032906D1102603E0BD
:1057D0000826012501E0022602253D445A1C02D07C
:1057E000002215441FE00122FBE72E2A05D0A2F17A
:1057F0003007092F03D8FAB20FE0012412E0A2F11A
:105800006107052F01D8573A04E0A2F14107052F9F
:1058100002D8373AD2B200E0002200FB062004EBA7
:10582000840254006D1C2A78002ADED1042913D189
:1058300094B100EE100AB8EE401A00EE104AB8EE2D
:10584000400AC1EE000A00EE103AB8EEC00A20EE9F
:10585000800A10EE100AF0BD5843F0BD2DE9F0416A
:10586000044608781E4622B1242850D14A7822B92D
:105870004DE027280AD02D2803D0A0F13002092AB4
:105880000BD80846FFF765FF306033E04A78002AFE
:10589000F3D00846FFF73AFFF6E74FF00008242858
:1058A00006D080B300270D460C46222811D01BE0FD
:1058B0004A78002AF6D000232046491CA26D00F049
:1058C00017FB010003D0204600F0BEF8DCE740469D
:1058D000DAE76C1C254607E05C280ED0222813D09E
:1058E000E8557F1CBFB2641C20780028F4D105F86D
:1058F000078035600020BDE8F0812046FFF706FFF5
:10590000E855641CEDE702E005F80780E9E74FF091
:10591000FF30F0E72DE9F04F8BB00C4683469A46F6
:105920001546202103A8FAF7FBFCA0786E1E00F0B4
:105930000F07B74200DC374600254FF0FF380DF166
:105940000C090AE00AEB850009EB85034168002297
:105950005846FFF783FFB0BB6D1CB542F2DB082F42
:105960003DD2DFE807F004090D12181E2631A068A9
:1059700080470BB0BDE8F08FA16803988847F8E72F
:10598000DDE90301A2689047F3E703ADA36895E85A
:1059900007009847EDE703ADA46895E80F00A0471E
:1059A000E7E7A468079803AD009095E80F00A047CB
:1059B000DFE7A468DDE9070103ADCDE9000195E863
:1059C0000F00A047D5E70AE007ABA46893E80700FB
:1059D0008DE8070003AD95E80F00A047C9E74046F2
:1059E000C7E7C0687047000000B500210B4A3023AC
:1059F0005354491CC9B20929FAD3417801F00F0167
:105A0000012903D9072901D9082901D8406800BD17
:105A10004068024900F0C8FC004800BDEC4C002082
:105A20000849002051F8202032B192F860209207F6
:105A300002D551F820007047401C00B20528F1DB68
:105A400000207047D84C00204A78002002F00F0256
:105A5000921E062A06D2DFE802F003060A0D0D0F99
:105A60008868006870478868B0F9000070478868E7
:105A700000787047886870478868416809B1006895
:105A800008470020704710B50B460446FFF7C8FFD3
:105A900000280BD0012C05D008DD5968BDE8104066
:105AA00000F0AEBCBDE8104000F09CB810BD70B571
:105AB00000250446002918DDB4F95430A3F1010093
:105AC000A4F85400B4F85010B4F85200814201D93F
:105AD0000A4600E002465242934212DC814200D95B
