:020000040800F2
:10000000005F00205D020008132600085923000845
:100010001126000887080008B92F0008000000001A
:100020000000000000000000000000009D0100082A
:100030005109000800000000F90100086D280008BF
:1000400077020008770200087702000877020008AC
:10005000770200087702000877020008770200089C
:10006000770200087702000877020008770200088C
:100070007702000877020008770200088908000864
:1000800095080008A1080008770200087702000818
:10009000770200087702000877020008770200085C
:1000A000770200087702000877020008770200084C
:1000B00077020008770200082D290008770200085F
:1000C000770200087702000877020008770200082C
:1000D000E1270008A12F0008AD2F000877020008D3
:1000E000770200087702000877020008770200080C
:1000F00077020008770200087702000877020008FC
:1001000077020008770200087702000877020008EB
:1001100077020008770200087702000877020008DB
:1001200077020008770200087702000877020008CB
:1001300077020008770200087702000877020008BB
:1001400077020008770200087702000877020008AB
:10015000770200087702000877020008770200089B
:10016000770200087702000877020008770200088B
:1001700077020008770200087702000800000000FC
:100180007702000877020008DFF80CD000F0FAFAD6
:100190000048004791390008005F00202C4B196887
:1001A0000868B0E8F04F80F30988BFF36F8F4FF015
:1001B000000080F3118870470000000008480068C4
:1001C000006880F308884FF0000080F3148862B65E
:1001D00061B6BFF34F8FBFF36F8F00DF00BF00BF6B
:1001E00008ED00E0DFF80C00016841F470010160E7
:1001F000704700BF88ED00E0EFF30980BFF36F8F19
:10020000134B1A681EF0100F08BF20ED108A20E96A
:10021000F04F106009B44FF0500080F31188BFF325
:100220004F8FBFF36F8F05F0F9FA4FF0000080F3A6
:10023000118809BC19680868B0E8F04F1EF0100F6B
:1002400008BFB0EC108A80F30988BFF36F8F704746
:1002500018000020EFF30580704700000648804733
:1002600006480047FEE7FEE7FEE7FEE7FEE7FEE79B
:10027000FEE7FEE7FEE7FEE71D290008890100080A
:100280002DE9F05F0546002092469B4688460646CB
:10029000814640241BE0284641464746224600F05E
:1002A000A9F853465A46C01A914110D31146184630
:1002B000224600F090F82D1A67EB01084F462246BF
:1002C0000120002100F087F817EB00094E41201EA5
:1002D000A4F10104DFDC484631462A464346BDE826
:1002E000F09F40EA01039B0703D009E008C9121FF1
:1002F00008C0042AFAD203E011F8013B00F8013BE0
:10030000521EF9D27047D2B201E000F8012B491E0B
:10031000FBD270470022F6E710B513460A460446A2
:100320001946FFF7F0FF204610BD30B505462A46B6
:100330000B4612F8010B13F8014B08B1A042F8D09C
:100340001CB1002802D06D1CF1E7284630BDCAB2AE
:10035000401E10F8011F8A4202D00029F9D1002066
:100360007047421C10F8011B0029FBD1801A70470E
:1003700010B5002200E0521C835C8C5CA34201D1CA
:10038000002BF8D1D8B2E1B2401A10BD30B5054605
:100390000020034600E05B1C934205D2EC5CC85C85
:1003A000201A01D1002CF6D130BD30B50B460146E4
:1003B00000202022012409E021FA02F59D4205D304
:1003C00003FA02F5491B04FA02F52844151EA2F1AE
:1003D0000102F1DC30BD202A04DB203A00FA02F1F0
:1003E000002070479140C2F1200320FA03F3194323
:1003F00090407047202A04DB203A21FA02F00021C5
:10040000704721FA02F3D040C2F120029140084324
:10041000194670472DE9FE4F804681EA0300C00F60
:100420000C46009021F0004123F00045B8EB02009B
:10043000A94105D24046214690461C460B4602463D
:1004400023F00040104347D0270DC7F30A00C3F341
:100450000A510290401A019040286BDAC3F313004E
:1004600040F4801B0098924620B10023D2EB030A8F
:1004700063EB0B0B01985946C0F140025046FFF761
:10048000AAFF06460D4650465946019A00F08CF9DF
:1004900010EB08006141002487EA115284EAE773F7
:1004A0001A4340D0009A62B3019A012A4FEA0752D8
:1004B00015DC001B61EB02014FF0004202EA07521B
:1004C000CDE90042001C41F5801132462B4600F078
:1004D0008CF903B0BDE8F08F40462146F9E7001BD8
:1004E00061EB0201001C41F5801300185B412018EC
:1004F000A2F5001747EB030140EAD570B6196D412C
:1005000011E06D084FEA360645EAC0754FEA07521A
:10051000001B61EB0201001C41F5801149084FEA04
:1005200030000019514132462B4603B0BDE8F04F70
:1005300000F04CB90098012240000023D0EB0202E9
:1005400063EBE073009821464FEAE074B8EB0000DB
:1005500061EB0401E9E783F000435BE781F00041D0
:1005600058E72DE9FE4F81EA030404F0004421F02E
:10057000004100944FF0000B23F0004350EA0104C7
:100580005ED052EA03045BD0C3F30A54C1F30A55A8
:100590002C44A4F2F3340194A0FB0254C1F31301E0
:1005A00041F48011C3F3130343F4801301FB0244AD
:1005B00000FB034E840A970A44EA815447EA8357B2
:1005C000A4FB076802958D0A05FB07854FEA932C6B
:1005D00004FB0C542705029D4FEA065847EA1637DC
:1005E000B5EB08056EEB070C870E920E47EA8117F4
:1005F00042EA8312A7FB0201B6EB0B0164EB000495
:100600002B0D43EA0C335E1844EB1C50DA4651467E
:10061000E7FB0201C5F313044FEA0B3343EA14531B
:100620004FEA0432019C43EA0603A4F10C0402944D
:10063000009CCDE900B400F0D8F803B0BDE8F08F1D
:1006400000200146F9E72DE9F04D81EA030404F0AA
:10065000004B21F0004514464FF0000A23F0004102
:1006600050EA050220D054EA01021DD0C5F30A5712
:100670000246C5F31303C1F31300C1F30A5640F455
:10068000801543F48013A7EB0608101BD64608F22A
:10069000FD3873EB050002D308F1010801E0921860
:1006A0005B41B8F1000F03DA00200146BDE8F08D90
:1006B00000204FF48011064684460EE0171B73EBB2
:1006C000050705D3121B63EB050306434CEA010C37
:1006D00049084FEA300092185B4150EA0107EDD11A
:1006E00052EA030012D082EA040083EA05010843BB
:1006F00005D0101BAB4106D20122002306E00022E8
:100700004FF0004302E06FF0010253101AEB0600B5
:100710004CEB085110EB0A0041EB0B01BDE8F04D2A
:1007200000F054B8C1F30A52C1F3130140F2FF3391
:1007300041F480119A4202DA00200146704740F2EB
:1007400033439A42A2F2334202DC5242FFF752BED6
:10075000FFF741BE30B5041E71F1000404DB4FF019
:100760000044404264EB0101141E73F1000405DBF8
:100770001C464FF00043524263EB0403994208BF0A
:10078000904230BD064C074D06E0E06840F00103A2
:1007900094E8070098471034AC42F6D3FFF7F8FC12
:1007A0000468000824680008202A06DBCB17203ADA
:1007B00041FA02F043EAE07306E041FA02F3D04066
:1007C000C2F12002914008431946704710B5141E2B
:1007D00073F1000408DA401C41F1000192185B41FA
:1007E0001A4301D120F0010010BD2DE9F04D9246D1
:1007F0009B4611B1B1FA81F202E0B0FA80F22032E8
:100800009046FFF7E8FD04460F4640EA0A0041EA39
:100810000B0153465A46084313D0114653EA0100D0
:1008200019D0C8F140025046FFF7E4FD05460E46D8
:10083000504659464246FFF7CEFD084305D00120F9
:1008400004E020463946BDE8F08D0020054346EA25
:10085000E0762C4337430A986305E40AA0EB0800CE
:100860000022FD0A44EA47540A3002D5002001461E
:10087000E9E7010510196941DDE9084500196941F9
:10088000BDE8F04DA2E7FEE7014800F001B9000025
:10089000D4010020014800F0FBB80000C402002091
:1008A000014800F0F5B80000240300200168182377
:1008B000CAB2103AB2FBF3F2054B6FF30901032AF7
:1008C0009B5CC36500D9091D81650846704700001F
:1008D000EC62000810B5014600208B698A6A4FF06F
:1008E000C07453B1B3F5005F15D072B1012A0CD0BA
:1008F000022A0AD0032A09D104E01AB1012A06D03B
:10090000022A03D1C96AC90100D5012010BDC96AF4
:10091000A142FAD010BD002AF7D0012AF2D0022A53
:10092000F3D0032AF3D010BD30B50468256825F450
:1009300080252560046863608368402B036803D0CA
:1009400099600068C26030BD9A600068C16030BDC7
:10095000704700000A21014801F09ABEC8580020E3
:1009600003494FF4006201F5006001F0C3BE0000CE
:10097000C85000200A460146014801F0C1BE0000EF
:10098000C85800200A460146014801F0E7BE0000B1
:10099000C8580020002801D00149086070470000B5
:1009A00020010020044A1268002A03D01268002A9D
:1009B00000D01047704700002001002010B5044807
:1009C000FFF7E8FF0248BDE81040001D02F036BB0B
:1009D000FC00002072B6FEE72DE9F0410446876D69
:1009E00000F0C6FA064694F835000025022806D025
:1009F0008020606584F834500120BDE8F0812068D3
:100A0000016821F0160101602068416921F0800130
:100A10004161206C08B9A06C20B12068016821F008
:100A2000080101602068016821F0010101600CE00B
:100A300000F09EFA801B052807D92020606503205E
:100A400084F8350084F83450D7E720680068C00780
:100A5000EED194F85C103F208840B860012084F803
:100A6000350084F834500020C7E790F8351002298B
:100A700003D08021416501207047052180F83510A1
:100A80000068016821F0010101600020704700004A
:100A90002DE9F84304464FF00009CDF80090634873
:100AA0004FF41651A56D0068B0FBF1F72E6894F86D
:100AB0005C10082000FA01F131420FD021680A6869
:100AC00052070BD50A6822F004020A6094F85C1001
:100AD0008840A860606D40F00100606594F85C108B
:100AE0004FF0010808FA01F0304208D02168496946
:100AF000090604D5A860606D40F00200606594F8B6
:100B00005C1004208840304208D0216809688907B9
:100B100004D5A860606D40F00400606594F85C1036
:100B200010208840304218D021680968090714D580
:100B3000A86020680168490304D50068000308D54F
:100B4000A16C07E00168C90503D4016821F0080120
:100B50000160216C09B12046884794F85C10202080
:100B60008840304231D021680968C9062DD5A86077
:100B700094F8350005282068016806D0490347D558
:100B8000006800031DD4616C1CE021F016010160B7
:100B90002068416921F080014161206C08B9A06C96
:100BA00020B12068016821F00801016094F85C1010
:100BB0003F208840A86084F8358084F83490216D07
:100BC0001FE0E16B09B120468847606D00282BD0FB
:100BD000606DC00714D0052084F8350020680168D6
:100BE00021F0010101600098401C0090B84203D838
:100BF00020680068C007F6D184F8358084F8349006
:100C0000E16C002910D001B02046BDE8F043084750
:100C10000168C905D5D4016821F01001016084F88C
:100C2000358084F83490CCE7BDE8F88310000020CC
:100C30002DE9F041044600F09BF906465CB1022024
:100C400084F83500002584F834502068016821F0CC
:100C5000010101600DE00120BDE8F08100F088F99C
:100C6000801B052805D920206065032084F8350005
:100C7000F2E720680068C007F0D1226811682048B8
:100C80000140D4E901031843D4E903363343184340
:100C900063691843A3691843E3691843236A184337
:100CA0000843616A042903D1D4E90B1319430843AB
:100CB000106020684069666A20F0070130460E43E4
:100CC000012704280CD1A06A0643E06A40B12046FF
:100CD000FFF700FE20B14020606584F83570BAE768
:100CE000206846612046FFF7E1FD94F85C203F2133
:100CF00091408160656584F835700020ACE70000A4
:100D00003F8010F02DE9F0410446866D90F83400E4
:100D1000002501280DD0012084F8340094F83570A6
:100D20000020012F07D084F8340002252846BDE8B2
:100D3000F0810220FBE7022784F8357060652046C9
:100D4000FFF7F2FD94F85C103F208840B060206807
:100D5000016841F016010160206C20B12068016833
:100D600041F0080101602068016841F00101016063
:100D7000DCE700002DE9F84FDFF8BCA100220125D7
:100D800003264FF00F090AF1040BAAF1040E00BF6D
:100D90000B6805FA02F42340A34270D10F7907F0E3
:100DA0000307012F01D0022F16D187684FEA4208AE
:100DB00006FA08FC27EA0C07D1F80CC00CFA08FC6C
:100DC0004CEA070CC0F808C04768A7430C79C4F385
:100DD000001494403C4344600C79E443A4070AD0D7
:100DE000C4684FEA420C06FA0CF7BC438F6807FA56
:100DF0000CF72743C7600C7904F00304022C12D1CE
:100E0000D40800EB840CDCF820405707FF0E09FAE9
:100E100007F824EA0804D1F8108008FA07F848EA2D
:100E20000408CCF8208004684FEA420C06FA0CF75C
:100E3000BC430F7907F0030707FA0CF72743076055
:100E40004C6814F4403F70D03C4C276847F480470E
:100E50002760246822F0030704F480440094384C8F
:100E600007EB040CDCF8084897074FEA177809FAF3
:100E700008F7BC43334FB84202D1002724E054E0C6
:100E8000314FB84201D101271EE0304FB84201D1A5
:100E9000022719E02E4FB84201D1032714E02D4F4D
:100EA000B84201D104270FE02B4FB84201D10527EA
:100EB0000AE02A4FB84201D1062705E0284FB84280
:100EC00001D1072700E0082707FA08F72743CCF8E5
:100ED0000878DAF800405746D1F804C09C435FEA2E
:100EE000CC2C00D51C433C60DBF800405F46D1F8B9
:100EF00004C09C435FEA8C2C00D51C433C60DEF8A8
:100F000000407746D1F804C09C435FEA8C3C00D592
:100F10001C433C60084F083F3C68D1F804C09C4328
:100F20005FEACC3C00D51C433C60521C102AFFF405
:100F30002FAFBDE8F88F0000083C01404438024064
:100F4000003001400000024000040240000802405E
:100F5000000C024000100240001402400018024041
:100F6000001C02400AB1816170470904FBE70000E0
:100F700001488068704700000400002070B504003C
:100F800025D094F83D00002520B984F83C50204637
:100F900000F0B8F8242084F83D002068016821F0B2
:100FA000010101602068016841F40041016020688E
:100FB000016821F40041016000F05CFA4D4A61686B
:100FC000914201D84C4900E04C49884201D20120AD
:100FD00070BD4B492368B0FBF1F15E6826F03F0617
:100FE0000E435E606368934206D94FF4967359438B
:100FF0004FF47A73B1FBF3F12368491C1E6A26F0A3
:101000003F06314319626168914210D84900401E81
:10101000B0FBF1F2521CC2F30B02042A01D20420ED
:1010200022E0B0FBF1F0401CC0F30B001CE0A26812
:10103000F2B301EBC10303EB0116431EB3FBF6F35E
:101040005B1C43F480431B0549D092B301EBC10202
:1010500002EB0111401EB0FBF1F0401CC0F30B008D
:1010600040F4804040F400402168CA694CF6FF73A8
:101070009A431043C861D4E907100143206802680D
:1010800022F0C00211430160D4E90301014320684A
:10109000826848F2FF339A4311438160D4E9050125
:1010A00008432168CA6822F0FF021043C86001E0CB
:1010B0000EE016E02068016841F00101016025643E
:1010C000202084F83D00256384F83E50002070BD48
:1010D00001EB4106431EB3FBF6F35B1CB3E70120B3
:1010E000C2E701EB4101401EB0FBF1F0401CC0F330
:1010F0000B00B7E7A086010080841E0000093D00B8
:1011000040420F0010B586B0044614216846FFF730
:1011100001F913492068884220D112480021026851
:1011200042F002020260006800F002000590C02058
:1011300000901220CDE901010320039004200490C7
:1011400069460948FFF716FE06481030016841F469
:1011500000110160006800F40010059006B010BD99
:1011600000540040303802400004024002488168C8
:101170000278114481607047040000200B4810B5CC
:10118000016841F400710160016841F4806101600F
:10119000016841F480710160032000F09FF80F2086
:1011A00000F006F800F050F8002010BD003C0240AE
:1011B00030B505461F4887B00024016841F004019E
:1011C0000160006806A900F00400009001A800F08A
:1011D00031F90498A8B100F04DF940001649174ABA
:1011E000B0FBF1F11648491E026040F2E732C0E957
:1011F0000324C0E90114846100F08EFC040003D0D4
:1012000015E000F037F9E9E70D4800F0B3FC040001
:101210000DD11E2000F034F8102D07D200222946EF
:101220001E2000F03BF80748056000E0012407B0ED
:10123000204630BD4038024040420F0000080040C8
:1012400084030020080000200C4882B0016841F4AB
:1012500080410160006800F4804000900748001F52
:10126000016841F0805101600068002200F0805068
:1012700000900F21901E02B000F010B844380240D8
:10128000002809DB00F01F02012191404009800085
:1012900000F1E020C0F8001170470000F0B40E4BE0
:1012A0001B680C46C3F30223C3F10705042D00D9C4
:1012B0000425191D072901D2002300E0DB1E0126A9
:1012C00006FA05F1491E214099409E40761E1640BF
:1012D0003143F0BC01F0C8BE0CED00E0064900F05F
:1012E000070208684FF6FF03184040EA0220034A4D
:1012F00010430860704700000CED00E00000FA05A4
:101300002DE9F0470E46050065D0DFF81481D8F8C6
:101310000000F7B200F00700B04207D288F8007072
:10132000D8F8000000F00700B04254D128683D4CC6
:10133000810712D5400703D5206840F4E0502060B3
:101340002878000703D5206840F4604020602068BA
:10135000A96820F0F000084320602878C0072DD04D
:10136000304968680839012812D0022813D00328B0
:1013700011D00968890700292DDA216821F00301BD
:1013800001432160FFF7F4FD814641F2883A0EE007
:1013900009688903EFE709688901ECE7FFF7E8FDD1
:1013A000A0EB0901514502D90320BDE8F087206870
:1013B000696800F00C00B0EB810FEFD1D8F8001095
:1013C000404601F00701B14207D90770006800F0FC
:1013D0000700B04201D00120E7E72878400705D593
:1013E0002068E96820F4E05008432060287800076E
:1013F00006D52068296920F4604040EAC1002060D9
:1014000000F058F82168084AC1F30311515CC84044
:101410000649086006480068FFF7CAFE0020C4E7D6
:10142000003C024008380240F4620008100000202E
:10143000080000200F2202600C4A136803F0030327
:101440004360136803F0F0038360136803F4E05310
:10145000C36012684FF4E05303EAD2020261044809
:10146000006800F00700086070470000083802407C
:10147000003C02400448054900680968044AC1F379
:101480008221515CC840704710000020083802409B
:10149000046300080448054900680968044AC1F368
:1014A0004231515CC84070471000002008380240AB
:1014B00004630008154810B5006810F00C021448C9
:1014C00013D01449042A0FD0082A0ED10F4C241F20
:1014D0002268236802F03F025B0207D52068C0F350
:1014E0008810A0FB010106E0084610BD2168C1F389
:1014F0008811A1FB00010023FEF7C2FE2168C1F3A1
:101500000141491C4900B0FBF1F010BD0838024010
:101510000024F40040787D012DE9F84F04006ED0DE
:101520002078DFF84C93C007A9F104054AD009F1EF
:1015300004000168C1F38101012908D00068C0F3EB
:10154000810002280AD1D9F80000400206D5286897
:10155000800337D560680028E1D033E06068B0F5DB
:10156000803F10D0B0F5A02F286810D020F4803034
:101570002860286820F4802028606068A8B1FFF700
:10158000F7FC06460DE0286840F48030F4E740F4AC
:1015900080202860F7E700BFFFF7EAFC801B642883
:1015A00073D828688003F7D50CE0FFF7E1FC064606
:1015B00005E000BFFFF7DCFC801B6428F0D828683A
:1015C0008003F7D42078DFF8AC8280074FF0000A60
:1015D0003ED5A748001D016811F00C0F08D0006827
:1015E000C0F3810002280BD1D9F80000400207D4D3
:1015F0002868800716D5E068012800D112E033E1A1
:10160000E068B8B10120C8F80000FFF7B1FC064659
:1016100005E000BFFFF7ACFC801B0228C0D828689B
:101620008007F7D52868216920F0F80040EAC1005A
:1016300028600DE0C8F800A0FFF79AFC064604E019
:10164000FFF796FC801B02281FD828688007F7D474
:101650002078000722D5864F87486169703771B1BD
:1016600001210160FFF784FC064604E0FFF780FCDF
:10167000801B022809D838688007F7D50EE0C0F82B
:1016800000A0FFF775FC064605E082E0FFF770FC5E
:10169000801B02287DD838688007F7D4207840075F
:1016A00068D5DFF8CCB100270BF13C0BDBF800006C
:1016B000C0000BD4DBF8001041F08051CBF80010D3
:1016C000DBF80000012700F0805000906B4E30687E
:1016D000C00510D4306840F480703060FFF748FCDB
:1016E000009005E0FFF744FC0099401A022850D80A
:1016F0003068C005F6D55E4EA0686C3601280FD064
:101700000528306810D020F001003060306820F0EB
:1017100004003060A068B8B1FFF72AFC00900FE029
:10172000306840F00100F4E740F004003060F7E773
:10173000FFF71EFC0099411A41F28830814266D8B9
:1017400030688007F4D50EE0FFF712FC009007E048
:10175000FFF70EFC0099411A41F28830814256D8B9
:1017600030688007F4D42FB1DBF8001021F08051ED
:10177000CBF80010A069C8B33D49091D0968C1F341
:10178000810102294AD00228504607D0C8F86000DB
:1017900000E03CE0FFF7ECFB04463BE04746C8F8BE
:1017A0006000FFF7E5FB064605E000BFFFF7E0FB42
:1017B000801B02282BD828688001F7D4D4E90701C0
:1017C0000843A16A2E4A490802EB0141626A41EAD4
:1017D0008211084394F82C1040EA0161C9F8001006
:1017E00001203866FFF7C4FB044606E03EE000BF78
:1017F000FFF7BEFB001B022809D828688001F7D537
:1018000034E000BFFFF7B4FB001B022802D903201D
:10181000BDE8F88F28688001F4D427E00128F7D0CC
:10182000D9F80000E26900F4800191421CD1226ADB
:1018300000F03F01914217D147F6C071626A014042
:10184000B1EB821F10D1A26A4FF0FF3300F4403198
:1018500003EB5202B1EB024F06D194F82C1000F0CA
:101860007060B0EB016F01D00120D1E70020CFE71D
:101870000438024000004742800E4742007000409A
:101880000000FFFF7047000038B5016804464A6851
:101890008868C043430606D5C30704D1D3435B061B
:1018A00001D4216C05E0830708D4D3431B0605D47B
:1018B000616C01B02046BDE830400847830603D57F
:1018C000430601D5C30551D4D3439B064ED44306EA
:1018D0000AD494F85130032B49D0636D43F00403CC
:1018E0006365CB688B680093830609D4636D43F00E
:1018F000010363658B6800930B6823F040030B6062
:10190000C00506D4606D40F00800606520688068FE
:101910000090606D002829D02068416821F0E00126
:101920004160012084F85100900701D4D00722D0F3
:101930002068416821F003014160114DE06C40B125
:101940000565E06CFFF791F818B1606D40F040005C
:101950006065A06C002809D00565A06CFFF785F8CC
:10196000002803D0606D40F04000606538BDC86855
:101970008868009038BD2046FFF784FF38BD00001E
:10198000ED27000870B5040009D0606A002540B159
:1019900025616561A56294F8510040B10CE0012019
:1019A00070BD6068B0F5827FF4D0E561F2E784F83D
:1019B0005050204600F044F8022084F8510020687E
:1019C000016821F040010160A088218900F4827043
:1019D00001F404410843A18901F400610843217C1A
:1019E00001F002010843217D01F001010843218B30
:1019F00001F400710843217F01F03801084394F895
:101A0000201001F080010843218D01F400510843AA
:101A100021680860A069042101EA104094F82410AC
:101A200001F010010843216848602068C16921F471
:101A30000061C1616565012084F85100002070BD1E
:101A40002DE9F04387B0064614216846FEF762FC94
:101A50002A49306888424ED129480025016841F45E
:101A6000804101600068264900F4804010390590EB
:101A7000086840F004000860086800F00400059061
:101A8000086840F0020008600868022400F00200C4
:101A900005900C2003274FF005088DE8B101694639
:101AA0001848FFF767F94FF4806901AACDF8009054
:101AB00082E8B00169461448FFF75CF9144C1348FA
:101AC000E4E802054020A4E82102114844F8145932
:101AD000A561E56125626562FFF7AAF808B1FEF726
:101AE00079FFB464002205212420A663FFF7D6FB0A
:101AF0002420FFF7C5FB07B0BDE8F08300380040A5
:101B00004038024000080240000402407060024079
:101B1000D40100207047704710B5040003D094F83A
:101B20003D0010B107E0012010BD002084F83C000A
:101B3000204600F01EF8022084F83D00211D206898
:101B400000F0FAFE012084F8460084F83E0084F894
:101B50003F0084F8400084F8410084F8420084F893
:101B6000430084F8440084F8450084F83D000020D8
:101B700010BD704790F83D10012901D00120704739
:101B8000022180F83D100168CA6842F00102CA6073
:101B900000681149884214D0B0F1804F11D00F492C
:101BA00088420ED00E4988420BD00E49884208D098
:101BB0000D49884205D00D49884202D00C4988421F
:101BC00004D1816801F00701062903D0016841F0C2
:101BD0000101016000207047000001400004004046
:101BE00000080040000C004000040140004001409B
:101BF0000018004070472DE9F04104460068C668AF
:101C000005694FF00007A90713D5B10711D5F91ED3
:101C1000016101202077206880698007204602D07A
:101C2000FFF7E8FF04E000F07EF8204600F07CF8C3
:101C30002777680716D5700714D521686FF0040060
:101C40000861022020772068806910F4407F2046D8
:101C500002D0FFF7CFFF04E000F065F8204600F067
:101C600063F82777280715D5300713D521686FF05B
:101C700008000861042020772068C069800720469A
:101C800002D0FFF7B7FF04E000F04DF8204600F067
:101C90004BF82777E80616D5F00614D521686FF0C3
:101CA00010000861082020772068C06910F4407F88
:101CB000204602D0FFF79EFF04E000F034F82046F3
:101CC00000F032F82777E80708D0F00706D021683F
:101CD0006FF001000861204600F028F8280608D5BA
:101CE000300606D521686FF0800008612046FFF7B6
:101CF00011FF680608D5700606D521686FF0400010
:101D00000861204600F020F8A8060AD5B00608D5DC
:101D100021686FF0200008612046BDE8F041FFF720
:101D2000FABEBDE8F08170477047000010B500684A
:101D30000449884201D1FFF719FABDE8104001209B
:101D400001F01ABE00080040704738B5044690F80C
:101D50004200202801D0022038BD51B14AB10120F3
:101D6000206300206063204601F076F8216B012992
:101D700001D0012038BD21680A68496800912168B6
:101D80000C3151E8002F42F0100241E80023002BF3
:101D9000F5D138BD10B50068054A904206D1054816
:101DA000FEF7F0FDBDE8104003F030BB10BD0000B1
:101DB00000440040C54C002070470000F8B50168A1
:101DC00004460868CA684B6910F00F0F4FF0000511
:101DD00059D003F0010602F49077374365D0C1076C
:101DE00005D0D10503D5616C41F001016164410763
:101DF00005D5D90703D0616C41F002016164810708
:101E000005D5D90703D0616C41F004016164010775
:101E100007D502F02001314303D0616C41F0080185
:101E20006164616C00293AD0800604D5900602D521
:101E3000204600F02AFF20684069616CC0F38010E2
:101E4000090700D460B3204600F0EAFE206840692C
:101E5000400621D52068143050E8001F21F04001D1
:101E600040E80012002AF5D1E06BA8B17249016583
:101E7000E06BFEF7FAFD002811D0E06B016D01B0B8
:101E8000BDE8F040084783060FD593060DD52046E0
:101E9000BDE8F84000F0F9BE2046FFF78DFFF8BD21
:101EA0002046FFF789FF6564F8BD266B2023012ECD
:101EB0007ED1C6067CD5D6067AD5086848680090DB
:101EC00048694FF0020640064DD5E26B1068406845
:101ED0004FF480770004000C3AD0A18D814237D9AD
:101EE000E085D069B8422DD020680C3050E8001F42
:101EF00021F4807140E80012002AF5D120681430E6
:101F000050E8001F21F0010140E80012002AF5D13D
:101F10002068143050E8001F21F0400140E8001212
:101F2000002AF5D184F84230256320680C3050E84F
:101F3000001F21F0100140E80012002AF5D1E06BEB
:101F4000FEF74AFD6663A08DE18D401A81B206E07E
:101F5000A18D8142A8D1D069B842A5D1666320463F
:101F6000FFF718FFF8BDA08DE18D401A81B2E08D1A
:101F70000028F7D00029F5D020680C3050E8002F59
:101F800022F4907240E80027002FF5D12068143029
:101F900050E8002F22F0010240E80027002FF5D181
:101FA00084F84230256320680C3050E8002F00E0B0
:101FB00006E022F0100240E80023002BF3D1CDE729
:101FC00005062BD5150629D594F841002128C9D13D
:101FD000A068B0F5805F01D12069B0B1206A411CD2
:101FE0002162216800784860E08C401E0004000CEB
:101FF000E084B7D12068C16821F08001C160206809
:10200000C16841F04001C160F8BD206A0088C0F39A
:1020100008004860206A801C2062E5E74006F3D58E
:102020005006F1D5CA68204622F04002CA6084F802
:10203000413000F08FF9F8BDD92A000870B50400CE
:1020400004D094F84100002510B106E0012070BDD5
:1020500084F84050204600F023F8242084F8410002
:102060002068C16821F40051C160204600F06EFE76
:102070002068016921F4904101612068416921F0E3
:102080002A0141612068C16841F40051C160656462
:10209000202084F8410084F842006563002070BD70
:1020A0002DE9F04186B0064614216846FEF732F964
:1020B000DFF810C131684448022203230727434D4B
:1020C0000024614521D1404914310E6846F01006C4
:1020D0000E60096801F010010591016841F00101ED
:1020E00001600068694600F00100059058028DE823
:1020F0001500CDE903372846FEF73CFE00220521F6
:102100002520FFF7CBF8252056E0DFF8C4C0614555
:1021100054D12D491031D1F800C04CF4003CC1F825
:1021200000C0096801F400310591016841F0010126
:1021300001600068694600F0010005900C208DE800
:102140001500CDE903372846FEF714FE224D21483D
:102150004FF000672860C5E901744FF48068C5E955
:1021600003486C61AC61EC612C6228466C62FEF73E
:102170005FFD08B1FEF72EFCF563AE63164D154802
:1021800060351830E5E802074020A5E81101124843
:1021900045F814496030AC61EC612C626C62FEF76A
:1021A00047FD08B1FEF716FCB56300220521262085
:1021B000AE63FFF773F82620FFF762F806B0BDE8BC
:1021C000F081000000100140303802400000024061
:1021D0000044004088600240C402002090F8423071
:1021E000202B01D00220704721B11AB100230363D4
:1021F00000F082BE0120704710B50068084988428F
:102200000DD10849002308461A46406803F010FD26
:10221000BDE81040012203490348FFF7DFBF10BDAE
:10222000001001400C0100203402002070472DE90D
:10223000F843044690F84100984616460D4620287B
:1022400002D00220BDE8F88385B17EB10020606431
:10225000212084F84100FEF78BFEA6848146E684A7
:10226000A0682027B0F5805F02D003E00120E9E7F5
:10227000206910B12E4600250EE000260CE08021DA
:10228000204600F054FEA8B9C6B116F8010B21682B
:102290004860E08C401EE084E08C4B464FF000022A
:1022A000CDF800800028EAD14FF04001204600F030
:1022B0003EFE40B184F841700320C3E735F8020BBD
:1022C000C0F30800E3E784F841700020BAE700009B
:1022D00070B5044690F84100202801D0022070BD5E
:1022E00001B3FAB12162A284E28400206064212358
:1022F00084F84130A56B144BEB63A56B134B2B6437
:10230000A56B134BEB64A36B186520681346A56B94
:10231000021D2846FEF7F6FC30B110206064202034
:1023200084F84100012070BD21686FF04000086012
:102330002068143050E8001F41F0800140E800128E
:10234000002AF5D1002070BDD52B0008172C0008FD
:10235000E72A000870477047FEE70000114808B5FB
:10236000016841F4001101600068002200F40010CF
:10237000009005210F20FEF791FF0F20FEF780FF50
:10238000002205211020FEF789FF1020FEF778FFBC
:10239000002205211120FEF781FFBDE80840112031
:1023A000FEF76EBF303802401CB50A4A00210A48C9
:1023B00001F034FB0949086000F020FA00210120F7
:1023C000CDE900010B46C20205A1084803F066FDF5
:1023D0001CBD0000C8620008412800080000002061
:1023E000746573745F7461736B000000315400088E
:1023F0002DE9F04186B014216846FDF78BFF414876
:102400000024016841F004010160016801F0040149
:102410000591016841F080010160016801F08001CF
:102420000591016841F001010160016801F00101BD
:102430000591016841F010010160016801F010018F
:102440000591016841F002010160016801F002019B
:102450000591016841F00801016000682A4E00F012
:1024600008000590002240213046FEF77BFD274FF3
:1024700000224FF420413846FEF774FDDFF89080CB
:10248000002241F608014046FEF76CFD0125402080
:10249000CDE90005CDE9025469463046FEF76AFCF5
:1024A00068030090CDE90154694638460394FEF76D
:1024B00061FCE803CDE90005CDE9025469463846E0
:1024C000FEF758FC40F608000090CDE9015469463B
:1024D00040460394FEF74EFC2803CDE90005CDE904
:1024E000025469464046FEF745FC802000904FF4B8
:1024F0008810CDE9010469460648FEF73BFC06B0AA
:10250000BDE8F08130380240000002400010024077
:1025100000040240000C02400D4810B50B49016058
:102520000C49416000214FF480428160C0E90312F0
:1025300041618161C1610162FEF720FD002803D085
:10254000BDE81040FEF746BA10BD00000054004040
:1025500028010020A0860100104810B50E49016036
:102560004FF482714160002102228160C0E90312B0
:10257000012242615202C0E9062101624162816288
:102580000A21C162FFF7FEF9002803D0BDE8104020
:10259000FEF720BA10BD0000003800407C0100208A
:1025A0000C4810B50A4901604FF4E1314160002147
:1025B00081600C22C160C0E904128161C161FFF732
:1025C0003DFD002803D0BDE81040FEF703BA10BD62
:1025D00000100140340200200C4810B50A49016087
:1025E0004FF4E1314160002181600C22C160C0E9FB
:1025F00004128161C161FFF721FD002803D0BDE80D
:102600001040FEF7E7B910BD004400407C020020F6
:10261000FEE7FEE70A4601460148FFF759BE000003
:102620007C02002070B50546FEF794F9040007D03F
:1026300001462846FEF79EF900202855204670BD29
:10264000002070BD10B5FEF78BF9BDE8104002F018
:10265000DDBEFEF7A7B90000012202490248FFF7DC
:10266000BDBD00000C0100203402002001460348DB
:102670004FF0FF32406803F03BBB00000C0100202C
:102680000A46014664230148FFF7D1BD3402002009
:1026900070B50C46034600F019F8002810D000224F
:1026A00010E019899D881144B1FBF5F605FB161160
:1026B0001D6889B202F10102695CA14201D190B2A8
:1026C00070BD92B28242ECD3002070BDC2880189F5
:1026D0008A4201D3501A02E08088401A104480B226
:1026E000704700B50346FFF7F1FF9988081A401EAE
:1026F00080B200BD016082800021C18001817047ED
:102700002DE9F04115460F460446FFF7DFFF8542ED
:1027100000D905465DB1A0882189401A86B2218979
:102720002068B542014405D82A46384609E0002011
:10273000BDE8F08132463846FDF7D3FDAA1BB81933
:102740002168FDF7CEFD2089A1882844B0FBF1F275
:1027500001FB120020812846EAE700002DE9F04144
:1027600015460F460446FFF7BCFF854203D913A068
:1027700000F06AFC0CE05DB1A088E188401A86B2E6
:10278000E1882068B542084405D82A46394609E060
:102790000020BDE8F08132463946FDF7A2FDAA1BB4
:1027A000B9192068FDF79DFDE088A1882844B0FB99
:1027B000F1F201FB1200E0802846EAE752696E67F9
:1027C0004275666665725F57726974653A206E6F0E
:1027D00020656E6F7567682073706163650A00001D
:1027E0000148FFF751B800007C01002010B5806B54
:1027F0000021C187C186FFF745F810BD1CB500F068
:10280000EFFB18214FF48050CDE900010023034A6B
:1028100003A1074801F047F91CBD0000092A000880
:102820004E6574776F726B5F5061727365720000F2
:1028300014000020014800F0E7BB0000FC63000822
:10284000094D4FF4FA74002240212846FEF78AFB16
:10285000204602F02DFF012240212846FEF782FB90
:10286000204602F025FFEEE70000024010B54FF0D1
:10287000E020006903F06AFB012803D0BDE81040A6
:1028800003F098B810BD000030B593B03021684611
:10289000FDF740FD14210CA8FDF73CFD1D48002567
:1028A000016841F080510160006800F08050119093
:1028B0001948016841F4804101600068022400F475
:1028C0008040119001200390102004900094069401
:1028D0000820CDE90750A820CDE9090404200B9079
:1028E0006846FEF719FE08B172B6FEE70CA90F2084
:1028F00081E831004FF4A0500F904FF480501090B9
:1029000005210CA8FEF7FCFC002801D072B6FEE7FA
:1029100013B030BD403802400070004002480168EA
:1029200041F470010160704788ED00E00148FFF755
:1029300062B9000084030020F0B50268274B284DDF
:10294000284E294F294C4FF0804C984209D06045C1
:1029500007D0A84205D0B04203D0B84201D0A0426F
:1029600004D122F0700E4A6842EA0E0298421BD04F
:10297000604519D0A84217D0B04215D0B84213D044
:10298000A04211D01A4DA8420ED01A4DA8420BD029
:10299000194DA84208D0194DA84205D0184DA8429B
:1029A00002D0184DA84203D122F44075CA682A43C8
:1029B0004D6922F080022A438D68C5620D688562E8
:1029C000984201D0A04201D109690163016841F038
:1029D00004010160012141610260F0BD000001407D
:1029E0000004004000080040000C004000040140CA
:1029F00000400140004401400048014000180040F0
:102A0000001C004000200040ADF5007D684600F04D
:102A1000D5FA00281CD010A16846FDF786FC0028D6
:102A200013D07B216846FDF792FC040008D00DA16D
:102A3000FDF77BFC214608B10DA003E013A001E0E7
:102A4000694619A000F000FBE0E769461EA0F9E71F
:102A50000A2002F02DFED9E72B4854545043474535
:102A6000543A000022726573756C74732200000082
:102A7000526563656976656420576561746865723F
:102A800020446174613A2025730A00005265636531
:102A900069766564204854545020526573706F6E97
:102AA00073653A2025730A004D616C666F726D651F
:102AB00064204854545020526573706F6E73653AA9
:102AC0002025730A000000004154205265706C7983
:102AD0003A2025730A00000010B5806B0021C185E3
:102AE000FFF76AF910BD70B5846B2068406994F8EF
:102AF0004110C0F3C0100025212904D118B1E5848C
:102B0000204600F0B4F82068406994F84210C0F301
:102B10008010222904D118B1E585204600F080F804
:102B2000606C40F0100060642046FFF745F970BD0E
:102B300010B50146806B096809684FF00002C905AD
:102B40002ED4C28501680C3151E8003F23F4807314
:102B500041E80034002CF5D10168143151E8003F00
:102B600023F0010341E80034002CF5D10168143151
:102B700051E8003F23F0400341E80034002CF5D138
:102B8000202180F84210016B012909D101680C3124
:102B900051E8003F23F0100341E80034002CF5D148
:102BA0004263016B012902D0FFF726FB10BD818D26
:102BB000FFF7F0F810BD10B5806B01214163016B88
:102BC000012902D0FFF732FB10BD818D4908FFF7C4
:102BD000E1F810BD10B50146806B09680968C905A8
:102BE00016D40021C1840168143151E8002F22F06D
:102BF000800241E80023002BF5D101680C3151E837
:102C0000002F42F0400241E80023002BF5D110BD17
:102C1000FFF7A0FB10BD10B5806BFFF79CFB10BD4C
:102C200001680C3151E8002F22F4907241E8002332
:102C3000002BF5D10168143151E8002F22F0010278
:102C400041E80023002BF5D1016B012909D101686E
:102C50000C3151E8002F22F0100241E80023002B34
:102C6000F5D1202180F842100021016370470168EE
:102C70000C3151E8002F22F0C00241E80023002B64
:102C8000F5D1202180F84110704708B590F8421026
:102C9000222901D0022008BD82684FF480539A4255
:102CA00001D1016921B1816A9A421BD04AB10AE07F
:102CB0000268816A5268C2F308020A80816A891C2C
:102CC00008E0026972B10268526802F07F020A707D
:102CD000816A491C8162C18D491E0904090CC185A4
:102CE00003D01BE002685268F1E70168CA6822F06D
:102CF0002002CA600168CA6822F48072CA60016852
:102D00004A6922F001024A61202180F84210002124
:102D10004163026B012A03D0FFF76EFA002008BD61
:102D2000016301680C3151E8002F22F0100241E8E4
:102D30000023002BF5D101680A68D20602D50A6883
:102D400049680091818DFFF725F8E7E770B50446E3
:102D500000680169E26821F4405111430161216971
:102D6000A068E26908436169114308432168CA68A1
:102D700049F20C639A430243CA6020684169A26920
:102D800021F440711143416131492068884202D0E9
:102D90003049884202D1FEF77DFB01E0FEF76AFB75
:102DA000E2690023192164253226B2F5004F6268DA
:102DB00028D0A0FB0101930F9200FDF761FA0146B4
:102DC000B0FBF5F06FF01802504301EB800006EB0A
:102DD0000010B0FBF5F000F0F002B1FBF5F002EBF3
:102DE0000012B1FBF5F06FF01803584301EB8000BF
:102DF00006EB0010B0FBF5F000F00F002168104466
:102E0000886070BDA0FB010192185B41FDF738FAA4
:102E10000146B0FBF5F00201B1FBF5F06FF01803CD
:102E2000584301EB800006EBC000B0FBF5F000F06A
:102E3000F80002EB4002B1FBF5F0584301EB8000D3
:102E400006EBC000B0FBF5F000F00700D6E700008D
:102E5000001001400014014038B5816204468285AB
:102E6000002013466064222284F84220E56B1F4A4A
:102E7000EA63E56B1E4A2A64E56B1E4AEA64E26B6C
:102E800010650A462168E06B091DFDF73BFF30B174
:102E900010206064202084F84200012038BD2068A2
:102EA000016840680090206948B120680C3050E803
:102EB000001F41F4807140E80012002AF5D120681B
:102EC000143050E8001F41F0010140E80012002AD0
:102ED000F5D12068143050E8001F41F0400140E86F
:102EE0000012002AF5D1002038BD0000312B000867
:102EF000B72B0008E72A000881628285C28500217D
:102F00004164222180F84210016921B10168CA6838
:102F100042F48072CA6001684A6942F001024A6163
:102F20000068C16841F02001C160002070472DE9B0
:102F3000F843984617460D460446089E24E0701C48
:102F400022D0FEF715F8A0EB0800B0421AD8CEB197
:102F50002068C168490717D5802D15D0402D13D0A2
:102F60000168C94309070FD4016800254068009033
:102F70002046FFF755FE0820606484F84050012089
:102F8000BDE8F8830320FBE72068006835EA00000D
:102F900004D00020B842D2D00020F1E70120F9E7A8
:102FA0000148FEF70BBF0000340200200148FEF785
:102FB00005BF00007C020020FEE70000064910B5B6
:102FC000096821B1896811B1BDE81040084703487C
:102FD00000F03AF8002010BDF800002068670008F3
:102FE00010B5FDF7EBFC0648006820B1006810B191
:102FF000BDE810400047BDE81040024800F024B88A
:10300000F8000020BC67000870B50A4C054620682F
:1030100058B1406848B12846FDF7A3F981B220684D
:1030200042682846BDE870401047BDE8704002483D
:1030300000F00AB8F800002018670008014908608D
:1030400070470000F80000200FB4054B10B503A92D
:10305000044A029800F0EAF810BC5DF814FB000086
:103060005D390008240100200907090E002804DB4F
:1030700000F1E02080F80014704700F00F0000F12C
:10308000E02080F8141D704702E008C8121F08C134
:10309000002AFAD170477047002001E001C1121FD9
:1030A000002AFBD1704700002DE9FF5F82B00021AC
:1030B000DDE90430020DDDF840B0034318D044F6DA
:1030C0001050A2F2FF3242431514119801281FD06C
:1030D000A5EB0B00401C5FEA000A4FF000064E4FC4
:1030E000DFF83891B046504615D5CAF1000413E018
:1030F000119801244AA3012801D16FEA0B0102981B
:10310000119AC0E90031C0E9024206B0BDE8F09F63
:10311000CBF10000DFE704460021404A491842EBAA
:103120000450CDE9001012E0E00707D032463B46DC
:1031300040464946FDF715FA8046894632463B46E9
:1031400010461946FDF70DFA06460F466410002C8E
:10315000EAD1DDE90401DDE90023BAF1000F06DA66
:10316000FDF7FFF942464B46FDF7FBF905E0FDF799
:103170006AFA42464B46FDF766FA04460E460022BE
:10318000284BFDF7E7FA03D84FF0FF30014607E080
:103190000022254B20463146FDF73CF9FDF7C2FAE7
:1031A000102409E0002C0ADB0A220023FDF768F84E
:1031B000039B30321A55641E50EA0102F2D1641C9E
:1031C000039AC4F111031444119A012A03D0012275
:1031D00008430DD10AE0084304D000204FF0110B42
:1031E000119072E7A3EB0B056D1E0DE05B4504DD4E
:1031F0004FF0000205F1010504E003DA4FF0000290
:10320000A5F10105002AECD002981199C0E902311C
:10321000C0E9004579E70000000014400000F03FDD
:10322000300000000000F0430000E03F2DE9FF4FB8
:1032300095B09B468946064600250FE2252877D1A2
:1032400000242746F84A0121059400E0044316F8BB
:10325000013F203B01FA03F01042F7D130782A28D1
:1032600011D06FF02F033078A0F13002092A16D860
:10327000059A44F0020402EB820203EB420210447E
:10328000761C0590EFE759F8042B0592002A03DA23
:10329000504244F40054059044F00204761C307807
:1032A0002E2816D116F8010F44F004042A280DD058
:1032B0006FF02F023078A0F13003092B09D807EB0B
:1032C000870302EB4303C718761CF3E759F8047B26
:1032D000761C30786C280FD006DC4C2817D0682874
:1032E0000DD06A2814D104E0742810D07A280FD1A8
:1032F0000DE044F400140AE044F4801401E044F4C6
:1033000040147278824202D104F58014761C761C37
:10331000307866280BD013DC582877D009DC0028D9
:1033200075D04528F6D04628F4D047281AD19DE11B
:1033300018E0632835D0642879D0652812D195E14A
:10334000702873D008DC6728F1D069286FD06E2808
:103350000DD06F2806D1B5E073282CD0752875D014
:10336000782874D05A46179990476D1C75E1C4F3BC
:103370000250022809D003280DD0D9F800100428E3
:103380000DD00D6009F1040967E1D9F80010EA17C2
:10339000C1E90052F6E7D9F800100D80F2E70D7090
:1033A000F0E719F8041B8DF8001000208DF80100DB
:1033B000EA46012003E059F804AB4FF0FF30610703
:1033C0004FF0000102D40DE008F101018846B94236
:1033D0000FDA8045F8DB1AF808100029F4D108E06C
:1033E00008F1010188468142FADB1AF80810002929
:1033F000F6D105985B46A0EB080721463846179A98
:1034000000F094FA284400EB080507E04DE029E1BC
:103410000DE01AF8010B5A4617999047B8F10108C8
:10342000F7D25B4621463846179A13E142E00A225A
:103430000092C4F302524FF0000A022A08D059F851
:1034400004CB032A4FEAEC710AD00DE029E02AE010
:1034500009F1070121F00702F2E802C1914609E0F3
:103460000FFA8CFC4FEAEC71042A03D14FFA8CFC62
:103470004FEAEC71002907DA0A460021DCF1000C62
:1034800061EB02012D2202E0220504D52B228DF8EA
:103490000420012203E0E20701D02022F7E7904652
:1034A00059E00A2102E010220DE010214FF0000A3D
:1034B00000910BE010224FF0000A44F004040827AA
:1034C000009203E008224FF0000A0092C4F3025277
:1034D000022A05D059F804CB0021032A08D009E0BC
:1034E00009F1070121F00702F2E802C1914605E067
:1034F0001FFA8CFC042A01D10CF0FF0C4FF00008DD
:10350000220728D5702806D0009B83F0100353EAC9
:103510000A0305D00EE040228DF80420012208E0C5
:103520005CEA010206D030228DF804208DF80500F7
:1035300002229046009B83F0080353EA0A030AD153
:103540005CEA010201D1620705D530228DF8042022
:103550004FF001087F1E582804D034A003900EA815
:1035600002900DE036A0F9E753466046009AFCF75A
:1035700087FE84460398825C0298401E0290027087
:103580005CEA0100F0D1029806A9081A00F1200AAD
:10359000600702D524F4803400E00127574502DD9E
:1035A000A7EB0A0000E0002000EB0A01009005985C
:1035B0004144401A0590E00306D45B462146179A21
:1035C000059800F0B3F90544002706E001A85A4623
:1035D000C05D179990476D1C7F1C4745F6DBE003E3
:1035E0000CD55B462146179A059800F09FF90544D3
:1035F00004E030205A46179990476D1C0099481EE8
:1036000000900029F5DC08E0029802995A460078FB
:10361000491C0291179990476D1CBAF10001AAF15B
:10362000010AF1DC65E10000092801003031323384
:1036300034353637383961626364656600000000EE
:1036400030313233343536373839414243444546D8
:103650000000000000F058F90544761C307800287E
:103660007FF4ECAD19B02846BDE8F08F620700D4B6
:10367000062709F1070222F0070CFCE80223E146C5
:1036800003F000485FEA080C02D00FF2702C0DE046
:103690005FEA045C02D50FF2682C07E05FEAC47CA5
:1036A00002D00FF2602C01E0AFF2700C4FF0FF3847
:1036B00023F00043CDF850C065280CD006DC452827
:1036C00009D046281DD047283DD13DE0662818D0B6
:1036D00067287ED138E00021112F01DB112000E0A6
:1036E000781CCDE9000106A90EA8FFF7DDFCDDE995
:1036F0000F010E9A03910021009207F1010A049133
:103700004DE04FF000400097CDE9011006A90EA84A
:10371000FFF7CAFCDDE90F0203920E9B119900220C
:10372000DDF80CA00093049211B9791C00EB010A9A
:10373000B7EB0A0004D4C0F1FF3007F1010A04908E
:10374000AAEB0700019044E0012F00DA01270021D5
:10375000112F01DD112000E03846CDE9000106A956
:103760000EA8FFF7A1FCDDE90F010E9A03910021DD
:1037700004910092BA4621070CD40399514500DA0E
:103780008A46BAF1010F05DD009AAAF10101515CE8
:10379000302908D0B84202DA10F1040F06DA01210C
:1037A000CDE9011015E0AAF10101E9E7002805DCE7
:1037B000049901440491AAEB000102E0411C514527
:1037C00000DD8A460499401A401C01904FF00040E9
:1037D0000290200704D40198504501DBCDF8048005
:1037E00000208DF84F0002980DF14F07B0F1004F07
:1037F00025D02B200E9002984FF0020800280CDAFA
:10380000404202902D200E9007E00A210298FCF71A
:10381000CCFD3031029007F8011DB8F10001A8F18C
:103820000108F2DC02980028EFD1791E0E9808708A
:10383000307800F0200040F0450007F8020D12A893
:10384000C01B00F107081498007800B1012000EBBC
:103850000A01019801EBE07105984144401A401EAD
:103860000590E00306D45B462146179A059800F0C0
:103870005DF805441498007818B15A461799904796
:103880006D1CE00324D55B462146179A059800F08D
:103890004DF805441CE00498002807DBDDE903012E
:1038A000884203DD0098405C179901E017993020A9
:1038B0005A469047049805F10105401C0490019870
:1038C000401E019004D12E205A46179990476D1C36
:1038D000BAF10001AAF1010ADDDC05E017F8010BDD
:1038E0005A46179990476D1CB8F10001A8F10108DC
:1038F000F4DC5B462146179A0598ABE62D000000E4
:103900002B000000200000002DE9F04104460025B6
:103910001E461746880404D405E039462020B047E7
:103920006D1C641EF9D52846BDE8F0812DE9F041F3
:10393000044600251E469046C80301D5302700E006
:103940002027880404D505E041463846B0476D1C61
:10395000641EF9D52846BDE8F081704713B54FF0D5
:10396000FF33012269460248FEF761FC00981CBD46
:1039700034020020002070470449002281F8C02052
:1039800051F8BC2F1044086070470000D458002044
:10399000FDF7F4FBFEF778FFFEF72AFDFEF7DEFCED
:1039A000FEF7FEFDFEF7D8FDFEF7B6FDFEF714FEAE
:1039B00000F006F8FEF7F8FC00F014F8FEE700004F
:1039C000EFF3058010B16FF00500704704480168FF
:1039D00011B14FF0FF3070470121016000207047A6
:1039E0007000002010B5EFF3058010B16FF00500F6
:1039F00010BD08480168012902D04FF0FF3010BD0A
:103A0000054A002182F8141D0221016001F0B8FE70
:103A1000002010BD700000200BE000E02DE9FF4108
:103A20004FEA01034FF00005EFF30581039549BB11
:103A300040B38027182100244AB3166806B13446E3
:103A400096691EB13146761E382E02D21679F607D7
:103A500003D0002004B0BDE8F081566906B1B70874
:103A6000D2F808C0BCF1000F0DD0D568602D18D376
:103A700012693AB136B18DE806103A46214602F095
:103A80003AFA03900DE0D6685EB912694AB903AA02
:103A9000CDE90012BAB2214602F000FA012800D0A6
:103AA00003950398D6E77CB51546DDE90642CDE9D6
:103AB0000020C4F38F02284602F0F0F9012802D05A
:103AC0004FF0FF307CBD00207CBD00002DE9F041AF
:103AD000134C0F460546E6682068001D01F0B0FC57
:103AE000681C07D137B12168BDE8F0410D48091DB8
:103AF00001F0F9BC20683544B5424560216805D223
:103B0000206CBDE8F041091D01F0D5BCE06B091D3A
:103B100001F0D1FCA06A854200D2A562BDE8F08127
:103B200018000020BC0800202DE9F041054601F0F6
:103B3000E7FC2D4CA068401CA06020682B4F10B102
:103B4000606930B32BE02560A068012827D10026EA
:103B500006EB860007EB800001F09FFC761C382EF8
:103B6000F6D3234801F099FC2148143001F095FC6C
:103B70001F48283001F091FC1D483C3001F08DFCBD
:103B80001B48503001F089FC1948E0631430206470
:103B900005E02068E96AC06A884200D82560606A4A
:103BA000401C60626864E86A2169884200D920612B
:103BB00000EB800007EB8000291D01F094FC01F070
:103BC000BFFC606900280CD02068E96AC06A88429E
:103BD00007D208494FF080500860BFF34F8FBFF302
:103BE0006F8FBDE8F0810000180000200C04002059
:103BF0006C08002004ED00E038B501F081FC104CA9
:103C00002068C8B90F4801F048FC0E48143001F094
:103C100044FC0C48E060143020610A4B0020F03B6B
:103C2000009003F1500210210A2001F0D9FE20601B
:103C300010B105A101F006FDBDE8384001F080BCDF
:103C40005C000020C0090020546D7251000000008B
:103C500030B4026C0B46002A0BD0C1681144C1601D
:103C60008468A14201D30168C16030BC1846FCF7EA
:103C700038BB30BC70472DE9F041856B17460446D0
:103C80000026026C82B1C7B1E068FCF72AFBE1684C
:103C9000206C091AE1602268914202D2A168081AD8
:103CA000E060022F16D017E02068A8B9A06802F0E3
:103CB000CDF906460020A0600EE06068FCF711FB1D
:103CC000216C606808446060A168884204D3206861
:103CD000606001E005B16D1E6D1CA5633046BDE856
:103CE000F08110B5044690F85D0058B101280CD061
:103CF00002280FD0502080F31188BFF34F8FBFF3FD
:103D00006F8FFEE7206B01F02FFC2046BDE81040CE
:103D100001F02ABC10BD000010484FF4705142075A
:103D200006D0C01D0D4920F00700411AC1F57051A1
:103D30000B4A00230144C2E900030839183A21F074
:103D4000070111604B600B600B1AC0E90013936010
:103D50004FF000405360506170470000A8100020F1
:103D60008C000020154E164CA6F29C474FF0805850
:103D7000DFF8509012E000BF01F0C2FBF068C568A8
:103D8000281D01F05DFBA068401EA0606068401E19
:103D9000606001F0D5FB2846FFF7A3FF60680028AC
:103DA000EAD13868012805D9C9F80080BFF34F8FE0
:103DB000BFF36F8F01F06EFBF0E70000A808002052
:103DC0001800002004ED00E070B51D46049C51B1C0
:103DD000C4F80020C4E90F010121204601F034FE9F
:103DE00084F84C5070BD2460F4E700002DE9F05FCA
:103DF0008846DDE90B941546834691009A460A9E53
:103E0000A522206BFCF77FFA6FF00301206B01EB1A
:103E10008501084420F00707780707D0502080F379
:103E20001188BFF34F8FBFF36F8FFEE70025B8F106
:103E3000000F0FD05FF00000221818F8001082F871
:103E4000341018F8001011B1401C1028F4D384F875
:103E5000435001E084F83450382E00D33726E66210
:103E6000C4E91365201D01F023FB04F1180001F0E3
:103E70001FFB2461C6F138006462A0616565A56519
:103E800084F85C5052465946384600F05BFA206090
:103E9000B9F1000F01D0C9F80040BDE8F09F000063
:103EA00030B5114900E011460A688242FBD34B68E5
:103EB0005C18844203D1406818444860084643684F
:103EC0001C18944209D1084C183C2468A24209D01D
:103ED00052681A4442600A6812680260814200D047
:103EE000086030BD0460F9E78C00002070B5002444
:103EF00041600B4D0061914206D8D11A826991420E
:103F000006D2011D286907E09A4203D2994201D3E3
:103F1000012403E0011DE86801F0CDFA204670BDE0
:103F20005C00002010B5044601F0EAFAA06B28B14D
:103F30005FF0000401F004FB204610BD0124F9E706
:103F400030B589B03C4D6EE00498002806DADDE912
:103F50000601059A90470498002864DB069C606976
:103F600010B1201D01F06CFA03A800F0D7F802464A
:103F700004980A2857D2DFE800F00505052D334ADA
:103F800005052D3394F8280040F0010084F828003E
:103F90000599A069059B01442046FFF7A7FF68B378
:103FA000216A2046884794F8280040073BD5002026
:103FB00000900598A169002342181946204602F096
:103FC0004FF9D8B9502080F31188BFF34F8FBFF35A
:103FD0006F8FFEE714F8280F20F00100207022E018
:103FE00094F8280040F0010084F828000598A061AA
:103FF00028B1811813462046FFF778FF13E05020C0
:1040000080F31188BFF34F8FBFF36F8FFEE794F8F3
:104010002800810703D4204601F0A6FA03E020F02F
:10402000010084F82800002204A9286801F060FE3D
:10403000002889D109B030BD5C0000202DE9FC4189
:104040000F46054601F0E2FB01A800F067F80446C0
:10405000019818B102F072F8BDE8FC81254EAFB1AD
:1040600030690068D0B30027291B3A46306801F058
:10407000FDFA02F063F80028EED11F494FF080509E
:104080000860BFF34F8FBFF36F8FE5E7A542EBD812
:1040900002F054F8F0682746C068C468201D01F09B
:1040A000CFF994F82800410719D5A0692B4641198A
:1040B0003A462046FFF71AFFA8B100200346014602
:1040C00000902A46204602F0CBF860B9502080F3D9
:1040D0001188BFF34F8FBFF36F8FFEE707E020F02B
:1040E000010084F82800216A20468847B4E70127A8
:1040F000BAE700005C00002004ED00E00648C16B58
:10410000096829B1C16BC968C9684968816270478B
:104110004FF0FF31FAE700001800002070B50546A7
:1041200001F022FF064E0446B068844203D200F03C
:1041300009F8012000E0002028602046B46070BD2E
:104140005C000020F8B5194D20E0C068C46806681E
:10415000201D01F075F9216A2046884794F828004F
:10416000400713D5A0693044B04206D9246160608D
:10417000211DE86801F09FF908E000200346014690
:1041800000903246204602F06BF838B1E8680168CA
:104190000029DAD12969C5E90310F8BD502080F360
:1041A0001188BFF34F8FBFF36F8FFEE75C000020D5
:1041B00008484068401C4FF0500080F3118804D03C
:1041C000BFF34F8FBFF36F8FFEE7BFF34F8FBFF388
:1041D0006F8FFEE794000020074CE068016841B152
:1041E000C0680021D0F80000FFF728FFFFF7A8FE05
:1041F000F3E701210020F7E75C0000202DE9F04102
:10420000044601F07DF994F9455004F1240609E0D3
:10421000606A48B1304601F059FF08B101F076FA02
:104220006D1E6DB2002DF3DC4FF0FF3684F8456053
:1042300001F086F901F064F994F9445004F1100793
:1042400009E0206948B1384601F040FF08B101F0AB
:104250005DFA6D1E6DB2002DF3DC84F84460BDE89C
:10426000F04101F06DB900002DE9F041054600274D
:1042700001F0CCFA324E306808B9FFF74DFD706995
:1042800005424ED1C5B3083568070ED005F00700CA
:10429000C0F108000544680707D0502080F311885A
:1042A000BFF34F8FBFF36F8FFEE72DB3706885426A
:1042B00037D82348183001460C6801E020460C46E8
:1042C0006168A94202D221680029F7D131688C4285
:1042D00027D007682168016060680837411B1029F2
:1042E0000FD96019420708D0502080F31188BFF31E
:1042F0004F8FBFF36F8FFEE713E041606560FFF7FC
:10430000CFFD61687068401A7060B268904200D258
:10431000B060706901430020C4E90001F068401CEE
:10432000F06001F00BFF780707D0502080F3118870
:10433000BFF34F8FBFF36F8FFEE73846BDE8F081C4
:104340007400002010B5031F4FF080741C601B1F09
:1043500021F001011960191F044B0B6014390A6028
:10436000091F6FF0020244380A6010BDB141000815
:10437000012100F04DB80B784BB14A7802F00F02E2
:10438000082A04D002685AB11278134208D090F873
:104390006000C00702D14878C00601D500207047F0
:1043A0004FF0FF307047000010B500F093FA00287E
:1043B00005D00349896BBDE8104001F015B810BD68
:1043C000A4000020F8B505468089E989401A04B2A6
:1043D000202607E08DF80060AA6E0121684690470C
:1043E000641E24B2002CF5DC297B2846BDE8F84089
:1043F00000F07AB810B500F06DFA002803D0BDE8DF
:10440000104000F049BB10BD4FF0FF31AFF300800A
:10441000F8B50446481C03D00023E28912B103E03A
:104420000123FAE701295DD0A089824201D14D1C08
:1044300058D00025824201D1012901D0184613E04D
:10444000521E401EE28180B2A08121690D54204697
:10445000BDE8F840012100F047B822691144421E2E
:10446000465C401C8E5400B2A289E189521A8242F5
:10447000F3DCA089401EA081082643B9E089401ED4
:10448000E0818DF80060A26E012168469047A18905
:1044900020694554B4F90E5009E020690121405DBE
:1044A0008DF80000A26E684690476D1C2DB2A08961
:1044B000A842F2DC20208DF80000A26E012168469F
:1044C0009047A089E189401A401C05B208E000BF6E
:1044D0008DF80060A26E0121684690476D1E2DB2D6
:1044E000002DF5DCF8BD000070B50C46054603E074
:1044F00003A1284600F078FF641EE4B2F8D270BD34
:10450000082008004FF0FF3100F02BBA10B5044628
:1045100000F006F82046BDE81040012100F0F6BE8C
:10452000F8B50446808900283CD021690025224E38
:104530000D5494F86000C00728D0204600F05DFAC2
:1045400008200090A189202304F11402206900F0C2
:104550004DFD0004000CE086E581A58122D017A165
:10456000204600F041FF00232046A26D616900F063
:1045700019FC010004D02046BDE8F84000F0B4BBAF
:104580002046B169BDE8F84000F02EBF2068816880
:104590002069FBF7EDFE30B1716B204600F024FF7F
:1045A000A581E581F8BD94F8600040F0010084F831
:1045B00060003168F1E70000A40000200D0A00004F
:1045C0000178272906D0014600200A785C2A03D00A
:1045D00010467047411CF7E749786E290FD004DC7C
:1045E0003029F6D0622904D105E0722905D074295A
:1045F00007D008467047082070470D2070470A20F2
:10460000704709207047F0B50746002539780A261B
:10461000012328462C462D2908D00021CA19002143
:1046200092F800C0BCF1300F04D01EE04FF0FF3311
:104630000121F3E75178782907D0582905D062295C
:1046400005D0422903D002210FE003210DE0012112
:104650000BE092F800C0BCF12E0F06D192F801C019
:10466000BCF1000F01D0042111E012F801CBBCF124
:10467000000FEED1012908D0022903D0032906D169
:10468000102603E00826012501E0022602253D440C
:104690005A1C02D0002215441FE00122FBE72E2AFB
:1046A00005D0A2F13007092F03D8FAB20FE0012498
:1046B00012E0A2F16107052F01D8573A04E0A2F1F8
:1046C0004107052F02D8373AD2B200E0002200FBA2
:1046D000062004EB840254006D1C2A78002ADED1E7
:1046E000042913D194B100EE100AB8EE401A00EE7E
:1046F000104AB8EE400AC1EE000A00EE103AB8EED9
:10470000C00A20EE800A10EE100AF0BD5843F0BD3A
:104710002DE9F041044608781E4622B1242850D1E4
:104720004A7822B94DE027280AD02D2803D0A0F1DD
:104730003002092A0BD80846FFF765FF306033E0E6
:104740004A78002AF3D00846FFF73AFFF6E74FF021
:104750000008242806D080B300270D460C462228E6
:1047600011D01BE04A78002AF6D000232046491CCD
:10477000A26D00F017FB010003D0204600F0BEF848
:10478000DCE74046DAE76C1C254607E05C280ED0E3
:10479000222813D0E8557F1CBFB2641C2078002863
:1047A000F4D105F8078035600020BDE8F08120468F
:1047B000FFF706FFE855641CEDE702E005F8078007
:1047C000E9E74FF0FF30F0E72DE9F04F8BB00C46F2
:1047D00083469A461546202103A8FBF79BFDA07847
:1047E0006E1E00F00F07B74200DC374600254FF081
:1047F000FF380DF10C090AE00AEB850009EB85038F
:10480000416800225846FFF783FFB0BB6D1CB542DC
:10481000F2DB082F3DD2DFE807F004090D12181E65
:104820002631A06880470BB0BDE8F08FA1680398DF
:104830008847F8E7DDE90301A2689047F3E703AD95
:10484000A36895E807009847EDE703ADA46895E8ED
:104850000F00A047E7E7A468079803AD009095E82C
:104860000F00A047DFE7A468DDE9070103ADCDE94C
:10487000000195E80F00A047D5E70AE007ABA46860
:1048800093E807008DE8070003AD95E80F00A04707
:10489000C9E74046C7E7C0687047000000B500217F
:1048A0000B4A30235354491CC9B20929FAD3417821
:1048B00001F00F01012903D9072901D9082901D8DD
:1048C000406800BD4068024900F0C8FC004800BDD7
:1048D000BC4C00200849002051F8202032B192F849
:1048E0006020920702D551F820007047401C00B2AA
:1048F0000528F1DB00207047A84C00204A780020F2
:1049000002F00F02921E062A06D2DFE802F003062A
:104910000A0D0D0F8868006870478868B0F90000BC
:104920007047886800787047886870478868416871
:1049300009B1006808470020704710B50B460446CF
:10494000FFF7C8FF00280BD0012C05D008DD5968FF
:10495000BDE8104000F0AEBCBDE8104000F09CB8CF
:1049600010BD70B500250446002918DDB4F9543097
:10497000A3F10100A4F85400B4F85010B4F85200A8
:10498000814201D90A4600E002465242934212DCBB
:10499000814200D908464042A4F854000BE009DAED
:1049A000B4F85400401C00B2A4F85400002802DD02
:1049B000A4F8545070BD2046FFF704FDB4F954002C
:1049C000C0B1B4F8521008440521401D90FBF1F22B
:1049D00001FB120004EB8000C16B206900F08EFB2C
:1049E000A0810028E6D0E08120462169BDE8704022
:1049F00000F0FABCA581E58170BD70B500250446C4
:104A0000A0F85450B0F8500058B1B4F852002169E1
:104A100000B9052004EB8000806BFBF7A9FC00289F
:104A20001ED0B4F85200216904EB8000C06B00F086
:104A300065FB20B1B4F85200401CA4F85200B4F851
:104A40005000401C80B2A4F85000052802D905206F
:104A5000A4F85000B4F85200052801D3A4F852502D
:104A600070BD10B5FFF736FF002803D0BDE8104039
:104A700000F0B2B810BD38B50446C089002809D08E
:104A800008208DF80000A26E012168469047E08959
:104A9000401EE08138BD00002DE9F0410646876DDB
:104AA0000F488168304600F09FFC002412E000BFF0
:104AB00007EB0415687800F00F00012808D8294694
:104AC0003046FFF758FC18B92946304600F00AF87E
:104AD000641C24B2B6F85C00A042E9DCBDE8F081B9
:104AE000A4000020F8B505460E460846FFF7D6FE9E
:104AF0000146284600F078FCC0F1160004B2002CF4
:104B000000DC04245FF020078DF80070AA6E0121FC
:104B100068469047641E24B2002CF5D1707800F0EE
:104B20000F012948012901D8016C0CE0072901D89F
:104B3000416C08E0082901D8816C04E0092901D8FA
:104B4000C16C00E0016D284600F04EFC1FA1284614
:104B500000F04AFC07240127307807FA04F10842E4
:104B600001D0782000E02D208DF80000AA6E0121F0
:104B700068469047641E64B2002CEDDA13A1284603
:104B800000F032FC3046FFF786FEAA6E0346002195
:104B9000A2B102E0491C89B2401C04781CB10D2C62
:104BA00001D00A2CF6D1242906D924211846904791
:104BB000032107A0AA6E00E0184690472846BDE8EA
:104BC000F84004A100F010BCA40000202020000048
:104BD0002E2E2E000D0A00002DE9F0410646876DAD
:104BE00010484169304600F0FFFB002414E000BF8C
:104BF00007EB0415687800F00F0008280AD9092887
:104C000008D829463046FFF7B6FB18B92946304682
:104C1000FFF768FF641C24B2B6F85C00A042E7DC32
:104C2000BDE8F081A40000202DE9F0410646876D23
:104C300010480169304600F0D7FB002414E000BFA3
:104C400007EB0415687800F00F0007280AD9082838
:104C500008D829463046FFF78EFB18B9294630465A
:104C6000FFF740FF641C24B2B6F85C00A042E7DC0A
:104C7000BDE8F081A40000202DE9F0410646876DD3
:104C80001048C168304600F0AFFB002413E000BFBD
:104C900007EB0415687800F00F00801E052808D87F
:104CA00029463046FFF767FB18B929463046FFF71B
:104CB00019FF641C24B2B6F85C00A042E8DCBDE831
:104CC000F0810000A400002008B5C18982899142CA
:104CD00009D203694A1CC281595C8DF80010826EAA
:104CE00001216846904708BD2DE9F047044690F839
:104CF00060000F4640F0020084F86000497800250B
:104D00000A0704F114090BD001F00F0001282FD07D
:104D1000811E052937D83946204600F00FF938E0C2
:104D20000025A84617E000BF04EB850670690178EE
:104D3000222904D180F800807069401C7061FBF763
:104D400010FB80B27169401E0A5C222A01D101F871
:104D500000806D1CADB2E08EA842E5D8BA68E08E46
:104D6000494690470AE02946204600F0FDFA10E047
:104D7000E28E4B4639462046FFF726FD05467878F9
:104D80008006F0D505E0082803D13946204600F01A
:104D900041F814F8600F20F0020020702846BDE8AA
:104DA000F08700002DE9F04706468A46B16DB0F85D
:104DB0005C00511AA0EB11109946154687B20024E9
:104DC0001BE000BF05EB041898F8010000F00F008D
:104DD000092810D041463046FFF7CDFA58B9404671
:104DE000FFF75CFD0146B9F100000BD002465046CA
:104DF000FBF7CCFA50B1641CA4B2BC42E2D3002051
:104E0000BDE8F0875046FBF7B3FAF3E705EB041073
:104E1000F6E7000070B50446016088680D4600B3EF
:104E2000FBF79FFAE8B1E08E022804D3A169A868D5
:104E3000FBF79EFAA8B194F8600020F0010000BFD3
:104E40000B4D84F860002046A96B00F0CDFA94F871
:104E50006000C0070AD020462968BDE8704000F015
:104E6000C3BA94F8600040F00100E9E770BD0000AB
:104E7000A40000202DE9F0410E460746FFF72AFD69
:104E8000041E16D000233946A26DFFF78BFF0E4D8E
:104E9000010010D0487800F00F00801E06280CD3C7
:104EA0003946204600F0A0FA696A204600F09CFAD4
:104EB0000020BDE8F081A96AF7E732462046BDE848
:104EC000F04100F003B80000A400002070B50C46CB
:104ED0000546497818484B0601D5016A18E001F0EB
:104EE0000F01891E062921D2DFE801F00306090C13
:104EF0001116A068026019E0A068028016E0A068A0
:104F0000027013E01146A06800F0F8F80EE0C169E5
:104F1000284600F069FA09E0A068836833B10068A8
:104F200010B11146984701E010469847214628469F
:104F3000BDE8704000F002B8A4000020FEB523A236
:104F40000C46064607CA8DE8070021463046FFF7A3
:104F5000D5FC05463046616800F046FA1EA1304691
:104F600000F042FA607800F00F00052823D069466F
:104F7000284600F04DF9C0F10B006C46011930468F
:104F800000F032FA15A1304600F02EFA0021302050
:104F90006054491C09B20B29FADB6946284600F027
:104FA0005DF96946304600F01FFA0EA1304600F068
:104FB0001BFA2846FEBD0CA1304600F015FA294622
:104FC000304600F011FA08A1ECE700003030303034
:104FD0003030303030303000203D20002C20307810
:104FE000000000000D0A0000220000002DE9FF4F24
:104FF0000126002484B08946DDF844B00094019471
:1050000002942246A0462146A646039404E0069C4C
:1050100044F821E0491C09B25945F8DB0021B9F1F7
:10502000000F53D92B4DEA46445C9C4211D0012E0F
:1050300004D00EE0002AF7D000241AE0D84508DAA0
:10504000069C461844F828600026344608F10108FA
:1050500021E09C4201D0202C00D10EB100241AE0A6
:10506000441800F801E06478202C2BD0012629E0B8
:1050700092B105EB440C475C9CF801C067450AD12E
:105080000AEB020715F814C017F8017C674502D136
:10509000521ED2B20EE0475C15F814C0674505D128
:1050A0000AF802C0521C02F00F0203E0641C14F064
:1050B000FF04DDD0445C5C2C04D1441864780CB14E
:1050C000491C89B2491C89B24945B3D308B040464E
:1050D000BDE8F08FA000002030B504460020024655
:1050E00005E0AB4209D1401C521C80B292B2A35CD5
:1050F000002B02D08D5C002DF3D130BD0246002084
:1051000002E01354401C80B20B5C002BF9D100214B
:10511000115470472DE9F05FB0F834804FF000096A
:10512000818904464D4631B12069CA46564600F889
:1051300001A0A76D3BE02046FFF7AEFC2046BDE88E
:10514000F05F012100F0E2B807EB06118B46204624
:10515000FFF711F948BB5846FFF7A0FB014620694D
:10516000FFF7BAFFA18988421FD1D5B1012D03D124
:1051700026A1204600F038F907EB091949462046D8
:10518000FFF7B0FC5846FFF789FB83464846FFF718
:1051900085FB5946FFF7A0FF4146804500D80846E9
:1051A00080466D1C1FFA86F9ADB2761C36B2B4F893
:1051B0005C00B042C8DC002D26D0012D02D1204673
:1051C000FFF700F907EB09100646FFF767FB0146FA
:1051D0002069FFF793FFA081012D09D931462046B0
:1051E000FFF780FC0121204600F090F8A4F80C8025
:1051F000A289216901F802A0A089E08120462169E5
:10520000BDE8F05F00F0F0B8BDE8F09F0D0A0000C7
:1052100030B50B22031E00DA43420024CC720A246C
:105220000AE000BF93FBF4F504FB153593FBF4F3A0
:10523000521ED2B230358D54002BF3D1002802DA41
:105240004FF02D0002E005D14FF03000A2F1010235
:10525000D2B28854C2F10B0040B230BD0822002304
:105260000B720AE000F00F03092B01D9573300E05D
:105270003033521ED2B200098B540028F2D1C2F151
:10528000080040B270470121FFF76BBB10B5FFF774
:1052900021FB002803D0BDE81040FFF7C5BC10BDBE
:1052A00010B5FFF717FB002803D0BDE81040FFF74B
:1052B000E3BC10BD70B505460023826DFFF772FD9B
:1052C0000400104817D0C16A284600F08DF8204627
:1052D000FFF7E4FA0146284600F086F80AA12846BE
:1052E00000F082F82046FFF7D6FA0146284600F083
:1052F0007BF805A100E081692846BDE8704000F018
:1053000073B80000A40000200D0A000010B5044688
:1053100090F86000C00719D019B10EA1204600F026
:1053200063F820684168204600F05EF80AA1204634
:1053300000F05AF8A16801B908A1204600F054F81D
:1053400007A12046BDE8104000F04EB80548016BAB
:10535000F7E700000D0A00003A0000002F000000EF
:1053600024200000A4000020FEB516A20D4606462B
:1053700007CA8DE8070016A1304600F035F86946E7
:105380002846FFF745FFC0F10B006C460119304677
:1053900000F02AF811A1304600F026F80022302053
:1053A000A054521C12B20B2AFADB69462846FFF7BA
:1053B00055FF6946304600F017F80AA1304600F064
:1053C00013F8FEBD30303030303030303030300007
:1053D00052657475726E3A20000000002C203078FF
:1053E000000000000D0A000010B50B46846E00217D
:1053F0001A461CB9002010BD491C89B212F8010BD5
:105400000028F9D11846A04780B210BD10B54FF45E
:10541000806205490548FCF798FC04480068C168AB
:1054200021F02001C16010BDC54C00207C0200208D
:105430004FF47A74FDF7FEF9204600F039F9F9E7E8
:10544000D0E9013201699A60D0E901235A604A68C3
:10545000824201D182684A60002202610868401ECF
:105460000860086870470000034B036003F16000A8
:105470000860802010607047E8090020044B03603A
:1054800003F1600008604FF4807010607047000006
:10549000480C002070477047704700F108014FF03A
:1054A000FF32C0E90112C160016100210160704753
:1054B00000210161704730B50B685A1C02D000F121
:1054C000080202E0026904E02246546825689D4211
:1054D000FAD953684B6099608A605160086101682D
:1054E000491C016030BD42684A6093688B609368D4
:1054F0005960916008610168491C016070470000B3
:10550000502080F31188BFF34F8FBFF36F8F0A498C
:105510004868401C486001280CD10848006810F019
:10552000FF0F07D0502080F31188BFF34F8FBFF3D8
:105530006F8FFEE7704700009400002004ED00E04C
:105540000849486828B1401E486001D180F311889D
:105550007047502080F31188BFF34F8FBFF36F8FD8
:10556000FEE700009400002070B500282AD0164DF8
:10557000A0F1080460686969084207D1502080F3EF
:105580001188BFF34F8FBFF36F8FFEE722683AB1E8
:10559000502080F31188BFF34F8FBFF36F8FFEE76A
:1055A0008843606000F032F96068696808446860A8
:1055B0002046FEF775FC2869401C2861BDE8704054
:1055C00000F0BCBD70BD0000740000204FF0E02072
:1055D00000210161816105494FF47A720968B1FBCC
:1055E000F2F1491E4161072101617047100000205E
:1055F00010B5FAF72FFE114910280ED300F1E02064
:1056000090F8F0030A78904207D2502080F3118876
:10561000BFF34F8FBFF36F8FFEE7094800688968BB
:1056200000F4E060884207D9502080F31188BFF36E
:105630004F8FBFF36F8FFEE710BD00009400002076
:105640000CED00E010B5084B002200BF53F83240CB
:105650001CB1521C082AF9D310BD43F8321003EBD9
:10566000C201486010BD0000CC03002070B5154693
:105670000E460446FFF744FF94F944100020491CED
:1056800001D184F8440094F94510491C01D184F8F3
:105690004500FFF755FFA06B28B92A46314604F1B3
:1056A000240000F051F82046BDE87040FEF7A6BD8A
:1056B00010B5020014D00F48006B38B1502080F3B1
:1056C0001188BFF34F8FBFF36F8FFEE700F09EF896
:1056D00000211046FEF7FAF900F030FD002807D14E
:1056E00005494FF080500860BFF34F8FBFF36F8FB5
:1056F00010BD00001800002004ED00E002490A6A15
:105700000260C9684160704718000020014901200B
:10571000C86170471800002010B50C4650B1094907
:1057200009681831FFF7C7FE2046BDE81040012187
:10573000FEF7CCB9502080F31188BFF34F8FBFF331
:105740006F8FFEE71800002070B514460D4668B153
:105750000A4909681831FFF7C6FE0CB14FF0FF3552
:1057600021462846BDE87040FEF7B0B9502080F3CE
:105770001188BFF34F8FBFF36F8FFEE71800002033
:1057800030B587B00024039405AA04A903A80494A3
:10579000FFF76AFEDDE903010094CDE90110002363
:1057A00016A11848059A00F0A6FB174D0028E862DC
:1057B00021D000F025FD012809D0401C1BD150202C
:1057C00080F31188BFF34F8FBFF36F8FFEE7502038
:1057D00080F31188BFF34F8FBFF36F8F4FF0FF300F
:1057E000A86201206861EC60FEF7B7F807B0BDE879
:1057F000304000F065B807B030BD000049444C456A
:1058000000000000653D0008180000200248016B00
:10581000491C0163704700001800002010B5264C99
:10582000206B10B10120E06110BD0020E061FEF7A7
:10583000A1F8A063626B904204D92168821A4B6D73
:105840001A444A65606320684FF0A531006B026816
:105850008A4208D142688A4205D182688A4202D1CE
:10586000C068884204D0216820683431FFF713FEF5
:105870002069124901E0B8B1401E00EB800251F8E6
:105880002220002AF7D000EB800201EB820101F117
:1058900008034A6852684A609A4201D152684A60D5
:1058A000D1682160206110BD502080F31188BFF3C2
:1058B0004F8FBFF36F8FFEE7180000200C0400200D
:1058C0001CB537480168374A914207D1502080F310
:1058D0001188BFF34F8FBFF36F8FFEE70068314928
:1058E000491E884207D1502080F31188BFF34F8FA3
:1058F000BFF36F8FFEE72C4908780190FF200870F6
:1059000008788DF800009DF800009DF8002000F058
:10591000F000904207D0502080F31188BFF34F8FE2
:10592000BFF36F8FFEE79DF80000204C00F05000A1
:1059300020700720A06005E09DF8002052008DF83F
:105940000020401E9DF800201206F5D4A060032818
:1059500007D0502080F31188BFF34F8FBFF36F8FB4
:10596000FEE74FF44070A060019808700C482030AA
:10597000016841F470010160016841F0704101600B
:10598000FFF724FE00206060FAF72CFC084801684D
:1059900041F040410160FAF711FC00201CBD0000FD
:1059A00000ED00E071C20F4100E400E0940000202F
:1059B00034EF00E010B5502080F31188BFF34F8F13
:1059C000BFF36F8F00F0D6FA18B104494FF0805042
:1059D0000860002080F3118810BD000004ED00E095
:1059E00038B5049D18B153B1CAB181B120E050203F
:1059F00080F31188BFF34F8FBFF36F8FFEE7502006
:105A000080F31188BFF34F8FBFF36F8FFEE75020F5
:105A100080F31188BFF34F8FBFF36F8FFEE739B16B
:105A2000502080F31188BFF34F8FBFF36F8FFEE7D5
:105A300050241C46012384F846302B460094FEF780
:105A4000C3F9204638BD000070B50D46040025D0CE
:105A5000FFF756FDD4E90F20216802FB0011A16079
:105A60000021A163216861600A46D4E90F01401E4C
:105A700000FB0121E16021464FF0FF3001F8440FA7
:105A8000487004F110008DB1FFF707FD04F1240008
:105A9000FFF703FDFFF754FD012070BD502080F398
:105AA0001188BFF34F8FBFF36F8FFEE72169002985
:105AB000F0D000F00BFB0028ECD004494FF08050F0
:105AC0000860BFF34F8FBFF36F8FE3E704ED00E093
:105AD0002DE9FF4782B01D468A464FF000080400BA
