:020000040800F2
:10000000586201205D020008DF2700083F22000837
:10001000DD270008670400085931000800000000CF
:100020000000000000000000000000009D0100082A
:100030001905000800000000F9010008512C000813
:1000400077020008770200087702000877020008AC
:10005000770200087702000877020008770200089C
:10006000770200087702000877020008770200088C
:100070007702000877020008770200086904000888
:10008000770200087702000877020008770200086C
:10009000770200087702000877020008770200085C
:1000A000770200087702000877020008770200084C
:1000B0007702000877020008112D00087702000877
:1000C000770200087702000877020008770200082C
:1000D000992800084D3100087702000877020008CF
:1000E000770200087702000877020008770200080C
:1000F00077020008770200087702000877020008FC
:1001000077020008770200087702000877020008EB
:1001100077020008770200087702000877020008DB
:1001200077020008770200087702000877020008CB
:1001300077020008770200087702000877020008BB
:1001400077020008770200087702000877020008AB
:10015000770200087702000877020008770200089B
:10016000770200087702000877020008770200088B
:1001700077020008770200087702000800000000FC
:100180007702000877020008DFF80CD000F02EF9A3
:100190000048004729250208586201202C4B1968A5
:1001A0000868B0E8F04F80F30988BFF36F8F4FF015
:1001B000000080F3118870470000000008480068C4
:1001C000006880F308884FF0000080F3148862B65E
:1001D00061B6BFF34F8FBFF36F8F00DF00BF00BF6B
:1001E00008ED00E0DFF80C00016841F470010160E7
:1001F000704700BF88ED00E0EFF30980BFF36F8F19
:10020000134B1A681EF0100F08BF20ED108A20E96A
:10021000F04F106009B44FF0500080F31188BFF325
:100220004F8FBFF36F8F27F047FE4FF0000080F332
:10023000118809BC19680868B0E8F04F1EF0100F6B
:1002400008BFB0EC108A80F30988BFF36F8F704746
:1002500018000020EFF30580704700000648804733
:1002600006480047FEE7FEE7FEE7FEE7FEE7FEE79B
:10027000FEE7FEE7FEE7FEE7012D00088901000822
:100280002DE9F05F0546002092469B4688460646CB
:10029000814640241BE0284641464746224600F05E
:1002A00095F853465A46C01A914110D31146184644
:1002B000224600F07CF82D1A67EB01084F462246D3
:1002C0000120002100F073F817EB00094E41201EB9
:1002D000A4F10104DFDC484631462A464346BDE826
:1002E000F09F10B5431A934209D28318881803E08F
:1002F00010F8011D03F8011D521EF9D210BD40EA8D
:1003000001039B0703D009E008C9121F08C0042A93
:10031000FAD203E011F8013B00F8013B521EF9D27A
:1003200010BDD2B201E000F8012B491EFBD270478C
:100330000022F6E710B513460A4604461946FFF7B1
:10034000F0FF204610BD421C10F8011B0029FBD114
:10035000801A704710B5002200E0521C835C8C5C50
:10036000A34201D1002BF8D1D8B2E1B2401A10BD9E
:10037000034611F8012B00F8012B002AF9D1184689
:10038000704730B50B46014600202022012409E0C9
:1003900021FA02F59D4205D303FA02F5491B04FA3E
:1003A00002F52844151EA2F10102F1DC30BD202A1D
:1003B00004DB203A00FA02F1002070479140C2F1BC
:1003C000200320FA03F3194390407047202A04DBEE
:1003D000203A21FA02F00021704721FA02F3D040BE
:1003E000C2F120029140084319467047064C074D60
:1003F00006E0E06840F0010394E8070098471034F5
:10040000AC42F6D3FFF7C4FE38D2020858D2020835
:1004100070B58C1810F8015B15F0070301D110F8C6
:10042000013B2A1106D110F8012B03E010F8016BF3
:1004300001F8016B5B1EF9D12B0705D40023521E76
:100440000DD401F8013BFAE710F8013BCB1A921CDE
:1004500003E013F8015B01F8015B521EF9D5A142DC
:10046000D8D3002070BDFEE7014800F035B9000088
:10047000A003002001681823CAB2103AB2FBF3F2BD
:10048000054B6FF30901032A9B5CC36500D9091D65
:1004900081650846704700006C8B020810B5014664
:1004A00000208B698A6A4FF0C07453B1B3F5005FC6
:1004B00015D072B1012A0CD0022A0AD0032A09D120
:1004C00004E01AB1012A06D0022A03D1C96AC9017F
:1004D00000D5012010BDC96AA142FAD010BD002A82
:1004E000F7D0012AF2D0022AF3D0032AF3D010BDAC
:1004F00030B50468256825F48025256004686360AC
:100500008368402B036803D099600068C26030BDE7
:100510009A600068C16030BD7047000038B5044C77
:10052000049D6468002C01D00095A04738BD0000F0
:10053000405C012010B500F00BF80448006800286A
:1005400002D0BDE81040004710BD0000405C012013
:1005500010B5044802F006FB0248BDE810401C300C
:1005600000F002B8B402002002490DC881E80D0075
:1005700070470000405C012072B6FEE71CB50C4CD1
:10058000002061688847A1680A20884761680120C7
:100590008847A1686420884700208DF80400642003
:1005A000009024680123002101AA7020A0471CBDEF
:1005B000485E01203EB5044664200090134806239F
:1005C0000221056801AA7020A84701004FF0000031
:1005D00019D19DF8041011F00F0F14D09DF80510DB
:1005E0009DF8060001F00F0140EA012060809DF8AF
:1005F00007109DF8080001F00F0140EA0120A080DB
:10060000012020703EBD207000203EBD485E0120CC
:1006100002490DC881E80D0070470000485E0120C6
:100620002DE9F0410446876D00F0C6FA064694F8BD
:1006300035000025022806D08020606584F83450FB
:100640000120BDE8F0812068016821F016010160F9
:100650002068416921F080014161206C08B9A06CDB
:1006600020B12068016821F008010160206801685C
:1006700021F0010101600CE000F09EFA801B0528CA
:1006800007D920206065032084F8350084F83450B1
:10069000D7E720680068C007EED194F85C103F20CF
:1006A0008840B860012084F8350084F83450002078
:1006B000C7E790F83510022903D080214165012059
:1006C0007047052180F835100068016821F00101AC
:1006D00001600020704700002DE9F84304464FF008
:1006E0000009CDF8009063484FF41651A56D0068DD
:1006F000B0FBF1F72E6894F85C10082000FA01F1C5
:1007000031420FD021680A6852070BD50A6822F0DF
:1007100004020A6094F85C108840A860606D40F0A4
:100720000100606594F85C104FF0010808FA01F0D0
:10073000304208D021684969090604D5A860606D77
:1007400040F00200606594F85C100420884030425C
:1007500008D021680968890704D5A860606D40F059
:100760000400606594F85C1010208840304218D076
:1007700021680968090714D5A86020680168490341
:1007800004D50068000308D5A16C07E00168C9051D
:1007900003D4016821F008010160216C09B12046F1
:1007A000884794F85C1020208840304231D021687E
:1007B0000968C9062DD5A86094F835000528206879
:1007C000016806D0490347D5006800031DD4616C59
:1007D0001CE021F0160101602068416921F08001D0
:1007E0004161206C08B9A06C20B12068016821F03B
:1007F0000801016094F85C103F208840A86084F8EC
:10080000358084F83490216D1FE0E16B09B12046FA
:100810008847606D00282BD0606DC00714D005207C
:1008200084F835002068016821F00101016000981A
:10083000401C0090B84203D820680068C007F6D179
:1008400084F8358084F83490E16C002910D001B030
:100850002046BDE8F04308470168C905D5D40168C2
:1008600021F01001016084F8358084F83490CCE7E1
:10087000BDE8F883140000202DE9F041044600F0A3
:100880009BF906465CB1022084F83500002584F807
:1008900034502068016821F0010101600DE0012061
:1008A000BDE8F08100F088F9801B052805D92020DB
:1008B0006065032084F83500F2E720680068C0070F
:1008C000F0D12268116820480140D4E9010318439F
:1008D000D4E903363343184363691843A3691843C3
:1008E000E3691843236A18430843616A042903D162
:1008F000D4E90B1319430843106020684069666A05
:1009000020F0070130460E43012704280CD1A06ACD
:100910000643E06A40B12046FFF7C0FD20B1402009
:10092000606584F83570BAE7206846612046FFF7B5
:10093000A1FD94F85C203F2191408160656584F8B9
:1009400035700020ACE700003F8010F02DE9F04149
:100950000446866D90F83400002501280DD0012052
:1009600084F8340094F835700020012F07D084F803
:10097000340002252846BDE8F0810220FBE702276B
:1009800084F8357060652046FFF7B2FD94F85C107E
:100990003F208840B0602068016841F01601016086
:1009A000206C20B12068016841F0080101602068D6
:1009B000016841F001010160DCE700002DE9F84F1A
:1009C000DFF8BCA10022012503264FF00F090AF130
:1009D000040BAAF1040E00BF0B6805FA02F42340D1
:1009E000A34270D10F7907F00307012F01D0022F26
:1009F00016D187684FEA420806FA08FC27EA0C0776
:100A0000D1F80CC00CFA08FC4CEA070CC0F808C07E
:100A10004768A7430C79C4F3001494403C434460F6
:100A20000C79E443A4070AD0C4684FEA420C06FAE2
:100A30000CF7BC438F6807FA0CF72743C7600C79A3
:100A400004F00304022C12D1D40800EB840CDCF86F
:100A500020405707FF0E09FA07F824EA0804D1F8E6
:100A6000108008FA07F848EA0408CCF820800468E7
:100A70004FEA420C06FA0CF7BC430F7907F0030764
:100A800007FA0CF7274307604C6814F4403F70D016
:100A90003C4C276847F480472760246822F003070E
:100AA00004F480440094384C07EB040CDCF808484C
:100AB00097074FEA177809FA08F7BC43334FB84253
:100AC00002D1002724E054E0314FB84201D1012780
:100AD0001EE0304FB84201D1022719E02E4FB84234
:100AE00001D1032714E02D4FB84201D104270FE0B4
:100AF0002B4FB84201D105270AE02A4FB84201D155
:100B0000062705E0284FB84201D1072700E0082753
:100B100007FA08F72743CCF80878DAF80040574678
:100B2000D1F804C09C435FEACC2C00D51C433C6048
:100B3000DBF800405F46D1F804C09C435FEA8C2C90
:100B400000D51C433C60DEF800407746D1F804C075
:100B50009C435FEA8C3C00D51C433C60084F083F37
:100B60003C68D1F804C09C435FEACC3C00D51C43F0
:100B70003C60521C102AFFF42FAFBDE8F88F000034
:100B8000083C01404438024000300140000002406F
:100B90000004024000080240000C02400010024025
:100BA0000014024000180240001C02400AB181619A
:100BB00070470904FBE700000148806870470000A7
:100BC0000800002070B5040025D094F83D000025F1
:100BD00020B984F83C50204600F0BAF9242084F86B
:100BE0003D002068016821F0010101602068016872
:100BF00041F4004101602068016821F40041016076
:100C000000F05EFB4D4A6168914201D84C4900E01A
:100C10004C49884201D2012070BD4B492368B0FB8A
:100C2000F1F15E6826F03F060E435E606368934212
:100C300006D94FF4967359434FF47A73B1FBF3F12D
:100C40002368491C1E6A26F03F0631431962616819
:100C5000914210D84900401EB0FBF1F2521CC2F381
:100C60000B02042A01D2042022E0B0FBF1F0401C68
:100C7000C0F30B001CE0A268F2B301EBC10303EB6D
:100C80000116431EB3FBF6F35B1C43F480431B05C4
:100C900049D092B301EBC10202EB0111401EB0FB3F
:100CA000F1F0401CC0F30B0040F4804040F40040E1
:100CB0002168CA694CF6FF739A431043C861D4E9AE
:100CC000071001432068026822F0C002114301604E
:100CD000D4E9030101432068826848F2FF339A4354
:100CE00011438160D4E9050108432168CA6822F0F4
:100CF000FF021043C86001E00EE016E020680168C2
:100D000041F0010101602564202084F83D00256345
:100D100084F83E50002070BD01EB4106431EB3FB3A
:100D2000F6F35B1CB3E70120C2E701EB4101401E73
:100D3000B0FBF1F0401CC0F30B00B7E7A086010048
:100D400080841E0000093D0040420F002DE9FF4F46
:100D500083B09A46DDE9118793460446DDF840905A
:100D6000FFF72AFF054694F83D00202870D119238B
:100D7000012274492046009501F0F8FA0028F5D1C7
:100D800094F83C00012863D0012084F83C002068DE
:100D90000168C90703D1016841F0010101602068C1
:100DA000016821F400610160222084F83D004020A8
:100DB00084F83E0000262664C4F82490A4F82A8013
:100DC000608D20856048E062CDE9007553465A4643
:100DD0002046049901F04CFA002879D1208DD0B139
:100DE000012821D00228206824D041698069009020
:100DF000208D032866D801282BD0544902283B4671
:100E00004FF00002009557D08846204601F0AEFA18
:100E100000285DD13AE0206841698169009101684C
:100E200041F4007101607DE02068016821F4806177
:100E30000160F0E7016821F48061016020680168C9
:100E400041F400610160206841698069009069E0B7
:100E500075E02A463946204601F02EFB88BB54E057
:100E60002068016841F40071016020680069616ACE
:100E70000870606A401C6062218D491E2185618D69
:100E8000491E618521680969017042E02068016896
:100E900021F48061016020680069616A0870606AFD
:100EA000401C6062208D401E2085608D401E608544
:100EB0003B46002241460095204601F057FA00B912
:100EC000CEE705E02A463946204601F0F5FA18B18A
:100ED000012007B0BDE8F08F20680069616A0870E2
:100EE000606A401C6062208D401E81B22185608D49
:100EF000401E608520684269D243520712D40329FC
:100F000003D1016821F48061016020680069616A91
:100F10000870606A401C6062208D401E2085608DD4
:100F2000401E6085208D00287FF462AF202084F869
:100F30003D0084F83E6084F83C600020C9E7022050
:100F4000C7E70000020010000000FFFF04000100DE
:100F500010B586B0044614216846FFF7E9F9134935
:100F60002068884220D112480021026842F0020223
:100F70000260006800F002000590C020009012207E
:100F8000CDE901010320039004200490694609483B
:100F9000FFF714FD06481030016841F400110160AC
:100FA000006800F40010059006B010BD0054004029
:100FB000303802400004024002488168027811443F
:100FC00081607047080000200B4810B5016841F4AB
:100FD00000710160016841F480610160016841F4C1
:100FE00080710160032000F09FF80F2000F006F8E8
:100FF00000F050F8002010BD003C024030B505461E
:101000001F4887B00024016841F0040101600068B6
:1010100006A900F00400009001A800F031F904983E
:10102000A8B100F04DF940001649174AB0FBF1F1A4
:101030001648491E026040F2E732C0E90324C0E9C5
:101040000114846100F0BBFD040003D015E000F042
:1010500037F9E9E70D4800F0E1FD04000DD11E204D
:1010600000F034F8102D07D2002229461E2000F08F
:101070003BF80748056000E0012407B0204630BD7A
:101080004038024040420F00000800404804002061
:101090000C0000200C4882B0016841F480410160DE
:1010A000006800F4804000900748001F016841F08C
:1010B000805101600068002200F0805000900F21F4
:1010C000901E02B000F010B844380240002809DB3E
:1010D00000F01F02012191404009800000F1E02052
:1010E000C0F8001170470000F0B40E4B1B680C46AE
:1010F000C3F30223C3F10705042D00D90425191DEC
:10110000072901D2002300E0DB1E012606FA05F1C3
:10111000491E214099409E40761E16403143F0BC46
:1011200002F02CB80CED00E0064900F00702086858
:101130004FF6FF03184040EA0220034A10430860BC
:10114000704700000CED00E00000FA052DE9F047C3
:101150000E46050065D0DFF81481D8F80000F7B21C
:1011600000F00700B04207D288F80070D8F80000FD
:1011700000F00700B04254D128683D4C810712D5D9
:10118000400703D5206840F4E0502060287800072D
:1011900003D5206840F4604020602068A96820F0F2
:1011A000F000084320602878C0072DD030496868D7
:1011B0000839012812D0022813D0032811D0096859
:1011C000890700292DDA216821F0030101432160FC
:1011D000FFF7F2FC814641F2883A0EE00968890384
:1011E000EFE709688901ECE7FFF7E6FCA0EB0901EE
:1011F000514502D90320BDE8F0872068696800F0F6
:101200000C00B0EB810FEFD1D8F80010404601F090
:101210000701B14207D90770006800F00700B0422B
:1012200001D00120E7E72878400705D52068E96864
:1012300020F4E050084320602878000706D5206895
:10124000296920F4604040EAC100206000F058F8AD
:101250002168084AC1F30311515CC840064908607F
:1012600006480068FFF7CAFE0020C4E7003C0240C1
:1012700008380240748B0208140000200C00002083
:101280000F2202600C4A136803F0030343601368E3
:1012900003F0F0038360136803F4E053C360126843
:1012A0004FF4E05303EAD20202610448006800F000
:1012B000070008607047000008380240003C024008
:1012C0000448054900680968044AC1F38221515C59
:1012D000C84070471400002008380240848B020880
:1012E0000448054900680968044AC1F34231515C69
:1012F000C84070471400002008380240848B020860
:10130000154810B5006810F00C02144813D01449A9
:10131000042A0FD0082A0ED10F4C241F22682368FC
:1013200002F03F025B0207D52068C0F38810A0FBE3
:10133000010106E0084610BD2168C1F38811A1FB38
:1013400000010023FEF79CFF2168C1F30141491C05
:101350004900B0FBF1F010BD083802400024F40051
:1013600040787D012DE9F84F04006ED02078DFF839
:101370004C93C007A9F104054AD009F104000168A3
:10138000C1F38101012908D00068C0F3810002285F
:101390000AD1D9F80000400206D52868800337D565
:1013A00060680028E1D033E06068B0F5803F10D07D
:1013B000B0F5A02F286810D020F48030286028686D
:1013C00020F4802028606068A8B1FFF7F5FB06468E
:1013D0000DE0286840F48030F4E740F48020286075
:1013E000F7E700BFFFF7E8FB801B642873D8286885
:1013F0008003F7D50CE0FFF7DFFB064605E000BFF2
:10140000FFF7DAFB801B6428F0D828688003F7D444
:101410002078DFF8AC8280074FF0000A3ED5A7485D
:10142000001D016811F00C0F08D00068C0F38100A6
:1014300002280BD1D9F80000400207D428688007A1
:1014400016D5E068012800D112E033E1E068B8B1B8
:101450000120C8F80000FFF7AFFB064605E000BF1B
:10146000FFF7AAFB801B0228C0D828688007F7D5A1
:101470002868216920F0F80040EAC10028600DE0EA
:10148000C8F800A0FFF798FB064604E0FFF794FBBE
:10149000801B02281FD828688007F7D4207800070F
:1014A00022D5864F87486169703771B1012101608B
:1014B000FFF782FB064604E0FFF77EFB801B022855
:1014C00009D838688007F7D50EE0C0F800A0FFF70C
:1014D00073FB064605E082E0FFF76EFB801B0228E7
:1014E0007DD838688007F7D42078400768D5DFF8C2
:1014F000CCB100270BF13C0BDBF80000C0000BD493
:10150000DBF8001041F08051CBF80010DBF8000050
:10151000012700F0805000906B4E3068C00510D459
:10152000306840F480703060FFF746FB009005E0C3
:10153000FFF742FB0099401A022850D83068C005D6
:10154000F6D55E4EA0686C3601280FD005283068AD
:1015500010D020F001003060306820F004003060CE
:10156000A068B8B1FFF728FB00900FE0306840F0AA
:101570000100F4E740F004003060F7E7FFF71CFBE0
:101580000099411A41F28830814266D8306880075C
:10159000F4D50EE0FFF710FB009007E0FFF70CFB1F
:1015A0000099411A41F28830814256D8306880074C
:1015B000F4D42FB1DBF8001021F08051CBF80010EB
:1015C000A069C8B33D49091D0968C1F38101022919
:1015D0004AD00228504607D0C8F8600000E03CE03E
:1015E000FFF7EAFA04463BE04746C8F86000FFF719
:1015F000E3FA064605E000BFFFF7DEFA801B02288B
:101600002BD828688001F7D4D4E907010843A16AE0
:101610002E4A490802EB0141626A41EA82110843FD
:1016200094F82C1040EA0161C9F8001001203866D6
:10163000FFF7C2FA044606E03EE000BFFFF7BCFA3F
:10164000001B022809D828688001F7D534E000BFC4
:10165000FFF7B2FA001B022802D90320BDE8F88F79
:1016600028688001F4D427E00128F7D0D9F80000D9
:10167000E26900F4800191421CD1226A00F03F012E
:10168000914217D147F6C071626A0140B1EB821FE7
:1016900010D1A26A4FF0FF3300F4403103EB520245
:1016A000B1EB024F06D194F82C1000F07060B0EB53
:1016B000016F01D00120D1E70020CFE704380240BC
:1016C00000004742800E4742007000400000FFFFCC
:1016D0007047000038B5016804464A688868C0430E
:1016E000430606D5C30704D1D3435B0601D4216C5E
:1016F00005E0830708D4D3431B0605D4616C01B011
:101700002046BDE830400847830603D5430601D58F
:10171000C30551D4D3439B064ED443060AD494F850
:101720005130032B49D0636D43F004036365CB68EC
:101730008B680093830609D4636D43F001036365EE
:101740008B6800930B6823F040030B60C00506D440
:10175000606D40F008006065206880680090606DF2
:10176000002829D02068416821F0E0014160012073
:1017700084F85100900701D4D00722D02068416836
:1017800021F003014160114DE06C40B10565E06C52
:10179000FEF78FFF18B1606D40F040006065A06CEF
:1017A000002809D00565A06CFEF783FF002803D050
:1017B000606D40F04000606538BDC8688868009082
:1017C00038BD2046FFF784FF38BD0000A52800087B
:1017D00070B5040009D0606A002540B125616561DB
:1017E000A56294F8510040B10CE0012070BD606822
:1017F000B0F5827FF4D0E561F2E784F850502046DE
:1018000000F044F8022084F851002068016821F0BB
:1018100040010160A088218900F4827001F4044134
:101820000843A18901F400610843217C01F0020111
:101830000843217D01F001010843218B01F400716F
:101840000843217F01F03801084394F8201001F08B
:1018500080010843218D01F400510843216808608C
:10186000A069042101EA104094F8241001F010014D
:101870000843216848602068C16921F40061C161A2
:101880006565012084F85100002070BD2DE9F0430A
:1018900087B0064614216846FEF74AFD2A4930689B
:1018A00088424ED129480025016841F480410160F9
:1018B0000068264900F4804010390590086840F01F
:1018C00004000860086800F004000590086840F013
:1018D000020008600868022400F0020005900C2055
:1018E00003274FF005088DE8B10169461848FFF756
:1018F00065F84FF4806901AACDF8009082E8B00144
:1019000069461448FFF75AF8144C1348E4E80205F6
:101910004020A4E82102114844F81459A561E5616A
:1019200025626562FEF7A8FF08B1FEF725FEB464E4
:10193000002205212420A663FFF7D6FB2420FFF711
:10194000C5FB07B0BDE8F0830038004040380240D6
:10195000000802400004024070600240A003002022
:101960002DE9F84F984616468A460446FFF724F9B3
:10197000814694F8510001281ED1BAF1000F73D0AE
:10198000002E71D094F85000012815D0012784F85A
:101990005070032084F8510000256565C4F830A01C
:1019A000A686E686A563A587E58765642564A068A5
:1019B000B0F5004F03D00CE00220BDE8F88F20689E
:1019C000016821F0400101602068016841F4804114
:1019D000016020680168490603D4016841F04001B4
:1019E0000160E068B0F5006F606803D048B3012E75
:1019F00027D047E008B1012E1FD1206B2168008855
:101A0000C86006E020688168890709D5216B0988CC
:101A1000C160206B801C2063E08E401EE0860CE0DD
:101A2000FFF7CAF8A0EB0901414503D3B8F1FF3F26
:101A300003D035E0B8F1000F32D0E08E0028E1D1BC
:101A400023E0206B21680078087306E02068816835
:101A500089070AD5216B09780173206B401C20632C
:101A6000E08E401EE0860DE02BE0FFF7A5F8A0EB2E
:101A70000901414503D3B8F1FF3F03D010E0B8F1AD
:101A8000000F0DD0E08E0028E0D14A4641462046A6
:101A900000F058FF08B120206065A06830B109E06F
:101AA00084F8517084F85050032086E72068C1689C
:101AB0008068009084F8517004F8505F60680028D6
:101AC000F3D0012079E7000070B5044690F851008A
:101AD00001281CD1C9B1C2B194F85000012816D018
:101AE000012084F85000032084F85100002565652A
:101AF0002163A286E286A56365642564A587E587E0
:101B0000A068B0F5004F04D00DE0012070BD0220A8
:101B100070BD2068016821F0400101602068016803
:101B200041F480410160A16C17480864A16C17481A
:101B3000C863A16C1648C864A06C0565E38E226872
:101B4000216B0C32A06CFEF701FF30B1606D40F0EC
:101B50001000606584F85050D7E720680168490696
:101B600003D4016841F04001016084F850502068BE
:101B7000416841F0200141602068416841F0020164
:101B80004160002070BD0000D7280008E12800084F
:101B9000B528000810B500680649884209D101201F
:101BA00000F04AFE02F062FC0068BDE8104012F04E
:101BB000DBBD10BD0038004070477047704710B55E
:101BC000040003D094F83D0010B107E0012010BDDF
:101BD000002084F83C00204600F01EF8022084F823
:101BE0003D00211D206801F099F8012084F846008D
:101BF00084F83E0084F83F0084F8400084F84100F7
:101C000084F8420084F8430084F8440084F84500D6
:101C100084F83D00002010BD7047000090F83D1092
:101C2000012901D001207047022180F83D10016890
:101C3000CA6842F00102CA6000681149884214D0A3
:101C4000B0F1804F11D00F4988420ED00E49884222
:101C50000BD00E49884208D00D49884205D00D4965
:101C6000884202D00C49884204D1816801F0070102
:101C7000062903D0016841F001010160002070478E
:101C8000000001400004004000080040000C00403B
:101C900000040140004001400018004070472DE959
:101CA000F04104460068C66805694FF00007A907BF
:101CB00013D5B10711D5F91E0161012020772068E5
:101CC00080698007204602D0FFF7E8FF04E000F0BB
:101CD0007EF8204600F07CF82777680716D5700755
:101CE00014D521686FF00400086102202077206875
:101CF000806910F4407F204602D0FFF7CFFF04E058
:101D000000F065F8204600F063F82777280715D51E
:101D1000300713D521686FF0080008610420207790
:101D20002068C0698007204602D0FFF7B7FF04E0B3
:101D300000F04DF8204600F04BF82777E80616D55E
:101D4000F00614D521686FF0100008610820207794
:101D50002068C06910F4407F204602D0FFF79EFF44
:101D600004E000F034F8204600F032F82777E80766
:101D700008D0F00706D021686FF001000861204606
:101D800000F028F8280608D5300606D521686FF03F
:101D9000800008612046FFF710FF680608D570062E
:101DA00006D521686FF040000861204600F020F859
:101DB000A8060AD5B00608D521686FF02000086192
:101DC0002046BDE8F041FFF7F9BEBDE8F08170475D
:101DD0007047000010B500680449884201D1FFF740
:101DE000EBF8BDE8104001201FF078BE000800406D
:101DF0007047704770470000F8B5016804460868EE
:101E0000CA684B6910F00F0F4FF0000559D003F06E
:101E1000010602F49077374365D0C10705D0D1059C
:101E200003D5616C41F001016164410705D5D90713
:101E300003D0616C41F002016164810705D5D907C7
:101E400003D0616C41F004016164010707D502F021
:101E50002001314303D0616C41F008016164616C81
:101E600000293AD0800604D5900602D5204601F01C
:101E700031F820684069616CC0F38010090700D414
:101E800060B3204600F0FFFF20684069400621D57E
:101E90002068143050E8001F21F0400140E8001293
:101EA000002AF5D1E06BA8B172490165E06BFEF73D
:101EB00000FC002811D0E06B016D01B0BDE8F040DE
:101EC000084783060FD593060DD52046BDE8F84098
:101ED00001F000B82046FFF78DFFF8BD2046FFF760
:101EE00089FF6564F8BD266B2023012E7ED1C606CE
:101EF0007CD5D6067AD508684868009048694FF0C6
:101F0000020640064DD5E26B106840684FF48077BA
:101F10000004000C3AD0A18D814237D9E085D06908
:101F2000B8422DD020680C3050E8001F21F4807199
:101F300040E80012002AF5D12068143050E8001F54
:101F400021F0010140E80012002AF5D12068143088
:101F500050E8001F21F0400140E80012002AF5D1AE
:101F600084F84230256320680C3050E8001F21F0CF
:101F7000100140E80012002AF5D1E06BFEF750FB9B
:101F80006663A08DE18D401A81B206E0A18D814289
:101F9000A8D1D069B842A5D166632046FFF729FFD2
:101FA000F8BDA08DE18D401A81B2E08D0028F7D0F8
:101FB0000029F5D020680C3050E8002F22F49072F0
:101FC00040E80027002FF5D12068143050E8002F9A
:101FD00022F0010240E80027002FF5D184F84230BA
:101FE000256320680C3050E8002F00E006E022F066
:101FF000100240E80023002BF3D1CDE705062BD5D6
:10200000150629D594F841002128C9D1A068B0F55A
:10201000805F01D12069B0B1206A411C2162216832
:1020200000784860E08C401E0004000CE084B7D1CA
:102030002068C16821F08001C1602068C16841F05A
:102040004001C160F8BD206A0088C0F30800486004
:10205000206A801C2062E5E74006F3D55006F1D5E2
:10206000CA68204622F04002CA6084F8413000F07D
:10207000E5F8F8BD792E000870B5040004D094F896
:102080004100002510B106E0012070BD84F84050E9
:10209000204600F023F8242084F841002068C1681D
:1020A00021F40051C160204600F076FF20680169EC
:1020B00021F4904101612068416921F02A014161C8
:1020C0002068C16841F40051C1606564202084F833
:1020D000410084F842006563002070BD10B586B0F1
:1020E000044614216846FEF723F9184920688842FF
:1020F00029D117480021026842F0100202600068EE
:1021000000F01000059012481438026842F00102F5
:102110000260006800F0010005904FF4C06000907C
:102120000220CDE9010103200390072004906946B5
:102130000848FEF743FC002205212520FEF7D4FFC6
:102140002520FEF7C3FF06B010BD000000100140BF
:10215000443802400000024090F84230202B01D069
:102160000220704721B11AB10023036300F09ABF27
:102170000120704710B50648017806A000F0EEFF78
:10218000BDE81040012202490348FFF7E5BF000007
:102190000000002025640000000400202DE9F84321
:1021A000044690F84100984616460D46202802D075
:1021B0000220BDE8F88385B17EB100206064212053
:1021C00084F84100FEF7F8FCA6848146E684A06806
:1021D0002027B0F5805F02D003E00120E9E7206905
:1021E00010B12E4600250EE000260CE0802120468E
:1021F00000F073FFA8B9C6B116F8010B216848605A
:10220000E08C401EE084E08C4B464FF00002CDF89D
:1022100000800028EAD14FF04001204600F05DFF29
:1022200040B184F841700320C3E735F8020BC0F3D6
:102230000800E3E784F841700020BAE77047FEE742
:1022400001684A69D24352050FD46FF480624A6133
:10225000002140F8301F202242738173026942F04E
:1022600004020261017301207047002070470000E2
:102270002DE9F84F0446006889460B9D0168984691
:10228000174641F4806101602068016841F4807163
:10229000016000954FF0011B0022594620460A9B21
:1022A00000F064F84FF4007A40B120680068C0057F
:1022B00001D5C4F840A00320BDE8F88F216809F0DB
:1022C000FE0008612B46284920460A9A00F096F83D
:1022D000F0BB20684169806900902A4620460A992F
:1022E00000F022F940B1206C04283AD1206801683E
:1022F00041F40071016034E0FEB2B8F1010F09D081
:102300002168380A08612A4620460A9900F00CF92B
:102310000028E8D1206806612A4620460A9900F084
:1023200003F90028DFD12068016841F48071016061
:1023300000950022594620460A9B00F017F8002815
:10234000B3D1216809F0FF0040F00100086100E00E
:1023500007E02B46044920460A9A00F04FF800286F
:10236000AAD00120A8E70000020001002DE9F047F3
:10237000984617460D460446C1F30746DDF82090FF
:102380002AE000BFB8F1FF3F26D0FEF715FCA0EB16
:102390000901414502D8B8F1000F1DD12068012E76
:1023A00016D0806925EA00000004000C12D000203D
:1023B000B84211D1002044F8300F20216173A0737E
:1023C000216941F02001216120730120BDE8F087DF
:1023D0004069E7E70120EBE72068012E0AD0806919
:1023E00025EA00000004000C06D00020B842C9D045
:1023F0000020EBE74069F3E70120F7E72DE9F0471C
:10240000984616460D4604464FF000094FF0200A44
:10241000C1F3074723E020684069C043400515D455
:102420002068016841F40071016021686FF48060E8
:102430004861C4F8309084F83DA084F83E90216C47
:1024400041F00401216484F83C9021E0701C06D026
:10245000FEF7B2FBA0EB0800B04203D816B1012F83
:102460001FD021E02068012F15D0806925EA0000E7
:102470000004000C18D000BF44F8309F84F80DA071
:1024800084F80E90216941F02001216184F80C90BC
:102490000120BDE8F087406925EA00000004000C37
:1024A000EAD12068406901E02068806925EA0000DF
:1024B0000004000CAFD1ECE72DE9F0410025904677
:1024C0000E460446202728E04069C043C0060CD4CD
:1024D00054F8301B6FF01000486144F810596777CA
:1024E000A577206A2062257714E0FEF765FBA0EB54
:1024F0000800B04200D886B920684069C043400651
:102500000BD544F8305F6773A573206940F0200055
:10251000206125730120BDE8F08120684169C9432D
:102520004906D1D40020F6E770B516460D4604469C
:102530001EE02046FFF784FE08B1012070BD681C34
:1025400016D0FEF739FB801BA84200D885B9206859
:102550004069C04300060BD5002044F8300F20210D
:102560006173A073216941F0200121612073E4E7C8
:1025700020684069C0430006DBD4002070BD000025
:10258000094808B5016841F40011016000680022A3
:1025900000F40010009005210F20FEF7A5FDBDE816
:1025A00008400F20FEF792BD303802401CB5094AA2
:1025B0000021094820F0B6FC0849486000210120AC
:1025C000CDE900010B46C20205A1094826F072F8C8
:1025D0001CBD0000488B0208112C000800000020E0
:1025E0006C76676C5F746573745F7461736B000005
:1025F000D52402082DE9F04186B014216846FDF784
:1026000097FE41480024016841F00401016001681F
:1026100001F004010591016841F080010160016849
:1026200001F080010591016841F00101016001683C
:1026300001F001010591016841F01001016001689C
:1026400001F010010591016841F00201016001688B
:1026500001F002010591016841F008010160006884
:102660002A4E00F008000590002240213046FEF777
:102670009DFA274F00224FF420413846FEF796FA84
:10268000DFF89080002241F608014046FEF78EFAFE
:1026900001254020CDE90005CDE9025469463046C8
:1026A000FEF78CF968030090CDE90154694638467D
:1026B0000394FEF783F9E803CDE90005CDE9025460
:1026C00069463846FEF77AF940F608000090CDE9F1
:1026D0000154694640460394FEF770F92803CDE99A
:1026E0000005CDE9025469464046FEF767F98020AF
:1026F00000904FF48810CDE9010469460648FEF7C2
:102700005DF906B0BDE8F0813038024000000240BB
:102710000010024000040240000C02400D4810B5B9
:102720000B4901600C49416000214FF480428160F7
:10273000C0E9031241618161C1610162FEF742FAA1
:10274000002803D0BDE81040FDF716BF10BD000003
:1027500000540040F4020020A0860100104810B58B
:102760000E4901604FF482714160002102228160B4
:10277000C0E90312012242615202C0E9062101624E
:10278000416281620A21C162FFF722F8002803D06A
:10279000BDE81040FDF7F0BE10BD0000003800405D
:1027A000480300200C4810B50A4901604FF4E1319C
:1027B0004160002181600C22C160C0E90412816186
:1027C000C161FFF759FC002803D0BDE81040FDF7B8
:1027D000D3BE10BD0010014000040020FEE7FEE75C
:1027E00025F0B4BA3EB5069C8DE81C000A460146A9
:1027F00001230248FEF7AAFA3EBD0000F4020020C1
:1028000008B1012200E0002208210148FEF7CEB9FC
:10281000000402400A4601460148FFF755B900008E
:10282000480300200A4601464FF0FF330148FFF7F6
:1028300097B800004803002008B1012200E0002200
:102840004FF400410148FEF7B1B90000001002400A
:1028500008B1012200E000224FF400610148FEF7B8
:10286000A5B900000004024008B1012200E00022E6
:102870004FF400510148FEF799B9000000100240E2
:1028800008B1012200E000224FF480510148FEF718
:102890008DB90000000402400148FEF71BBF000094
:1028A0004803002010B5806B0021C187C186FEF768
:1028B0000FFF10BD10B5806B01684A6822F003025B
:1028C0004A60416D41F010014165012180F85110CD
:1028D000FEF7FEFE10BD10B5806BFFF76DF910BD61
:1028E00038B50546846BFEF767F90246286800682C
:1028F000C00523D42068416821F020014160206890
:10290000416821F0020141606421204600F01AF87C
:1029100018B1606D40F020006065A068002118B912
:102920002068C26880680090E186012084F8510028
:10293000606D18B12046FEF7CBFE38BD2046FFF78C
:1029400029F938BDF8B515460E460B4600920446E7
:102950000122022100F02CF8A0B9134813490068A5
:10296000B0FBF1F04FF47A71484300906068B0F525
:10297000827F0DD13346002280212046009500F051
:1029800017F870B1606D40F0200060650320F8BD5D
:10299000009830B1401E009020688068C043000657
:1029A000F6D50020F8BD00001400002000366E01AE
:1029B0002DE9F8431E46914688460446089DFEF7D9
:1029C000FBF8401B351AFEF7F7F807462648006863
:1029D000C0F3CB3068430AE0701C09D0FEF7ECF876
:1029E000C01BA8420FD275B10098B8B3401E00902A
:1029F0002068816838EA010033D000214945EBD1D5
:102A00000020BDE8F8832068416821F0E0014160C2
:102A10006068B0F5827F0BD1A068B0F5004F02D09E
:102A2000B0F5806F04D12068016821F04001016099
:102A3000A06AB0F5005F09D12068016821F4005157
:102A400001602068016841F400510160012084F8B0
:102A50005100002084F850000320D2E7FFE7002552
:102A6000C6E70121CAE700001400002070B5141A5F
:102A70005D1A641C6D1C6C43049E00F07BF8084DCD
:102A80000120E96888472969002088474FF6FF70D0
:102A900000EA440130466A68BDE870401047000013
:102AA0002C5E01202DE9F041010241EA102081B2A3
:102AB000124A002022F81010401CF028FADB0021F6
:102AC00040F23F13EF22084600F054F80C4D01206D
:102AD000E968884729690020884700244FF4F07688
:102AE0004FF4A0772A68314604489047641CBC42E2
:102AF000F8DB2969BDE8F041012008474C5C012062
:102B00002C5E012010B5164C0020A1688847A169F1
:102B100064208847A16801208847A16978208847F8
:102B2000616901208847A16964208847112000F06D
:102B30004BF8A16978208847362000F045F8C0207E
:102B400000F054F83A2000F03FF8052000F04EF86D
:102B5000202000F039F8BDE81040292000F034B8FA
:102B60002C5E012001461C220148FDF7BABB000083
:102B70002C5E01202DE9F04107461C4615460E4605
:102B80002A2000F021F8380A00F030F8F8B200F0FE
:102B90002DF8280A00F02AF8E8B200F027F82B20D8
:102BA00000F012F8300A00F021F8F0B200F01EF840
:102BB000200A00F01BF8E0B200F018F8BDE8F04180
:102BC0002C2000F001B8000031B5074C0020E1686E
:102BD000884721690020884722680121684690477C
:102BE00021690120884738BD2C5E012031B5074C92
:102BF0000120E16888472169002088472268012177
:102C00006846904721690120884738BD2C5E012025
:102C100001220C490C48FFF79FFA0C4D4FF4FA744F
:102C2000002240212846FDF7C1FF204625F08EF8FE
:102C3000012240212846FDF7B9FF204625F086F8FD
:102C4000EEE7000000000020000400200000024029
:102C500010B54FF0E020006925F084FD012803D075
:102C6000BDE8104025F0B2BA10BD000030B593B0F9
:102C700030216846FDF75CFB14210CA8FDF758FBDA
:102C80001D480025016841F080510160006800F096
:102C9000805011901948016841F48041016000683A
:102CA000022400F480401190012003901020049031
:102CB000009406940820CDE90750A820CDE9090426
:102CC00004200B906846FEF74DFB08B172B6FEE794
:102CD0000CA90F2081E831004FF4A0500F904FF461
:102CE0008050109005210CA8FEF730FA002801D082
:102CF00072B6FEE713B030BD4038024000700040AD
:102D00000248016841F470010160704788ED00E0FD
:102D10000148FEF7C4BF000048040020F0B5026877
:102D2000274B284D284E294F294C4FF0804C984274
:102D300009D0604507D0A84205D0B04203D0B842C0
:102D400001D0A04204D122F0700E4A6842EA0E027D
:102D500098421BD0604519D0A84217D0B04215D078
:102D6000B84213D0A04211D01A4DA8420ED01A4D2D
:102D7000A8420BD0194DA84208D0194DA84205D041
:102D8000184DA84202D0184DA84203D122F4407534
:102D9000CA682A434D6922F080022A438D68C562C1
:102DA0000D688562984201D0A04201D10969016392
:102DB000016841F004010160012141610260F0BD40
:102DC000000001400004004000080040000C0040EA
:102DD000000401400040014000440140004801401F
:102DE00000180040001C0040002000401CB50446B4
:102DF0006846FDF7DFFB9DF800102170BDF802006A
:102E00006080BDF80420C0F1F0006080C2F5A070C1
:102E1000A080012901D000201CBD01201CBD0000A4
:102E200010B500F00BF804480068002802D0BDE897
:102E30001040004710BD0000AC02002010B504484F
:102E4000FDF7E6FB0248BDE81040083800F00CB87A
:102E5000E40200200349496801B108474FF0FF3000
:102E600070470000AC0200200249D0E90020C1E90F
:102E700000207047AC02002010B5806B0021C18596
:102E8000FEF7B8FF10BD01680C3151E8002F22F4A5
:102E9000907241E80023002BF5D10168143151E80C
:102EA000002F22F0010241E80023002BF5D1016B35
:102EB000012909D101680C3151E8002F22F01002DC
:102EC00041E80023002BF5D1202180F84210002199
:102ED0000163704708B590F84210222901D0022002
:102EE00008BD82684FF480539A4201D1016921B133
:102EF000816A9A421BD04AB10AE00268816A52682C
:102F0000C2F308020A80816A891C08E0026972B172
:102F10000268526802F07F020A70816A491C81626D
:102F2000C18D491E0904090CC18503D01BE002684C
:102F30005268F1E70168CA6822F02002CA6001689D
:102F4000CA6822F48072CA6001684A6922F00102EC
:102F50004A61202180F8421000214163026B012A5E
:102F600003D0FFF707F9002008BD016301680C31A9
:102F700051E8002F22F0100241E80023002BF5D188
:102F800001680A68D20602D50A6849680091818DF5
:102F9000FEF72FFFE7E7000070B5044600680169FF
:102FA000E26821F44051114301612169A068E2699E
:102FB00008436169114308432168CA6849F20C63F8
:102FC0009A430243CA6020684169A26921F44071B2
:102FD0001143416131492068884202D0304988421A
:102FE00002D1FEF77DF901E0FEF76AF9E2690023FC
:102FF000192164253226B2F5004F626828D0A0FB63
:103000000101930F9200FDF73BF90146B0FBF5F08B
:103010006FF01802504301EB800006EB0010B0FB8C
:10302000F5F000F0F002B1FBF5F002EB0012B1FB9D
:10303000F5F06FF01803584301EB800006EB001029
:10304000B0FBF5F000F00F0021681044886070BDFF
:10305000A0FB010192185B41FDF712F90146B0FB9C
:10306000F5F00201B1FBF5F06FF01803584301EBE6
:10307000800006EBC000B0FBF5F000F0F80002EBBA
:103080004002B1FBF5F0584301EB800006EBC000B5
:10309000B0FBF5F000F00700D6E70000001001409B
:1030A0000014014081628285C28500214164222191
:1030B00080F84210016921B10168CA6842F4807247
:1030C000CA6001684A6942F001024A610068C16849
:1030D00041F02001C160002070472DE9F843984677
:1030E00017460D460446089E24E0701C22D0FDF7CA
:1030F00063FDA0EB0800B0421AD8CEB12068C168C9
:10310000490717D5802D15D0402D13D00168C9432C
:1031100009070FD401680025406800902046FFF79A
:10312000B2FE0820606484F840500120BDE8F883B6
:103130000320FBE72068006835EA000004D0002087
:10314000B842D2D00020F1E70120F9E70148FEF7AC
:1031500053BE000000040020FEE700000FB4054B42
:1031600010B503A9044A029801F016FC10BC5DF8E2
:1031700014FB000055EB0008F00200200907090EBF
:10318000002804DB00F1E02080F80014704700F014
:103190000F0000F1E02080F8141D704702E008C81D
:1031A000121F08C1002AFAD170477047002001E0C1
:1031B00001C1121F002AFBD1704770B504460025DB
:1031C0006FF02F0608E02068411C2160007805EBB5
:1031D000850106EB410145182068007800F004F8ED
:1031E0000028F0D1284670BD3038092801D80120C8
:1031F000704700207047000010B54421074800F0D8
:103200008DFE00221E2106481EF0C2FC054CA06067
:1032100002F008F80020207010BD0000749A002011
:10322000D9520008140200202DE9F0470E468146CD
:1032300017461146304600F01CF94FF0FF3A0028BF
:103240007DD000223946304600F0BFF800284FF00C
:10325000000075D1B6F90480B6F900305246A8EBEB
:103260000301491C0AFA81F10FFA81FAB6F906C086
:10327000B6F90210ACEB010C0CF1010C02FA8CF265
:10328000B7F802C012B2ACEB010C0FFA8CFCBCF127
:10329000000F0EDD63F30F0468F30F0501EB0C0064
:1032A00061F31F4460F31F45C9F800400120C9F8CD
:1032B0000450B7F906107388CB1AD21A12B2002A3A
:1032C00013DDB6F9063099420FDA338863F30F0441
:1032D000B38861F31F4463F30F05114461F31F4585
:1032E00009EBC001401C0C604D60B7F90220B6F933
:1032F00002108A4200DD1146B7F90630B6F9062001
:10330000934200DA1A463B88B6F900C0521AA3EB82
:103310000C031BB212B2002B10DD002A0EDD634439
:1033200063F30F058B1863F31F456CF30F0409EB70
:10333000C00361F31F441C605D60401C01E01AE0A3
:1033400017E0B7F9043036889F1BAAEB070636B2A0
:10335000002E0EDD63F30F0461F31F44334463F367
:103360000F05114461F31F4509EBC001401C0C60BF
:103370004D60BDE8F0875046FBE770B5B1F900300D
:10338000B2F90040A34200DC23460380B1F90250A9
:10339000B2F90240A54200DD2C464480B1F9046038
:1033A000B2F90450AE4200DA35468580B1F9061014
:1033B000B2F90620914200DB1146C1800120AB42E8
:1033C00001DC8C4200DD002070BDF8B50D460446DE
:1033D000B0F90000B1F900101646884247DBB4F995
:1033E0000210B5F90220914241DBB4F90410B5F99D
:1033F000042091423BDCB4F90610B5F90620914255
:1034000035DC96B3ADF800006088ADF802003246B6
:103410006946284600F099F8002827D0A088ADF822
:1034200000006088ADF8020032466946284600F088
:103430008CF800281AD02088ADF80000E088ADF89C
:10344000020032466946284600F07FF800280DD079
:10345000A088ADF80000E088ADF802003246694669
:10346000284600F072F8002800D00120F8BD0020A6
:10347000F8BDB0F90020B1F904309A4213DCB0F97C
:103480000420B1F900309A420DDBB0F90220B1F905
:1034900006309A4207DCB0F90600B1F90210884202
:1034A00001DB0120704700207047F8B50D46044647
:1034B000B0F90400B1F900101646884243DBB4F9B4
:1034C0000600B5F9021088423DDBB4F90000B5F9F9
:1034D0000410884237DCB4F90210B5F90620914295
:1034E00031DC76B3ADF800006088ADF802003246FA
:1034F0006946284600F029F818BBA088ADF80000FE
:103500006088ADF8020032466946284600F01DF892
:10351000B8B92088ADF80000E088ADF80200324666
:103520006946284600F011F858B9A088ADF80000A7
:10353000E088ADF8020032466946284600F005F8FA
:1035400008B10020F8BD0120F8BD2DE9FC4114466A
:103550000E46B1F90020B0F9001005468A423ADB68
:10356000B5F90400824236DCB6F90270B5F90220E2
:10357000974230DBB5F906309F422CDC002C75DD1C
:10358000401A9A1A401C521C00B212B200EBD070C2
:1035900002EBD27240105210904200DB104684427F
:1035A00000DD0446ADF80010288800222044ADF864
:1035B00004006888ADF80200688831462044ADF800
:1035C00006006846FFF7C1FF40B1BDF80400204483
:1035D000ADF804003FE00020BDE8FC81E88800224F
:1035E000001BADF80200E888ADF8060031466846D9
:1035F000FFF7ABFF28B1BDF804002044ADF804008C
:1036000011E0A8880022001BADF80000A888ADF8E2
:10361000040031466846FFF798FF50B1BDF800003E
:10362000001BADF80000BDF80200001BADF8020061
:1036300016E06888ADF80200688800222044ADF8E2
:10364000060031466846FFF780FF70B1BDF8000004
:10365000001BADF80000BDF806002044ADF80600E0
:10366000314668461BF054FFB6E7FFE70120B3E799
:1036700010B5B1F90040B2F900309C4200DA23469F
:103680000380B1F90240B2F902309C4200DA2346CD
:103690004380B1F90440B2F904309C4200DD234676
:1036A0008380B1F90610B2F90620914200DC114680
:1036B000C18010BDF8B507461EF006FA0025374C4C
:1036C0000646009537B1F868606038461EF02EFB5C
:1036D000606802E011F04EF8606000691BF014FEB3
:1036E0006068406908B11BF00FFE6068C0691BF09C
:1036F0000BFE6068006A1BF007FE6068016991B10B
:103700001BF0B2FF20F0E0FE20F006FC6068B0F88D
:103710005011D9B30068017CC9071DD0C06840684A
:10372000D0B1002713E0A0F85051F8BDC11991F8AD
:10373000301151B900F5AC7000F047FC616801EB45
:10374000C7010A6B0260496B41607F1CBFB26068B1
:10375000B0F85011B942E9D860684FF48071303048
:1037600017F092FA6068202100F5987017F08CFA33
:103770006068A0F8505130461EF0A0F900906068D3
:103780000068436A13B122680099984717F0FAF865
:1037900000F032F8BDE8F84000F002B8D400002094
:1037A00070B50A4D002400BFC4EBC40655F82600CE
:1037B00008B117F05BF905EB86001C2117F064FADD
:1037C000641CE4B2042CEFD370BD0000509B0020B9
:1037D000084949680AE04A68824202D00A6882427F
:1037E00003D10A7E42F001020A7649690029F2D12A
:1037F00070470000A8000020704700000421014825
:1038000000F08CBB689A00202021014800F086BBA4
:10381000809A00202DE9FF410446DDE90A671D007A
:103820004FF0000002D1B6F5807F2BD003900190BD
:103830000290ADF80C100090ADF80410ADF80A201D
:10384000ADF80E203B463246294668461BF0C0FDC7
:103850003B463246294601A81BF0BAFD3B4632469C
:10386000294602A81BF0B4FD3B463246294603A870
:103870001BF0AEFDBDF90000BDF90430984209DA35
:10388000054608E02080491E6080A180521EE2802B
:10389000BDE8FF811D46BDF90820BDF90C108A4224
:1038A00001DA164600E00E46B54203DA984206DB1E
:1038B000184604E08A4201DA104600E00846801EFD
:1038C0002080BDF90030BDF90420934201DD1D4682
:1038D00000E01546BDF90800BDF90C10884201DD75
:1038E000064600E00E46B54205DD934201DD19466D
:1038F00004E0114602E0884200DD0146891CA180F7
:10390000BDF90230BDF90620934201DA1D4600E000
:103910001546BDF90A00BDF90E10884201DA0646C7
:1039200000E00E46B54205DA934201DA194604E09A
:10393000114602E0884200DA0146891E6180BDF925
:103940000230BDF90620934201DD1D4600E0154618
:10395000BDF90A00BDF90E10884201DD064600E0FF
:103960000E46B54205DD934201DD194604E01146DD
:1039700002E0884200DD0146891CE18088E7000002
:103980002DE9F04115460E460746114C1EF09CF8F5
:1039900080462B4632463946204615F0E5F820B1E0
:1039A0000020A062E06950B110E02C21204617F001
:1039B0006BF94FF00040A0620020BDE8F081404666
:1039C0001EF07CF8E06108B90120E0612046F4E7D0
:1039D000A49A002010B51421074800F09FFA15F0B2
:1039E00089F840B105490160054941600549816098
:1039F0000549C16010BDFEE78C9A0020C98401080A
:103A000045880108158A01089584010870B50D469E
:103A100004461021284617F037F92068007801285D
:103A200004D0022807D0042807D008E0A08A288004
:103A3000E08A688003E0E06800E00A2068602068AF
:103A40004268002A03D02946BDE87040104770BD87
:103A50002DE9FE430446808A10B9E08A002874D01C
:103A6000D4F82C805FEA080010D120460AF053FBFE
:103A70005FEA000869D020460CF0EAFE0022092126
:103A8000404613F069FF607880075ED44FF4807978
:103A900000274E4645460021284619F05DFD384472
:103AA00007B20021284619F075FDC11700EB11601F
:103AB000001210FB06F006B2284618F049FD05007A
:103AC000E9D10FB94E450CD0784201B24FF48030A5
:103AD00090FBF6F002B26B4604F1140000951BF067
:103AE00077FCADF80450ADF8085094F8400000F0B1
:103AF0000F000328404616D018F07CFE06464046CC
:103B000018F032FD03460C200090B4F9161032462E
:103B1000404609F0A7FEADF80800404618F076FDD3
:103B2000C10713D018E018F0F9FD0646404618F01A
:103B300095FD024603200090B4F914103346404628
:103B400009F090FEADF80400E7E736E0BDF9041097
:103B5000002901DDADF80450810705D4BDF904103A
:103B6000002901DAADF80450410705D4BDF9081069
:103B7000002901DDADF80850000705D4BDF90800A3
:103B8000002801DAADF8085002AA01A9204620F069
:103B9000D1FFBDF90820BDF90410404600F08AFAB3
:103BA0006078800709D4208BBDF804100844208376
:103BB000608BBDF8081008446083BDE8FE832DE9E2
:103BC000FC5F0446C06A5FEA000B71D094F84000C5
:103BD00000076DD015F05AFA019000684021457E2B
:103BE000584619F003FE4FF0000818B9A4F81E80DB
:103BF000A4F81C80584618F0EFFD8246584618F08D
:103C0000F2FD064694F840004FF0640900F00F0002
:103C10000C2802D003284CD09AE0A4F81C8056B19E
:103C2000B4F91E50002715F031FA00684946407E6D
:103C3000C0F1640022E0E08BC5F1640110FB01F1EA
:103C400091FBF9F0E083584618F08EFC0546584683
:103C500018F0D0FD02460C200090B4F91E102B463F
:103C6000584609F0FFFDE083024600231EE07A1962
:103C700017B210FB05F292FBF1F215B2002DF6D14E
:103C8000ADF80070A4F81E806A460021204620F09E
:103C900051FF41F6FF72BDF90030514258460AF01B
:103CA000D1FBBDF800100123084402B200214CE012
:103CB0009AE0A4F81E80BAF1000F0AD0B4F91C50A3
:103CC000002715F0E3F900684946407EC0F1640022
:103CD00022E0A08BC5F1640110FB01F191FBF9F02A
:103CE000A083584618F0BAFC0546584618F016FD51
:103CF000034603200090B4F91C102A46584609F0E8
:103D0000B1FDA083014600231EE07A1917B210FB13
:103D100005F292FBF1F215B2002DF6D1ADF800706C
:103D2000A4F81C8000226946204620F003FF41F6DB
:103D3000FF72BDF90030514258460AF0FBFABDF857
:103D400000100123084401B2002258461AF08AFEEE
:103D5000A08B002848D1E08B002845D1C6B9584631
:103D600018F048FD0546584618F0FEFB002D06DC0D
:103D700000280DDD002D02DA01232A4604E0002888
:103D800006DA0123404202B2002158461AF06AFEC8
:103D9000BAF1000F19D1584618F060FC0546584694
:103DA00018F0BCFC002D07DC00280EDD002D03DA26
:103DB00001230022294605E0002806DA012300221B
:103DC000404201B258461AF04DFE0A215846019A67
:103DD00013F0C2FD6078800706D414F8400F20F07D
:103DE0000F00207044F8148CBDE8FC9F7FB50E4690
:103DF000040003D110F0BEFC04002CD010F02EFD06
:103E0000002828D094F82800400724D4002506B3C1
:103E1000ADF80050ADF80250204610F0C3FC401E33
:103E2000ADF80400204610F003FD401EADF806007A
:103E30006A46314602A8FFF7A0FA00280BD0206896
:103E4000017C890708D5DDE90001C4E90C010120E6
:103E500029E0A4F850517FBD82690AB102A99047B8
:103E600000260AE004EBC601002202A83031FFF769
:103E7000ACFA0028EFD1761CB6B2B4F85001B042CB
:103E8000F0D880B2202804D204EBC00002A9303060
:103E900004E0A4F8505104F1300069460EF0DFF957
:103EA000B4F85001401CA4F8500160680028D2D03A
:103EB0001DF048FF7FBD70B5054600F012F80446BE
:103EC0000CE02146284600F01EF80646214628460A
:103ED00000F0A2F8204616F0C9FD3446002CF0D1BF
:103EE00070BD002800D04068704700B5034600222E
:103EF000FFF7F7FF03E01846521C00F004F801003A
:103F0000F9D1104600BD0068091D4058704700688F
:103F100040587047002800D08068704700224260F7
:103F2000C91C21F0030182600160704770B504462E
:103F30000068083016F00EFD050013D0014600227F
:103F400020461EF027FF2946204662681EF01CFF0F
:103F5000616819B12A4620461EF01CFF6560A06802
:103F600000B9A560284670BD2DE9F0410C46060059
:103F70000AD04CB1FFF7B5FFA04208D13046FFF799
:103F8000D5FF051E01D01EE00020BDE8F08130689D
:103F9000083016F0DFFC051EF7D030682A460759B6
:103FA000304639461EF0F0FE3A46294630461EF0AD
:103FB000F1FE2A46214630461EF0ECFE22462946F6
:103FC00030461EF0E1FE2846DFE770B50446006883
:103FD000083016F0BFFC050013D001460022204631
:103FE0001EF0D2FE29462046A2681EF0D3FEA1682C
:103FF00019B12A4620461EF0C7FEA560606800B9C8
:104000006560284670BD28B1416809B9806808B16B
:10401000002070470120704770B504000DD0FFF7F5
:1040200060FF00228842204608D1FFF76CFF6060E5
:10403000011E01D000221EE0A26070BDFFF76AFFE2
:104040008842206808440AD10168A16029B120464D
:10405000BDE8704000221EF097BE626070BD05682A
:104060002046FFF750FF06460246294620461EF02E
:104070008BFE2A4631462046BDE870401EF08ABEBF
:1040800010B50446006882680AB12146904720684E
:104090000068002801D02060F5E710BD8068002886
:1040A00001D0B0F9160070478068002801D0807EEA
:1040B0008009704770B5164605460C4651EA060061
:1040C0001AD0284617F04EFBA86801233246018A11
:1040D00021440182A868418A314441822146284610
:1040E00019F018FF00220B21284613F035FC012897
:1040F00003D1284619F068FE012070BD77B581B064
:104100000E46050017D0622219F054F9040012D0AF
:10411000206880B128463146632219F04BF910F02F
:10412000FF0208D023682046039998470090BDF805
:104130000000ADF80C00039804B070BD2DE9F04705
:10414000074692B0408C1A9E40F008007884904652
:104150003A8499468A463289384619F02BF9054641
:10416000A7F8209032895146384619F023F90446C1
:10417000788CA54220F00800788403D12904B1EBA3
:10418000044F68D0A7F8208032895146384619F08C
:1041900011F905468046A7F82090514638460BF0A5
:1041A000B3FB318900682A461CF0DAFB30890B2802
:1041B00023D147F6FF794D4501D04C451DD13846F6
:1041C00019F0CBFA00EBD0704510384618F07FF9A3
:1041D00000EBD0704010C84506D1691C431C9942C1
:1041E00000DA00E0194688464C4506D1691C421C9D
:1041F000914201DA6C1C00E014461948FFF796FE64
:1042000005002BD02F60C5E903843089A88068465B
:10421000C5F808A00DF096FA1248FF21CDE900502C
:10422000114802901148039000200890CDE909013F
:1042300030880B9070889DF8421040420C90F068D6
:104240000790002060F300018DF84210306906905D
:1042500068460DF0EBFA12B0BDE8F087FEE700000B
:10426000989A0020ED740208ED760208497602085B
:1042700014210148FFF752BE989A00202DE9F84F0B
:1042800000259046894606462C460427E5E000BFF7
:10429000F16807EBC400085882017AD480B230EA92
:1042A000090211D05FF0000230EA08000ED00020B1
:1042B00082426ED051F834A06A46102150461CF05C
:1042C000B1F8002871D103E00122EDE70120EFE70A
:1042D0006A46112150461CF0A5F8002865D16A46AF
:1042E000122150461CF09EF800285ED16A46132128
:1042F00050461CF097F8002857D16A4615215046C1
:104300001CF090F8002850D16A46142150461CF049
:1043100089F8E8BB6A460A2150461CF083F8B8BB0E
:104320006A466B2150461CF07DF888BB6A466C21BA
:1043300050461CF077F858BB6A46012150461CF0E5
:1043400071F828BB6A46042150461CF06BF8F8B996
:104350006A46022150461CF065F8C8B96A46032136
:1043600050461CF05FF898B96A46052150461CF08B
:1043700059F868B96A46062150461CF053F838B916
:104380006A46322150461CF04DF808B96A4601E0F1
:104390000BE061E06E2150461CF044F828B96A46F3
:1043A0006D2150461CF03EF810B10320BDE8F88F97
:1043B0006A46692150461CF035F8E8BB6A466A2116
:1043C00050461CF02FF8B8BB6A466E2150461CF0D0
:1043D00029F888BB6A466D2150461CF023F858BB6B
:1043E0006A46372150461CF01DF828BB6A46382122
:1043F00050461CF017F8F8B96A46352150461CF0B3
:1044000011F8C8B96A46402150461CF00BF898B91B
:104410006A46452150461CF005F868B96A464121B4
:1044200050461BF0FFFF38B96A46422150461BF048
:10443000F9FF08B96A4600E00AE0432150461BF044
:10444000F1FF28B96A46492150461BF0EBFF08B13D
:10445000022501E005B90125641C708CC0F305102C
:10446000A0423FF615AF2846A0E70000014840688B
:1044700070470000D40000207047C0F304100728E4
:1044800000D9072070470000A0F57F41FF3905D013
:10449000002804D0712803D208490AE01F20704781
:1044A0000749713880B2096829B1064A52689042BA
:1044B00001D2085C704700207047000028CB02083A
:1044C000400200205402002010B518210348FFF7D5
:1044D00025FD03490120087010BD0000449A00200A
:1044E0005C0200202DE9F04190460C46050015D0F5
:1044F000FBF729FF0A4F06462146BA68284690472F
:104500000446BA682819414690470146701A03E0EC
:104510006218AA5C2A55641CA042F9D2BDE8F08159
:10452000700200202DE9F041094D90460E466A6860
:104530001C46074619469047306020B120686A68DB
:10454000384400219047C8F80000BDE8F081000021
:10455000700200202DE9F04F87B08A46DDE910583F
:104560001F4693460446002105B129805CB120789E
:10457000002809D0BAF1000F05D0002618F0060F68
:1045800015D0002004E0002007B0BDE8F08F401CEB
:10459000215C0A2904D00D2902D00029F7D100E0BE
:1045A000401C002DF0D04FF0FF312980ECE75FEA8E
:1045B000887001D541F6FF77894608468DF81410BA
:1045C000049127E00498CDF8189068B34FF0000CE0
:1045D00005AA06ABCDF80CC0CDF80080CDE90132BC
:1045E00020443B465A4651461DF0EEFC06997A1A85
:1045F000314417B20EB288B1049901440491207875
:104600000A280BD00D2809D0605C0A280FD00D288D
:104610000DD00846205C08B1002FD3DC049848B1C7
:1046200005B12E800498AFE74FF0010CD0E7481C8D
:104630000490F3E7064A04A9204652689047002DEB
:10464000F0D001460022504613F09AFA06B2E8E78D
:10465000700200202DE9F0411746884606001ED062
:10466000002F1CD0FBF76FFE04463846FBF76BFEAD
:10467000050014D00B4A2C444146926830469047BE
:10468000411903E0621BB25C3255641EA142F9D9A4
:1046900030442A463946BDE8F04116F0B7BABDE8C5
:1046A000F08100007002002000230278232902D04C
:1046B000012A0DD00FE02AB10021012A04D0022ADC
:1046C00004D008E0012101E0017004E0017001E084
:1046D000202902D00123184670470221F6E72DE970
:1046E000F0410E46804602460021334608461DF042
:1046F000A9FE04460027401C16F02CF9050008D03E
:104700002F5533464246611C1DF09CFE2846BDE8ED
:10471000F081FEE72DE9F0471E4614460D4682461D
:10472000DDF8209015E000BF4FEA540808FB06575B
:10473000394650464A469047002808DD44F30000B9
:10474000C0EB540407EB0605A4F1010401E005DA0F
:104750004446002CE8D12046BDE8F0873846FBE708
:104760002DE9FC5F9B460CAB8A468146DDE9116072
:1047700093E81210DDE90F575FEA80784FF03003BD
:104780001AD45EB15FEAC07808D000F00C0858EA8D
:104790000C0803D0761E01E00B55641CBC4204D209
:1047A000202CF9D301E00B55641C5FEAC07803D0DC
:1047B000B44201D2202CF6D35FEAC06825D55FEA67
:1047C00040580AD44CB1BC4201D0B44205D1641E59
:1047D00003D0102D03D1641E04E0102D02D0022D51
:1047E0000AD00EE0850603D4202C1ED2782506E0E0
:1047F000202C1AD2582502E0202C16D262250D5505
:10480000641C202C11D20B55641C202C0DD2BCF141
:10481000000F01D02D2306E0430701D52B2302E032
:10482000030702D520230B55641CCDE900BAC84606
:10483000154681468B46AA46800714D1274607E0D5
:104840002A46DDE900316D1C2020C446E0477F1C6C
:10485000B742F5D307E02A466D1C641EDDE900313E
:104860001BF80400C047002CF5D15FEA897006D41C
:1048700009E02A46DDE900316D1C2020C047A5EB88
:104880000A00B042F5D32846BDE8FC9F2DE9F04F61
:104890008FB099468B46DDE91818DDE91C63DDE928
:1048A0001A4792468646002209B923F0100358059C
:1048B00007AD00D5C9B1B1FBF4F004FB1010C0B2D4
:1048C0000A2801D2303009E05FEA836C02D54FF04C
:1048D000410C01E04FF0610C60440A38B1FBF4F187
:1048E000A854521C09B1202AE5D3CDF80880CDE99F
:1048F0000563CDE90052CDE903474B465246594680
:104900007046FFF72DFF0FB0BDE8F08F2DE9FF4F88
:104910008FB01CACDDE9239594E8030820AC94E843
:10492000C004002450EA010201D125F010056A05F7
:104930000DF11C0802D550EA010217D032463B4661
:10494000FBF79EFCD2B20A2A01D2303206E0AB0657
:1049500001D5412300E061231A440A3A08F80420F3
:10496000641C50EA010201D0202CE7D3CDE9008479
:10497000CDF808B0CDE90595CDE9036A0FAF97E80A
:104980000F00FFF7EDFE13B0BDE8F08F9A4200D2A2
:1049900088547047704700002DE9FF4F89B09B464F
:1049A0000446002506E025280BD05A460B9990476F
:1049B000641C6D1C20780028F5D10DB02846BDE898
:1049C000F08F0027B8460122474900E0074314F85A
:1049D000013F203B02FA03F00842F7D120782E284D
:1049E00019D114F8010F47F004072A280ED06FF0F0
:1049F0002F022078A0F1300109290CD808EB88019A
:104A000002EB410100EB0108641CF2E70A98641C08
:104A100050F8048B0A9020780028CED0642808D063
:104A2000692806D075281ED05A460B9990476D1CF0
:104A300058E00A994FF00A0901C90A91002802DAE0
:104A400040422D2102E0390504D52B218DF820109C
:104A5000012103E0F90704D02021F7E78A4608AED8
:104A60000DE00021FAE70A994FF00A0901C90A91FD
:104A7000F7E74946FBF785FC303106F8011D0028B1
:104A8000F7D1ADEB060000F12009780701D44FF013
:104A90000108C84502DDA8EB090000E000208046BF
:104AA000002706E008A85A46C05D0B9990476D1C88
:104AB0007F1C5745F6DB04E030205A460B9990479F
:104AC0006D1CB8F10001A8F10108F5DC05E016F84D
:104AD000010B5A460B9990476D1CB9F10001A9F1E1
:104AE0000109F4DC641C65E7092801002DE9FF4F8A
:104AF00089B005460A9800249246002800D1FE4D50
:104B00008FE1252804D02246641C53460A990BE203
:104B1000491C4FF0000808460C9101782B2919D048
:104B200004DC202919D0232904D119E02D290ED025
:104B3000302909D00026C8B2FEF756FBB0B10CA848
:104B4000FEF73BFB06461FE048F001010AE048F093
:104B5000020107E048F0040104E048F0080101E028
:104B600048F01001401C88460C90D6E70C99087854
:104B70002A2809D1169840C81690002E02DA48F06B
:104B800002087642491C0C910C984FF0000B0178FA
:104B90002E2919D1401C0C9048F480680078FEF74B
:104BA00023FB20B10CA8FEF708FB83460CE00C9A0F
:104BB00010782A2808D1169802C81690002900DC1F
:104BC0000021521C8B460C920C9801786C290AD05B
:104BD00004DC68290FD06A2919D128E0742929D06A
:104BE0007A2914D126E0401C0C90017848F4807892
:104BF0006C291CD00BE0401C0C90017848F0800818
:104C0000682904D148F04001401C88460C900246B7
:104C10000078692822D015DC62281FD00DDC2528F9
:104C200071D050281AD058287FF46DAF16E048F4A0
:104C30000071E9E748F48071E6E7632878D06428DA
:104C4000F2D10BE0732874D004DC6F2806D07028F2
:104C5000EAD103E0752801D07828E5D178280DD075
:104C600058280BD070280BD0502809D06F2816D0A8
:104C7000622816D00A2128F0100016E0102107E063
:104C80005078102148F48878562804D1521C0C9290
:104C90001078582807D01078502804D006E0082152
:104CA00009E0022107E048F02000804610786928DA
:104CB00003D0642801D028F00C085FEA485001D5E1
:104CC00028F00108107869281ED064281CD05628C6
:104CD00064D05FEA885072D5169804ABC01D0022DC
:104CE00083E806080292CDE9076820F007005346E2
:104CF000F0E80212CDE900121690224628460A99E1
:104D0000FFF704FE89E00AE15FEA885024D516988F
:104D100004AFC01D20F00703F3E80202169300233E
:104D200087E80A08CDE90768002A03DA012102E0D2
:104D300080E0A6E000210023029119461B1A914150
:104D400001DA114603E00021404261EB02015346C3
:104D50002246CDE90001D1E75FEAC85004D5169894
:104D600004C80FE0524215E05FEA486003D5169888
:104D700010F8042B06E05FEA0860F0D5169830F8CA
:104D8000042B12B21690CDE9021BCDE90468D00FB6
:104D9000002AE7DDCDE9002053461EE01698AAEB75
:104DA000040202C816904868006800900A980B68D0
:104DB00001192846FFF79AFE04442FE0FFE75FEA57
:104DC000C8500CD5CDE9021BCDE904681698002126
:104DD000534604C8CDE900211690224619E05FEA47
:104DE000486003D5169810F8042B08E05FEA0860C5
:104DF000169803D530F8042B92B200E004C8169040
:104E00000020CDE90020CDE9021BCDE9046853461E
:104E1000224628460A99FFF739FD04460C98401CA3
:104E20000C900C99087800287FF46BAE54457DD225
:104E300022467DE001275FEA887006D509E0224618
:104E4000641C534620200A99A84738467F1CB0426C
:104E5000F5D316992246641C11F8040B169153469B
:104E60000A99A8475FEA887006D4D7E72246641CEF
:104E7000534620200A99A84738467F1CB042F5D3F4
:104E8000CCE7169850F8049B16904B46BBF10000F7
:104E900001D0014601E04FF0FF31484600E0401CE0
:104EA00002780AB1491EFAD2C71A5FEA485003D500
:104EB00058465F4500D307465FEA887006D512E082
:104EC0002246641C534620200A99A84738467F1C76
:104ED000B042F5D307E000BF224609F10109641C86
:104EE00053460A99A84799F8000040B15FEA485133
:104EF000F2D5BBF1010B01E095490008ECD25FEA65
:104F0000887006D48AE72246641C534620200A99FA
:104F1000A84738467F1CB042F5D37FE706E022461B
:104F2000641C534625200A99A84777E7AAF1010295
:104F3000534600200A99A8470DB02046BDE8F08FDF
:104F400010B502004FF000000CD04B1E194200D0EB
:104F5000FEE70A44521E9A43B2F5803F02D20C2A61
:104F600001D9104610BD0C2010BD08444A1E401E39
:104F70009043114200D0FEE7704700002DE9F04158
:104F80000F4601210025044641862E460BE01B49B1
:104F9000FBF7E0F910B16D1CADB202E0608E401C71
:104FA0006086761CB6B257F8260010B10178002949
:104FB000EDD1208EA8421ED0A06A002610B115F0B7
:104FC00055FDA662E06A10B115F050FDE662E800FA
:104FD00015F0C0FCA06238B1680015F0BBFCE062BF
:104FE00018B1A16A11B102E0FEE7FEE700256900F1
:104FF00015F04AFE2586BDE8F0810000602C01080E
:105000002DE9F84F8146407A0F4600F0070002284C
:1050100019D010468046974200DD3A4616460320D6
:105020002A4C2B4A00EB460020F00305A0681168CB
:105030001035411A636805EB010C9C4505D24168A7
:1050400021F0004124E00846E4E79D4219D8924649
:105050004FF0FF3B48196168884210D90022694629
:105060001C48CDF800B00BF0CDFF002269461A486D
:105070000BF0C8FFA168DAF80000091AEAE7A06897
:10508000DDE7284615F066FCC0B1416841F00041FB
:1050900088EA6702416089EA02010160416801F023
:1050A0004041491C31F0804141608681A0F80E806A
:1050B00005D500F110018160BDE8F88FFEE7A16819
:1050C00001F1100229448260A160F5E7DC000020B4
:1050D0003C02002005E100086510010870B586B0AB
:1050E00000224F4C8DF808208DF80C208DF81020F0
:1050F000E2888A4201D0FF22A270E18090F83C2031
:10510000142302F003024FF4B475012A24D0022ABA
:1051100068D0A578AA4211D010F8265F05EB0515D6
:1051200005EB4505B5FBF3F52570407800EB001065
:1051300000EB4000B0FBF3F06070A27004AA03A87B
:10514000CDE9000201EB41004FF6FF7101EA40009A
:1051500002AB627821781BE0A678B24210D0868C30
:1051600006EB46067602B6FBF5F5A58090F827001B
:1051700000EB001000EB4000B0FBF3F06070A27099
:1051800004AA03A8CDE90002C9B202AB627844E0E8
:1051900008F0B9FC9DF80C00BDF8003044099DF8FA
:1051A000082064F30203ADF80030D308BDF80020F6
:1051B0009DF8101063F3C702ADF80020CA08BDF8CF
:1051C000001062F30C21ADF800108108BDF800005A
:1051D00061F34F30ADF8000080B20090BDF80000E0
:1051E00006B070BDA678B24210D0868C06EB46069B
:1051F0007602B6FBF5F5A58090F8260000EB0010CE
:1052000000EB4000B0FBF3F02070A27004AA03A8EA
:10521000CDE90002CAB2217802ABA088B8E700004D
:105220008801002010B5084C012020700748FEF7C7
:1052300058FE0028A06803D0BDE810401CF082BDD5
:10524000BDE810401CF072BD14020020749A0020CA
:1052500010B5044690F84200A16B820709D4B4F857
:1052600040204AB1A2F57F43FF3B1BD0521EA4F859
:105270004020B4F84020AAB909B1820712D52146CE
:105280001448FEF7C9FEFFF7CDFFE16809B12046DB
:105290008847216909B1204688472046BDE810406B
:1052A00015F0E4BBE26B52422263002911D0820761
:1052B00002D4626B524222634210521C62F34100DC
:1052C00084F84200A26A206A2262A062E06AE16277
:1052D000A06310BD749A002070B5304D68681CF052
:1052E000EDFB0646687880F00100687047E000201A
:1052F000287094F842006978C0F380028A4242D054
:1053000061F3820084F84200216B8A19030719D4E3
:10531000002917DC002A15DBC00709D1616939B102
:1053200020468847216A01442162A16A0844A0629C
:10533000A16809B12046884794F8420040F008006F
:1053400084F84200206B8019206316D4E16A8842F9
:1053500000DD2163E169204688470146606A884292
:1053600004D0616262680AB120689047D4E90B01F9
:10537000814202DB2046FFF76BFF287818B108480E
:10538000FEF7AFFD03E021460548FEF7BCFD040033
:10539000ADD11CF099FB686070BD000014020020C4
:1053A000749A002070B5044640680D4608B1FFF7B6
:1053B000F9FF2268002A04D029462046BDE8704043
:1053C000104770BD89B20CF0AFBE89B20CF0E8BED8
:1053D0002DE9FF4F99B09846DDE926B12D98164684
:1053E0008A464FF00009042811D0052811D006285C
:1053F00012D0142870D101270225002418FB06F0D2
:105400000E901A98401E0D90701E069051E10027D4
:10541000F2E701270325F0E701270225FFF726F829
:105420000068D0F83890E8E7289860430BEB20221A
:10543000299860430AEB202110124FEA212E7DD4D7
:105440001A9B98427ADABEF1000F77DBB64575DA1F
:10545000D2B2CBB2802A05DAC2F17F024FF0FF311F
:10546000520003E001215200A2F580720992802BC4
:1054700005DAC3F17F034FF0FF325B0003E0012246
:105480005B00A3F580730A930EFB080C199B0CFBC1
:10549000053307934318119372D4DDF834C0634584
:1054A0006EDC1EEB02036BD4DDF818C0634567DCCD
:1054B000DDF81CC011FB05C1CDE915C112FB08F1D7
:1054C00001FB05C10C91D7B32D99052905D01429ED
:1054D0000BD0062955D066E0EFE01598807807904C
:1054E0000C9881781698807810E0199A0E990EFB26
:1054F00008FC02EB41010A180EFB08111CF802001F
:105500000790119803FB08F3085C995C079A914295
:105510000AD00A9A11FB02F20A99C1F58073079921
:1055200011FB0321C1F30721079A90420DD0099A7C
:1055300010FB02F20998C0F5807301E02FE035E01E
:10554000079810FB0320C0F3072008442C9940085B
:10555000085527D015980178407801EB0020ADF868
:105560000C000C980178407801EB0020ADF8100099
:1055700016980178407801EB0020ADF8080023E090
:105580004CE0159801881FFA89F0814207D00C99E8
:105590000988814203D016990988814203D12C9948
:1055A0000020085583E0FF210846CEE715980088C3
:1055B000ADF80C0016980088ADF808000888ADF822
:1055C00010002C98FF210155BDF80C00BDF81010FB
:1055D000884209D1BDF80810884205D12B98BDF842
:1055E0000C1000EB440017E00A98C2B2DDE903108A
:1055F0000EF068FC04900998C2B2DDE902010EF0D9
:1056000061FC7F22029004990EF05CFC00902B98C4
:10561000BDF8001000EB4400018048E0079B93F8C0
:1056200000C05B780CEB0323DDF8ACC09BB22CF818
:105630001430DDF8B4C0BCF1050F06D0BCF1060F84
:1056400006D0BCF1140F09D10AE0079B9B780FE04C
:105650001FFA89FC634501D1002309E0FF2307E01D
:10566000199B0EFB083C0E9B00EB43031CF8033018
:1056700008B9002905DBDDF834C0604503D10029F5
:1056800001DD09980AE0BEF1000F01D1002A04DB18
:1056900006998E4508D1002A06DD0A98C0F1FF0060
:1056A00010FB03F0010A00E000212C980155641C56
:1056B00024B22A988442FFF6B7AE1DB0BDE8F08F41
:1056C00010B5818F92B00446A9B168460CF03AF843
:1056D0000B480121CDE90040A08F0B9000200890DD
:1056E000CDE90901074807900748039068460CF088
:1056F0009DF812B010BD12B0BDE810401EF046B9C2
:10570000053A020803180108073A020810B50446D2
:10571000406882080AD0496821F00301091D084445
:105720006060204600F042F8204610BDFEE7406869
:10573000103120F00300884201D30120704700207F
:1057400070472DE9FC47054648680C4620F00300E9
:1057500001AA69461DF0C0F9DDE9007005EBC7112B
:1057600001EB80098046D9F83C0060B164B1C4E91E
:10577000020504F10806C46030460421FFF7F5FB7A
:10578000864202D0FEE7FEE7FEE7C9F83C40012072
:10579000296900FA07F21143296105EB870100FA34
:1057A00008F04A6902434A61BDE8FC8710B5044627
:1057B00000F087F8046010BD2DE9FC4706464FF065
:1057C00000000D0000900746019042D00C46E946CB
:1057D0000DF10408802907D3084621F05FFE411F20
:1057E00001208840401E04444246494620461DF0A0
:1057F00073F9009C0A2C2CDA06EB8400019A4069AC
:105800004FF0FF3101FA02F210400CD1641C3069F4
:10581000A14008401DD021F039FE0446009006EB5F
:105820008000406978B121F031FE034606EBC411D7
:10583000019001EB8000C76B5FB1786820F0030036
:10584000A84201D2FEE7FEE739463046009A1EF034
:1058500089FF3846BDE8FC8710B50446FFF7A6FF70
:10586000416841F002014160606840F00100606001
:1058700010BD10B5044600F024F8416821F0020183
:105880004160606820F00100606010BD70B50646A0
:105890000D46084600F015F8040010D02079C00726
:1058A0000BD0686880080BD02146304600F03CF8E9
:1058B00021462846FFF72AFF0546284670BDFEE729
:1058C000FEE7426800F1080122F00300001F0844CF
:1058D000910800D1FEE7704770B506460C004FF006
:1058E00000001ED0F2B120791546C0071BD011462A
:1058F0002046FFF71CFF78B12946204600F025F826
:1059000005462046FFF752FF6868294640F002002E
:1059100068603046FFF715FF2046FFF7AAFF04F145
:10592000080070BDFEE7FEE77CB5054648680C46FA
:1059300020F0030001AA69461DF0CEF8DDE900233E
:10594000214628461EF00EFF7CBD2DE9F0410D4694
:10595000044600F10801281F0E18606806F10807C8
:1059600020F00300401BA0F1040838460421FFF793
:10597000FCFA874200D0FEE7606820F0030108EBE4
:105980000500001D814200D0FEE7307900F00300E1
:1059900040EA0800706020F003000C2800D2FEE707
:1059A000207900F00300284360603046FFF754FF81
:1059B0003046BDE8F08138B5044613F067FB054674
:1059C00013F099FB0028204605D0218FE18618F0BE
:1059D000FBF9012038BD11F07DFD002820461ED0C6
:1059E00011F044FC218FE08E81420CD02087E08EA4
:1059F00000906A461C21204611F0AEFF0128E9D133
:105A0000204618F0E1F9284613F081FB0428E0D184
:105A1000204616F057FD002112F0ADFCD9E711F039
:105A2000B5FDD6E770B511F093FF054616F090FD71
:105A3000044628460DF0DCF901462046BDE87040DA
:105A400000221BF069BB00002DE9F04F0D4687B026
:105A50000446002116F06AFC60B32946204600F097
:105A600061FA2946204600F06FF80021204617F021
:105A70008DFB05900021204617F03CFC049000218E
:105A8000204617F04EFA012800D000208046002161
:105A9000204617F091FD07460021204617F0BCFA7A
:105AA00042F2D17906464F450BD1608C000508D4EF
:105AB000012707E007B02846BDE8F04F1C2115F08C
:105AC000E3B80027204616F0AFFCDFF878A0834645
:105AD00020460021BAF8042017F06CFCD5F810C05D
