:020000040800F2
:10000000589000205D0200080328000835250008EC
:1000100001280008CB08000891310008000000000A
:100020000000000000000000000000009D0100082A
:100030009509000800000000F9010008F92A0008ED
:1000400077020008770200087702000877020008AC
:10005000770200087702000877020008770200089C
:10006000770200087702000877020008770200088C
:10007000770200087702000877020008CD08000820
:10008000D9080008E5080008770200087702000890
:10009000770200087702000877020008770200085C
:1000A000770200087702000877020008770200084C
:1000B0007702000877020008BD2B000877020008CD
:1000C000770200087702000877020008770200082C
:1000D0005D29000815310008213100087702000869
:1000E000770200087702000877020008770200080C
:1000F00077020008770200087702000877020008FC
:1001000077020008770200087702000877020008EB
:1001100077020008770200087702000877020008DB
:1001200077020008770200087702000877020008CB
:1001300077020008770200087702000877020008BB
:1001400077020008770200087702000877020008AB
:10015000770200087702000877020008770200089B
:10016000770200087702000877020008770200088B
:1001700077020008770200087702000800000000FC
:100180007702000877020008DFF80CD000F060FB6F
:1001900000480047D1470008589000202C4B1968B0
:1001A0000868B0E8F04F80F30988BFF36F8F4FF015
:1001B000000080F3118870470000000008480068C4
:1001C000006880F308884FF0000080F3148862B65E
:1001D00061B6BFF34F8FBFF36F8F00DF00BF00BF6B
:1001E00008ED00E0DFF80C00016841F470010160E7
:1001F000704700BF88ED00E0EFF30980BFF36F8F19
:10020000134B1A681EF0100F08BF20ED108A20E96A
:10021000F04F106009B44FF0500080F31188BFF325
:100220004F8FBFF36F8F06F0D7FA4FF0000080F3C7
:10023000118809BC19680868B0E8F04F1EF0100F6B
:1002400008BFB0EC108A80F30988BFF36F8F704746
:100250005C000020EFF305807047000006488047EF
:1002600006480047FEE7FEE7FEE7FEE7FEE7FEE79B
:10027000FEE7FEE7FEE7FEE7AD2B00088901000878
:100280002DE9F05F0546002092469B4688460646CB
:10029000814640241BE0284641464746224600F05E
:1002A000D0F953465A46C01A914110D31146184608
:1002B000224600F0B7F92D1A67EB01084F46224697
:1002C0000120002100F0AEF917EB00094E41201E7D
:1002D000A4F10104DFDC484631462A464346BDE826
:1002E000F09F40EA01039B0703D009E008C9121FF1
:1002F00008C0042AFAD203E011F8013B00F8013BE0
:10030000521EF9D27047D2B201E000F8012B491E0B
:10031000FBD270470022F6E710B513460A460446A2
:100320001946FFF7F0FF204610BD30B505462A46B6
:100330000B4612F8010B13F8014B08B1A042F8D09C
:100340001CB1002802D06D1CF1E7284630BD421CCC
:1003500010F8011B0029FBD1801A704710B500224C
:1003600000E0521C835C8C5CA34201D1002BF8D1CD
:10037000D8B2E1B2401A10BD30B5054600200346A0
:1003800000E05B1C934205D2EC5CC85C201A01D1F2
:10039000002CF6D130BD2DE9FE4F804681EA0300E6
:1003A000C00F0C46009021F0004123F00045B8EB4F
:1003B0000200A94105D24046214690461C460B4604
:1003C000024623F00040104347D0270DC7F30A0030
:1003D000C3F30A510290401A019040286BDAC3F32C
:1003E000130040F4801B0098924620B10023D2EB0A
:1003F000030A63EB0B0B01985946C0F140025046CB
:1004000000F010F906460D4650465946019A00F094
:1004100028F910EB08006141002487EA115284EAB0
:10042000E7731A4340D0009A62B3019A012A4FEA57
:10043000075215DC001B61EB02014FF0004202EA9B
:100440000752CDE90042001C41F5801132462B468F
:1004500000F028F903B0BDE8F08F40462146F9E7E7
:10046000001B61EB0201001C41F5801300185B4189
:100470002018A2F5001747EB030140EAD570B61922
:100480006D4111E06D084FEA360645EAC0754FEA46
:100490000752001B61EB0201001C41F58011490865
:1004A0004FEA30000019514132462B4603B0BDE8F7
:1004B000F04F00F0E8B80098012240000023D0EB94
:1004C000020263EBE073009821464FEAE074B8EB58
:1004D000000061EB0401E9E783F000435BE781F092
:1004E000004158E72DE9FE4F81EA030404F000447F
:1004F00021F0004100944FF0000B23F0004350EA3C
:1005000001045ED052EA03045BD0C3F30A54C1F382
:100510000A552C44A4F2F3340194A0FB0254C1F315
:10052000130141F48011C3F3130343F4801301FB5F
:10053000024400FB034E840A970A44EA815447EAC6
:100540008357A4FB076802958D0A05FB07854FEAD0
:10055000932C04FB0C542705029D4FEA065847EAEA
:100560001637B5EB08056EEB070C870E920E47EABF
:10057000811742EA8312A7FB0201B6EB0B0164EB81
:1005800000042B0D43EA0C335E1844EB1C50DA4692
:100590005146E7FB0201C5F313044FEA0B3343EA6C
:1005A00014534FEA0432019C43EA0603A4F10C04FD
:1005B0000294009CCDE900B400F074F803B0BDE8EB
:1005C000F08F00200146F9E730B5041E71F10004F8
:1005D00004DB4FF00044404264EB0101141E73F150
:1005E000000405DB1C464FF00043524263EB04035A
:1005F000994208BF904230BD30B50B4601460020FD
:100600002022012409E021FA02F59D4205D303FAD4
:1006100002F5491B04FA02F52844151EA2F1010255
:10062000F1DC30BD202A04DB203A00FA02F1002080
:1006300070479140C2F1200320FA03F31943904020
:100640007047202A04DB203A21FA02F0002170478B
:1006500021FA02F3D040C2F120029140084319462A
:100660007047202A06DBCB17203A41FA02F043EA12
:10067000E07306E041FA02F3D040C2F1200291405B
:1006800008431946704710B5141E73F1000408DAC8
:10069000401C41F1000192185B411A4301D120F046
:1006A000010010BD2DE9F04D92469B4611B1B1FA03
:1006B00081F202E0B0FA80F220329046FFF7B2FFFA
:1006C00004460F4640EA0A0041EA0B0153465A46E7
:1006D000084313D0114653EA010019D0C8F1400273
:1006E0005046FFF7AEFF05460E4650465946424675
:1006F000FFF798FF084305D0012004E02046394663
:10070000BDE8F08D0020054346EAE0762C433743F0
:100710000A986305E40AA0EB08000022FD0A44EAF7
:1007200047540A3002D500200146E9E701051019B7
:100730006941DDE9084500196941BDE8F04DA2E7CE
:100740002DE9F04D81EA030404F0004B21F000454F
:1007500014464FF0000A23F0004150EA050220D071
:1007600054EA01021DD0C5F30A570246C5F313032C
:10077000C1F31300C1F30A5640F4801543F480130B
:10078000A7EB0608101BD64608F2FD3873EB0500F0
:1007900002D308F1010801E092185B41B8F1000FA3
:1007A00003DA00200146BDE8F08D00204FF48011EF
:1007B000064684460EE0171B73EB050705D3121B94
:1007C00063EB050306434CEA010C49084FEA30008D
:1007D00092185B4150EA0107EDD152EA030012D0B2
:1007E00082EA040083EA0501084305D0101BAB41EF
:1007F00006D20122002306E000224FF0004302E06F
:100800006FF0010253101AEB06004CEB085110EB8D
:100810000A0041EB0B01BDE8F04DFFF734BFC1F317
:100820000A52C1F3130140F2FF3341F480119A429E
:1008300002DA00200146704740F233439A42A2F2A6
:10084000334202DC5242FFF7FCBEFFF7EBBE000072
:10085000064C074D06E0E06840F0010394E807000D
:1008600098471034AC42F6D3FFF792FC8C7A00081C
:10087000AC7A000870B58C1810F8015B15F007030E
:1008800001D110F8013B2A1106D110F8012B03E029
:1008900010F8016B01F8016B5B1EF9D12B0705D431
:1008A0000023521E0DD401F8013BFAE710F8013B7A
:1008B000CB1A921C03E013F8015B01F8015B521E96
:1008C000F9D5A142D8D3002070BDFEE7014800F061
:1008D000EDB8000024020020014800F0E7B8000055
:1008E00014030020014800F0E1B800007403002068
:1008F00001681823CAB2103AB2FBF3F2054B6FF34A
:100900000901032A9B5CC36500D9091D816508465E
:10091000704700000175000810B5014600208B6982
:100920008A6A4FF0C07453B1B3F5005F15D072B14D
:10093000012A0CD0022A0AD0032A09D104E01AB1F4
:10094000012A06D0022A03D1C96AC90100D50120B3
:1009500010BDC96AA142FAD010BD002AF7D0012A01
:10096000F2D0022AF3D0032AF3D010BD30B50468C8
:10097000256825F480252560046863608368402B22
:10098000036803D099600068C26030BD9A60006857
:10099000C16030BD704700000A460146014801F0C1
:1009A0009BBF0000208A002010B503F039FA002810
:1009B0001DD1FF2103F036FDFF21012003F032FDA0
:1009C000FF21022003F02EFD0721032003F02AFD62
:1009D000F521042003F026FDF521052003F022FD7A
:1009E00003F088FDBDE81040012003F0F5B810BD0C
:1009F00072B6FEE72DE9F0410446876D00F0C6FAB5
:100A0000064694F835000025022806D0802060654F
:100A100084F834500120BDE8F0812068016821F09D
:100A2000160101602068416921F080014161206C5C
:100A300008B9A06C20B12068016821F008010160AC
:100A40002068016821F0010101600CE000F09EFACD
:100A5000801B052807D920206065032084F8350015
:100A600084F83450D7E720680068C007EED194F8C6
:100A70005C103F208840B860012084F8350084F87D
:100A800034500020C7E790F83510022903D08021A8
:100A9000416501207047052180F835100068016824
:100AA00021F0010101600020704700002DE9F843AA
:100AB00004464FF00009CDF8009063484FF41651FA
:100AC000A56D0068B0FBF1F72E6894F85C10082063
:100AD00000FA01F131420FD021680A6852070BD5A4
:100AE0000A6822F004020A6094F85C108840A8604A
:100AF000606D40F00100606594F85C104FF00108F3
:100B000008FA01F0304208D021684969090604D585
:100B1000A860606D40F00200606594F85C100420ED
:100B20008840304208D021680968890704D5A86048
:100B3000606D40F00400606594F85C1010208840FF
:100B4000304218D021680968090714D5A8602068C8
:100B50000168490304D50068000308D5A16C07E0CB
:100B60000168C90503D4016821F008010160216C06
:100B700009B12046884794F85C1020208840304214
:100B800031D021680968C9062DD5A86094F83500D0
:100B900005282068016806D0490347D5006800038E
:100BA0001DD4616C1CE021F01601016020684169D0
:100BB00021F080014161206C08B9A06C20B120684F
:100BC000016821F00801016094F85C103F20884022
:100BD000A86084F8358084F83490216D1FE0E16BC3
:100BE00009B120468847606D00282BD0606DC00792
:100BF00014D0052084F835002068016821F0010137
:100C000001600098401C0090B84203D8206800683A
:100C1000C007F6D184F8358084F83490E16C00295F
:100C200010D001B02046BDE8F04308470168C9056F
:100C3000D5D4016821F01001016084F8358084F872
:100C40003490CCE7BDE8F883100000202DE9F04196
:100C5000044600F09BF906465CB1022084F835009A
:100C6000002584F834502068016821F001010160FA
:100C70000DE00120BDE8F08100F088F9801B052817
:100C800005D920206065032084F83500F2E720684C
:100C90000068C007F0D12268116820480140D4E9FB
:100CA00001031843D4E903363343184363691843F7
:100CB000A3691843E3691843236A18430843616A28
:100CC000042903D1D4E90B131943084310602068A9
:100CD0004069666A20F0070130460E430127042868
:100CE0000CD1A06A0643E06A40B12046FFF714FE2B
:100CF00020B14020606584F83570BAE7206846610D
:100D00002046FFF7F5FD94F85C203F21914081607B
:100D1000656584F835700020ACE700003F8010F076
:100D20002DE9F0410446866D90F834000025012835
:100D30000DD0012084F8340094F835700020012F84
:100D400007D084F8340002252846BDE8F08102204F
:100D5000FBE7022784F8357060652046FFF706FE42
:100D600094F85C103F208840B0602068016841F032
:100D700016010160206C20B12068016841F0080173
:100D800001602068016841F001010160DCE70000BA
:100D90002DE9F84FDFF8BCA10022012503264FF012
:100DA0000F090AF1040BAAF1040E00BF0B6805FA43
:100DB00002F42340A34270D10F7907F00307012FFB
:100DC00001D0022F16D187684FEA420806FA08FCC4
:100DD00027EA0C07D1F80CC00CFA08FC4CEA070C07
:100DE000C0F808C04768A7430C79C4F300149440C6
:100DF0003C4344600C79E443A4070AD0C4684FEA3A
:100E0000420C06FA0CF7BC438F6807FA0CF727432D
:100E1000C7600C7904F00304022C12D1D40800EB53
:100E2000840CDCF820405707FF0E09FA07F824EA83
:100E30000804D1F8108008FA07F848EA0408CCF84A
:100E4000208004684FEA420C06FA0CF7BC430F7985
:100E500007F0030707FA0CF7274307604C6814F400
:100E6000403F70D03C4C276847F480472760246897
:100E700022F0030704F480440094384C07EB040C80
:100E8000DCF8084897074FEA177809FA08F7BC43D7
:100E9000334FB84202D1002724E054E0314FB8422A
:100EA00001D101271EE0304FB84201D1022719E0DD
:100EB0002E4FB84201D1032714E02D4FB84201D183
:100EC00004270FE02B4FB84201D105270AE02A4F33
:100ED000B84201D1062705E0284FB84201D10727C3
:100EE00000E0082707FA08F72743CCF80878DAF873
:100EF00000405746D1F804C09C435FEACC2C00D593
:100F00001C433C60DBF800405F46D1F804C09C43C2
:100F10005FEA8C2C00D51C433C60DEF8004077462D
:100F2000D1F804C09C435FEA8C3C00D51C433C6074
:100F3000084F083F3C68D1F804C09C435FEACC3CB2
:100F400000D51C433C60521C102AFFF42FAFBDE8B3
:100F5000F88F0000083C0140443802400030014056
:100F6000000002400004024000080240000C024061
:100F7000001002400014024000180240001C024011
:100F80000AB1816170470904FBE7000001488068ED
:100F9000704700000400002070B5040025D094F8CC
:100FA0003D00002520B984F83C50204600F0B8F8F8
:100FB000242084F83D002068016821F001010160CF
:100FC0002068016841F4004101602068016821F453
:100FD0000041016000F0FAFA4D4A6168914201D87F
:100FE0004C4900E04C49884201D2012070BD4B4978
:100FF0002368B0FBF1F15E6826F03F060E435E60A9
:101000006368934206D94FF4967359434FF47A7349
:10101000B1FBF3F12368491C1E6A26F03F063143F9
:1010200019626168914210D84900401EB0FBF1F28C
:10103000521CC2F30B02042A01D2042022E0B0FBAE
:10104000F1F0401CC0F30B001CE0A268F2B301EB0E
:10105000C10303EB0116431EB3FBF6F35B1C43F421
:1010600080431B0549D092B301EBC10202EB011191
:10107000401EB0FBF1F0401CC0F30B0040F4804078
:1010800040F400402168CA694CF6FF739A4310434C
:10109000C861D4E9071001432068026822F0C00249
:1010A00011430160D4E9030101432068826848F2DA
:1010B000FF339A4311438160D4E905010843216855
:1010C000CA6822F0FF021043C86001E00EE016E09B
:1010D0002068016841F0010101602564202084F846
:1010E0003D00256384F83E50002070BD01EB4106B1
:1010F000431EB3FBF6F35B1CB3E70120C2E701EB31
:101100004101401EB0FBF1F0401CC0F30B00B7E7FB
:10111000A086010080841E0000093D0040420F00AF
:1011200010B586B0044614216846FFF7F3F813495A
:101130002068884220D112480021026842F0020251
:101140000260006800F002000590C02000901220AC
:10115000CDE9010103200390042004906946094869
:10116000FFF716FE06481030016841F400110160D7
:10117000006800F40010059006B010BD0054004057
:10118000303802400004024002488168027811446D
:1011900081607047040000200B4810B5016841F4DD
:1011A00000710160016841F480610160016841F4EF
:1011B00080710160032000F09FF80F2000F006F816
:1011C00000F050F8002010BD003C024030B505464C
:1011D0001F4887B00024016841F0040101600068E5
:1011E00006A900F00400009001A800F0CFF90498CF
:1011F000A8B100F0EBF940001649174AB0FBF1F135
:101200001648491E026040F2E732C0E90324C0E9F3
:101210000114846100F0B2FD040003D015E000F079
:10122000D5F9E9E70D4800F0D7FD04000DD11E20E7
:1012300000F034F8102D07D2002229461E2000F0BD
:101240003BF80748056000E0012407B0204630BDA8
:101250004038024040420F0000080040D403002004
:10126000080000200C4882B0016841F48041016010
:10127000006800F4804000900748001F016841F0BA
:10128000805101600068002200F0805000900F2122
:10129000901E02B000F010B844380240002809DB6C
:1012A00000F01F02012191404009800000F1E02080
:1012B000C0F8001170470000F0B40E4B1B680C46DC
:1012C000C3F30223C3F10705042D00D90425191D1A
:1012D000072901D2002300E0DB1E012606FA05F1F2
:1012E000491E214099409E40761E16403143F0BC75
:1012F00001F0B0BF0CED00E0064900F007020868FD
:101300004FF6FF03184040EA0220034A10430860EA
:10131000704700000CED00E00000FA052DE9F843ED
:10132000054600684FF00109C1074FF0000601D1E2
:10133000400727D5DFF80C81C8F86860FFF726FE64
:101340000746414C05E000BFFFF720FEC01B022806
:1013500057D820680001F7D468688101287A41EAEB
:101360000070394984310860C8F86890FFF70EFEB4
:10137000074604E0FFF70AFEC01B022841D8206898
:101380000001F7D52878800752D52F4840300168F2
:1013900041F08051016000682C4C00F080500090BA
:1013A000206840F480702060FFF7F0FD074604E0FD
:1013B000FFF7ECFDC01B022823D82068C005F7D535
:1013C000214C7034206810F4407020D0A98901F4B9
:1013D000407181421BD020681D4920F44070C1F843
:1013E00000900E6020602068C00710D0FFF7CEFD8F
:1013F000064641F2883707E0FFF7C8FD801BB84278
:1014000002D90320BDE8F88320688007F4D5E96895
:101410000D48C1F301220830032A0BD0016821F4E2
:10142000F81101602068A989C1F30B01084320600D
:101430000020E7E70268074B22F4F81219400A433C
:101440000260EFE7000047420038024000700040B1
:10145000400E4742FFFCFF0F2DE9F0470E46050006
:1014600065D0DFF81481D8F80000F7B200F007006B
:10147000B04207D288F80070D8F8000000F00700EA
:10148000B04254D128683D4C810712D5400703D59E
:10149000206840F4E05020602878000703D52068D9
:1014A00040F4604020602068A96820F0F000084304
:1014B00020602878C0072DD0304968680839012895
:1014C00012D0022813D0032811D0096889070029F7
:1014D0002DDA216821F0030101432160FFF756FD59
:1014E000814641F2883A0EE009688903EFE709680E
:1014F0008901ECE7FFF74AFDA0EB0901514502D94C
:101500000320BDE8F0872068696800F00C00B0EBAC
:10151000810FEFD1D8F80010404601F00701B14229
:1015200007D90770006800F00700B04201D0012021
:10153000E7E72878400705D52068E96820F4E050FF
:10154000084320602878000706D52068296920F420
:10155000604040EAC100206000F058F82168084A65
:10156000C1F30311515CC840064908600648006891
:10157000FFF72CFE0020C4E7003C02400838024080
:101580000975000810000020080000200F220260EA
:101590000C4A136803F003034360136803F0F0037D
:1015A0008360136803F4E053C36012684FF4E053A0
:1015B00003EAD20202610448006800F007000860F4
:1015C0007047000008380240003C024004480549CA
:1015D00000680968044AC1F38221515CC840704721
:1015E0001000002008380240197500080448054919
:1015F00000680968044AC1F34231515CC840704731
:10160000100000200838024019750008154810B570
:10161000006810F00C02144813D01449042A0FD0AB
:10162000082A0ED10F4C241F2268236802F03F02C3
:101630005B0207D52068C0F38810A0FB010106E01B
:10164000084610BD2168C1F38811A1FB00010023E9
:10165000FEF716FE2168C1F30141491C4900B0FBA9
:10166000F1F010BD083802400024F40040787D01FC
:101670002DE9F84F04006ED02078DFF84C93C007B6
:10168000A9F104054AD009F104000168C1F3810100
:10169000012908D00068C0F3810002280AD1D9F8D6
:1016A0000000400206D52868800337D5606800280E
:1016B000E1D033E06068B0F5803F10D0B0F5A02FE6
:1016C000286810D020F480302860286820F480201A
:1016D00028606068A8B1FFF759FC06460DE028684D
:1016E00040F48030F4E740F480202860F7E700BF42
:1016F000FFF74CFC801B642873D828688003F7D55B
:101700000CE0FFF743FC064605E000BFFFF73EFC98
:10171000801B6428F0D828688003F7D42078DFF88D
:10172000AC8280074FF0000A3ED5A748001D016833
:1017300011F00C0F08D00068C0F3810002280BD113
:10174000D9F80000400207D42868800716D5E06861
:10175000012800D112E033E1E068B8B10120C8F8F7
:101760000000FFF713FC064605E000BFFFF70EFC84
:10177000801B0228C0D828688007F7D5286821690F
:1017800020F0F80040EAC10028600DE0C8F800A091
:10179000FFF7FCFB064604E0FFF7F8FB801B02287E
:1017A0001FD828688007F7D42078000722D5864FF5
:1017B00087486169703771B101210160FFF7E6FB6D
:1017C000064604E0FFF7E2FB801B022809D83868D0
:1017D0008007F7D50EE0C0F800A0FFF7D7FB06465C
:1017E00005E082E0FFF7D2FB801B02287DD8386835
:1017F0008007F7D42078400768D5DFF8CCB1002700
:101800000BF13C0BDBF80000C0000BD4DBF8001040
:1018100041F08051CBF80010DBF80000012700F008
:10182000805000906B4E3068C00510D4306840F492
:1018300080703060FFF7AAFB009005E0FFF7A6FB81
:101840000099401A022850D83068C005F6D55E4E7F
:10185000A0686C3601280FD00528306810D020F021
:1018600001003060306820F004003060A068B8B13A
:10187000FFF78CFB00900FE0306840F00100F4E7C8
:1018800040F004003060F7E7FFF780FB0099411A51
:1018900041F28830814266D830688007F4D50EE086
:1018A000FFF774FB009007E0FFF770FB0099411A07
:1018B00041F28830814256D830688007F4D42FB185
:1018C000DBF8001021F08051CBF80010A069C8B3FC
:1018D0003D49091D0968C1F3810102294AD0022846
:1018E000504607D0C8F8600000E03CE0FFF74EFB30
:1018F00004463BE04746C8F86000FFF747FB064652
:1019000005E000BFFFF742FB801B02282BD82868A8
:101910008001F7D4D4E907010843A16A2E4A490897
:1019200002EB0141626A41EA8211084394F82C10EB
:1019300040EA0161C9F8001001203866FFF726FB74
:10194000044606E03EE000BFFFF720FB001B022834
:1019500009D828688001F7D534E000BFFFF716FBEF
:10196000001B022802D90320BDE8F88F28688001F7
:10197000F4D427E00128F7D0D9F80000E26900F498
:10198000800191421CD1226A00F03F01914217D19F
:1019900047F6C071626A0140B1EB821F10D1A26AA2
:1019A0004FF0FF3300F4403103EB5202B1EB024F32
:1019B00006D194F82C1000F07060B0EB016F01D0EC
:1019C0000120D1E70020CFE7043802400000474261
:1019D000800E4742007000400000FFFF10B5040079
:1019E00002D0607F10B106E0012010BD00202077FA
:1019F000204600F041F8022060772068C168C943A2
:101A0000C90632D5CA214162216853204862204666
:101A100000F014FF20BB20688168164A11408160E5
:101A20002168886862681043D4E904231A4310438C
:101A300088602168E068086120680169228941EABC
:101A400002410161204600F01DFF48B921680A6C7F
:101A500022F480220A6421680A6CA3691A430A648A
:101A60002268FF21516208B110BD00200121617779
:101A700010BD0000BFFF8FFF1FB500210091019135
:101A8000029103910068084988420CD1022000901D
:101A9000C00103906846FFF741FC08B1FEF7A8FFBC
:101AA0000249012008601FBD002800403C0E47424B
:101AB00070B504460B482168C860FFF767FA054611
:101AC0004FF47A7607E000BFFFF760FA401BB042A0
:101AD00001D9032070BD2068C0688006F4D50020BD
:101AE00070BD00005F7F01007047000038B50168DD
:101AF00004464A688868C043430606D5C30704D134
:101B0000D3435B0601D4216C05E0830708D4D3439B
:101B10001B0605D4616C01B02046BDE83040084783
:101B2000830603D5430601D5C30551D4D3439B0691
:101B30004ED443060AD494F85130032B49D0636D38
:101B400043F004036365CB688B680093830609D474
:101B5000636D43F0010363658B6800930B6823F0AA
:101B600040030B60C00506D4606D40F0080060655E
:101B7000206880680090606D002829D02068416846
:101B800021F0E0014160012084F85100900701D468
:101B9000D00722D02068416821F003014160114D37
:101BA000E06C40B10565E06CFEF76DFF18B1606D4B
:101BB00040F040006065A06C002809D00565A06C6D
:101BC000FEF761FF002803D0606D40F040006065C3
:101BD00038BDC8688868009038BD2046FFF784FF8C
:101BE00038BD00006929000870B5040009D0606A9A
:101BF000002540B125616561A56294F8510040B1AE
:101C00000CE0012070BD6068B0F5827FF4D0E56122
:101C1000F2E784F85050204600F044F8022084F89F
:101C200051002068016821F040010160A0882189ED
:101C300000F4827001F404410843A18901F40061B9
:101C40000843217C01F002010843217D01F00101DC
:101C50000843218B01F400710843217F01F0380112
:101C6000084394F8201001F080010843218D01F40D
:101C70000051084321680860A069042101EA10406E
:101C800094F8241001F0100108432168486020688E
:101C9000C16921F40061C1616565012084F85100CA
:101CA000002070BD2DE9F04387B006461421684638
:101CB000FEF730FB2A49306888424ED1294800257A
:101CC000016841F4804101600068264900F48040C9
:101CD00010390590086840F004000860086800F0BA
:101CE00004000590086840F00200086008680224BB
:101CF00000F0020005900C2003274FF005088DE846
:101D0000B10169461848FFF743F84FF4806901AA0A
:101D1000CDF8009082E8B00169461448FFF738F822
:101D2000144C1348E4E802054020A4E821021148BD
:101D300044F81459A561E56125626562FEF786FFE6
:101D400008B1FEF755FEB464002205212420A663E5
:101D5000FFF7B2FA2420FFF7A1FA07B0BDE8F0833D
:101D600000380040403802400008024000040240B1
:101D700070600240240200207047704710B50400D4
:101D800003D094F83D0010B107E0012010BD002001
:101D900084F83C00204600F01EF8022084F83D0044
:101DA000211D206800F010FF012084F8460084F80F
:101DB0003E0084F83F0084F8400084F8410084F835
:101DC000420084F8430084F8440084F8450084F815
:101DD0003D00002010BD704790F83D10012901D052
:101DE00001207047022180F83D100168CA6842F066
:101DF0000102CA6000681149884214D0B0F1804FD6
:101E000011D00F4988420ED00E4988420BD00E499E
:101E1000884208D00D49884205D00D49884202D039
:101E20000C49884204D1816801F00701062903D0DA
:101E3000016841F00101016000207047000001408D
:101E40000004004000080040000C00400004014075
:101E5000004001400018004070472DE9F041044661
:101E60000068C66805694FF00007A90713D5B107D8
:101E700011D5F91E01610120207720688069800753
:101E8000204602D0FFF7E8FF04E000F07EF820468D
:101E900000F07CF82777680716D5700714D52168FD
:101EA0006FF004000861022020772068806910F438
:101EB000407F204602D0FFF7CFFF04E000F065F836
:101EC000204600F063F82777280715D5300713D58B
:101ED00021686FF008000861042020772068C0693D
:101EE0008007204602D0FFF7B7FF04E000F04DF86E
:101EF000204600F04BF82777E80616D5F00614D5F3
:101F000021686FF010000861082020772068C06900
:101F100010F4407F204602D0FFF79EFF04E000F05F
:101F200034F8204600F032F82777E80708D0F007A9
:101F300006D021686FF001000861204600F028F803
:101F4000280608D5300606D521686FF080000861A4
:101F50002046FFF711FF680608D5700606D52168F0
:101F60006FF040000861204600F020F8A8060AD56E
:101F7000B00608D521686FF0200008612046BDE852
:101F8000F041FFF7FABEBDE8F081704770470000EE
:101F900010B500680449884201D1FFF7F5F8BDE8A3
:101FA0001040012002F008BC00080040704738B51E
:101FB000044690F84200202801D0022038BD51B1DB
:101FC0004AB10120206300206063204600F0FEFF3C
:101FD000216B012901D0012038BD21680A684968B8
:101FE000009121680C3151E8002F42F0100241E8C5
:101FF0000023002BF5D138BD10B50068054A90428A
:1020000006D10548FEF7C8FCBDE8104004F09CB9B5
:1020100010BD0000004400401D7E002070470000FD
:10202000F8B5016804460868CA684B6910F00F0FDC
:102030004FF0000559D003F0010602F490773743C2
:1020400065D0C10705D0D10503D5616C41F0010110
:102050006164410705D5D90703D0616C41F00201E5
:102060006164810705D5D90703D0616C41F0040193
:102070006164010707D502F02001314303D0616C90
:1020800041F008016164616C00293AD0800604D5F2
:10209000900602D5204600F0B2FE20684069616CCF
:1020A000C0F38010090700D460B3204600F072FE30
:1020B00020684069400621D52068143050E8001F90
:1020C00021F0400140E80012002AF5D1E06BA8B1F0
:1020D00072490165E06BFEF7D6FC002811D0E06B79
:1020E000016D01B0BDE8F040084783060FD59306A7
:1020F0000DD52046BDE8F84000F081BE2046FFF730
:102100008DFFF8BD2046FFF789FF6564F8BD266B9B
:102110002023012E7ED1C6067CD5D6067AD5086846
:102120004868009048694FF0020640064DD5E26BC2
:10213000106840684FF480770004000C3AD0A18DFD
:10214000814237D9E085D069B8422DD020680C3063
:1021500050E8001F21F4807140E80012002AF5D1F8
:102160002068143050E8001F21F0010140E80012FF
:10217000002AF5D12068143050E8001F21F04001FA
:1021800040E80012002AF5D184F842302563206827
:102190000C3050E8001F21F0100140E80012002A26
:1021A000F5D1E06BFEF726FC6663A08DE18D401A49
:1021B00081B206E0A18D8142A8D1D069B842A5D1F3
:1021C00066632046FFF718FFF8BDA08DE18D401A29
:1021D00081B2E08D0028F7D00029F5D020680C30BE
:1021E00050E8002F22F4907240E80027002FF5D12C
:1021F0002068143050E8002F22F0010240E8002748
:10220000002FF5D184F84230256320680C3050E867
:10221000002F00E006E022F0100240E80023002B2F
:10222000F3D1CDE705062BD5150629D594F8410045
:102230002128C9D1A068B0F5805F01D12069B0B173
:10224000206A411C2162216800784860E08C401EB1
:102250000004000CE084B7D12068C16821F080013F
:10226000C1602068C16841F04001C160F8BD206ACA
:102270000088C0F308004860206A801C2062E5E7FF
:102280004006F3D55006F1D5CA68204622F0400238
:10229000CA6084F8413000F04CF9F8BD992C000870
:1022A00070B5040004D094F84100002510B106E098
:1022B000012070BD84F84050204600F023F824200F
:1022C00084F841002068C16821F40051C1602046B3
:1022D00000F0F6FD2068016921F490410161206859
:1022E000416921F02A0141612068C16841F400512F
:1022F000C1606564202084F8410084F84200656371
:10230000002070BD2DE9F04186B0064614216846D4
:10231000FEF700F8DFF810C13168444802220323B9
:102320000727434D0024614521D1404914310E68EF
:1023300046F010060E60096801F010010591016871
:1023400041F0010101600068694600F0010005905C
:1023500058028DE81500CDE903372846FEF718FD31
:10236000002205212520FEF7A7FF252056E0DFF8F3
:10237000C4C0614554D12D491031D1F800C04CF48E
:10238000003CC1F800C0096801F400310591016802
:1023900041F0010101600068694600F0010005900C
:1023A0000C208DE81500CDE903372846FEF7F0FC38
:1023B000224D21484FF000672860C5E901744FF4B1
:1023C0008068C5E903486C61AC61EC612C62284609
:1023D0006C62FEF73BFC08B1FEF70AFBF563AE63E7
:1023E000164D154860351830E5E802074020A5E88D
:1023F0001101124845F814496030AC61EC612C625F
:102400006C62FEF723FC08B1FEF7F2FAB563002216
:1024100005212620AE63FEF74FFF2620FEF73EFF84
:1024200006B0BDE8F08100000010014030380240E5
:102430000000024000440040886002401403002075
:1024400090F84230202B01D00220704721B11AB100
:102450000023036300F00ABE0120704710B5006836
:10246000084988420DD10849002308461A464068A9
:1024700004F0E8FBBDE81040012203490348FFF7E0
:10248000DFBF10BD00100140400100208402002089
:1024900070472DE9F843044690F8410098461646E7
:1024A0000D46202802D00220BDE8F88385B17EB118
:1024B00000206064212084F84100FEF767FDA684B7
:1024C0008146E684A0682027B0F5805F02D003E053
:1024D0000120E9E7206910B12E4600250EE0002614
:1024E0000CE08021204600F0DCFDA8B9C6B116F84A
:1024F000010B21684860E08C401EE084E08C4B4674
:102500004FF00002CDF800800028EAD14FF04001E2
:10251000204600F0C6FD40B184F841700320C3E7B7
:1025200035F8020BC0F30800E3E784F8417000209F
:10253000BAE77047FEE70000114808B5016841F4AA
:10254000001101600068002200F4001000900521D5
:102550000F20FEF7B1FE0F20FEF7A0FE002205219E
:102560001020FEF7A9FE1020FEF798FE002205219C
:102570001120FEF7A1FEBDE808401120FEF78EBE37
:102580003038024010B5044A0021044802F068F9CE
:102590000349086010BD0000CC74000879290008C8
:1025A000000000202DE9F04186B014216846FDF7B7
:1025B000B1FE41480024016841F004010160016856
:1025C00001F004010591016841F08001016001689A
:1025D00001F080010591016841F00101016001688D
:1025E00001F001010591016841F0100101600168ED
:1025F00001F010010591016841F0020101600168DC
:1026000001F002010591016841F0080101600068D4
:102610002A4E00F008000590002240213046FEF7C7
:10262000AFFC274F00224FF420413846FEF7A8FCAC
:10263000DFF89080002241F608014046FEF7A0FC3A
:1026400001254020CDE90005CDE902546946304618
:10265000FEF79EFB68030090CDE9015469463846B9
:102660000394FEF795FBE803CDE90005CDE902549C
:1026700069463846FEF78CFB40F608000090CDE92D
:102680000154694640460394FEF782FB2803CDE9D6
:102690000005CDE9025469464046FEF779FB8020EB
:1026A00000904FF48810CDE9010469460648FEF712
:1026B0006FFB06B0BDE8F0813038024000000240F8
:1026C0000010024000040240000C02400D4810B50A
:1026D0000B4901600C49416000214FF48042816048
:1026E000C0E9031241618161C1610162FEF754FCDE
:1026F000002803D0BDE81040FEF77AB910BD0000F5
:102700000054004058010020A086010000B585B0AB
:1027100014216846FDF7FEFD0A480021084AC0E979
:1027200000217F228260FF22C0E903214161816193
:10273000FFF754F9002801D0FEF75AF905B000BDA3
:1027400000280040AC010020104810B50E4901607F
:102750004FF482714160002102228160C0E90312BE
:10276000012242615202C0E9062101624162816296
:102770000A21C162FFF738FA002803D0BDE81040F3
:10278000FEF736B910BD000000380040CC01002033
:102790000C4810B50A4901604FF4E1314160002155
:1027A00081600C22C160C0E904128161C161FFF740
:1027B00077FD002803D0BDE81040FEF719B910BD21
:1027C00000100140840200200C4810B50A49016045
:1027D0004FF4E1314160002181600C22C160C0E909
:1027E00004128161C161FFF75BFD002803D0BDE8E1
:1027F0001040FEF7FDB810BD00440040CC020020A0
:10280000FEE7FEE7012202490248FFF719BE000079
:102810004001002084020020014603484FF0FF32AF
:10282000406804F06FBA0000400100200A460146EB
:1028300064230148FFF72DBE840200202DE9F041FA
:10284000044600680025C168490618D4C16841F0F3
:102850008001C160FEF79AFB06464FF47A780427A0
:1028600007E000BFFEF792FB801B404501D9677768
:1028700001252068C068400601D4002DF2D028460A
:10288000BDE8F08170B5044600680025C16821F0FC
:102890008001C16020688068800606D42046FFF76A
:1028A00007F910B1042060770125284670BDC28861
:1028B00001898A4201D3501A02E08088401A1044EC
:1028C00080B2704700B50346FFF7F1FF9988081AF8
:1028D000401E80B200BD00002DE9F04115460F46B4
:1028E0000446FFF7EFFF854203D913A000F074FC04
:1028F0000CE05DB1A088E188401A86B2E1882068CA
:10290000B542084405D82A46394609E00020BDE80A
:10291000F08132463946FDF7E4FCAA1BB91920685C
:10292000FDF7DFFCE088A1882844B0FBF1F201FB51
:102930001200E0802846EAE752696E6742756666D3
:1029400065725F57726974653A206E6F20656E6FAD
:102950007567682073706163650A00000148FFF7BE
:10296000C5B80000CC01002010B5806B0021C187E4
:10297000C186FFF7B9F810BD1CB5FEF715F840F297
:102980000316294C40F201184FF48179771C40F26C
:10299000051A4FF4837B4FF4FA7524A1CDE9008129
:1029A000294B2AA22FA1002001F072FA2FA1CDE914
:1029B0000091254B25A22BA1012001F069FA32A03C
:1029C000CDE90060204B21A226A1022001F060FA8F
:1029D00034A0CDE900701C4B1CA222A1032001F001
:1029E00057FA37A1CDE900A1174B18A21DA1042069
:1029F00001F04EFA39A1CDE900B1134B13A219A190
:102A0000052001F045FA002240212046FEF7B8FAE1
:102A1000284603F0E3FD012240212046FEF7B0FAEC
:102A2000284603F0DBFDB8E70000024048656C6C07
:102A30006F20456173794C6F6767657220417373CE
:102A4000657274210D0A0000F07400082E2E2F43C9
:102A50006F72652F5372632F6672656572746F7340
:102A60002E6300004E4F5F544147000048656C6C78
:102A70006F20456173794C6F67676572204572728C
:102A80006F72210D0A00000048656C6C6F20456173
:102A900073794C6F67676572205761726E210D0AFA
:102AA0000000000048656C6C6F20456173794C6FC5
:102AB0006767657220496E666F210D0A000000008D
:102AC00048656C6C6F20456173794C6F6767657200
:102AD000204465627567210D0A00000048656C6C32
:102AE0006F20456173794C6F676765722056657218
:102AF000626F7365210D0A0010B54FF0E020006988
:102B000004F0EAFA012803D0BDE8104003F030BF1A
:102B100010BD000030B593B030216846FDF7FAFBD8
:102B200014210CA8FDF7F6FB1E480024016841F0B3
:102B300080510160006800F0805011901A480168CF
:102B400041F4804101600068022500F4804011904A
:102B5000062000900120029003901020049006951A
:102B60000820CDE90740A820CDE9090504200B90F5
:102B70006846FEF77DFD08B172B6FEE70F20CDE98D
:102B80000C054FF4A050CDE90E404FF4805010904A
:102B900005210CA8FEF760FC002801D072B6FEE704
:102BA00013B030BD40380240007000400248016858
:102BB00041F470010160704788ED00E00148FFF7C3
:102BC0004CB90000D4030020F0B50268274B284D13
:102BD000284E294F294C4FF0804C984209D060452F
:102BE00007D0A84205D0B04203D0B84201D0A042DD
:102BF00004D122F0700E4A6842EA0E0298421BD0BD
:102C0000604519D0A84217D0B04215D0B84213D0B1
:102C1000A04211D01A4DA8420ED01A4DA8420BD096
:102C2000194DA84208D0194DA84205D0184DA84208
:102C300002D0184DA84203D122F44075CA682A4335
:102C40004D6922F080022A438D68C5620D68856255
:102C5000984201D0A04201D109690163016841F0A5
:102C600004010160012141610260F0BD00000140EA
:102C70000004004000080040000C00400004014037
:102C8000004001400044014000480140001800405D
:102C9000001C00400020004010B5806B0021C18561
:102CA000FFF7BCF910BD70B5846B2068406994F8DB
:102CB0004110C0F3C0100025212904D118B1E584CA
:102CC000204600F08EF82068406994F84210C0F366
:102CD0008010222904D118B1E585204600F05AF869
:102CE000606C40F0100060642046FFF797F970BDFB
:102CF00010B50146806B096809684FF00002C905EC
:102D00002ED4C28501680C3151E8003F23F4807352
:102D100041E80034002CF5D10168143151E8003F3E
:102D200023F0010341E80034002CF5D1016814318F
:102D300051E8003F23F0400341E80034002CF5D176
:102D4000202180F84210016B012909D101680C3162
:102D500051E8003F23F0100341E80034002CF5D186
:102D60004263016B012902D0FFF778FB10BD818D12
:102D7000FFF742F910BD10B5806B01214163016B73
:102D8000012902D0FFF784FB10BD818D4908FFF7B0
:102D900033F910BD01680C3151E8002F22F4907214
:102DA00041E80023002BF5D10168143151E8002FD0
:102DB00022F0010241E80023002BF5D1016B01292B
:102DC00009D101680C3151E8002F22F0100241E8CE
:102DD0000023002BF5D1202180F84210002101634F
:102DE000704701680C3151E8002F22F0C00241E821
:102DF0000023002BF5D1202180F84110704708B541
:102E000090F84210222901D0022008BD82684FF4B8
:102E100080539A4201D1016921B1816A9A421BD043
:102E20004AB10AE00268816A5268C2F308020A8065
:102E3000816A891C08E0026972B10268526802F076
:102E40007F020A70816A491C8162C18D491E090492
:102E5000090CC18503D01BE002685268F1E70168E4
:102E6000CA6822F02002CA600168CA6822F480722F
:102E7000CA6001684A6922F001024A61202180F893
:102E8000421000214163026B012A03D0FFF7E6FAEA
:102E9000002008BD016301680C3151E8002F22F0C9
:102EA000100241E80023002BF5D101680A68D20620
:102EB00002D50A6849680091818DFFF79DF8E7E720
:102EC00070B5044600680169E26821F4405111437D
:102ED00001612169A068E2690843616911430843FF
:102EE0002168CA6849F20C639A430243CA602068A9
:102EF0004169A26921F4407111434161314920685F
:102F0000884202D03049884202D1FEF76FFB01E0CF
:102F1000FEF75CFBE2690023192164253226B2F535
:102F2000004F626828D0A0FB0101930F9200FDF7CB
:102F3000A7F90146B0FBF5F06FF01802504301EB22
:102F4000800006EB0010B0FBF5F000F0F002B1FBE2
:102F5000F5F002EB0012B1FBF5F06FF018035843E7
:102F600001EB800006EB0010B0FBF5F000F00F0065
:102F700021681044886070BDA0FB010192185B417C
:102F8000FDF77EF90146B0FBF5F00201B1FBF5F06B
:102F90006FF01803584301EB800006EBC000B0FB54
:102FA000F5F000F0F80002EB4002B1FBF5F05843F9
:102FB00001EB800006EBC000B0FBF5F000F007006D
:102FC000D6E70000001001400014014038B58162CE
:102FD00004468285002013466064222284F8422041
:102FE000E56B1F4AEA63E56B1E4A2A64E56B1E4ADD
:102FF000EA64E26B10650A462168E06B091DFDF783
:103000008FFE30B110206064202084F8420001203F
:1030100038BD2068016840680090206948B1206888
:103020000C3050E8001F41F4807140E80012002A83
:10303000F5D12068143050E8001F41F0010140E84C
:103040000012002AF5D12068143050E8001F41F02A
:10305000400140E80012002AF5D1002038BD0000F0
:10306000F12C0008772D0008A72C000881628285CA
:10307000C28500214164222180F84210016921B1FA
:103080000168CA6842F48072CA6001684A6942F005
:1030900001024A610068C16841F02001C16000205E
:1030A00070472DE9F843984617460D460446089E9A
:1030B00024E0701C22D0FDF769FFA0EB0800B042AD
:1030C0001AD8CEB12068C168490717D5802D15D010
:1030D000402D13D00168C94309070FD401680025AA
:1030E000406800902046FFF755FE0820606484F891
:1030F00040500120BDE8F8830320FBE7206800680A
:1031000035EA000004D00020B842D2D00020F1E718
:103110000120F9E70148FEF783BF00008402002088
:103120000148FEF77DBF0000CC02002010B5002250
:103130000121052003F03DFC0649486028B1BDE8A7
:10314000104001F1080000F01DB8BDE8104002A0D9
:1031500000F042B8400100204572726F723A20467A
:1031600061696C656420746F2063726561746520A9
:1031700055415254312052582071756575652E0A9B
:103180000000000001490860704700003C01002079
:10319000FEE7000010B5FFF7C9FF0648006820B140
:1031A000006810B1BDE810400047BDE8104002487B
:1031B00000F012B83C010020487A0008044A126866
:1031C00012B1526802B11047024800F005B8000081
:1031D0003C010020047A00080FB4054B10B503A988
:1031E000044A029800F018F910BC5DF814FB0000C6
:1031F000A1460008540100200FB41CB5024600206F
:1032000007AC00290BD0491ECDE90021054B6A46C9
:103210002146069800F000F9009A002111701CBCAC
:103220005DF814FB473B00087CB5044600201D46B2
:10323000164600290BD0491ECDE90041044B6A46D1
:103240002946304600F0E8F8009A002111707CBD54
:10325000473B00080907090E002804DB00F1E020C5
:1032600080F80014704700F00F0000F1E02080F8B3
:10327000141D704702E008C8121F08C1002AFAD1C5
:1032800070477047002001E001C1121F002AFBD1E6
:10329000704700002DE9FF5F82B00021DDE90430B6
:1032A000020DDDF840B0034318D044F61050A2F2EE
:1032B000FF3242431514119801281FD0A5EB0B00D3
:1032C000401C5FEA000A4FF000064E4FDFF83891CD
:1032D000B046504615D5CAF1000413E011980124F8
:1032E0004AA3012801D16FEA0B010298119AC0E9A3
:1032F0000031C0E9024206B0BDE8F09FCBF100000A
:10330000DFE704460021404A491842EB0450CDE96A
:10331000001012E0E00707D032463B4640464946DF
:10332000FDF7E0F88046894632463B46104619468E
:10333000FDF7D8F806460F466410002CEAD1DDE907
:103340000401DDE90023BAF1000F06DAFDF7CAF83F
:1033500042464B46FDF7C6F805E0FDF7F1F9424657
:103360004B46FDF7EDF904460E460022284BFDF7CB
:103370002BF903D84FF0FF30014607E00022254B20
:1033800020463146FDF707F8FDF749FA102409E019
:10339000002C0ADB0A220023FCF772FF039B303269
:1033A0001A55641E50EA0102F2D1641C039AC4F15A
:1033B00011031444119A012A03D0012208430DD1AC
:1033C0000AE0084304D000204FF0110B119072E77F
:1033D000A3EB0B056D1E0DE05B4504DD4FF0000215
:1033E00005F1010504E003DA4FF00002A5F1010543
:1033F000002AECD002981199C0E90231C0E90045D9
:1034000079E70000000014400000F03F30000000A9
:103410000000F0430000E03F2DE9FF4F95B09B46D0
:103420008946064600250FE2252877D10024274645
:10343000F84A0121059400E0044316F8013F203BBF
:1034400001FA03F01042F7D130782A2811D06FF03A
:103450002F033078A0F13002092A16D8059A44F0DB
:10346000020402EB820203EB42021044761C059038
:10347000EFE759F8042B0592002A03DA504244F48E
:103480000054059044F00204761C30782E2816D1A2
:1034900016F8010F44F004042A280DD06FF02F0213
:1034A0003078A0F13003092B09D807EB870302EB32
:1034B0004303C718761CF3E759F8047B761C307871
:1034C0006C280FD006DC4C2817D068280DD06A284D
:1034D00014D104E0742810D07A280FD10DE044F400
:1034E00000140AE044F4801401E044F440147278BB
:1034F000824202D104F58014761C761C307866284E
:103500000BD013DC582877D009DC002875D045286B
:10351000F6D04628F4D047281AD19DE118E0632858
:1035200035D0642879D0652812D195E1702873D000
:1035300008DC6728F1D069286FD06E280DD06F287D
:1035400006D1B5E073282CD0752875D0782874D0B2
:103550005A46179990476D1C75E1C4F30250022832
:1035600009D003280DD0D9F8001004280DD00D6023
:1035700009F1040967E1D9F80010EA17C1E900521E
:10358000F6E7D9F800100D80F2E70D70F0E719F8B2
:10359000041B8DF8001000208DF80100EA46012080
:1035A00003E059F804AB4FF0FF3061074FF0000122
:1035B00002D40DE008F101018846B9420FDA8045D6
:1035C000F8DB1AF808100029F4D108E008F101012D
:1035D00088468142FADB1AF808100029F6D10598CE
:1035E0005B46A0EB080721463846179A00F094FA8C
:1035F000284400EB080507E04DE029E10DE01AF84A
:10360000010B5A4617999047B8F10108F7D25B466B
:1036100021463846179A13E142E00A220092C4F389
:1036200002524FF0000A022A08D059F804CB032AAC
:103630004FEAEC710AD00DE029E02AE009F1070118
:1036400021F00702F2E802C1914609E00FFA8CFC72
:103650004FEAEC71042A03D14FFA8CFC4FEAEC716B
:10366000002907DA0A460021DCF1000C61EB0201B7
:103670002D2202E0220504D52B228DF80420012200
:1036800003E0E20701D02022F7E7904659E00A2143
:1036900002E010220DE010214FF0000A00910BE033
:1036A00010224FF0000A44F004040827009203E0BF
:1036B00008224FF0000A0092C4F30252022A05D0F9
:1036C00059F804CB0021032A08D009E009F10701C9
:1036D00021F00702F2E802C1914605E01FFA8CFCD6
:1036E000042A01D10CF0FF0C4FF00008220728D566
:1036F000702806D0009B83F0100353EA0A0305D01C
:103700000EE040228DF80420012208E05CEA01026C
:1037100006D030228DF804208DF805000222904654
:10372000009B83F0080353EA0A030AD15CEA010212
:1037300001D1620705D530228DF804204FF0010831
:103740007F1E582804D034A003900EA802900DE0EC
:1037500036A0F9E753466046009AFCF791FD84468F
:103760000398825C0298401E029002705CEA01009D
:10377000F0D1029806A9081A00F1200A600702D5C4
:1037800024F4803400E00127574502DDA7EB0A004E
:1037900000E0002000EB0A01009005984144401A27
:1037A0000590E00306D45B462146179A059800F081
:1037B000B3F90544002706E001A85A46C05D1799F1
:1037C00090476D1C7F1C4745F6DBE0030CD55B463C
:1037D0002146179A059800F09FF9054404E030202F
:1037E0005A46179990476D1C0099481E0090002971
:1037F000F5DC08E0029802995A460078491C0291CB
:10380000179990476D1CBAF10001AAF1010AF1DC89
:1038100065E1000009280100303132333435363794
:10382000383961626364656600000000303132330C
:1038300034353637383941424344454600000000AC
:1038400000F058F90544761C307800287FF4ECAD80
:1038500019B02846BDE8F08F620700D4062709F1A9
:10386000070222F0070CFCE80223E14603F00048BF
:103870005FEA080C02D00FF2702C0DE05FEA045CE6
:1038800002D50FF2682C07E05FEAC47C02D00FF289
:10389000602C01E0AFF2700C4FF0FF3823F00043D2
:1038A000CDF850C065280CD006DC452809D0462844
:1038B0001DD047283DD13DE0662818D067287ED12D
:1038C00038E00021112F01DB112000E0781CCDE948
:1038D000000106A90EA8FFF7DDFCDDE90F010E9A35
:1038E00003910021009207F1010A04914DE04FF08D
:1038F00000400097CDE9011006A90EA8FFF7CAFC09
:10390000DDE90F0203920E9B11990022DDF80CA055
:103910000093049211B9791C00EB010AB7EB0A007D
:1039200004D4C0F1FF3007F1010A0490AAEB0700AC
:10393000019044E0012F00DA01270021112F01DD61
:10394000112000E03846CDE9000106A90EA8FFF7D6
:10395000A1FCDDE90F010E9A039100210491009270
:10396000BA4621070CD40399514500DA8A46BAF1C8
:10397000010F05DD009AAAF10101515C302908D040
:10398000B84202DA10F1040F06DA0121CDE9011084
:1039900015E0AAF10101E9E7002805DC04990144DA
:1039A0000491AAEB000102E0411C514500DD8A466A
:1039B0000499401A401C01904FF0004002902007EB
:1039C00004D40198504501DBCDF8048000208DF827
:1039D0004F0002980DF14F07B0F1004F25D02B207A
:1039E0000E9002984FF0020800280CDA4042029034
:1039F0002D200E9007E00A210298FCF7FDFD3031E2
:103A0000029007F8011DB8F10001A8F10108F2DCED
:103A100002980028EFD1791E0E980870307800F0D7
:103A2000200040F0450007F8020D12A8C01B00F16D
:103A300007081498007800B1012000EB0A010198F2
:103A400001EBE07105984144401A401E0590E003E7
:103A500006D45B462146179A059800F05DF80544A8
:103A60001498007818B15A46179990476D1CE003D6
:103A700024D55B462146179A059800F04DF8054479
:103A80001CE00498002807DBDDE90301884203DD20
:103A90000098405C179901E0179930205A469047EA
:103AA000049805F10105401C04900198401E019006
:103AB00004D12E205A46179990476D1CBAF1000187
:103AC000AAF1010ADDDC05E017F8010B5A46179947
:103AD00090476D1CB8F10001A8F10108F4DC5B46C9
:103AE0002146179A0598ABE62D0000002B00000038
:103AF000200000002DE9F041044600251E4617462F
:103B0000880404D405E039462020B0476D1C641EAB
:103B1000F9D52846BDE8F0812DE9F041044600259D
:103B20001E469046C80301D5302700E020278804B0
:103B300004D505E041463846B0476D1C641EF9D5F2
:103B40002846BDE8F0814A68002A06D00A68531C5E
:103B50000B6010704868401E4860704770B50C4696
:103B6000064600F03FF8D0F5205013D0174DA04284
:103B700002D804460120A870686815490219B2F5F8
:103B8000205F09D2084422463146FCF7AAFB686848
:103B9000204415E0002416E0C0F5205208443146C8
:103BA000FCF79FFB6868C0F52051621A311A08487B
:103BB00001F52051FCF795FB68682044A0F52050E2
:103BC00068600020E870204670BD000050000020B2
:103BD000240D002070470000014948707047000024
:103BE000500000200A48D0E90112914201D9881AF8
:103BF00070478378C078184303D033B14FF4205016
:103C00007047501AC0F520507047002070470000E0
:103C10005000002070B50C46064600F013FBFFF77D
:103C2000E1FFA0B19CB1184DA04202D8044601208A
:103C3000E870A86815490219B2F5205F09D201445D
:103C400022463046FCF74DFBA868204415E00024CE
:103C500016E0C0F5205201443046FCF742FBA8684C
:103C6000C0F52051621A301A084900F52050FCF7BF
:103C700038FBA8682044A0F52050A8600020A87058
:103C800000F006FB204670BD50000020240D0020EF
:103C9000034900200A78002A01D101220A707047E6
:103CA000500000200846094910B5497800291146FE
:103CB00007D0FFF753FF002807D0BDE8104000F001
:103CC00007B8BDE8104000F02FBB10BD5000002029
:103CD00003484068002801D000F04BBE7047000048
:103CE000140000200A4D4FF0FF364FF48064314637
:103CF000686800F04BFE0028F9D121460548FFF71F
:103D000089FF0028F3D081B20248FFF757FAF4E7A1
:103D1000140000201C040020F0B585B0070007D176
:103D20001F484FF4F0720368A3B11E491EA09847C4
:103D3000224D0024052695F8F000002819D000F047
:103D400081FA00BF04EB4410411991F85100012899
:103D500012D017E01348CDE90302009212A118A374
:103D6000CDE9013103461FA22BA1002000F090F8FD
:103D7000FEE705B03046F0BD1E2238463231FCF772
:103D8000FBFA30B1641CE4B2052CDBD300F080FAFE
:103D9000EFE704EB4410284490F83160F6E70000A8
:103DA0001C000020B375000874616720213D2028A5
:103DB00028766F6964202A29302900002C0C002005
:103DC00028257329206861732061737365727420DC
:103DD0006661696C65642061742025733A256C64A2
:103DE0002E0000002E2E5C4D6964646C6577617254
:103DF00065735C54686972645F50617274795C4584
:103E00006173794C6F676765725C7372635C656C34
:103E10006F672E6300000000656C6F670000000094
:103E20002DE9F041194D002095F8F01001292BD013
:103E300000F058FA002827D1FFF72AFF060023D107
:103E4000012000F00FFA002785F8F37085F8F47070
:103E5000012085F8F500052000F080FA0024B8461E
:103E600004EB4410471907F132001F21FCF752FA06
:103E7000641C87F83180E4B287F85180052CEFD3B9
:103E8000012085F8F0003046BDE8F0812C0C0020C0
:103E90000FB42DE9F04F06468BB08B460846FCF771
:103EA00056FA00240A940746A146099405940694FC
:103EB00007940894052E08D9B44840F23E220368BE
:103EC000002B7DD0B249B3A09847B94D95F8F100C9
:103ED000002876D02878B04273D35846FFF71CFFED
:103EE000B0426ED3691C5846FCF71FFA002868D010
:103EF0000DF1680A00F0A6F9A84695F8F500A5F5B9
:103F0000806570B12946ABA2204600F045FB04460F
:103F10009E4829191C3050F82620204600F03CFB12
:103F200004440121304600F0C9FB40B197482919EB
:103F3000001D50F82620204600F02EFB04440221EC
:103F4000304600F0BBFBC8B129195A46204600F0A4
:103F500023FB04440F2F0BD8C7F10F01202205A823
:103F6000FCF7D1F9291905AA204600F015FB0444F5
:103F7000291991A2204600F00FFB04441C21304671
:103F800000F09CFB00284BD029198CA2204600F0A1
:103F900003FB04440421304600F090FBA8B100F07C
:103FA00091F902462919204600F0F6FA0444182136
:103FB000304600F083FB40B129197FA2204601E082
:103FC00036E0DDE000F0E8FA04440821304600F075
:103FD00075FB90B100F06CF902462919204600F0FB
:103FE000DBFA04441021304600F068FB28B129199F
:103FF00071A2204600F0D0FA04441021304600F0AF
:104000005DFB38B100F05AF902462919204600F04C
:10401000C3FA044429196AA2204600F0BDFA0444F8
:1040200020213046169A00F0B5FB00281CD10EE086
:104030005748CDE90302009256A162A3CDE90131B0
:10404000034669A275A10020FFF722FFFEE7402189
:104050003046179A00F09EFB30B980213046189AFE
:1040600000F0A1FB002856D029196EA2204600F0CE
:1040700093FA044420213046169A00F08BFBD0B10D
:1040800029192046169A00F087FA04444021304648
:10409000179A00F07FFB10B1291963A207E0802175
:1040A0003046189A00F07FFB28B1291942A2204619
:1040B00000F072FA044480213046189A00F073FB35
:1040C000B8B15AA2052109A8189BFFF795F829193C
:1040D00009AA204600F060FA044440213046179AAD
:1040E00000F058FB28B1291933A2204600F054FAF9
:1040F000044440213046179A00F04CFB28B129199E
:104100002046179A00F048FA0444291948A220468C
:1041100000F042FA0444C4F5806128195346199A04
:10412000FFF782F804444FF48062944204D80028D8
:1041300002DB601D904201D940F2FB3498F8200068
:10414000474640B11A4905F804902031A1F5846032
:10415000FCF7EBF890B197F8F50028B1291935A2D2
:10416000204600F019FA0444291934A2204600F030
:1041700013FA021932493046FFF794FD00F088F82F
:104180000BB0BDE8F00F5DF814FB00001C00002030
:10419000CB7500086C6576656C203C3D20454C4F26
:1041A000475F4C564C5F564552424F534500000006
:1041B0002C0C00201B5B0000200000005B000000B6
:1041C0005D200000282573292068617320617373C6
:1041D000657274206661696C656420617420257362
:1041E0003A256C642E0000002E2E5C4D6964646CD0
:1041F0006577617265735C54686972645F5061725F
:1042000074795C456173794C6F676765725C737232
:10421000635C656C6F672E6300000000656C6F6700
:1042200000000000280000003A000000256C640037
:10423000290000001B5B306D000000000A00000038
:104240002C08002070B5064C012594F8F20020B12E
:1042500000F06EF884F8F45070BD84F8F35070BD2F
:104260002C0C00200949002881F8F2000DD00748E5
:1042700091F8F41090F8F30019B1002805D100F07E
:1042800063B8002801D000F053B870472C0C002010
:1042900070B5064C002594F8F20020B100F054F8F7
:1042A00084F8F45070BD84F8F35070BD2C0C0020DD
:1042B00000A070477461736B0000000000A070479D
:1042C0000000000010B500F010FB034603A210210F
:1042D0000348FEF791FF024810BD0000257500005D
:1042E0001C0800200EB5FEF755FF0A4800F0FFFA43
:1042F00008480021001D00F027FB17214FF48060C3
:10430000CDE900010023044A04A102A800F052FBF9
:1043100000200EBD14000020E53C0008656C6F67AE
:104320005F6173796E63000089B2FEF747BF0000DA
:1043300004480068002803D04FF0FF3100F0E3BAD2
:10434000704700001400002003480068002801D0D6
:1043500000F0EDBA704700001400002010B586B0E0
:104360000446052807D90D484FF4AD72036833B1F0
:104370000B490CA098471248047006B010BD0848BD
:10438000CDE90302009207A10EA3CDE90131034656
:1043900015A222A10020FFF77BFDFEE71C000020F4
:1043A000877500086C6576656C203C3D20454C4F58
:1043B000475F4C564C5F564552424F5345000000F4
:1043C0002C0C0020282573292068617320617373E9
:1043D000657274206661696C656420617420257360
:1043E0003A256C642E0000002E2E5C4D6964646CCE
:1043F0006577617265735C54686972645F5061725D
:1044000074795C456173794C6F676765725C737230
:10441000635C656C6F672E6300000000656C6F67FE
:104420000000000030B585B00D460446052807D9C8
:104430000E484FF4A07203684BB10D490DA0984788
:10444000134800EB8400C0F8D85005B030BD0848D0
:10445000CDE90302009207A10EA3CDE90131034685
:1044600015A222A10020FFF713FDFEE71C0000208B
:104470006A7500086C6576656C203C3D20454C4FA4
:10448000475F4C564C5F564552424F534500000023
:104490002C0C002028257329206861732061737318
:1044A000657274206661696C65642061742025738F
:1044B0003A256C642E0000002E2E5C4D6964646CFD
:1044C0006577617265735C54686972645F5061728C
:1044D00074795C456173794C6F676765725C737260
:1044E000635C656C6F672E6300000000656C6F672E
:1044F000000000000EB50B4890F8F010002910D015
:10450000012180F8F1100846FFF766FB06A208A11A
:10451000F6208DE80700104B10A21DA10320FFF725
:10452000B7FC0EBD2C0C0020322E322E3939000083
:10453000456173794C6F67676572205625732069F2
:104540007320696E697469616C697A65207375633B
:10455000636573732E000000217500082E2E5C4DDC
:104560006964646C6577617265735C5468697264D0
:104570005F50617274795C456173794C6F676765F0
:10458000725C7372635C656C6F672E630000000081
:10459000656C6F67000000002DE9F043DFF88C9038
:1045A000DFF88C8085B00D0006461446174606D10C
:1045B000D8F800302BB12C2249461EA098477CB178
:1045C00015E01CA202922C20CDE903901AA3CDE99C
:1045D0000003164B21A22FA10020FFF759FCFEE794
:1045E000D8F800307BB12D2210492CA098474FF409
:1045F00080622078B0B13146761C914212D205F823
:10460000010B641CF5E725A202922D20CDE9039051
:1046100009A3CDE90003054B10A21EA10020FFF75E
:1046200037FCFEE705B0E01BBDE8F0830376000829
:104630001C000020647374002825732920686173AE
:1046400020617373657274206661696C65642061B2
:10465000742025733A256C642E0000002E2E5C4DCC
:104660006964646C6577617265735C5468697264CF
:104670005F50617274795C456173794C6F676765EF
:10468000725C7372635C656C6F675F7574696C7381
:104690002E630000656C6F6700000000737263009A
:1046A00013B54FF0FF33012269460248FDF7F1FED2
:1046B00000981CBD840200200020704730B585B0F2
:1046C0000D460446052807D9104840F2DF2203684A
:1046D00063B10F490FA09847154800EB8400D0F84C
:1046E000D800284000D0012005B030BD0848CDE9F1
:1046F0000302009207A10FA3CDE90131034616A2E0
:1047000022A10020FFF7C4FBFEE700001C000020F0
:10471000D77500086C6576656C203C3D20454C4F94
:10472000475F4C564C5F564552424F534500000080
:104730002C0C002028257329206861732061737375
:10474000657274206661696C6564206174202573EC
:104750003A256C642E0000002E2E5C4D6964646C5A
:104760006577617265735C54686972645F506172E9
:1047700074795C456173794C6F676765725C7372BD
:10478000635C656C6F672E6300000000656C6F678B
:104790000000000010B522B1FFF790FF08B1012022
:1047A00010BD002010BD10B522B1FFF787FF08B182
:1047B000012010BD002010BD0449002281F8C02056
:1047C00051F8BC2F10440860704700002C8A00206C
:1047D000FCF7E2FCFEF79EF9FDF7E4FEFDF7ACFE08
:1047E000FDF7D6FFFDF7B0FFFDF770FFFDF7ECFF1B
:1047F000FDF78CFF00F006F8FDF7C4FE00F014F89A
:10480000FEE70000EFF3058010B16FF00500704780
:104810000448016811B14FF0FF3070470121016079
:1048200000207047B400002010B5EFF3058010B1F0
:104830006FF0050010BD08480168012902D04FF053
:10484000FF3010BD054A002182F8141D02210160CD
:1048500001F074FF002010BDB40000200BE000E068
:104860002DE9FF414FEA01034FF00005EFF3058109
:10487000039549BB40B38027182100244AB316682A
:1048800006B1344696691EB13146761E382E02D2E4
:104890001679F60703D0002004B0BDE8F081566910
:1048A00006B1B708D2F808C0BCF1000F0DD0D5682A
:1048B000602D18D312693AB136B18DE806103A4628
:1048C000214602F0DEFB03900DE0D6685EB9126966
:1048D0004AB903AACDE90012BAB2214602F0A4FBFC
:1048E000012800D003950398D6E702F003BC10B569
:1048F0000446012002F052F8206008B1002010BDEB
:104900006FF0020010BD10B54A1C0BD04FF47A7244
:104910005143B1FBF2F102F091FA012805D06FF09A
:10492000010010BD4FF0FF31F5E7002010BD00235E
:1049300010B51A46194602F0D5F8012802D04FF0FA
:10494000FF3010BD002010BD70B50C460546032297
:104950000021012002F02DF8286038B124B1002395
:104960001A46194602F0BEF8002070BD6FF0020032
:1049700070BD002310B51A46194602F0B3F801289D
:1049800002D04FF0FF3010BD002010BD10B54A1C02
:104990000BD04FF47A725143B1FBF2F102F04EFAB0
:1049A000012805D06FF0010010BD4FF0FF31F5E791
:1049B000002010BD7CB51546DDE90642CDE900209A
:1049C000C4F38F02284602F02FFB012802D04FF0DB
:1049D000FF307CBD00207CBD2DE9F041134C0F461B
:1049E0000546E6682068001D01F0C0FC681C07D180
:1049F00037B12168BDE8F0410D48091D01F009BD3E
:104A000020683544B5424560216805D2206CBDE878
:104A1000F041091D01F0E5BCE06B091D01F0E1FC6E
:104A2000A06A854200D2A562BDE8F0815C0000204A
:104A3000143A00202DE9F041054601F0F7FC2D4C19
:104A4000A068401CA06020682B4F10B1606930B393
:104A50002BE02560A068012827D1002606EB860000
:104A600007EB800001F0AFFC761C382EF6D323480C
:104A700001F0A9FC2148143001F0A5FC1F482830A2
:104A800001F0A1FC1D483C3001F09DFC1B4850305A
:104A900001F099FC1948E0631430206405E02068B7
:104AA000E96AC06A884200D82560606A401C60627A
:104AB0006864E86A2169884200D9206100EB8000BF
:104AC00007EB8000291D01F0A4FC01F0CFFC606918
:104AD00000280CD02068E96AC06A884207D20849D9
:104AE0004FF080500860BFF34F8FBFF36F8FBDE86A
:104AF000F08100005C00002064350020C4390020F3
:104B000004ED00E038B501F091FC104C2068C8B904
:104B10000F4801F058FC0E48143001F054FC0C48CA
:104B2000E060143020610A4B0020F03B009003F15C
:104B3000500210210A2001F05DFF206010B105A194
:104B400001F016FDBDE8384001F090BCA000002047
:104B5000183B0020546D72510000000030B4026C0C
:104B60000B46002A0BD0C1681144C1608468A14281
:104B700001D30168C16030BC1846FBF7B2BB30BC42
:104B800070472DE9F041856B174604460026026CFC
:104B900082B1C7B1E068FBF7A4FBE168206C091A99
:104BA000E1602268914202D2A168081AE060022FF7
:104BB00016D017E02068A8B9A06802F00DFB0646E1
:104BC0000020A0600EE06068FBF78BFB216C606842
:104BD00008446060A168884204D32068606001E0F6
:104BE00005B16D1E6D1CA5633046BDE8F08110B5A2
:104BF000044690F85D0058B101280CD002280FD06F
:104C0000502080F31188BFF34F8FBFF36F8FFEE703
:104C1000206B01F03FFC2046BDE8104001F03ABC9B
:104C200010BD000010484FF47051420706D0C01D5F
:104C30000D4920F00700411AC1F570510B4A0023BD
:104C40000144C2E900030839183A21F00701116054
:104C50004B600B600B1AC0E9001393604FF00040EB
:104C6000536050617047000000420020D0000020D7
:104C7000154E164CA6F29C474FF08058DFF8509026
:104C800012E000BF01F0D2FBF068C568281D01F0FA
:104C90006DFBA068401EA0606068401E606001F06F
:104CA000E5FB2846FFF7A3FF60680028EAD13868D3
:104CB000012805D9C9F80080BFF34F8FBFF36F8F6C
:104CC00001F07EFBF0E70000003A00205C000020CD
:104CD00004ED00E0002807D00021816001600B4650
:104CE0000A46C16001F0FEBE7047000070B51D4667
:104CF000049C51B1C4F80020C4E90F0101212046F1
:104D000001F0ACFE84F84C5070BD2460F4E7000064
:104D10002DE9F05F8846DDE90B9415468346910046
:104D20009A460A9EA522206BFBF7EDFA6FF003016D
:104D3000206B01EB8501084420F00707780707D0B6
:104D4000502080F31188BFF34F8FBFF36F8FFEE7C2
:104D50000025B8F1000F0FD05FF00000221818F8FE
:104D6000001082F8341018F8001011B1401C1028FF
:104D7000F4D384F8435001E084F83450382E00D343
:104D80003726E662C4E91365201D01F027FB04F114
:104D9000180001F023FB2461C6F138006462A061B1
:104DA0006565A56584F85C5052465946384600F062
:104DB00067FA2060B9F1000F01D0C9F80040BDE8E2
:104DC000F09F000030B5114900E011460A688242A8
:104DD000FBD34B685C18844203D140681844486098
:104DE000084643681C18944209D1084C183C2468B2
:104DF000A24209D052681A4442600A6812680260EE
:104E0000814200D0086030BD0460F9E7D000002086
:104E100070B5002441600B4D0061914206D8D11A53
:104E20008269914206D2011D286907E09A4203D2A5
:104E3000994201D3012403E0011DE86801F0D1FA91
:104E4000204670BDA000002010B5044601F0EEFA27
:104E5000A06B28B15FF0000401F008FB204610BDF4
:104E60000124F9E730B589B03C4D6EE00498002884
:104E700006DADDE90601059A90470498002864DB0C
:104E8000069C606910B1201D01F070FA03A800F0C3
:104E9000D7F8024604980A2857D2DFE800F0050543
:104EA000052D334A05052D3394F8280040F0010004
:104EB00084F828000599A069059B01442046FFF766
:104EC000A7FF68B3216A2046884794F82800400766
:104ED0003BD5002000900598A1690023421819468F
:104EE000204602F0BFFAD8B9502080F31188BFF3F2
:104EF0004F8FBFF36F8FFEE714F8280F20F00100EB
:104F0000207022E094F8280040F0010084F8280086
:104F10000598A06128B1811813462046FFF778FF55
:104F200013E0502080F31188BFF34F8FBFF36F8FD2
:104F3000FEE794F82800810703D4204601F0AAFA7E
:104F400003E020F0010084F82800002204A928686A
:104F500001F0D8FE002889D109B030BDA0000020A2
:104F60002DE9FC410F46054601F02EFC01A800F09A
:104F700067F80446019818B102F0E2F9BDE8FC8137
:104F8000254EAFB130690068D0B30027291B3A46DF
:104F9000306801F001FB02F0D3F90028EED11F497F
:104FA0004FF080500860BFF34F8FBFF36F8FE5E77E
:104FB000A542EBD802F0C4F9F0682746C068C4687F
:104FC000201D01F0D3F994F82800410719D5A069F4
:104FD0002B4641193A462046FFF71AFFA8B1002098
:104FE0000346014600902A46204602F03BFA60B98B
:104FF000502080F31188BFF34F8FBFF36F8FFEE710
:1050000007E020F0010084F82800216A2046884744
:10501000B4E70127BAE70000A000002004ED00E09B
:105020000648C16B096829B1C16BC968C96849687C
:10503000816270474FF0FF31FAE700005C0000200A
:1050400070B5054602F056F8064E0446B068844234
:1050500003D200F009F8012000E00020286020467B
:10506000B46070BDA0000020F8B5194D20E0C06804
:10507000C4680668201D01F079F9216A2046884736
:1050800094F82800400713D5A0693044B04206D9EF
:1050900024616060211DE86801F0A3F908E00020A8
:1050A0000346014600903246204602F0DBF938B153
:1050B000E86801680029DAD12969C5E90310F8BD5B
:1050C000502080F31188BFF34F8FBFF36F8FFEE73F
:1050D000A000002008484068401C4FF0500080F3BA
:1050E000118804D0BFF34F8FBFF36F8FFEE7BFF37C
:1050F0004F8FBFF36F8FFEE7D8000020074CE068AA
:10510000016841B1C0680021D0F80000FFF728FF16
:10511000FFF7A8FEF3E701210020F7E7A000002039
:105120002DE9F041044601F081F994F9455004F16C
:10513000240609E0606A48B1304602F0C9F808B1B7
:1051400001F07AFA6D1E6DB2002DF3DC4FF0FF36E0
:1051500084F8456001F08AF901F068F994F9445047
:1051600004F1100709E0206948B1384602F0B0F8B0
:1051700008B101F061FA6D1E6DB2002DF3DC84F808
:105180004460BDE8F04101F071B900002DE9F04143
:105190000546002701F018FB324E306808B9FFF7CA
:1051A00041FD706905424ED1C5B3083568070ED080
:1051B00005F00700C0F108000544680707D050203B
:1051C00080F31188BFF34F8FBFF36F8FFEE72DB3CE
:1051D0007068854237D82348183001460C6801E0D2
:1051E00020460C466168A94202D221680029F7D105
:1051F00031688C4227D007682168016060680837F1
:10520000411B10290FD96019420708D0502080F3A4
:105210001188BFF34F8FBFF36F8FFEE713E041603C
:105220006560FFF7CFFD61687068401A7060B26812
:10523000904200D2B060706901430020C4E90001CF
:10524000F068401CF06002F07BF8780707D050202F
:1052500080F31188BFF34F8FBFF36F8FFEE738469F
:10526000BDE8F081B80000200449086818B108685A
:10527000026D521C02650868704700005C00002047
:1052800010B5031F4FF080741C601B1F21F001013B
:105290001960191F044B0B6014390A60091F6FF065
:1052A000020244380A6010BDD5500008012100F008
:1052B0004DB80B784BB14A7802F00F02082A04D09F
:1052C00002685AB11278134208D090F86000C00703
:1052D00002D14878C00601D5002070474FF0FF305A
:1052E0007047000010B500F093FA002805D003497C
:1052F000896BBDE8104001F015B810BDE800002032
:10530000F8B505468089E989401A04B2202607E0ED
:105310008DF80060AA6E012168469047641E24B291
:10532000002CF5DC297B2846BDE8F84000F07AB86F
:1053300010B500F06DFA002803D0BDE8104000F071
:1053400049BB10BD4FF0FF31AFF30080F8B5044604
:10535000481C03D00023E28912B103E00123FAE7DD
:1053600001295DD0A089824201D14D1C58D0002571
:10537000824201D1012901D0184613E0521E401E7D
:10538000E28180B2A08121690D542046BDE8F84039
:10539000012100F047B822691144421E465C401CBE
:1053A0008E5400B2A289E189521A8242F3DCA089AC
:1053B000401EA081082643B9E089401EE0818DF897
:1053C0000060A26E012168469047A189206945547A
:1053D000B4F90E5009E020690121405D8DF800000C
:1053E000A26E684690476D1C2DB2A089A842F2DCDF
:1053F00020208DF80000A26E012168469047A08908
:10540000E189401A401C05B208E000BF8DF8006039
:10541000A26E0121684690476D1E2DB2002DF5DC6D
:10542000F8BD000070B50C46054603E003A1284610
:1054300000F078FF641EE4B2F8D270BD08200800C6
:105440004FF0FF3100F02BBA10B5044600F006F81B
:105450002046BDE81040012100F0F6BEF8B5044634
:10546000808900283CD021690025224E0D5494F8F3
:105470006000C00728D0204600F05DFA08200090A8
:10548000A189202304F11402206900F04DFD0004DD
:10549000000CE086E581A58122D017A1204600F00E
:1054A00041FF00232046A26D616900F019FC010054
:1054B00004D02046BDE8F84000F0B4BB2046B169F6
:1054C000BDE8F84000F02EBF206881682069FAF737
:1054D00045FF30B1716B204600F024FFA581E581C6
:1054E000F8BD94F8600040F0010084F86000316875
:1054F000F1E70000E80000200D0A000001782729EC
:1055000006D0014600200A785C2A03D01046704776
:10551000411CF7E749786E290FD004DC3029F6D01A
:10552000622904D105E0722905D0742907D0084604
:105530007047082070470D2070470A2070470920E7
:105540007047F0B50746002539780A26012328461A
:105550002C462D2908D00021CA19002192F800C03C
:10556000BCF1300F04D01EE04FF0FF330121F3E710
:105570005178782907D0582905D0622905D04229C9
:1055800003D002210FE003210DE001210BE092F88E
:1055900000C0BCF12E0F06D192F801C0BCF1000F83
:1055A00001D0042111E012F801CBBCF1000FEED1C3
:1055B000012908D0022903D0032906D1102603E0CF
:1055C0000826012501E0022602253D445A1C02D08E
:1055D000002215441FE00122FBE72E2A05D0A2F18C
:1055E0003007092F03D8FAB20FE0012412E0A2F12C
:1055F0006107052F01D8573A04E0A2F14107052FB2
:1056000002D8373AD2B200E0002200FB062004EBB9
:10561000840254006D1C2A78002ADED1042913D19B
:1056200094B100EE100AB8EE401A00EE104AB8EE3F
:10563000400AC1EE000A00EE103AB8EEC00A20EEB1
:10564000800A10EE100AF0BD5843F0BD2DE9F0417C
:10565000044608781E4622B1242850D14A7822B93F
:105660004DE027280AD02D2803D0A0F13002092AC6
:105670000BD80846FFF765FF306033E04A78002A10
:10568000F3D00846FFF73AFFF6E74FF0000824286A
:1056900006D080B300270D460C46222811D01BE00F
:1056A0004A78002AF6D000232046491CA26D00F05B
:1056B00017FB010003D0204600F0BEF8DCE74046AF
:1056C000DAE76C1C254607E05C280ED0222813D0B0
:1056D000E8557F1CBFB2641C20780028F4D105F87F
:1056E000078035600020BDE8F0812046FFF706FF07
:1056F000E855641CEDE702E005F80780E9E74FF0A4
:10570000FF30F0E72DE9F04F8BB00C4683469A4608
:105710001546202103A8FAF7FDFDA0786E1E00F0C3
:105720000F07B74200DC374600254FF0FF380DF178
:105730000C090AE00AEB850009EB850341680022A9
:105740005846FFF783FFB0BB6D1CB542F2DB082F54
:105750003DD2DFE807F004090D12181E2631A068BB
:1057600080470BB0BDE8F08FA16803988847F8E741
:10577000DDE90301A2689047F3E703ADA36895E86C
:1057800007009847EDE703ADA46895E80F00A04730
:10579000E7E7A468079803AD009095E80F00A047DD
:1057A000DFE7A468DDE9070103ADCDE9000195E875
:1057B0000F00A047D5E70AE007ABA46893E807000D
:1057C0008DE8070003AD95E80F00A047C9E7404604
:1057D000C7E7C0687047000000B500210B4A3023BE
:1057E0005354491CC9B20929FAD3417801F00F0179
:1057F000012903D9072901D9082901D8406800BD2A
:105800004068024900F0C8FC004800BD147E00203A
:105810000849002051F8202032B192F86020920708
:1058200002D551F820007047401C00B20528F1DB7A
:1058300000207047007E00204A78002002F00F020E
:10584000921E062A06D2DFE802F003060A0D0D0FAB
:105850008868006870478868B0F9000070478868F9
:1058600000787047886870478868416809B10068A7
:1058700008470020704710B50B460446FFF7C8FFE5
:1058800000280BD0012C05D008DD5968BDE8104078
:1058900000F0AEBCBDE8104000F09CB810BD70B583
:1058A00000250446002918DDB4F95430A3F10100A5
:1058B000A4F85400B4F85010B4F85200814201D951
:1058C0000A4600E002465242934212DC814200D96D
:1058D00008464042A4F854000BE009DAB4F854003A
:1058E000401C00B2A4F85400002802DDA4F8545073
:1058F00070BD2046FFF704FDB4F95400C0B1B4F800
:10590000521008440521401D90FBF1F201FB1200EA
:1059100004EB8000C16B206900F08EFBA0810028A1
:10592000E6D0E08120462169BDE8704000F0FABC75
:10593000A581E58170BD70B500250446A0F85450DE
:10594000B0F8500058B1B4F85200216900B90520F0
:1059500004EB8000806BFAF701FD00281ED0B4F83C
:105960005200216904EB8000C06B00F065FB20B1A0
:10597000B4F85200401CA4F85200B4F85000401C87
:1059800080B2A4F85000052802D90520A4F85000E0
:10599000B4F85200052801D3A4F8525070BD10B5D8
:1059A000FFF736FF002803D0BDE8104000F0B2B882
:1059B00010BD38B50446C089002809D008208DF8EC
:1059C0000000A26E012168469047E089401EE081F8
:1059D00038BD00002DE9F0410646876D0F4881680B
:1059E000304600F09FFC002412E000BF07EB0415D6
:1059F000687800F00F00012808D829463046FFF7E4
:105A000058FC18B92946304600F00AF8641C24B244
:105A1000B6F85C00A042E9DCBDE8F081E8000020B7
:105A2000F8B505460E460846FFF7D6FE014628465D
:105A300000F078FCC0F1160004B2002C00DC042455
:105A40005FF020078DF80070AA6E0121684690472C
:105A5000641E24B2002CF5D1707800F00F012948A3
:105A6000012901D8016C0CE0072901D8416C08E03C
:105A7000082901D8816C04E0092901D8C16C00E033
:105A8000016D284600F04EFC1FA1284600F04AFC9C
:105A900007240127307807FA04F1084201D0782062
:105AA00000E02D208DF80000AA6E01216846904785
:105AB000641E64B2002CEDDA13A1284600F032FC1B
:105AC0003046FFF786FEAA6E03460021A2B102E02F
:105AD000491C89B2401C04781CB10D2C01D00A2C41
