:020000040800F2
:10000000B0E501205D0200089B1F0008A71D000845
:10001000991F000867040008552800080000000028
:100020000000000000000000000000009D0100082A
:100030001905000800000000F9010008D923000894
:1000400077020008770200087702000877020008AC
:10005000770200087702000877020008770200089C
:10006000770200087702000877020008770200088C
:100070007702000877020008770200086904000888
:10008000770200087702000877020008770200086C
:10009000770200087702000877020008770200085C
:1000A000770200087702000877020008770200084C
:1000B00077020008770200089924000877020008F8
:1000C000770200087702000877020008770200082C
:1000D000212000084928000877020008770200085C
:1000E000770200087702000877020008770200080C
:1000F00077020008770200087702000877020008FC
:1001000077020008770200087702000877020008EB
:1001100077020008770200087702000877020008DB
:1001200077020008770200087702000877020008CB
:1001300077020008770200087702000877020008BB
:1001400077020008770200087702000877020008AB
:10015000770200087702000877020008770200089B
:10016000770200087702000877020008770200088B
:1001700077020008770200087702000800000000FC
:100180007702000877020008DFF80CD000F02EF9A3
:1001900000480047E9020208B0E501202C4B19682D
:1001A0000868B0E8F04F80F30988BFF36F8F4FF015
:1001B000000080F3118870470000000008480068C4
:1001C000006880F308884FF0000080F3148862B65E
:1001D00061B6BFF34F8FBFF36F8F00DF00BF00BF6B
:1001E00008ED00E0DFF80C00016841F470010160E7
:1001F000704700BF88ED00E0EFF30980BFF36F8F19
:10020000134B1A681EF0100F08BF20ED108A20E96A
:10021000F04F106009B44FF0500080F31188BFF325
:100220004F8FBFF36F8F25F0D5FC4FF0000080F3A8
:10023000118809BC19680868B0E8F04F1EF0100F6B
:1002400008BFB0EC108A80F30988BFF36F8F704746
:1002500018000020EFF30580704700000648804733
:1002600006480047FEE7FEE7FEE7FEE7FEE7FEE79B
:10027000FEE7FEE7FEE7FEE78924000889010008A3
:100280002DE9F05F0546002092469B4688460646CB
:10029000814640241BE0284641464746224600F05E
:1002A00095F853465A46C01A914110D31146184644
:1002B000224600F07CF82D1A67EB01084F462246D3
:1002C0000120002100F073F817EB00094E41201EB9
:1002D000A4F10104DFDC484631462A464346BDE826
:1002E000F09F10B5431A934209D28318881803E08F
:1002F00010F8011D03F8011D521EF9D210BD40EA8D
:1003000001039B0703D009E008C9121F08C0042A93
:10031000FAD203E011F8013B00F8013B521EF9D27A
:1003200010BDD2B201E000F8012B491EFBD270478C
:100330000022F6E710B513460A4604461946FFF7B1
:10034000F0FF204610BD421C10F8011B0029FBD114
:10035000801A704710B5002200E0521C835C8C5C50
:10036000A34201D1002BF8D1D8B2E1B2401A10BD9E
:10037000034611F8012B00F8012B002AF9D1184689
:10038000704730B50B46014600202022012409E0C9
:1003900021FA02F59D4205D303FA02F5491B04FA3E
:1003A00002F52844151EA2F10102F1DC30BD202A1D
:1003B00004DB203A00FA02F1002070479140C2F1BC
:1003C000200320FA03F3194390407047202A04DBEE
:1003D000203A21FA02F00021704721FA02F3D040BE
:1003E000C2F120029140084319467047064C074D60
:1003F00006E0E06840F0010394E8070098471034F5
:10040000AC42F6D3FFF7C4FE54AF020874AF020843
:1004100070B58C1810F8015B15F0070301D110F8C6
:10042000013B2A1106D110F8012B03E010F8016BF3
:1004300001F8016B5B1EF9D12B0705D40023521E76
:100440000DD401F8013BFAE710F8013BCB1A921CDE
:1004500003E013F8015B01F8015B521EF9D5A142DC
:10046000D8D3002070BDFEE7014800F0E3B80000DB
:100470002803002001681823CAB2103AB2FBF3F235
:10048000054B6FF30901032A9B5CC36500D9091D65
:1004900081650846704700008868020810B501466B
:1004A00000208B698A6A4FF0C07453B1B3F5005FC6
:1004B00015D072B1012A0CD0022A0AD0032A09D120
:1004C00004E01AB1012A06D0022A03D1C96AC9017F
:1004D00000D5012010BDC96AA142FAD010BD002A82
:1004E000F7D0012AF2D0022AF3D0032AF3D010BDAC
:1004F00030B50468256825F48025256004686360AC
:100500008368402B036803D099600068C26030BDE7
:100510009A600068C16030BD7047000038B5044C77
:10052000049D6468002C01D00095A04738BD0000F0
:10053000A8DF012010B500F00BF80448006800287F
:1005400002D0BDE81040004710BD0000A8DF012028
:1005500010B5044801F0CAFE0248BDE810401C3046
:1005600000F002B8A402002002490DC881E80D0085
:1005700070470000A8DF012072B6FEE72DE9F041C8
:100580000446876D00F0C6FA064694F8350000254B
:10059000022806D08020606584F834500120BDE830
:1005A000F0812068016821F016010160206841692E
:1005B00021F080014161206C08B9A06C20B1206855
:1005C000016821F0080101602068016821F0010143
:1005D00001600CE000F09EFA801B052807D920205E
:1005E0006065032084F8350084F83450D7E720682C
:1005F0000068C007EED194F85C103F208840B860D6
:10060000012084F8350084F834500020C7E790F8C2
:100610003510022903D08021416501207047052152
:1006200080F835100068016821F0010101600020A8
:10063000704700002DE9F84304464FF00009CDF85B
:10064000009063484FF41651A56D0068B0FBF1F7B8
:100650002E6894F85C10082000FA01F131420FD0A6
:1006600021680A6852070BD50A6822F004020A6062
:1006700094F85C108840A860606D40F001006065EF
:1006800094F85C104FF0010808FA01F0304208D0ED
:1006900021684969090604D5A860606D40F0020030
:1006A000606594F85C1004208840304208D02168CE
:1006B0000968890704D5A860606D40F00400606592
:1006C00094F85C1010208840304218D021680968E6
:1006D000090714D5A86020680168490304D500689B
:1006E000000308D5A16C07E00168C90503D40168BF
:1006F00021F008010160216C09B12046884794F877
:100700005C1020208840304231D021680968C90639
:100710002DD5A86094F8350005282068016806D01A
:10072000490347D5006800031DD4616C1CE021F02B
:10073000160101602068416921F080014161206C4F
:1007400008B9A06C20B12068016821F0080101609F
:1007500094F85C103F208840A86084F8358084F8C5
:100760003490216D1FE0E16B09B120468847606D30
:1007700000282BD0606DC00714D0052084F8350008
:100780002068016821F0010101600098401C009080
:10079000B84203D820680068C007F6D184F83580D5
:1007A00084F83490E16C002910D001B02046BDE8F7
:1007B000F04308470168C905D5D4016821F010014C
:1007C000016084F8358084F83490CCE7BDE8F88384
:1007D000140000202DE9F041044600F09BF9064684
:1007E0005CB1022084F83500002584F8345020687C
:1007F000016821F0010101600DE00120BDE8F081F8
:1008000000F088F9801B052805D9202060650320A9
:1008100084F83500F2E720680068C007F0D122684C
:10082000116820480140D4E901031843D4E9033694
:100830003343184363691843A3691843E3691843B2
:10084000236A18430843616A042903D1D4E90B13CE
:1008500019430843106020684069666A20F0070168
:1008600030460E43012704280CD1A06A0643E06AF3
:1008700040B12046FFF712FE20B14020606584F8A9
:100880003570BAE7206846612046FFF7F3FD94F81B
:100890005C203F2191408160656584F835700020BF
:1008A000ACE700003F8010F02DE9F0410446866D72
:1008B00090F83400002501280DD0012084F8340080
:1008C00094F835700020012F07D084F834000225F9
:1008D0002846BDE8F0810220FBE7022784F8357046
:1008E00060652046FFF704FE94F85C103F208840C6
:1008F000B0602068016841F016010160206C20B1F1
:100900002068016841F0080101602068016841F039
:1009100001010160DCE700002DE9F84FDFF8BCA120
:100920000022012503264FF00F090AF1040BAAF15A
:10093000040E00BF0B6805FA02F42340A34270D1F5
:100940000F7907F00307012F01D0022F16D1876816
:100950004FEA420806FA08FC27EA0C07D1F80CC057
:100960000CFA08FC4CEA070CC0F808C04768A7431B
:100970000C79C4F3001494403C4344600C79E44384
:10098000A4070AD0C4684FEA420C06FA0CF7BC432D
:100990008F6807FA0CF72743C7600C7904F003044B
:1009A000022C12D1D40800EB840CDCF8204057074D
:1009B000FF0E09FA07F824EA0804D1F8108008FAB3
:1009C00007F848EA0408CCF8208004684FEA420C93
:1009D00006FA0CF7BC430F7907F0030707FA0CF788
:1009E000274307604C6814F4403F70D03C4C2768A4
:1009F00047F480472760246822F0030704F480440A
:100A00000094384C07EB040CDCF8084897074FEAD1
:100A1000177809FA08F7BC43334FB84202D10027D0
:100A200024E054E0314FB84201D101271EE0304F9D
:100A3000B84201D1022719E02E4FB84201D1032755
:100A400014E02D4FB84201D104270FE02B4FB842DC
:100A500001D105270AE02A4FB84201D1062705E057
:100A6000284FB84201D1072700E0082707FA08F706
:100A70002743CCF80878DAF800405746D1F804C08C
:100A80009C435FEACC2C00D51C433C60DBF8004063
:100A90005F46D1F804C09C435FEA8C2C00D51C4310
:100AA0003C60DEF800407746D1F804C09C435FEA22
:100AB0008C3C00D51C433C60084F083F3C68D1F893
:100AC00004C09C435FEACC3C00D51C433C60521CF4
:100AD000102AFFF42FAFBDE8F88F0000083C01405A
:100AE000443802400030014000000240000402404F
:100AF00000080240000C02400010024000140240B6
:100B000000180240001C02400AB1816170470904CC
:100B1000FBE70000014880687047000008000020E3
:100B20000248816802781144816070470800002003
:100B30000B4810B5016841F400710160016841F48F
:100B400080610160016841F480710160032000F060
:100B50009FF80F2000F006F800F050F8002010BDBC
:100B6000003C024030B505461F4887B000240168AC
:100B700041F004010160006806A900F00400009043
:100B800001A800F031F90498A8B100F04DF9400037
:100B90001649174AB0FBF1F11648491E026040F2AF
:100BA000E732C0E90324C0E90114846100F0BBFD11
:100BB000040003D015E000F037F9E9E70D4800F034
:100BC000E1FD04000DD11E2000F034F8102D07D2F5
:100BD000002229461E2000F03BF80748056000E08F
:100BE000012407B0204630BD4038024040420F008B
:100BF00000080040D00300200C0000200C4882B008
:100C0000016841F480410160006800F48040009078
:100C10000748001F016841F0805101600068002210
:100C200000F0805000900F21901E02B000F010B82C
:100C300044380240002809DB00F01F0201219140E6
:100C40004009800000F1E020C0F80011704700006A
:100C5000F0B40E4B1B680C46C3F30223C3F1070527
:100C6000042D00D90425191D072901D2002300E015
:100C7000DB1E012606FA05F1491E214099409E40DF
:100C8000761E16403143F0BC01F0F6BD0CED00E0DD
:100C9000064900F0070208684FF6FF03184040EAD3
:100CA0000220034A10430860704700000CED00E08A
:100CB0000000FA052DE9F0470E46050065D0DFF883
:100CC0001481D8F80000F7B200F00700B04207D254
:100CD00088F80070D8F8000000F00700B04254D146
:100CE00028683D4C810712D5400703D5206840F4A1
:100CF000E05020602878000703D5206840F4604069
:100D000020602068A96820F0F0000843206028785F
:100D1000C0072DD0304968680839012812D0022850
:100D200013D0032811D00968890700292DDA21681A
:100D300021F0030101432160FFF7ECFE814641F2FF
:100D4000883A0EE009688903EFE709688901ECE752
:100D5000FFF7E0FEA0EB0901514502D90320BDE8F1
:100D6000F0872068696800F00C00B0EB810FEFD1CC
:100D7000D8F80010404601F00701B14207D90770CA
:100D8000006800F00700B04201D00120E7E72878B2
:100D9000400705D52068E96820F4E050084320604A
:100DA0002878000706D52068296920F4604040EAC9
:100DB000C100206000F058F82168084AC1F303110F
:100DC000515CC8400649086006480068FFF7CAFE43
:100DD0000020C4E7003C0240083802409068020846
:100DE000140000200C0000200F2202600C4A13683F
:100DF00003F003034360136803F0F0038360136898
:100E000003F4E053C36012684FF4E05303EAD202E4
:100E100002610448006800F00700086070470000A5
:100E200008380240003C024004480549006809684F
:100E3000044AC1F38221515CC8407047140000206D
:100E400008380240A068020804480549006809689B
:100E5000044AC1F34231515CC8407047140000207D
:100E600008380240A0680208154810B5006810F064
:100E70000C02144813D01449042A0FD0082A0ED1AA
:100E80000F4C241F2268236802F03F025B0207D543
:100E90002068C0F38810A0FB010106E0084610BDE1
:100EA0002168C1F38811A1FB00010023FFF7E8F9D5
:100EB0002168C1F30141491C4900B0FBF1F010BDAC
:100EC000083802400024F40040787D012DE9F84FF5
:100ED00004006ED02078DFF84C93C007A9F1040518
:100EE0004AD009F104000168C1F38101012908D049
:100EF0000068C0F3810002280AD1D9F8000040023E
:100F000006D52868800337D560680028E1D033E033
:100F10006068B0F5803F10D0B0F5A02F286810D0E1
:100F200020F480302860286820F4802028606068E1
:100F3000A8B1FFF7EFFD06460DE0286840F48030C9
:100F4000F4E740F480202860F7E700BFFFF7E2FDF8
:100F5000801B642873D828688003F7D50CE0FFF75E
:100F6000D9FD064605E000BFFFF7D4FD801B6428CD
:100F7000F0D828688003F7D42078DFF8AC828007A7
:100F80004FF0000A3ED5A748001D016811F00C0F74
:100F900008D00068C0F3810002280BD1D9F8000006
:100FA000400207D42868800716D5E068012800D1E0
:100FB00012E033E1E068B8B10120C8F80000FFF7A3
:100FC000A9FD064605E000BFFFF7A4FD801B02282F
:100FD000C0D828688007F7D52868216920F0F80074
:100FE00040EAC10028600DE0C8F800A0FFF792FDBC
:100FF000064604E0FFF78EFD801B02281FD82868F4
:101000008007F7D42078000722D5864F874861698A
:10101000703771B101210160FFF77CFD064604E0E5
:10102000FFF778FD801B022809D838688007F7D5BC
:101030000EE0C0F800A0FFF76DFD064605E082E077
:10104000FFF768FD801B02287DD838688007F7D439
:101050002078400768D5DFF8CCB100270BF13C0BB6
:10106000DBF80000C0000BD4DBF8001041F0805129
:10107000CBF80010DBF80000012700F08050009052
:101080006B4E3068C00510D4306840F4807030601A
:10109000FFF740FD009005E0FFF73CFD0099401A86
:1010A000022850D83068C005F6D55E4EA0686C3670
:1010B00001280FD00528306810D020F001003060E2
:1010C000306820F004003060A068B8B1FFF722FD5E
:1010D00000900FE0306840F00100F4E740F00400B9
:1010E0003060F7E7FFF716FD0099411A41F28830AA
:1010F000814266D830688007F4D50EE0FFF70AFD1C
:10110000009007E0FFF706FD0099411A41F2883090
:10111000814256D830688007F4D42FB1DBF8001034
:1011200021F08051CBF80010A069C8B33D49091DDA
:101130000968C1F3810102294AD00228504607D02C
:10114000C8F8600000E03CE0FFF7E4FC04463BE048
:101150004746C8F86000FFF7DDFC064605E000BF23
:10116000FFF7D8FC801B02282BD828688001F7D411
:10117000D4E907010843A16A2E4A490802EB01415C
:10118000626A41EA8211084394F82C1040EA016136
:10119000C9F8001001203866FFF7BCFC044606E0E1
:1011A0003EE000BFFFF7B6FC001B022809D8286804
:1011B0008001F7D534E000BFFFF7ACFC001B02282C
:1011C00002D90320BDE8F88F28688001F4D427E015
:1011D0000128F7D0D9F80000E26900F480019142BB
:1011E0001CD1226A00F03F01914217D147F6C0712D
:1011F000626A0140B1EB821F10D1A26A4FF0FF3347
:1012000000F4403103EB5202B1EB024F06D194F8E7
:101210002C1000F07060B0EB016F01D00120D1E71D
:101220000020CFE70438024000004742800E4742CA
:10123000007000400000FFFF7047000038B50168F3
:1012400004464A688868C043430606D5C30704D1EC
:10125000D3435B0601D4216C05E0830708D4D34354
:101260001B0605D4616C01B02046BDE8304008473C
:10127000830603D5430601D5C30551D4D3439B064A
:101280004ED443060AD494F85130032B49D0636DF1
:1012900043F004036365CB688B680093830609D42D
:1012A000636D43F0010363658B6800930B6823F063
:1012B00040030B60C00506D4606D40F00800606517
:1012C000206880680090606D002829D020684168FF
:1012D00021F0E0014160012084F85100900701D421
:1012E000D00722D02068416821F003014160114DF0
:1012F000E06C40B10565E06CFFF789F918B1606DED
:1013000040F040006065A06C002809D00565A06C25
:10131000FFF77DF9002803D0606D40F04000606564
:1013200038BDC8688868009038BD2046FFF784FF44
:1013300038BD00002D20000870B5040009D0606A97
:10134000002540B125616561A56294F8510040B166
:101350000CE0012070BD6068B0F5827FF4D0E561DB
:10136000F2E784F85050204600F044F8022084F858
:1013700051002068016821F040010160A0882189A6
:1013800000F4827001F404410843A18901F4006172
:101390000843217C01F002010843217D01F0010195
:1013A0000843218B01F400710843217F01F03801CB
:1013B000084394F8201001F080010843218D01F4C6
:1013C0000051084321680860A069042101EA104027
:1013D00094F8241001F01001084321684860206847
:1013E000C16921F40061C1616565012084F8510083
:1013F000002070BD2DE9F04387B0064614216846F1
:10140000FEF796FF2A49306888424ED129480025C8
:10141000016841F4804101600068264900F4804081
:1014200010390590086840F004000860086800F072
:1014300004000590086840F0020008600868022473
:1014400000F0020005900C2003274FF005088DE8FE
:10145000B10169461848FFF75FFA4FF4806901AAA5
:10146000CDF8009082E8B00169461448FFF754FABD
:10147000144C1348E4E802054020A4E82102114876
:1014800044F81459A561E56125626562FFF7A2F988
:1014900008B1FFF771F8B464002205212420A66387
:1014A000FFF7D6FB2420FFF7C5FB07B0BDE8F083AC
:1014B000003800404038024000080240000402406A
:1014C00070600240280300202DE9F84F9846164628
:1014D0008A460446FFF71EFB814694F85100012816
:1014E0001ED1BAF1000F73D0002E71D094F85000C5
:1014F000012815D0012784F85070032084F851008A
:1015000000256565C4F830A0A686E686A563A58794
:10151000E58765642564A068B0F5004F03D00CE052
:101520000220BDE8F88F2068016821F040010160C9
:101530002068016841F48041016020680168490623
:1015400003D4016841F040010160E068B0F5006F2C
:10155000606803D048B3012E27D047E008B1012EC0
:101560001FD1206B21680088C86006E02068816870
:10157000890709D5216B0988C160206B801C206315
:10158000E08E401EE0860CE0FFF7C4FAA0EB0901F4
:10159000414503D3B8F1FF3F03D035E0B8F1000F68
:1015A00032D0E08E0028E1D123E0206B2168007862
:1015B000087306E02068816889070AD5216B0978DD
:1015C0000173206B401C2063E08E401EE0860DE01E
:1015D0002BE0FFF79FFAA0EB0901414503D3B8F1D7
:1015E000FF3F03D010E0B8F1000F0DD0E08E0028CF
:1015F000E0D14A464146204600F068FD08B120206F
:101600006065A06830B109E084F8517084F85050EA
:10161000032086E72068C1688068009084F85170D4
:1016200004F8505F60680028F3D0012079E70000DB
:1016300070B5044690F8510001281CD1C9B1C2B15F
:1016400094F85000012816D0012084F8500003209F
:1016500084F85100002565652163A286E286A563B2
:1016600065642564A587E587A068B0F5004F04D0C0
:101670000DE0012070BD022070BD2068016821F0DE
:10168000400101602068016841F480410160A16C63
:1016900017480864A16C1748C863A16C1648C86451
:1016A000A06C0565E38E2268216B0C32A06CFFF7FD
:1016B000FBF830B1606D40F01000606584F8505068
:1016C000D7E720680168490603D4016841F040016A
:1016D000016084F850502068416841F02001416069
:1016E0002068416841F002014160002070BD0000A7
:1016F0005F200008692000083D20000810B5006840
:101700000649884209D1012000F05AFC02F03CF859
:101710000068BDE8104011F099B810BD00380040D5
:1017200070477047704710B5040003D094F83D002F
:1017300010B107E0012010BD002084F83C002046D5
:1017400000F01EF8022084F83D00211D206800F002
:10175000A9FE012084F8460084F83E0084F83F008A
:1017600084F8400084F8410084F8420084F8430083
:1017700084F8440084F8450084F83D00002010BD42
:101780007047000090F83D10012901D001207047FA
:10179000022180F83D100168CA6842F00102CA6067
:1017A00000681149884214D0B0F1804F11D00F4920
:1017B00088420ED00E4988420BD00E49884208D08C
:1017C0000D49884205D00D49884202D00C49884213
:1017D00004D1816801F00701062903D0016841F0B6
:1017E000010101600020704700000140000400403A
:1017F00000080040000C004000040140004001408F
:101800000018004070472DE9F04104460068C668A2
:1018100005694FF00007A90713D5B10711D5F91EC7
:10182000016101202077206880698007204602D06E
:10183000FFF7E8FF04E000F07EF8204600F07CF8B7
:101840002777680716D5700714D521686FF0040054
:101850000861022020772068806910F4407F2046CC
:1018600002D0FFF7CFFF04E000F065F8204600F05B
:1018700063F82777280715D5300713D521686FF04F
:1018800008000861042020772068C069800720468E
:1018900002D0FFF7B7FF04E000F04DF8204600F05B
:1018A0004BF82777E80616D5F00614D521686FF0B7
:1018B00010000861082020772068C06910F4407F7C
:1018C000204602D0FFF79EFF04E000F034F82046E7
:1018D00000F032F82777E80708D0F00706D0216833
:1018E0006FF001000861204600F028F8280608D5AE
:1018F000300606D521686FF0800008612046FFF7AA
:1019000010FF680608D5700606D521686FF0400004
:101910000861204600F020F8A8060AD5B00608D5D0
:1019200021686FF0200008612046BDE8F041FFF714
:10193000F9BEBDE8F08170477047000010B500683F
:101940000449884201D1FFF7EBF8BDE810400120BF
:101950001DF0AEBF000800407047704770470000A0
:10196000F8B5016804460868CA684B6910F00F0FA3
:101970004FF0000559D003F0010602F49077374389
:1019800065D0C10705D0D10503D5616C41F00101D7
:101990006164410705D5D90703D0616C41F00201AC
:1019A0006164810705D5D90703D0616C41F004015A
:1019B0006164010707D502F02001314303D0616C57
:1019C00041F008016164616C00293AD0800604D5B9
:1019D000900602D5204600F0FBFD20684069616C4E
:1019E000C0F38010090700D460B3204600F0C9FDA1
:1019F00020684069400621D52068143050E8001F57
:101A000021F0400140E80012002AF5D1E06BA8B1B6
:101A100072490165E06BFEF7FAFD002811D0E06B1A
:101A2000016D01B0BDE8F040084783060FD593066D
:101A30000DD52046BDE8F84000F0CABD2046FFF7AE
:101A40008DFFF8BD2046FFF789FF6564F8BD266B62
:101A50002023012E7ED1C6067CD5D6067AD508680D
:101A60004868009048694FF0020640064DD5E26B89
:101A7000106840684FF480770004000C3AD0A18DC4
:101A8000814237D9E085D069B8422DD020680C302A
:101A900050E8001F21F4807140E80012002AF5D1BF
:101AA0002068143050E8001F21F0010140E80012C6
:101AB000002AF5D12068143050E8001F21F04001C1
:101AC00040E80012002AF5D184F8423025632068EE
:101AD0000C3050E8001F21F0100140E80012002AED
:101AE000F5D1E06BFEF74AFD6663A08DE18D401AEB
:101AF00081B206E0A18D8142A8D1D069B842A5D1BA
:101B000066632046FFF729FFF8BDA08DE18D401ADE
:101B100081B2E08D0028F7D00029F5D020680C3084
:101B200050E8002F22F4907240E80027002FF5D1F2
:101B30002068143050E8002F22F0010240E800270E
:101B4000002FF5D184F84230256320680C3050E82E
:101B5000002F00E006E022F0100240E80023002BF6
:101B6000F3D1CDE705062BD5150629D594F841000C
:101B70002128C9D1A068B0F5805F01D12069B0B13A
:101B8000206A411C2162216800784860E08C401E78
:101B90000004000CE084B7D12068C16821F0800106
:101BA000C1602068C16841F04001C160F8BD206A91
:101BB0000088C0F308004860206A801C2062E5E7C6
:101BC0004006F3D55006F1D5CA68204622F04002FF
:101BD000CA6084F8413000F0E5F8F8BD75250008CA
:101BE00070B5040004D094F84100002510B106E05F
:101BF000012070BD84F84050204600F023F82420D6
:101C000084F841002068C16821F40051C160204679
:101C100000F040FD2068016921F4904101612068D5
:101C2000416921F02A0141612068C16841F40051F5
:101C3000C1606564202084F8410084F84200656337
:101C4000002070BD10B586B0044614216846FEF72A
:101C50006FFB18492068884229D117480021026883
:101C600042F010020260006800F010000590124877
:101C70001438026842F001020260006800F00100BE
:101C800005904FF4C06000900220CDE901010320CF
:101C900003900720049069460848FEF73DFE0022A5
:101CA00005212520FEF7D4FF2520FEF7C3FF06B04F
:101CB00010BD000000100140443802400000024006
:101CC00090F84230202B01D00220704721B11AB188
:101CD0000023036300F064BD0120704710B506487F
:101CE000017806A000F0B8FDBDE8104001220249CD
:101CF0000348FFF7E5BF0000000000202564000056
:101D0000880300202DE9F843044690F841009846E6
:101D100016460D46202802D00220BDE8F88385B182
:101D20007EB100206064212084F84100FEF7F2FEBD
:101D3000A6848146E684A0682027B0F5805F02D0A3
:101D400003E00120E9E7206910B12E4600250EE0EE
:101D500000260CE08021204600F03DFDA8B9C6B168
:101D600016F8010B21684860E08C401EE084E08C8E
:101D70004B464FF00002CDF800800028EAD14FF02A
:101D80004001204600F027FD40B184F84170032057
:101D9000C3E735F8020BC0F30800E3E784F84170AD
:101DA0000020BAE77047FEE7094808B5016841F42A
:101DB000001101600068002200F40010009005216D
:101DC0000F20FEF745FFBDE808400F20FEF732BFA9
:101DD000303802401CB5094A002109481EF080FF36
:101DE0000849486000210120CDE900010B46C202EC
:101DF00005A1094824F0ECFA1CBD00006468020843
:101E000099230008000000206C76676C5F7465738E
:101E1000745F7461736B0000A90202082DE9F04140
:101E200086B014216846FEF783FA3748002501681A
:101E300041F004010160016801F0040105910168AD
:101E400041F080010160016801F0800105910168A5
:101E500041F001010160016801F001010591016893
:101E600041F010010160016801F010010591016865
:101E700041F0020101600068244E00F0020005906C
:101E8000002240213046FEF73FFE214F00224FF452
:101E900020413846FEF738FEDFF8788000224FF404
:101EA000C0514046FEF730FE01244020CDE9000439
:101EB00069463046CDE90245FEF72EFD60038DE808
:101EC0003100694638460395FEF726FDE003CDE96B
:101ED000000469463846CDE90245FEF71DFDE002E3
:101EE0008DE83100694640460395FEF715FD200355
:101EF000CDE9000469464046CDE90245FEF70CFDF8
:101F000006B0BDE8F0810000303802400000024019
:101F10000010024000040240104810B50E49016054
:101F20004FF482714160002102228160C0E90312F6
:101F3000012242615202C0E90621016241628162CE
:101F40000A21C162FFF7F8F9002803D0BDE810406C
:101F5000FEF712BB10BD000000380040D002002088
:101F60000C4810B50A4901604FF4E131416000218D
:101F700081600C22C160C0E904128161C161FFF778
:101F80002FFE002803D0BDE81040FEF7F5BA10BDC3
:101F90000010014088030020FEE7FEE70A460146E4
:101FA0000148FFF745BB0000D00200200A46014669
:101FB0004FF0FF330148FFF787BA0000D00200203E
:101FC00008B1012200E000224FF400410148FEF771
:101FD0009BBD00000010024008B1012200E0002279
:101FE0004FF400610148FEF78FBD0000000402407D
:101FF00008B1012200E000224FF400510148FEF731
:1020000083BD00000010024008B1012200E0002260
:102010004FF480510148FEF777BD000000040240F4
:102020000148FFF70BB90000D002002010B5806B0B
:102030000021C187C186FFF7FFF810BD10B5806B86
:1020400001684A6822F003024A60416D41F01001C4
:102050004165012180F85110FFF7EEF810BD10B571
:10206000806BFFF75DFB10BD38B50546846BFEF74E
:1020700051FD024628680068C00523D420684168E5
:1020800021F0200141602068416821F00201416097
:102090006421204600F01AF818B1606D40F020006D
:1020A0006065A068002118B92068C2688068009047
:1020B000E186012084F85100606D18B12046FFF7D9
:1020C000BBF838BD2046FFF719FB38BDF8B51546FB
:1020D0000E460B46009204460122022100F02CF825
:1020E000A0B9134813490068B0FBF1F04FF47A71BE
:1020F000484300906068B0F5827F0DD133460022DE
:1021000080212046009500F017F870B1606D40F016
:10211000200060650320F8BD009830B1401E00909B
:1021200020688068C0430006F6D50020F8BD000096
:102130001400002000366E012DE9F8431E4691463A
:1021400088460446089DFEF7E5FC401B351AFEF75D
:10215000E1FC074626480068C0F3CB3068430AE03C
:10216000701C09D0FEF7D6FCC01BA8420FD275B177
:102170000098B8B3401E00902068816838EA0100DA
:1021800033D000214945EBD10020BDE8F883206819
:10219000416821F0E00141606068B0F5827F0BD1B9
:1021A000A068B0F5004F02D0B0F5806F04D1206870
:1021B000016821F040010160A06AB0F5005F09D11B
:1021C0002068016821F4005101602068016841F431
:1021D00000510160012084F85100002084F8500073
:1021E0000320D2E7FFE70025C6E70121CAE7000088
:1021F0001400002070B5141A5D1A641C6D1C6C4329
:10220000049E00F07BF8084D0120E96888472969A1
:10221000002088474FF6FF7000EA440130466A68A4
:10222000BDE870401047000094E101202DE9F04125
:10223000010241EA102081B2124A002022F8101057
:10224000401CF028FADB002140F23F13EF22084641
:1022500000F054F80C4D0120E968884729690020F6
:10226000884700244FF4F0764FF4A0772A6831466F
:1022700004489047641CBC42F8DB2969BDE8F04182
:1022800001200847B4DF012094E1012010B5164C6D
:102290000020A1688847A16964208847A1680120BF
:1022A0008847A16978208847616901208847A1692A
:1022B00064208847112000F04BF8A16978208847F6
:1022C000362000F045F8002000F054F83A2000F0E5
:1022D0003FF8052000F04EF8202000F039F8BDE866
:1022E0001040292000F034B894E1012001461C225E
:1022F0000148FDF7F6BF000094E101202DE9F0410F
:1023000007461C4615460E462A2000F021F8380ADA
:1023100000F030F8F8B200F02DF8280A00F02AF8A2
:10232000E8B200F027F82B2000F012F8300A00F095
:1023300021F8F0B200F01EF8200A00F01BF8E0B21D
:1023400000F018F8BDE8F0412C2000F001B80000C2
:1023500031B5074C0020E168884721690020884793
:10236000226801216846904721690120884738BDCD
:1023700094E1012031B5074C0120E16888472169CB
:102380000020884722680121684690472169012082
:10239000884738BD94E1012001220C490C48FFF721
:1023A0008FFC0C4D4FF4FA74002240212846FEF7B2
:1023B000ABFB204623F058FB012240212846FEF7C4
:1023C000A3FB204623F050FBEEE7000000000020B6
:1023D000880300200000024010B54FF0E0200069A3
:1023E00024F04EF8012803D0BDE8104023F07CBD56
:1023F00010BD000030B593B030216846FDF798FF5E
:1024000014210CA8FDF794FF1D480025016841F038
:1024100080510160006800F08050119019480168F7
:1024200041F4804101600068022400F48040119072
:102430000120039010200490009406940820CDE918
:102440000750A820CDE9090404200B906846FEF748
:102450003DFD08B172B6FEE70CA90F2081E83100FE
:102460004FF4A0500F904FF48050109005210CA80D
:10247000FEF720FC002801D072B6FEE713B030BD95
:1024800040380240007000400248016841F4700189
:102490000160704788ED00E00148FFF7B4B9000023
:1024A000D0030020F0B50268274B284D284E294F55
:1024B000294C4FF0804C984209D0604507D0A84283
:1024C00005D0B04203D0B84201D0A04204D122F0DE
:1024D000700E4A6842EA0E0298421BD0604519D03D
:1024E000A84217D0B04215D0B84213D0A04211D0A4
:1024F0001A4DA8420ED01A4DA8420BD0194DA84231
:1025000008D0194DA84205D0184DA84202D0184D48
:10251000A84203D122F44075CA682A434D6922F0CB
:1025200080022A438D68C5620D688562984201D099
:10253000A04201D109690163016841F00401016011
:10254000012141610260F0BD000001400004004033
:1025500000080040000C0040000401400040014021
:10256000004401400048014000180040001C0040A9
:102570000020004010B5806B0021C185FFF7EEF907
:1025800010BD01680C3151E8002F22F4907241E82F
:102590000023002BF5D10168143151E8002F22F0FF
:1025A000010241E80023002BF5D1016B012909D17B
:1025B00001680C3151E8002F22F0100241E800239D
:1025C000002BF5D1202180F84210002101637047D3
:1025D00008B590F84210222901D0022008BD826877
:1025E0004FF480539A4201D1016921B1816A9A4224
:1025F0001BD04AB10AE00268816A5268C2F308023D
:102600000A80816A891C08E0026972B10268526816
:1026100002F07F020A70816A491C8162C18D491EE5
:102620000904090CC18503D01BE002685268F1E778
:102630000168CA6822F02002CA600168CA6822F4F0
:102640008072CA6001684A6922F001024A61202151
:1026500080F8421000214163026B012A03D0FFF78A
:102660003DFB002008BD016301680C3151E8002FDB
:1026700022F0100241E80023002BF5D101680A681E
:10268000D20602D50A6849680091818DFFF765F985
:10269000E7E7000070B5044600680169E26821F4CC
:1026A0004051114301612169A068E26908436169F1
:1026B000114308432168CA6849F20C639A430243F4
:1026C000CA6020684169A26921F4407111434161E7
:1026D00031492068884202D03049884202D1FEF751
:1026E000B3FB01E0FEF7A0FBE2690023192164259A
:1026F0003226B2F5004F626828D0A0FB0101930F8B
:102700009200FDF7BDFD0146B0FBF5F06FF0180239
:10271000504301EB800006EB0010B0FBF5F000F039
:10272000F002B1FBF5F002EB0012B1FBF5F06FF037
:102730001803584301EB800006EB0010B0FBF5F0E6
:1027400000F00F0021681044886070BDA0FB0101FB
:1027500092185B41FDF794FD0146B0FBF5F00201D4
:10276000B1FBF5F06FF01803584301EB800006EB66
:10277000C000B0FBF5F000F0F80002EB4002B1FB46
:10278000F5F0584301EB800006EBC000B0FBF5F01C
:1027900000F00700D6E700000010014000140140DF
:1027A00081628285C28500214164222180F8421025
:1027B000016921B10168CA6842F48072CA60016887
:1027C0004A6942F001024A610068C16841F0200193
:1027D000C160002070472DE9F843984617460D4622
:1027E0000446089E24E0701C22D0FEF793F9A0EB6B
:1027F0000800B0421AD8CEB12068C168490717D581
:10280000802D15D0402D13D00168C94309070FD47E
:1028100001680025406800902046FFF7B2FE0820BE
:10282000606484F840500120BDE8F8830320FBE792
:102830002068006835EA000004D00020B842D2D0F9
:102840000020F1E70120F9E70148FFF789B800000F
:1028500088030020FEE700000FB4054B10B503A964
:10286000044A029801F026FA10BC5DF814FB00003F
:10287000B1D80008CC0200200907090E002804DBAB
:1028800000F1E02080F80014704700F00F0000F124
:10289000E02080F8141D704702E008C8121F08C12C
:1028A000002AFAD170477047002001E001C1121FD1
:1028B000002AFBD1704770B5044600256FF02F0643
:1028C00008E02068411C2160007805EB850106EBDB
:1028D000410145182068007800F004F80028F0D184
:1028E000284670BD3038092801D8012070470020E3
:1028F0007047000010B54421074800F09DFC0022FD
:102900001E2106481DF02EF8054CA06001F018FEAF
:102910000020207010BD0000DC1D0120F5450008DE
:102920000C0200202DE9F0470E468146174611465D
:10293000304600F01CF94FF0FF3A00287DD000220D
:102940003946304600F0BFF800284FF0000075D13E
:10295000B6F90480B6F900305246A8EB0301491CD1
:102960000AFA81F10FFA81FAB6F906C0B6F9021037
:10297000ACEB010C0CF1010C02FA8CF2B7F802C0BE
:1029800012B2ACEB010C0FFA8CFCBCF1000F0EDDA7
:1029900063F30F0468F30F0501EB0C0061F31F44B0
:1029A00060F31F45C9F800400120C9F80450B7F989
:1029B00006107388CB1AD21A12B2002A13DDB6F9A8
:1029C000063099420FDA338863F30F04B38861F35A
:1029D0001F4463F30F05114461F31F4509EBC00168
:1029E000401C0C604D60B7F90220B6F902108A4213
:1029F00000DD1146B7F90630B6F90620934200DA39
:102A00001A463B88B6F900C0521AA3EB0C031BB25E
:102A100012B2002B10DD002A0EDD634463F30F05B4
:102A20008B1863F31F456CF30F0409EBC00361F3CC
:102A30001F441C605D60401C01E01AE017E0B7F91C
:102A4000043036889F1BAAEB070636B2002E0EDD37
:102A500063F30F0461F31F44334463F30F05114420
:102A600061F31F4509EBC001401C0C604D60BDE8DF
:102A7000F0875046FBE770B5B1F90030B2F900407D
:102A8000A34200DC23460380B1F90250B2F90240B0
:102A9000A54200DD2C464480B1F90460B2F904502F
:102AA000AE4200DA35468580B1F90610B2F906204B
:102AB000914200DB1146C1800120AB4201DC8C4217
:102AC00000DD002070BDF8B50D460446B0F90000E9
:102AD000B1F900101646884247DBB4F90210B5F987
:102AE0000220914241DBB4F90410B5F9042091426F
:102AF0003BDCB4F90610B5F90620914235DC96B3FB
:102B0000ADF800006088ADF80200324669462846FC
:102B100000F099F8002827D0A088ADF80000608860
:102B2000ADF8020032466946284600F08CF80028CD
:102B30001AD02088ADF80000E088ADF802003246D7
:102B40006946284600F07FF800280DD0A088ADF82F
:102B50000000E088ADF8020032466946284600F0E1
:102B600072F8002800D00120F8BD0020F8BDB0F9AF
:102B70000020B1F904309A4213DCB0F90420B1F915
:102B800000309A420DDBB0F90220B1F906309A42CA
:102B900007DCB0F90600B1F90210884201DB012020
:102BA000704700207047F8B50D460446B0F90400A0
:102BB000B1F900101646884243DBB4F90600B5F9B6
:102BC000021088423DDBB4F90000B5F904108842D8
:102BD00037DCB4F90210B5F90620914231DC76B346
:102BE000ADF800006088ADF802003246694628461C
:102BF00000F029F818BBA088ADF800006088ADF897
:102C0000020032466946284600F01DF8B8B920880F
:102C1000ADF80000E088ADF802003246694628466B
:102C200000F011F858B9A088ADF80000E088ADF8C0
:102C3000020032466946284600F005F808B1002037
:102C4000F8BD0120F8BD2DE9FC4114460E46B1F94E
:102C50000020B0F9001005468A423ADBB5F90400BD
:102C6000824236DCB6F90270B5F90220974230DBB9
:102C7000B5F906309F422CDC002C75DD401A9A1AFB
:102C8000401C521C00B212B200EBD07002EBD272A8
:102C900040105210904200DB1046844200DD044692
:102CA000ADF80010288800222044ADF804006888A0
:102CB000ADF80200688831462044ADF80600684649
:102CC000FFF7C1FF40B1BDF804002044ADF8040097
:102CD0003FE00020BDE8FC81E8880022001BADF841
:102CE0000200E888ADF8060031466846FFF7ABFF02
:102CF00028B1BDF804002044ADF8040011E0A88814
:102D00000022001BADF80000A888ADF80400314691
:102D10006846FFF798FF50B1BDF80000001BADF802
:102D20000000BDF80200001BADF8020016E0688844
:102D3000ADF80200688800222044ADF80600314654
:102D40006846FFF780FF70B1BDF80000001BADF8CA
:102D50000000BDF806002044ADF806003146684684
:102D60001AF0D4FAB6E7FFE70120B3E710B5B1F9DE
:102D70000040B2F900309C4200DA23460380B1F9EA
:102D80000240B2F902309C4200DA23464380B1F996
:102D90000440B2F904309C4200DD23468380B1F93F
:102DA0000610B2F90620914200DC1146C18010BD28
:102DB000F8B507461CF072FD0025374C0646009515
:102DC00037B1F868606038461CF09AFE606802E02F
:102DD0000FF042FD606000691AF094F96068406984
:102DE00008B11AF08FF96068C0691AF08BF9606851
:102DF000006A1AF087F96068016991B11AF01EFB48
:102E00001FF040FA1EF066FF6068B0F85011D9B3A9
:102E10000068017CC9071DD0C0684068D0B1002798
:102E200013E0A0F85051F8BDC11991F8301151B913
:102E300000F5AC7000F057FA616801EBC7010A6B4E
:102E40000260496B41607F1CBFB26068B0F85011EE
:102E5000B942E9D860684FF48071303015F064FEF3
:102E60006068202100F5987015F05EFE6068A0F89B
:102E7000505130461CF00CFD009060680068436AB9
:102E800013B122680099984715F0CCFC00F032F895
:102E9000BDE8F84000F002B8CC00002070B50A4D43
:102EA000002400BFC4EBC40655F8260008B115F095
:102EB0002DFD05EB86001C2115F036FE641CE4B2E6
:102EC000042CEFD370BD0000B81E012008494968EA
:102ED0000AE04A68824202D00A68824203D10A7E2E
:102EE00042F001020A7649690029F2D170470000D8
:102EF000A0000020704700000421014800F09CB9A8
:102F0000D01D01202021014800F096B9E81D0120C4
:102F10002DE9FF410446DDE90A671D004FF000007E
:102F200002D1B6F5807F2BD0039001900290ADF8CE
:102F30000C100090ADF80410ADF80A20ADF80E208A
:102F40003B463246294668461AF040F93B4632462F
:102F5000294601A81AF03AF93B463246294602A80A
:102F60001AF034F93B463246294603A81AF02EF9E6
:102F7000BDF90000BDF90430984209DA054608E0C1
:102F80002080491E6080A180521EE280BDE8FF8142
:102F90001D46BDF90820BDF90C108A4201DA16461B
:102FA00000E00E46B54203DA984206DB184604E01C
:102FB0008A4201DA104600E00846801E2080BDF9F2
:102FC0000030BDF90420934201DD1D4600E01546A6
:102FD000BDF90800BDF90C10884201DD064600E08D
:102FE0000E46B54205DD934201DD194604E0114667
:102FF00002E0884200DD0146891CA180BDF9023053
:10300000BDF90620934201DA1D4600E01546BDF9E0
:103010000A00BDF90E10884201DA064600E00E46AD
:10302000B54205DA934201DA194604E0114602E09E
:10303000884200DA0146891E6180BDF90230BDF97F
:103040000620934201DD1D4600E01546BDF90A0049
:10305000BDF90E10884201DD064600E00E46B5427D
:1030600005DD934201DD194604E0114602E0884285
:1030700000DD0146891CE18088E700002DE9F04170
:1030800015460E460746114C1CF008FC80462B46A0
:1030900032463946204613F07FFD20B10020A06261
:1030A000E06950B110E02C21204615F03DFD4FF0B5
:1030B0000040A0620020BDE8F08140461CF0E8FB23
:1030C000E06108B90120E0612046F4E70C1E012010
:1030D00010B51421074800F0AFF813F023FD40B1FC
:1030E0000549016005494160054981600549C160A4
:1030F00010BDFEE7F41D0120F964010875680108A0
:10310000456A0108C56401087FB50E46040003D175
:103110000FF0A2FB04002CD00FF012FC002828D0E6
:1031200094F82800400724D4002506B3ADF80050D9
:10313000ADF8025020460FF0A7FB401EADF804008A
:1031400020460FF0E7FB401EADF806006A46314608
:1031500002A8FFF790FC00280BD02068017C8907AB
:1031600008D5DDE90001C4E90C01012029E0A4F83B
:1031700050517FBD82690AB102A9904700260AE03A
:1031800004EBC601002202A83031FFF79CFC0028A6
:10319000EFD1761CB6B2B4F85001B042F0D880B28C
:1031A000202804D204EBC00002A9303004E0A4F8C7
:1031B000505104F1300069460DF0C3F8B4F85001E5
:1031C000401CA4F8500160680028D2D01CF0A4FC78
:1031D0007FBD70B5054600F012F804460CE02146AC
:1031E000284600F01EF806462146284600F0A2F8C0
:1031F000204615F08BFB3446002CF0D170BD002822
:1032000000D04068704700B503460022FFF7F7FF83
:1032100003E01846521C00F004F80100F9D11046F2
:1032200000BD0068091D405870470068405870474D
:10323000002800D08068704700224260C91C21F03D
:10324000030182600160704770B504460068083071
:1032500015F0D0FA050013D00146002220461DF0DB
:1032600077FC2946204662681DF06CFC616819B144
:103270002A4620461DF06CFC6560A06800B9A56078
:10328000284670BD2DE9F0410C4606000AD04CB12D
:10329000FFF7B5FFA04208D13046FFF7D5FF051E66
:1032A00001D01EE00020BDE8F0813068083015F044
:1032B000A1FA051EF7D030682A460759304639462C
:1032C0001DF040FC3A46294630461DF041FC2A4696
:1032D000214630461DF03CFC2246294630461DF072
:1032E00031FC2846DFE770B504460068083015F069
:1032F00081FA050013D00146002220461DF022FC71
:1033000029462046A2681DF023FCA16819B12A466F
:1033100020461DF017FCA560606800B9656028466E
:1033200070BD28B1416809B9806808B100207047B4
:103330000120704770B504000DD0FFF760FF002238
:103340008842204608D1FFF76CFF6060011E01D063
:1033500000221EE0A26070BDFFF76AFF884220686D
:1033600008440AD10168A16029B12046BDE8704037
:1033700000221DF0E7BB626070BD05682046FFF7C4
:1033800050FF06460246294620461DF0DBFB2A4632
:1033900031462046BDE870401DF0DABB10B504464A
:1033A000006882680AB121469047206800680028BA
:1033B00001D02060F5E710BD8068002801D0B0F989
:1033C000160070478068002801D0807E8009704711
:1033D00070B5164605460C4651EA06001AD0284636
:1033E00016F010F9A86801233246018A21440182AF
:1033F000A868418A314441822146284618F088FC59
:1034000000220B21284612F019FB012803D128467F
:1034100018F0D7FB012070BD77B581B00E460500CE
:1034200017D0622217F0FEFE040012D0206880B18F
:1034300028463146632217F0F5FE10F0FF0208D04F
:1034400023682046039998470090BDF80000ADF826
:103450000C00039804B070BD2DE9F047074692B008
:10346000408C1A9E40F00800788490463A84994631
:103470008A463289384617F0D5FE0546A7F82090CF
:1034800032895146384617F0CDFE0446788CA54265
:1034900020F00800788403D12904B1EB044F68D0F0
:1034A000A7F8208032895146384617F0BBFE054602
:1034B0008046A7F82090514638460BF0D3F8318962
:1034C00000682A461BF036F930890B2823D147F6CD
:1034D000FF794D4501D04C451DD1384618F069F8AB
:1034E00000EBD0704510384616F041FF00EBD0706D
:1034F0004010C84506D1691C431C994200DA00E01F
:10350000194688464C4506D1691C421C914201DA95
:103510006C1C00E014461948FFF796FE05002BD0FE
:103520002F60C5E903843089A8806846C5F808A0E3
:103530000CF07AF91248FF21CDE9005011480290B1
:103540001148039000200890CDE9090130880B90C4
:1035500070889DF8421040420C90F068079000205F
:1035600060F300018DF842103069069068460CF057
:10357000CFF912B0BDE8F087FEE70000001E012081
:10358000095202080954020865530208142101482F
:10359000FFF752BE001E01202DE9F84F002590468E
:1035A000894606462C460427E5E000BFF16807EB94
:1035B000C400085882017AD480B230EA090211D0DE
:1035C0005FF0000230EA08000ED0002082426ED088
:1035D00051F834A06A46102150461AF00DFE00281A
:1035E00071D103E00122EDE70120EFE76A461121E6
:1035F00050461AF001FE002865D16A461221504655
:103600001AF0FAFD00285ED16A46132150461AF0DE
:10361000F3FD002857D16A46152150461AF0ECFDFB
:10362000002850D16A46142150461AF0E5FDE8BB47
:103630006A460A2150461AF0DFFDB8BB6A466B2184
:1036400050461AF0D9FD88BB6A466C2150461AF0E4
:10365000D3FD58BB6A46012150461AF0CDFD28BB68
:103660006A46042150461AF0C7FDF8B96A4602219D
:1036700050461AF0C1FDC8B96A46032150461AF0F7
:10368000BBFD98B96A46052150461AF0B5FD68B9E8
:103690006A46062150461AF0AFFD38B96A46322113
:1036A00050461AF0A9FD08B96A4601E00BE061E056
:1036B0006E2150461AF0A0FD28B96A466D21504689
:1036C0001AF09AFD10B10320BDE8F88F6A4669210F
:1036D00050461AF091FDE8BB6A466A2150461AF03E
:1036E0008BFDB8BB6A466E2150461AF085FD88BB3B
:1036F0006A466D2150461AF07FFD58BB6A46372155
:1037000050461AF079FD28BB6A46382150461AF017
:1037100073FDF8B96A46352150461AF06DFDC8B9F7
:103720006A46402150461AF067FD98B96A4645211D
:1037300050461AF061FD68B96A46412150461AF0B8
:103740005BFD38B96A46422150461AF055FD08B96A
:103750006A4600E00AE0432150461AF04DFD28B9C0
:103760006A46492150461AF047FD08B1022501E09A
:1037700005B90125641C708CC0F30510A0423FF60A
:1037800015AF2846A0E700000148406870470000D8
:10379000CC0000207047C0F30410072800D9072090
:1037A00070470000A0F57F41FF3905D0002804D004
:1037B000712803D208490AE01F2070470749713871
:1037C00080B2096829B1064A5268904201D2085C69
:1037D000704700207047000044A80208380200200B
:1037E0004C02002010B518210348FFF725FD0349BE
:1037F0000120087010BD0000AC1D01205402002003
:103800002DE9F04190460C46050015D0FCF79BFDD4
:103810000A4F06462146BA68284690470446BA68C9
:103820002819414690470146701A03E06218AA5CC5
:103830002A55641CA042F9D2BDE8F081680200203C
:103840002DE9F041094D90460E466A681C46074630
:1038500019469047306020B120686A6838440021DA
:103860009047C8F80000BDE8F08100006802002021
:103870002DE9F04F87B08A46DDE910581F46934680
:103880000446002105B129805CB12078002809D0C8
:10389000BAF1000F05D0002618F0060F15D0002051
:1038A00004E0002007B0BDE8F08F401C215C0A292D
:1038B00004D00D2902D00029F7D100E0401C002DD2
:1038C000F0D04FF0FF312980ECE75FEA887001D536
:1038D00041F6FF77894608468DF81410049127E0D9
:1038E0000498CDF8189068B34FF0000C05AA06AB09
:1038F000CDF80CC0CDF80080CDE9013220443B4624
:103900005A4651461CF04AFA06997A1A314417B2BF
:103910000EB288B104990144049120780A280BD092
:103920000D2809D0605C0A280FD00D280DD008465C
:10393000205C08B1002FD3DC049848B105B12E807B
:103940000498AFE74FF0010CD0E7481C0490F3E770
:10395000064A04A9204652689047002DF0D001463F
:103960000022504612F07EF906B2E8E76802002015
:103970002DE9F0411746884606001ED0002F1CD0C6
:10398000FCF7E1FC04463846FCF7DDFC050014D0EA
:103990000B4A2C444146926830469047411903E057
:1039A000621BB25C3255641EA142F9D930442A46EA
:1039B0003946BDE8F04115F079B8BDE8F081000066
:1039C0006802002000230278232902D0012A0DD0AA
:1039D0000FE02AB10021012A04D0022A04D008E015
:1039E000012101E0017004E0017001E0202902D012
:1039F0000123184670470221F6E72DE9F0410E46F3
:103A0000804602460021334608461CF005FC044669
:103A10000027401C14F0EEFE050008D02F55334659
:103A20004246611C1CF0F8FB2846BDE8F081FEE729
:103A30002DE9F0471E4614460D468246DDF82090DB
:103A400015E000BF4FEA540808FB065739465046B8
:103A50004A469047002808DD44F30000C0EB5404B8
:103A600007EB0605A4F1010401E005DA4446002C49
:103A7000E8D12046BDE8F0873846FBE72DE9FC5F3A
:103A80009B460CAB8A468146DDE9116093E8121033
:103A9000DDE90F575FEA80784FF030031AD45EB14A
:103AA0005FEAC07808D000F00C0858EA0C0803D090
:103AB000761E01E00B55641CBC4204D2202CF9D3C5
:103AC00001E00B55641C5FEAC07803D0B44201D218
:103AD000202CF6D35FEAC06825D55FEA40580AD4A7
:103AE0004CB1BC4201D0B44205D1641E03D0102DAC
:103AF00003D1641E04E0102D02D0022D0AD00EE086
:103B0000850603D4202C1ED2782506E0202C1AD25C
:103B1000582502E0202C16D262250D55641C202C5D
:103B200011D20B55641C202C0DD2BCF1000F01D01A
:103B30002D2306E0430701D52B2302E0030702D51E
:103B400020230B55641CCDE900BAC84615468146B2
:103B50008B46AA46800714D1274607E02A46DDE9AE
:103B600000316D1C2020C446E0477F1CB742F5D3CE
:103B700007E02A466D1C641EDDE900311BF80400D5
:103B8000C047002CF5D15FEA897006D409E02A46C7
:103B9000DDE900316D1C2020C047A5EB0A00B042D2
:103BA000F5D32846BDE8FC9F2DE9F04F8FB099462C
:103BB0008B46DDE91818DDE91C63DDE91A479246FA
:103BC0008646002209B923F01003580507AD00D539
:103BD000C9B1B1FBF4F004FB1010C0B20A2801D245
:103BE000303009E05FEA836C02D54FF0410C01E010
:103BF0004FF0610C60440A38B1FBF4F1A854521C38
:103C000009B1202AE5D3CDF80880CDE90563CDE9D7
:103C10000052CDE903474B46524659467046FFF7DE
:103C20002DFF0FB0BDE8F08F2DE9FF4F8FB01CAC1A
:103C3000DDE9239594E8030820AC94E8C00400244F
:103C400050EA010201D125F010056A050DF11C08AA
:103C500002D550EA010217D032463B46FCF710FB72
:103C6000D2B20A2A01D2303206E0AB0601D5412396
:103C700000E061231A440A3A08F80420641C50EA60
:103C8000010201D0202CE7D3CDE90084CDF808B0A3
:103C9000CDE90595CDE9036A0FAF97E80F00FFF76F
:103CA000EDFE13B0BDE8F08F9A4200D28854704701
:103CB000704700002DE9FF4F89B09B460446002560
:103CC00006E025280BD05A460B999047641C6D1CC2
:103CD00020780028F5D10DB02846BDE8F08F0027E8
:103CE000B8460122474900E0074314F8013F203B52
:103CF00002FA03F00842F7D120782E2819D114F8DF
:103D0000010F47F004072A280ED06FF02F02207809
:103D1000A0F1300109290CD808EB880102EB410120
:103D200000EB0108641CF2E70A98641C50F8048B4D
:103D30000A9020780028CED0642808D0692806D0C0
:103D400075281ED05A460B9990476D1C58E00A9969
:103D50004FF00A0901C90A91002802DA40422D21D8
:103D600002E0390504D52B218DF82010012103E054
:103D7000F90704D02021F7E78A4608AE0DE00021BC
:103D8000FAE70A994FF00A0901C90A91F7E749468B
:103D9000FCF7F7FA303106F8011D0028F7D1ADEB3A
:103DA000060000F12009780701D44FF00108C8454A
:103DB00002DDA8EB090000E000208046002706E0B5
:103DC00008A85A46C05D0B9990476D1C7F1C57454B
:103DD000F6DB04E030205A460B9990476D1CB8F191
:103DE0000001A8F10108F5DC05E016F8010B5A46C0
:103DF0000B9990476D1CB9F10001A9F10109F4DCA0
:103E0000641C65E7092801002DE9FF4F89B00546CC
:103E10000A9800249246002800D1FE4D8FE1252803
:103E200004D02246641C53460A990BE2491C4FF009
:103E3000000808460C9101782B2919D004DC2029B0
:103E400019D0232904D119E02D290ED0302909D009
:103E50000026C8B2FEF746FDB0B10CA8FEF72BFD58
:103E600006461FE048F001010AE048F0020107E0C1
:103E700048F0040104E048F0080101E048F01001B6
:103E8000401C88460C90D6E70C9908782A2809D15E
:103E9000169840C81690002E02DA48F002087642C2
:103EA000491C0C910C984FF0000B01782E2919D168
:103EB000401C0C9048F480680078FEF713FD20B198
:103EC0000CA8FEF7F8FC83460CE00C9A10782A2820
:103ED00008D1169802C81690002900DC0021521C57
:103EE0008B460C920C9801786C290AD004DC682966
:103EF0000FD06A2919D128E0742929D07A2914D140
:103F000026E0401C0C90017848F480786C291CD085
:103F10000BE0401C0C90017848F08008682904D11F
:103F200048F04001401C88460C9002460078692801
:103F300022D015DC62281FD00DDC252871D0502836
:103F40001AD058287FF46DAF16E048F40071E9E705
:103F500048F48071E6E7632878D06428F2D10BE05A
:103F6000732874D004DC6F2806D07028EAD103E0EF
:103F7000752801D07828E5D178280DD058280BD0A5
:103F800070280BD0502809D06F2816D0622816D080
:103F90000A2128F0100016E0102107E050781021C7
:103FA00048F48878562804D1521C0C92107858286E
:103FB00007D01078502804D006E0082109E002213B
:103FC00007E048F0200080461078692803D0642874
:103FD00001D028F00C085FEA485001D528F001080C
:103FE000107869281ED064281CD0562864D05FEA57
:103FF000885072D5169804ABC01D002283E80608CD
:104000000292CDE9076820F007005346F0E802125B
:10401000CDE900121690224628460A99FFF704FEC1
:1040200089E00AE15FEA885024D5169804AFC01DE4
:1040300020F00703F3E802021693002387E80A083A
:10404000CDE90768002A03DA012102E080E0A6E05A
:1040500000210023029119461B1A914101DA1146F1
:1040600003E00021404261EB020153462246CDE9C4
:104070000001D1E75FEAC85004D5169804C80FE0E4
:10408000524215E05FEA486003D5169810F8042BF9
:1040900006E05FEA0860F0D5169830F8042B12B2FB
:1040A0001690CDE9021BCDE90468D00F002AE7DDA8
:1040B000CDE9002053461EE01698AAEB040202C880
:1040C00016904868006800900A980B680119284605
:1040D000FFF79AFE04442FE0FFE75FEAC8500CD5D3
:1040E000CDE9021BCDE9046816980021534604C8A7
:1040F000CDE900211690224619E05FEA486003D519
:10410000169810F8042B08E05FEA0860169803D5AB
:1041100030F8042B92B200E004C816900020CDE9DC
:104120000020CDE9021BCDE904685346224628460B
:104130000A99FFF739FD04460C98401C0C900C9925
:10414000087800287FF46BAE54457DD222467DE08E
:1041500001275FEA887006D509E02246641C5346B1
:1041600020200A99A84738467F1CB042F5D31699FB
:104170002246641C11F8040B169153460A99A8476D
:104180005FEA887006D4D7E72246641C5346202095
:104190000A99A84738467F1CB042F5D3CCE7169859
:1041A00050F8049B16904B46BBF1000001D001462D
:1041B00001E04FF0FF31484600E0401C02780AB1B0
:1041C000491EFAD2C71A5FEA485003D558465F45E0
:1041D00000D307465FEA887006D512E02246641CC9
:1041E000534620200A99A84738467F1CB042F5D391
:1041F00007E000BF224609F10109641C53460A99F1
:10420000A84799F8000040B15FEA4851F2D5BBF1E8
:10421000010B01E0B13C0008ECD25FEA887006D4E3
:104220008AE72246641C534620200A99A84738464C
:104230007F1CB042F5D37FE706E02246641C53465C
:1042400025200A99A84777E7AAF1010253460020E2
:104250000A99A8470DB02046BDE8F08F10B50200BE
:104260004FF000000CD04B1E194200D0FEE70A446C
:10427000521E9A43B2F5803F02D20C2A01D9104651
:1042800010BD0C2010BD08444A1E401E9043114230
:1042900000D0FEE7704700002DE9F0410F460121F4
:1042A0000025044641862E460BE01B49FCF752F8D8
:1042B00010B16D1CADB202E0608E401C6086761CB1
:1042C000B6B257F8260010B101780029EDD1208E42
:1042D000A8421ED0A06A002610B114F017FBA662F7
:1042E000E06A10B114F012FBE662E80014F082FA02
:1042F000A06238B1680014F07DFAE06218B1A16ADA
:1043000011B102E0FEE7FEE70025690014F00CFCA5
:104310002586BDE8F0810000440D01082DE9F84F25
:104320008146407A0F4600F00700022819D0104657
:104330008046974200DD3A46164603202A4C2B4A17
:1043400000EB460020F00305A06811681035411A03
:10435000636805EB010C9C4505D2416821F00041E2
:1043600024E00846E4E79D4219D892464FF0FF3B0F
:1043700048196168884210D9002269461C48CDF866
:1043800000B00AF0B1FE002269461A480AF0ACFEFD
:10439000A168DAF80000091AEAE7A068DDE7284614
:1043A00014F028FAC0B1416841F0004188EA670280
:1043B000416089EA02010160416801F04041491C05
:1043C00031F0804141608681A0F80E8005D500F172
:1043D00010018160BDE8F88FFEE7A16801F11002CD
:1043E00029448260A160F5E7D40000203402002057
:1043F0009DD2000849F1000870B586B000224F4CEC
:104400008DF808208DF80C208DF81020E2888A4263
:1044100001D0FF22A270E18090F83C20142302F02A
:1044200003024FF4B475012A24D0022A68D0A5787B
:10443000AA4211D010F8265F05EB051505EB4505DE
:10444000B5FBF3F52570407800EB001000EB400061
:10445000B0FBF3F06070A27004AA03A8CDE90002DB
:1044600001EB41004FF6FF7101EA400002AB6278B8
:1044700021781BE0A678B24210D0868C06EB460667
:104480007602B6FBF5F5A58090F8270000EB00104A
:1044900000EB4000B0FBF3F06070A27004AA03A828
:1044A000CDE90002C9B202AB627844E008F0F7FB44
:1044B0009DF80C00BDF8003044099DF8082064F315
:1044C0000203ADF80030D308BDF800209DF81010AD
:1044D00063F3C702ADF80020CA08BDF8001062F30C
:1044E0000C21ADF800108108BDF8000061F34F30D9
:1044F000ADF8000080B20090BDF8000006B070BDBD
:10450000A678B24210D0868C06EB46067602B6FB41
:10451000F5F5A58090F8260000EB001000EB4000B8
:10452000B0FBF3F02070A27004AA03A8CDE900024A
:10453000CAB2217802ABA088B8E700008001002051
:1045400010B5084C012020700748FEF758FE0028DF
:10455000A06803D0BDE810401BF0DEBABDE81040F3
:104560001BF0CEBA0C020020DC1D012010B5044661
:1045700090F84200A16B820709D4B4F840204AB1F8
:10458000A2F57F43FF3B1BD0521EA4F84020B4F895
:104590004020AAB909B1820712D521461448FEF776
:1045A000C9FEFFF7CDFFE16809B1204688472169C0
:1045B00009B1204688472046BDE8104014F0A6B94E
:1045C000E26B52422263002911D0820702D4626B4F
:1045D000524222634210521C62F3410084F84200AE
:1045E000A26A206A2262A062E06AE162A06310BD52
:1045F000DC1D012070B5304D68681BF049F9064696
:10460000687880F00100687047E00020287094F816
:1046100042006978C0F380028A4242D061F382008E
:1046200084F84200216B8A19030719D4002917DC8A
:10463000002A15DBC00709D1616939B120468847D6
:10464000216A01442162A16A0844A062A16809B1FB
:104650002046884794F8420040F0080084F8420061
:10466000206B8019206316D4E16A884200DD216343
:10467000E169204688470146606A884204D0616249
:1046800062680AB120689047D4E90B01814202DBDD
:104690002046FFF76BFF287818B10848FEF7AFFDFA
:1046A00003E021460548FEF7BCFD0400ADD11BF038
:1046B000F5F8686070BD00000C020020DC1D0120D0
:1046C00070B5044640680D4608B1FFF7F9FF22684F
:1046D000002A04D029462046BDE87040104770BD2E
:1046E00089B20BF093BD89B20BF0CCBD2DE9FF4F21
:1046F00099B09846DDE926B12D9816468A464FF0C6
:104700000009042811D0052811D0062812D0142839
:1047100070D101270225002418FB06F00E901A988C
:10472000401E0D90701E069051E10027F2E7012710
:104730000325F0E701270225FFF726F80068D0F8E7
:104740003890E8E7289860430BEB202229986043D3
:104750000AEB202110124FEA212E7DD41A9B984299
:104760007ADABEF1000F77DBB64575DAD2B2CBB29A
:10477000802A05DAC2F17F024FF0FF31520003E0D8
:1047800001215200A2F580720992802B05DAC3F153
:104790007F034FF0FF325B0003E001225B00A3F5D3
:1047A00080730A930EFB080C199B0CFB05330793CF
:1047B0004318119372D4DDF834C063456EDC1EEBF0
:1047C00002036BD4DDF818C0634567DCDDF81CC05C
:1047D00011FB05C1CDE915C112FB08F101FB05C1B3
:1047E0000C91D7B32D99052905D014290BD0062992
:1047F00055D066E0EFE01598807807900C988178A6
:104800001698807810E0199A0E990EFB08FC02EBBE
:1048100041010A180EFB08111CF8020007901198BC
:1048200003FB08F3085C995C079A91420AD00A9A44
:1048300011FB02F20A99C1F58073079911FB03215C
:10484000C1F30721079A90420DD0099A10FB02F29A
:104850000998C0F5807301E02FE035E0079810FB60
:104860000320C0F3072008442C994008085527D09E
:1048700015980178407801EB0020ADF80C000C98F9
:104880000178407801EB0020ADF81000169801780F
:10489000407801EB0020ADF8080023E04CE01598CB
:1048A00001881FFA89F0814207D00C99098881425A
:1048B00003D016990988814203D12C99002008550C
:1048C00083E0FF210846CEE715980088ADF80C007C
:1048D00016980088ADF808000888ADF810002C98EC
:1048E000FF210155BDF80C00BDF81010884209D118
:1048F000BDF80810884205D12B98BDF80C1000EBCC
:10490000440017E00A98C2B2DDE903100DF04CFB39
:1049100004900998C2B2DDE902010DF045FB7F2247
:10492000029004990DF040FB00902B98BDF8001008
:1049300000EB4400018048E0079B93F800C05B78DF
:104940000CEB0323DDF8ACC09BB22CF81430DDF87F
:10495000B4C0BCF1050F06D0BCF1060F06D0BCF107
:10496000140F09D10AE0079B9B780FE01FFA89FC1E
:10497000634501D1002309E0FF2307E0199B0EFBEB
:10498000083C0E9B00EB43031CF8033008B90029D8
:1049900005DBDDF834C0604503D1002901DD09984D
:1049A0000AE0BEF1000F01D1002A04DB06998E4512
:1049B00008D1002A06DD0A98C0F1FF0010FB03F0C1
:1049C000010A00E000212C980155641C24B22A98A9
:1049D0008442FFF6B7AE1DB0BDE8F08F10B5818FF1
:1049E00092B00446A9B168460AF01EFF0B480121A7
:1049F000CDE90040A08F0B9000200890CDE909017F
:104A0000074807900748039068460AF081FF12B0F4
:104A100010BD12B0BDE810401CF096BEC1170208D0
:104A2000E7F80008C317020810B50446406882087A
:104A30000AD0496821F00301091D0844606020463E
:104A400000F042F8204610BDFEE74068103120F02B
:104A50000300884201D301207047002070472DE9F0
:104A6000FC47054648680C4620F0030001AA694649
:104A70001BF010FFDDE9007005EBC71101EB8009A9
:104A80008046D9F83C0060B164B1C4E9020504F184
:104A90000806C46030460421FFF7F5FB864202D0C9
:104AA000FEE7FEE7FEE7C9F83C400120296900FA6D
:104AB00007F21143296105EB870100FA08F04A6902
:104AC00002434A61BDE8FC8710B5044600F087F850
:104AD000046010BD2DE9FC4706464FF000000D00B4
:104AE00000900746019042D00C46E9460DF10408BB
:104AF000802907D3084620F07FFB411F0120884012
:104B0000401E04444246494620461BF0C3FE009C1A
:104B10000A2C2CDA06EB8400019A40694FF0FF3131
:104B200001FA02F210400CD1641C3069A140084027
:104B30001DD020F059FB0446009006EB8000406930
:104B400078B120F051FB034606EBC411019001EB54
:104B50008000C76B5FB1786820F00300A84201D2E3
:104B6000FEE7FEE739463046009A1DF0D9FC38468C
:104B7000BDE8FC8710B50446FFF7A6FF416841F089
:104B800002014160606840F00100606010BD10B536
:104B9000044600F024F8416821F002014160606899
:104BA00020F00100606010BD70B506460D46084655
:104BB00000F015F8040010D02079C0070BD0686809
:104BC00080080BD02146304600F03CF821462846AC
:104BD000FFF72AFF0546284670BDFEE7FEE742685C
:104BE00000F1080122F00300001F0844910800D1E1
:104BF000FEE7704770B506460C004FF000001ED06F
:104C0000F2B120791546C0071BD011462046FFF7A8
:104C10001CFF78B12946204600F025F805462046BD
:104C2000FFF752FF6868294640F00200686030468E
:104C3000FFF715FF2046FFF7AAFF04F1080070BD3B
:104C4000FEE7FEE77CB5054648680C4620F0030009
:104C500001AA69461BF01EFEDDE900232146284615
:104C60001DF05EFC7CBD2DE9F0410D46044600F1CF
:104C70000801281F0E18606806F1080720F00300DD
:104C8000401BA0F1040838460421FFF7FCFA8742D4
:104C900000D0FEE7606820F0030108EB0500001D6E
:104CA000814200D0FEE7307900F0030040EA0800BE
:104CB000706020F003000C2800D2FEE7207900F09D
:104CC0000300284360603046FFF754FF3046BDE8DC
:104CD000F08138B5044612F0B9F9054612F0EBF947
:104CE0000028204605D0218FE18616F06AFF0120BA
:104CF00038BD10F061FC002820461ED010F028FBC3
:104D0000218FE08E81420CD02087E08E00906A4691
:104D10001C21204610F092FE0128E9D1204616F011
:104D200050FF284612F0D3F90428E0D1204615F0B0
:104D300019FB002111F036FBD9E710F099FCD6E7FA
:104D400070B510F077FE054615F052FB0446284674
:104D50000CF0C0F801462046BDE8704000221AF071
:104D6000C5B800002DE9F04F0D4687B0044600217C
:104D700015F02CFA60B32946204600F061FA294666
:104D8000204600F06FF80021204616F049F9059002
:104D90000021204616F0ECF904900021204616F080
:104DA00010F8012800D0002080460021204616F08F
:104DB0002FFB07460021204616F07EF842F2D179FB
:104DC00006464F450BD1608C000508D4012707E04B
:104DD00007B02846BDE8F04F1C2113F0A5BE002700
:104DE000204615F071FADFF878A0834620460021AE
:104DF000BAF8042016F016FAD5F810C0AB68296886
:104E0000CDF800C0CDF80C80CDE90131C2B23946F1
:104E10005846059B09F098FC28834E4504D1608CC8
:104E2000400501D4012600E00026204615F032FAA4
:104E3000074620460021BAF8082016F0F3F9C2B25E
:104E4000686900246B68E9688DE81B0031463846C4
:104E5000049B09F079FC688307B0BDE8F08F00007F
:104E6000F40000202DE9F34F81B00C46019808F0C2
:104E7000EDFE0646019815F027FA8246304601F00D
:104E800007F82061400013F0E3FC20602069400037
:104E900013F0DEFC002541F69A79A0603AE036F97D
:104EA0001510DFF82081494533D10027DFF818B10C
:104EB0001FE03946019815F089F95946009016F01F
:104EC000C8FBA8B9009808F0D3FE012810D10098BB
:104ED00008F0C4FEA8420BD1009816F06AFB4146C8
:104EE000404501DA084602E0009816F062FB804671
:104EF0007F1C019815F07CF9B842DAD8B8F1000FA0
:104F000003DBA16821F8158003E0A168002021F8E7
:104F100015006D1C2069A842C1D800252F462846DF
:104F200041F69B784B4615E036F91010414504DBFD
:104F30000D44A5F5F8559B3D0BE0994204D1A168BD
:104F400031F81010394403E0A26822F810103944F7
:104F50000FB2401C21698142E6D80021019816F069
:104F60005FF82169C1F1010200FB02A0C01B00B281
:104F7000002800DA002000224FF0FF331146C4461B
:104F800011E000BF36F9117067450BDBA7F5F85744
:104F90009B3F3AB210FB02F3B3FBF5F3A76827F887
:104FA00011300B46491C27698F42EBD8002B07DBD9
:104FB000A91A4143B1FBF5F1401AA16821F8130089
:104FC000BDE8FE8F01E0FFFF010006002DE9F14F73
:104FD00000221146009817F085FD0021009815F079
:104FE00029FF04460021009816F0CEF820440FFA5D
:104FF00080F90021009815F0CBFF20440FFA80F8CB
:10500000009815F08BFE00EB090101EB0800DFF8BA
:1050100098A006B25446009815F0EAF80746002515
:105020002AE0009821498068006850F825008346EE
:1050300016F00FFBF8B9584616F01CFE40BB0021D5
:10504000584615F08FFE18B3012821D002281FD032
:1050500003281DD00021584616F0F2F958B9BBF8C4
:105060001A10BBF81600081A401C00B24844A042AF
:1050700000DB044624B26D1CBD42D2D3544504D09B
:1050800004EB080000B2B04200DC3046BDE8F88F07
:105090000098BBF91A10B0F91600081A411CA14279
:1050A000E8DB0C46E6E7000001E0FFFF010004003A
:1050B0002DE9F84F00228046114617F0FDFC002133
:1050C000404615F0B7FE04460021404616F008F8A9
:1050D00020440FFA80FA0021404615F0B9FF204421
:1050E0000FFA80F9404615F027FE00EB090101EBAD
:1050F0000A00DFF844B105B25C46404615F078F886
:1051000007460021404615F04AFE01284FF00006F0
:1051100044D078E0D8F808004849006850F82600E4
:10512000009016F096FAC0BB009816F0A3FD50B19F
:105130000098B8F91810B0F91400091A481CA042D8
:105140002ADB4C1C28E00021009815F00BFE58B11A
:10515000032809D0062807D0082805D00021009888
:1051600016F068F958B118E00098B8F91810B0F9BD
:105170001400081A411CA1420EDB0C460CE00098FA
:10518000143000900BF057F95044A04204DB009813
:105190000BF051F900EB0A0424B2761CBE42B9D3DD
:1051A0005C453BD004EB090033E000BFD8F80800B1
:1051B0002249006850F82600009016F04AFA08BB11
:1051C000009816F057FD60BB0021009815F0CAFD4D
:1051D00038B3012825D0042823D0072821D0002166
:1051E000009816F02DF968B90098143000900BF073
:1051F00022F94844A04204DB00980BF01CF900EBB4
:10520000090424B2761CBE42D0D35C4506D004EB20
:105210000A0000B2584501D0A84200DC2846BDE88B
:10522000F88F0098B0F91810B8F91400091A481C42
:10523000A042E6DB4C1CE4E701E0FFFF01000400B4
:105240002DE9F84F0C46834609F004F9064600F0B4
:105250001FFE6061400013F0FBFA6060606940006F
:1052600013F0F6FA002541F69A79E0603AE036F953
:105270001500DFF82881484533D10027DFF820A149
:105280001FE03946584614F0A1FF5146009016F031
:10529000E0F9A8B9009809F069F9012810D100983F
:1052A00009F05AF9A8420BD1009815F060F8414670
:1052B000404501DA084602E0009815F058F88046AB
:1052C0007F1C584614F094FFB842DAD8B8F1000FAA
:1052D00003DBE16821F8158003E0E168002021F894
:1052E00015006D1C6069A842C1D800252F462846CC
:1052F00041F69B784B4615E036F91010414504DB2A
:105300000D44A5F5F8559B3D0BE0994204D1E168A9
:1053100031F81010394403E0E26822F810103944E3
:105320000FB2401C61698142E6D80021584615F051
:105330001FFF8146584614F0ADFF01466069C0F179
:10534000010209FB0210C01B00B2002800DA002095
:1053500000224FF0FF331146C44610E036F91170B9
:1053600067450BDBA7F5F8579B3F3AB210FB02F3FA
:10537000B3FBF5F3E76827F811300B46491C676962
:105380008F42EBD8002B07DBA91A4143B1FBF5F1A3
:10539000401AE16821F81300BDE8F88F01E0FFFF33
:1053A000010006001CB50B8804892344ADF80030C9
:1053B0004B8844892344ADF802308B880489234408
:1053C000ADF80430C98843891944ADF80610436923
:1053D000694698471CBD00002DE9FF4F89B0C87889
:1053E0001A9CC0070D46002801D0F84800E0F84894
:1053F000069001D0F74800E0F748049001D1F54845
:1054000000E0F5484FF010034FF00C0E4FF0080B82
:10541000CDF814006188A2884FF0000AA1EB0201C8
:10542000504609B25246D4F810C00FE002EB820792
:10543000E66803EB870816F808805FEAC87809D0A9
:105440000BEB8707F65B891B09B2521C9445EDD81C
:10545000002254E00EEB8707F65B304400B2F4E71D
:10546000E66802EB820703EB870CB146CDF820C05B
:1054700016F80C60F60741D1002872D091FBF0F8C5
:105480000EEB8706079639F8066006FB08F60FFA5A
:1054900086FCCDF800C04FF0060C0CEB870C042600
:1054A00039F90C8006EB8706DDF800C039F9066093
:1054B000E04500DCC446664504DC009EC446B045B9
:1054C00000DC6646DDF800C00196664506D0DDF8D2
:1054D00020C04FF00108C24649F80C80D4F80C8077
:1054E000019E0BEB870728F80760D4F80CC0079FD4
:1054F0003CF80770C01B891B00B209B2521C266918
:105500009642ADD8BAF1000F84D10021099815F068
:1055100052FC012826D000270020ADF80800ADF885
:105520000C0003A902A8CDE900012089B4F90220EA
:1055300003B2287818991BF018FCE878384207D095
:10554000099814F0C1FEBDF808100844ADF8080031
:105550000B99099814F03AFE06464FF4FA682AE1CE
:10556000FFE7FEE70127D7E79C49304616F071F8C0
:1055700000286FD10021304615F088FCF0B34FF0C1
:105580000009484621690FE0E26800EB800352F809
:105590002320B24207D1E16800EB80020BEB8200CE
:1055A00031F9009002E0401C8142EDD8E878C00754
:1055B000708C04D020F4806040F4006003E020F49C
:1055C000006040F48060708406F114000499824603
:1055D0008847484528D0304616F0F3FAB08AADF82F
:1055E0000000F08AADF80200308BADF80400708B3B
:1055F000ADF8060049465046069A00E010E0904794
:105600006A462921304610F019FA304614F0F0FEAF
:105610003246222110F012FA304616F0D2FA03E098
:10562000708C20F44060708400200090687801281D
:1056300011D0022817D1059906F114008847B4F952
:105640000010491C21F00101081A00EBD07040F352
:105650004F0007E0A7E0059906F11400884721886C
:10566000081A00B20090E878384208D0049906F190
:1056700014008847BDF80810081AADF80800304635
:1056800000216B2215F0CEFD0FFA80F93046002183
:105690006C2215F0C7FD0FFA80FA304615F089FF2D
:1056A0000190304614F063FE0146C9F341300128F1
:1056B0000FD129F4C04040450BDCB0F57A7F01DD05
:1056C000C0F57A70019A5043642290FBF2F00FFA11
:1056D00080F9CAF3413001280ED12AF4C040404578
:1056E0000ADCB0F57A7F01DDC0F57A7048436421A9
:1056F00090FBF1F00FFA80FAB18A1698F28A411AFB
:1057000001EB0900179900B28A1A02EB0A01EA7844
:1057100009B2D207002A02D0BDF9082000E0009AA1
:1057200010440FFA80FA01D0009801E0BDF908009A
:1057300008440FFA80F95AEA09011BD0304616F0E6
:1057400040FAB18A01EB0A00B082318B01EB0A000A
:105750003083F18A01EB0900F082718B01EB0900C3
:105760007083304616F02DFA00234A4651463046E3
:1057700016F0CEFAE87838420CD1049906F11400FC
:10578000884719990844BDF80C100844BDF8081062
:10579000084406E0BDF80C1019980844BDF808103C
:1057A000081AADF80800E8780BAAC0F38001099840
:1057B00008F016FD0646002E04D0DDE90B018842F4
:1057C0007FF4D2AE0DB0BDE8F08F0000BF04010839
:1057D000B50401085B040108030401080100060088
:1057E0002DE9F04F91B00E0005463FD02E8328687A
:1057F00008B113F08BF806EB4600062101EB4000E0
:1058000012F0F8FF286040B3022101EB4601014489
:10581000E960042101EB86010144C5E90101012190
:105820000024012E1AD0F000083013F011F8814640
:1058300000EB860000F10408B00000B2A346ADF80A
:105840001000C0F101028010ADF812B00FFA82FA18
:105850005C46CDF828B00690ABE0FEE7B4220270BB
:10586000E8680480E8684180A868048011B0BDE859
:10587000F08F0027BDF81220BAF1000F07DC0321DA
:1058800001EB42010AEB01000FFA80FA0CE0BDF8CF
:1058900010100523521A03EB420202EB0A00491EC4
:1058A0000FFA80FAADF81010BDF81200401CADF8E8
:1058B000120004A800F0E9F868B1BDF9100006A9CB
:1058C000821041F827200AA900F0030041F82700C0
:1058D0007F1C042FCEDB042F71D1099906988842D2
:1058E00012D129F8140028F814B0DDE90A010144A6
:1058F000DDE90C2010440844696808556968000116
:105900000855641C24B252E00799884219D029F83E
:10591000140028F814B06A680A9810556A680001E3
:105920001055641C069A20B2521E29F8102028F83F
:1059300010B0DDE90B120A440D99091D11446A6883
:105940002FE0089929F81400884228F814B0DDE9FE
:105950000A025946104412D06A6810556A6800015C
:105960001055641C069A20B2521E29F8102028F8FF
:105970001010DDE90C12114408316A6811E00C9A2C
:1059800010446A6810556A6800011055641C069A34
:1059900020B2521E29F8102028F810100D996A68BC
:1059A0000C3111546A6809011154401C04B20BF106
:1059B000010B04A800F069F800287FF45AAF40F208
:1059C000D32016FB00F109EB4402881232F9022CB5
:1059D000824205D108EB440232F9022C82421AD0ED
:1059E000A1EB8021B1F5007F03DC494341F3CF31C6
:1059F00006E0C1F58061494341F3CF31C1F10F01A8
:105A000029F8140028F8140068680155686809012D
:105A10000155641C24B2A01E0EE000BF38F810200F
:105A200029F8142039F8102028F8142069680A5C35
:105A30000A55641C24B2401E0028EFDAEA680021EF
:105A4000084611801BE0EA6822F81100AB6839F8BB
:105A5000102023F811200AE0AE6839F9102036F83A
:105A60001130934200DA1A4626F81120401C38F90A
:105A700010208A4201D1A042EEDB491C09B2A042AB
:105A8000E1DB484612F030FFF0E6B0F90210B0F961
:105A90000000814201DC012070470020704717B5EB
:105AA00081B0022A03D8BDF8080004B010BDBDF8CB
:105AB0000830BDF80400C3F3C401C0F3C40421449A
:105AC0001F2900D31F2161F3C7005907890E01EB7D
:105AD000533100F0070401EBC40101EB5031ADF884
