:020000040800F2
:10000000E879012061020008EF2700084F2200086C
:10001000ED27000877040008953100080000000073
:100020000000000000000000000000009D0100082A
:100030002905000800000000F90100088D2C0008C7
:100040007B0200087B0200087B0200087B0200089C
:100050007B0200087B0200087B0200087B0200088C
:100060007B0200087B0200087B0200087B0200087C
:100070007B0200087B0200087B020008790400086C
:100080007B0200087B0200087B0200087B0200085C
:100090007B0200087B0200087B0200087B0200084C
:1000A0007B0200087B0200087B0200087B0200083C
:1000B0007B0200087B0200084D2D00087B0200082F
:1000C0007B0200087B0200087B0200087B0200081C
:1000D000A9280008893100087B0200087B0200087B
:1000E0007B0200087B0200087B0200087B020008FC
:1000F0007B0200087B0200087B0200087B020008EC
:100100007B0200087B0200087B0200087B020008DB
:100110007B0200087B0200087B0200087B020008CB
:100120007B0200087B0200087B0200087B020008BB
:100130007B0200087B0200087B0200087B020008AB
:100140007B0200087B0200087B0200087B0200089B
:100150007B0200087B0200087B0200087B0200088B
:100160007B0200087B0200087B0200087B0200087B
:100170007B0200087B0200087B02000800000000F0
:100180007B0200087B020008DFF80CD000F036F993
:100190000048004711C40208E87901202C4B196877
:1001A0000868B0E8F04F80F30988BFF36F8F4FF015
:1001B000000080F3118870470000000008480068C4
:1001C000006880F308884FF0000080F3148862B65E
:1001D00061B6BFF34F8FBFF36F8F00DF00BF00BF6B
:1001E00008ED00E0DFF80C00016841F470010160E7
:1001F000704700BF88ED00E0EFF30980BFF36F8F19
:10020000134B1A681EF0100F08BF20ED108A20E96A
:10021000F04F106009B44FF0500080F31188BFF325
:100220004F8FBFF36F8F38F0EDFA4FF0000080F37F
:10023000118809BC19680868B0E8F04F1EF0100F6B
:1002400008BFB0EC108A80F30988BFF36F8F704746
:1002500018000020EFF305807047000040BA704797
:100260000648804706480047FEE7FEE7FEE7FEE750
:10027000FEE7FEE7FEE7FEE7FEE7FEE73D2D0008AE
:10028000890100082DE9F05F0546002092469B4653
:1002900088460646814640241BE02846414647469C
:1002A000224600F09AF853465A46C01A914110D39C
:1002B00011461846224600F081F82D1A67EB010816
:1002C0004F4622460120002100F078F817EB000984
:1002D0004E41201EA4F10104DFDC484631462A4687
:1002E0004346BDE8F09F2DE9F0410024061B25465A
:1002F00071F1000605DA01240027D0EB070067EB57
:100300000101161E73F1000605DA0027D2EB070281
:10031000012567EB0303FFF7B5FF86460E46174638
:100320009C46AC4204D00025D0EB050E65EB0106DF
:1003300024B10020D2EB000760EB030C704631467D
:100340003A466346BDE8F08140EA01039B0703D0CB
:1003500009E008C9121F08C0042AFAD203E011F804
:10036000013B00F8013B521EF9D27047D2B201E0C6
:1003700000F8012B491EFBD270470022F6E710B5AA
:1003800013460A4604461946FFF7F0FF204610BD03
:1003900030B50B46014600202022012409E021FA55
:1003A00002F59D4205D303FA02F5491B04FA02F552
:1003B0002844151EA2F10102F1DC30BD202A04DB25
:1003C000203A00FA02F1002070479140C2F1200368
:1003D00020FA03F3194390407047202A04DB203AA7
:1003E00021FA02F00021704721FA02F3D040C2F155
:1003F000200291400843194670470000064C074D03
:1004000006E0E06840F0010394E8070098471034E4
:10041000AC42F6D3FFF7BCFEF8E2030818E303088A
:1004200070B58C1810F8015B15F0070301D110F8B6
:10043000013B2A1106D110F8012B03E010F8016BE3
:1004400001F8016B5B1EF9D12B0705D40023521E66
:100450000DD401F8013BFAE710F8013BCB1A921CCE
:1004600003E013F8015B01F8015B521EF9D5A142CC
:10047000D8D3002070BDFEE7014800F035B9000078
:100480004002002001681823CAB2103AB2FBF3F20E
:10049000054B6FF30901032A9B5CC36500D9091D55
:1004A00081650846704700009C95030810B5014619
:1004B00000208B698A6A4FF0C07453B1B3F5005FB6
:1004C00015D072B1012A0CD0022A0AD0032A09D110
:1004D00004E01AB1012A06D0022A03D1C96AC9016F
:1004E00000D5012010BDC96AA142FAD010BD002A72
:1004F000F7D0012AF2D0022AF3D0032AF3D010BD9C
:1005000030B50468256825F480252560046863609B
:100510008368402B036803D099600068C26030BDD7
:100520009A600068C16030BD7047000038B5044C67
:10053000049D6468002C01D00095A04738BD0000E0
:100540008C71002010B500F00BF8044800680028FA
:1005500002D0BDE81040004710BD00008C710020A3
:1005600010B5044802F01CFB0248BDE810401C30E6
:1005700000F002B8AC00002002490DC881E80D006F
:10058000704700008C71002072B6FEE71CB50C4C61
:10059000002061688847A1680A20884761680120B7
:1005A0008847A1686420884700208DF804006420F3
:1005B000009024680123002101AA7020A0471CBDDF
:1005C000947300203EB5044664200090134806232F
:1005D0000221056801AA7020A84701004FF0000021
:1005E00019D19DF8041011F00F0F14D09DF80510CB
:1005F0009DF8060001F00F0140EA012060809DF89F
:1006000007109DF8080001F00F0140EA0120A080CA
:10061000012020703EBD207000203EBD947300205C
:1006200002490DC881E80D00704700009473002056
:100630002DE9F0410446876D00F0C6FA064694F8AD
:1006400035000025022806D08020606584F83450EB
:100650000120BDE8F0812068016821F016010160E9
:100660002068416921F080014161206C08B9A06CCB
:1006700020B12068016821F008010160206801684C
:1006800021F0010101600CE000F09EFA801B0528BA
:1006900007D920206065032084F8350084F83450A1
:1006A000D7E720680068C007EED194F85C103F20BF
:1006B0008840B860012084F8350084F83450002068
:1006C000C7E790F83510022903D080214165012049
:1006D0007047052180F835100068016821F001019C
:1006E00001600020704700002DE9F84304464FF0F8
:1006F0000009CDF8009063484FF41651A56D0068CD
:10070000B0FBF1F72E6894F85C10082000FA01F1B4
:1007100031420FD021680A6852070BD50A6822F0CF
:1007200004020A6094F85C108840A860606D40F094
:100730000100606594F85C104FF0010808FA01F0C0
:10074000304208D021684969090604D5A860606D67
:1007500040F00200606594F85C100420884030424C
:1007600008D021680968890704D5A860606D40F049
:100770000400606594F85C1010208840304218D066
:1007800021680968090714D5A86020680168490331
:1007900004D50068000308D5A16C07E00168C9050D
:1007A00003D4016821F008010160216C09B12046E1
:1007B000884794F85C1020208840304231D021686E
:1007C0000968C9062DD5A86094F835000528206869
:1007D000016806D0490347D5006800031DD4616C49
:1007E0001CE021F0160101602068416921F08001C0
:1007F0004161206C08B9A06C20B12068016821F02B
:100800000801016094F85C103F208840A86084F8DB
:10081000358084F83490216D1FE0E16B09B12046EA
:100820008847606D00282BD0606DC00714D005206C
:1008300084F835002068016821F00101016000980A
:10084000401C0090B84203D820680068C007F6D169
:1008500084F8358084F83490E16C002910D001B020
:100860002046BDE8F04308470168C905D5D40168B2
:1008700021F01001016084F8358084F83490CCE7D1
:10088000BDE8F883140000202DE9F041044600F093
:100890009BF906465CB1022084F83500002584F8F7
:1008A00034502068016821F0010101600DE0012051
:1008B000BDE8F08100F088F9801B052805D92020CB
:1008C0006065032084F83500F2E720680068C007FF
:1008D000F0D12268116820480140D4E9010318438F
:1008E000D4E903363343184363691843A3691843B3
:1008F000E3691843236A18430843616A042903D152
:10090000D4E90B1319430843106020684069666AF4
:1009100020F0070130460E43012704280CD1A06ABD
:100920000643E06A40B12046FFF7C0FD20B14020F9
:10093000606584F83570BAE7206846612046FFF7A5
:10094000A1FD94F85C203F2191408160656584F8A9
:1009500035700020ACE700003F8010F02DE9F04139
:100960000446866D90F83400002501280DD0012042
:1009700084F8340094F835700020012F07D084F8F3
:10098000340002252846BDE8F0810220FBE702275B
:1009900084F8357060652046FFF7B2FD94F85C106E
:1009A0003F208840B0602068016841F01601016076
:1009B000206C20B12068016841F0080101602068C6
:1009C000016841F001010160DCE700002DE9F84F0A
:1009D000DFF8BCA10022012503264FF00F090AF120
:1009E000040BAAF1040E00BF0B6805FA02F42340C1
:1009F000A34270D10F7907F00307012F01D0022F16
:100A000016D187684FEA420806FA08FC27EA0C0765
:100A1000D1F80CC00CFA08FC4CEA070CC0F808C06E
:100A20004768A7430C79C4F3001494403C434460E6
:100A30000C79E443A4070AD0C4684FEA420C06FAD2
:100A40000CF7BC438F6807FA0CF72743C7600C7993
:100A500004F00304022C12D1D40800EB840CDCF85F
:100A600020405707FF0E09FA07F824EA0804D1F8D6
:100A7000108008FA07F848EA0408CCF820800468D7
:100A80004FEA420C06FA0CF7BC430F7907F0030754
:100A900007FA0CF7274307604C6814F4403F70D006
:100AA0003C4C276847F480472760246822F00307FE
:100AB00004F480440094384C07EB040CDCF808483C
:100AC00097074FEA177809FA08F7BC43334FB84243
:100AD00002D1002724E054E0314FB84201D1012770
:100AE0001EE0304FB84201D1022719E02E4FB84224
:100AF00001D1032714E02D4FB84201D104270FE0A4
:100B00002B4FB84201D105270AE02A4FB84201D144
:100B1000062705E0284FB84201D1072700E0082743
:100B200007FA08F72743CCF80878DAF80040574668
:100B3000D1F804C09C435FEACC2C00D51C433C6038
:100B4000DBF800405F46D1F804C09C435FEA8C2C80
:100B500000D51C433C60DEF800407746D1F804C065
:100B60009C435FEA8C3C00D51C433C60084F083F27
:100B70003C68D1F804C09C435FEACC3C00D51C43E0
:100B80003C60521C102AFFF42FAFBDE8F88F000024
:100B9000083C01404438024000300140000002405F
:100BA0000004024000080240000C02400010024015
:100BB0000014024000180240001C02400AB181618A
:100BC00070470904FBE70000014880687047000097
:100BD0000800002070B5040025D094F83D000025E1
:100BE00020B984F83C50204600F0BAF9242084F85B
:100BF0003D002068016821F0010101602068016862
:100C000041F4004101602068016821F40041016065
:100C100000F05EFB4D4A6168914201D84C4900E00A
:100C20004C49884201D2012070BD4B492368B0FB7A
:100C3000F1F15E6826F03F060E435E606368934202
:100C400006D94FF4967359434FF47A73B1FBF3F11D
:100C50002368491C1E6A26F03F0631431962616809
:100C6000914210D84900401EB0FBF1F2521CC2F371
:100C70000B02042A01D2042022E0B0FBF1F0401C58
:100C8000C0F30B001CE0A268F2B301EBC10303EB5D
:100C90000116431EB3FBF6F35B1C43F480431B05B4
:100CA00049D092B301EBC10202EB0111401EB0FB2F
:100CB000F1F0401CC0F30B0040F4804040F40040D1
:100CC0002168CA694CF6FF739A431043C861D4E99E
:100CD000071001432068026822F0C002114301603E
:100CE000D4E9030101432068826848F2FF339A4344
:100CF00011438160D4E9050108432168CA6822F0E4
:100D0000FF021043C86001E00EE016E020680168B1
:100D100041F0010101602564202084F83D00256335
:100D200084F83E50002070BD01EB4106431EB3FB2A
:100D3000F6F35B1CB3E70120C2E701EB4101401E63
:100D4000B0FBF1F0401CC0F30B00B7E7A086010038
:100D500080841E0000093D0040420F002DE9FF4F36
:100D600083B09A46DDE9118793460446DDF840904A
:100D7000FFF72AFF054694F83D00202870D119237B
:100D8000012274492046009501F0F8FA0028F5D1B7
:100D900094F83C00012863D0012084F83C002068CE
:100DA0000168C90703D1016841F0010101602068B1
:100DB000016821F400610160222084F83D00402098
:100DC00084F83E0000262664C4F82490A4F82A8003
:100DD000608D20856048E062CDE9007553465A4633
:100DE0002046049901F04CFA002879D1208DD0B129
:100DF000012821D00228206824D041698069009010
:100E0000208D032866D801282BD0544902283B4660
:100E10004FF00002009557D08846204601F0AEFA08
:100E200000285DD13AE0206841698169009101683C
:100E300041F4007101607DE02068016821F4806167
:100E40000160F0E7016821F48061016020680168B9
:100E500041F400610160206841698069009069E0A7
:100E600075E02A463946204601F02EFB88BB54E047
:100E70002068016841F40071016020680069616ABE
:100E80000870606A401C6062218D491E2185618D59
:100E9000491E618521680969017042E02068016886
:100EA00021F48061016020680069616A0870606AED
:100EB000401C6062208D401E2085608D401E608534
:100EC0003B46002241460095204601F057FA00B902
:100ED000CEE705E02A463946204601F0F5FA18B17A
:100EE000012007B0BDE8F08F20680069616A0870D2
:100EF000606A401C6062208D401E81B22185608D39
:100F0000401E608520684269D243520712D40329EB
:100F100003D1016821F48061016020680069616A81
:100F20000870606A401C6062208D401E2085608DC4
:100F3000401E6085208D00287FF462AF202084F859
:100F40003D0084F83E6084F83C600020C9E7022040
:100F5000C7E70000020010000000FFFF04000100CE
:100F600010B586B0044614216846FFF706FA134907
:100F70002068884220D112480021026842F0020213
:100F80000260006800F002000590C020009012206E
:100F9000CDE901010320039004200490694609482B
:100FA000FFF714FD06481030016841F4001101609C
:100FB000006800F40010059006B010BD0054004019
:100FC000303802400004024002488168027811442F
:100FD00081607047080000200B4810B5016841F49B
:100FE00000710160016841F480610160016841F4B1
:100FF00080710160032000F09FF80F2000F006F8D8
:1010000000F050F8002010BD003C024030B505460D
:101010001F4887B00024016841F0040101600068A6
:1010200006A900F00400009001A800F031F904982E
:10103000A8B100F04DF940001649174AB0FBF1F194
:101040001648491E026040F2E732C0E90324C0E9B5
:101050000114846100F0BBFD040003D015E000F032
:1010600037F9E9E70D4800F0E1FD04000DD11E203D
:1010700000F034F8102D07D2002229461E2000F07F
:101080003BF80748056000E0012407B0204630BD6A
:101090004038024040420F0000080040E8020020B3
:1010A0000C0000200C4882B0016841F480410160CE
:1010B000006800F4804000900748001F016841F07C
:1010C000805101600068002200F0805000900F21E4
:1010D000901E02B000F010B844380240002809DB2E
:1010E00000F01F02012191404009800000F1E02042
:1010F000C0F8001170470000F0B40E4B1B680C469E
:10110000C3F30223C3F10705042D00D90425191DDB
:10111000072901D2002300E0DB1E012606FA05F1B3
:10112000491E214099409E40761E16403143F0BC36
:1011300002F042B80CED00E0064900F00702086832
:101140004FF6FF03184040EA0220034A10430860AC
:10115000704700000CED00E00000FA052DE9F047B3
:101160000E46050065D0DFF81481D8F80000F7B20C
:1011700000F00700B04207D288F80070D8F80000ED
:1011800000F00700B04254D128683D4C810712D5C9
:10119000400703D5206840F4E0502060287800071D
:1011A00003D5206840F4604020602068A96820F0E2
:1011B000F000084320602878C0072DD030496868C7
:1011C0000839012812D0022813D0032811D0096849
:1011D000890700292DDA216821F0030101432160EC
:1011E000FFF7F2FC814641F2883A0EE00968890374
:1011F000EFE709688901ECE7FFF7E6FCA0EB0901DE
:10120000514502D90320BDE8F0872068696800F0E5
:101210000C00B0EB810FEFD1D8F80010404601F080
:101220000701B14207D90770006800F00700B0421B
:1012300001D00120E7E72878400705D52068E96854
:1012400020F4E050084320602878000706D5206885
:10125000296920F4604040EAC100206000F058F89D
:101260002168084AC1F30311515CC840064908606F
:1012700006480068FFF7CAFE0020C4E7003C0240B1
:1012800008380240A4950308140000200C00002038
:101290000F2202600C4A136803F0030343601368D3
:1012A00003F0F0038360136803F4E053C360126833
:1012B0004FF4E05303EAD20202610448006800F0F0
:1012C000070008607047000008380240003C0240F8
:1012D0000448054900680968044AC1F38221515C49
:1012E000C84070471400002008380240B495030835
:1012F0000448054900680968044AC1F34231515C59
:10130000C84070471400002008380240B495030814
:10131000154810B5006810F00C02144813D0144999
:10132000042A0FD0082A0ED10F4C241F22682368EC
:1013300002F03F025B0207D52068C0F38810A0FBD3
:10134000010106E0084610BD2168C1F38811A1FB28
:1013500000010023FEF796FF2168C1F30141491CFB
:101360004900B0FBF1F010BD083802400024F40041
:1013700040787D012DE9F84F04006ED02078DFF829
:101380004C93C007A9F104054AD009F10400016893
:10139000C1F38101012908D00068C0F3810002284F
:1013A0000AD1D9F80000400206D52868800337D555
:1013B00060680028E1D033E06068B0F5803F10D06D
:1013C000B0F5A02F286810D020F48030286028685D
:1013D00020F4802028606068A8B1FFF7F5FB06467E
:1013E0000DE0286840F48030F4E740F48020286065
:1013F000F7E700BFFFF7E8FB801B642873D8286875
:101400008003F7D50CE0FFF7DFFB064605E000BFE1
:10141000FFF7DAFB801B6428F0D828688003F7D434
:101420002078DFF8AC8280074FF0000A3ED5A7484D
:10143000001D016811F00C0F08D00068C0F3810096
:1014400002280BD1D9F80000400207D42868800791
:1014500016D5E068012800D112E033E1E068B8B1A8
:101460000120C8F80000FFF7AFFB064605E000BF0B
:10147000FFF7AAFB801B0228C0D828688007F7D591
:101480002868216920F0F80040EAC10028600DE0DA
:10149000C8F800A0FFF798FB064604E0FFF794FBAE
:1014A000801B02281FD828688007F7D420780007FF
:1014B00022D5864F87486169703771B1012101607B
:1014C000FFF782FB064604E0FFF77EFB801B022845
:1014D00009D838688007F7D50EE0C0F800A0FFF7FC
:1014E00073FB064605E082E0FFF76EFB801B0228D7
:1014F0007DD838688007F7D42078400768D5DFF8B2
:10150000CCB100270BF13C0BDBF80000C0000BD482
:10151000DBF8001041F08051CBF80010DBF8000040
:10152000012700F0805000906B4E3068C00510D449
:10153000306840F480703060FFF746FB009005E0B3
:10154000FFF742FB0099401A022850D83068C005C6
:10155000F6D55E4EA0686C3601280FD0052830689D
:1015600010D020F001003060306820F004003060BE
:10157000A068B8B1FFF728FB00900FE0306840F09A
:101580000100F4E740F004003060F7E7FFF71CFBD0
:101590000099411A41F28830814266D8306880074C
:1015A000F4D50EE0FFF710FB009007E0FFF70CFB0F
:1015B0000099411A41F28830814256D8306880073C
:1015C000F4D42FB1DBF8001021F08051CBF80010DB
:1015D000A069C8B33D49091D0968C1F38101022909
:1015E0004AD00228504607D0C8F8600000E03CE02E
:1015F000FFF7EAFA04463BE04746C8F86000FFF709
:10160000E3FA064605E000BFFFF7DEFA801B02287A
:101610002BD828688001F7D4D4E907010843A16AD0
:101620002E4A490802EB0141626A41EA82110843ED
:1016300094F82C1040EA0161C9F8001001203866C6
:10164000FFF7C2FA044606E03EE000BFFFF7BCFA2F
:10165000001B022809D828688001F7D534E000BFB4
:10166000FFF7B2FA001B022802D90320BDE8F88F69
:1016700028688001F4D427E00128F7D0D9F80000C9
:10168000E26900F4800191421CD1226A00F03F011E
:10169000914217D147F6C071626A0140B1EB821FD7
:1016A00010D1A26A4FF0FF3300F4403103EB520235
:1016B000B1EB024F06D194F82C1000F07060B0EB43
:1016C000016F01D00120D1E70020CFE704380240AC
:1016D00000004742800E4742007000400000FFFFBC
:1016E0007047000038B5016804464A688868C043FE
:1016F000430606D5C30704D1D3435B0601D4216C4E
:1017000005E0830708D4D3431B0605D4616C01B000
:101710002046BDE830400847830603D5430601D57F
:10172000C30551D4D3439B064ED443060AD494F840
:101730005130032B49D0636D43F004036365CB68DC
:101740008B680093830609D4636D43F001036365DE
:101750008B6800930B6823F040030B60C00506D430
:10176000606D40F008006065206880680090606DE2
:10177000002829D02068416821F0E0014160012063
:1017800084F85100900701D4D00722D02068416826
:1017900021F003014160114DE06C40B10565E06C42
:1017A000FEF78FFF18B1606D40F040006065A06CDF
:1017B000002809D00565A06CFEF783FF002803D040
:1017C000606D40F04000606538BDC8688868009072
:1017D00038BD2046FFF784FF38BD0000B52800085B
:1017E00070B5040009D0606A002540B125616561CB
:1017F000A56294F8510040B10CE0012070BD606812
:10180000B0F5827FF4D0E561F2E784F850502046CD
:1018100000F044F8022084F851002068016821F0AB
:1018200040010160A088218900F4827001F4044124
:101830000843A18901F400610843217C01F0020101
:101840000843217D01F001010843218B01F400715F
:101850000843217F01F03801084394F8201001F07B
:1018600080010843218D01F400510843216808607C
:10187000A069042101EA104094F8241001F010013D
:101880000843216848602068C16921F40061C16192
:101890006565012084F85100002070BD2DE9F043FA
:1018A00087B0064614216846FEF767FD2A4930686E
:1018B00088424ED129480025016841F480410160E9
:1018C0000068264900F4804010390590086840F00F
:1018D00004000860086800F004000590086840F003
:1018E000020008600868022400F0020005900C2045
:1018F00003274FF005088DE8B10169461848FFF746
:1019000065F84FF4806901AACDF8009082E8B00133
:1019100069461448FFF75AF8144C1348E4E80205E6
:101920004020A4E82102114844F81459A561E5615A
:1019300025626562FEF7A8FF08B1FEF725FEB464D4
:10194000002205212420A663FFF7D6FB2420FFF701
:10195000C5FB07B0BDE8F0830038004040380240C6
:101960000008024000040240706002404002002073
:101970002DE9F84F984616468A460446FFF724F9A3
:10198000814694F8510001281ED1BAF1000F73D09E
:10199000002E71D094F85000012815D0012784F84A
:1019A0005070032084F8510000256565C4F830A00C
:1019B000A686E686A563A587E58765642564A06895
:1019C000B0F5004F03D00CE00220BDE8F88F20688E
:1019D000016821F0400101602068016841F4804104
:1019E000016020680168490603D4016841F04001A4
:1019F0000160E068B0F5006F606803D048B3012E65
:101A000027D047E008B1012E1FD1206B2168008844
:101A1000C86006E020688168890709D5216B0988BC
:101A2000C160206B801C2063E08E401EE0860CE0CD
:101A3000FFF7CAF8A0EB0901414503D3B8F1FF3F16
:101A400003D035E0B8F1000F32D0E08E0028E1D1AC
:101A500023E0206B21680078087306E02068816825
:101A600089070AD5216B09780173206B401C20631C
:101A7000E08E401EE0860DE02BE0FFF7A5F8A0EB1E
:101A80000901414503D3B8F1FF3F03D010E0B8F19D
:101A9000000F0DD0E08E0028E0D14A464146204696
:101AA00000F058FF08B120206065A06830B109E05F
:101AB00084F8517084F85050032086E72068C1688C
:101AC0008068009084F8517004F8505F60680028C6
:101AD000F3D0012079E7000070B5044690F851007A
:101AE00001281CD1C9B1C2B194F85000012816D008
:101AF000012084F85000032084F85100002565651A
:101B00002163A286E286A56365642564A587E587CF
:101B1000A068B0F5004F04D00DE0012070BD022098
:101B200070BD2068016821F04001016020680168F3
:101B300041F480410160A16C17480864A16C17480A
:101B4000C863A16C1648C864A06C0565E38E226862
:101B5000216B0C32A06CFEF701FF30B1606D40F0DC
:101B60001000606584F85050D7E720680168490686
:101B700003D4016841F04001016084F850502068AE
:101B8000416841F0200141602068416841F0020154
:101B90004160002070BD0000E7280008F12800081F
:101BA000C528000810B500680649884208D1012000
:101BB00000F056FE15F0DCFDBDE8104015F0CABD82
:101BC00010BD00000038004070477047704710B5E6
:101BD000040003D094F83D0010B107E0012010BDCF
:101BE000002084F83C00204600F01EF8022084F813
:101BF0003D00211D206801F0AFF8012084F8460067
:101C000084F83E0084F83F0084F8400084F84100E6
:101C100084F8420084F8430084F8440084F84500C6
:101C200084F83D00002010BD7047000090F83D1082
:101C3000012901D001207047022180F83D10016880
:101C4000CA6842F00102CA6000681149884214D093
:101C5000B0F1804F11D00F4988420ED00E49884212
:101C60000BD00E49884208D00D49884205D00D4955
:101C7000884202D00C49884204D1816801F00701F2
:101C8000062903D0016841F001010160002070477E
:101C9000000001400004004000080040000C00402B
:101CA00000040140004001400018004070472DE949
:101CB000F04104460068C66805694FF00007A907AF
:101CC00013D5B10711D5F91E0161012020772068D5
:101CD00080698007204602D0FFF7E8FF04E000F0AB
:101CE0007EF8204600F07CF82777680716D5700745
:101CF00014D521686FF00400086102202077206865
:101D0000806910F4407F204602D0FFF7CFFF04E047
:101D100000F065F8204600F063F82777280715D50E
:101D2000300713D521686FF0080008610420207780
:101D30002068C0698007204602D0FFF7B7FF04E0A3
:101D400000F04DF8204600F04BF82777E80616D54E
:101D5000F00614D521686FF0100008610820207784
:101D60002068C06910F4407F204602D0FFF79EFF34
:101D700004E000F034F8204600F032F82777E80756
:101D800008D0F00706D021686FF0010008612046F6
:101D900000F028F8280608D5300606D521686FF02F
:101DA000800008612046FFF710FF680608D570061E
:101DB00006D521686FF040000861204600F020F849
:101DC000A8060AD5B00608D521686FF02000086182
:101DD0002046BDE8F041FFF7F9BEBDE8F08170474D
:101DE0007047000010B500680449884201D1FFF730
:101DF000EBF8BDE81040012029F04CBD0008004080
:101E00007047704770470000F8B5016804460868DD
:101E1000CA684B6910F00F0F4FF0000559D003F05E
:101E2000010602F49077374365D0C10705D0D1058C
:101E300003D5616C41F001016164410705D5D90703
:101E400003D0616C41F002016164810705D5D907B7
:101E500003D0616C41F004016164010707D502F011
:101E60002001314303D0616C41F008016164616C71
:101E700000293AD0800604D5900602D5204601F00C
:101E800047F820684069616CC0F38010090700D4EE
:101E900060B3204601F015F820684069400621D55E
:101EA0002068143050E8001F21F0400140E8001283
:101EB000002AF5D1E06BA8B172490165E06BFEF72D
:101EC00000FC002811D0E06B016D01B0BDE8F040CE
:101ED000084783060FD593060DD52046BDE8F84088
:101EE00001F016B82046FFF78DFFF8BD2046FFF73A
:101EF00089FF6564F8BD266B2023012E7ED1C606BE
:101F00007CD5D6067AD508684868009048694FF0B5
:101F1000020640064DD5E26B106840684FF48077AA
:101F20000004000C3AD0A18D814237D9E085D069F8
:101F3000B8422DD020680C3050E8001F21F4807189
:101F400040E80012002AF5D12068143050E8001F44
:101F500021F0010140E80012002AF5D12068143078
:101F600050E8001F21F0400140E80012002AF5D19E
:101F700084F84230256320680C3050E8001F21F0BF
:101F8000100140E80012002AF5D1E06BFEF750FB8B
:101F90006663A08DE18D401A81B206E0A18D814279
:101FA000A8D1D069B842A5D166632046FFF729FFC2
:101FB000F8BDA08DE18D401A81B2E08D0028F7D0E8
:101FC0000029F5D020680C3050E8002F22F49072E0
:101FD00040E80027002FF5D12068143050E8002F8A
:101FE00022F0010240E80027002FF5D184F84230AA
:101FF000256320680C3050E8002F00E006E022F056
:10200000100240E80023002BF3D1CDE705062BD5C5
:10201000150629D594F841002128C9D1A068B0F54A
:10202000805F01D12069B0B1206A411C2162216822
:1020300000784860E08C401E0004000CE084B7D1BA
:102040002068C16821F08001C1602068C16841F04A
:102050004001C160F8BD206A0088C0F308004860F4
:10206000206A801C2062E5E74006F3D55006F1D5D2
:10207000CA68204622F04002CA6084F8413000F06D
:10208000E5F8F8BDB52E000870B5040004D094F84A
:102090004100002510B106E0012070BD84F84050D9
:1020A000204600F023F8242084F841002068C1680D
:1020B00021F40051C160204600F08CFF20680169C6
:1020C00021F4904101612068416921F02A014161B8
:1020D0002068C16841F40051C1606564202084F823
:1020E000410084F842006563002070BD10B586B0E1
:1020F000044614216846FEF740F9184920688842D2
:1021000029D117480021026842F0100202600068DD
:1021100000F01000059012481438026842F00102E5
:102120000260006800F0010005904FF4C06000906C
:102130000220CDE9010103200390072004906946A5
:102140000848FEF743FC002205212520FEF7D4FFB6
:102150002520FEF7C3FF06B010BD000000100140AF
:10216000443802400000024090F84230202B01D059
:102170000220704721B11AB10023036300F0B0BF01
:102180000120704710B50648017806A001F004F858
:10219000BDE81040012202490348FFF7E5BF0000F7
:1021A0000000002025640000A00200202DE9F84373
:1021B000044690F84100984616460D46202802D065
:1021C0000220BDE8F88385B17EB100206064212043
:1021D00084F84100FEF7F8FCA6848146E684A068F6
:1021E0002027B0F5805F02D003E00120E9E72069F5
:1021F00010B12E4600250EE000260CE0802120467E
:1022000000F089FFA8B9C6B116F8010B2168486033
:10221000E08C401EE084E08C4B464FF00002CDF88D
:1022200000800028EAD14FF04001204600F073FF03
:1022300040B184F841700320C3E735F8020BC0F3C6
:102240000800E3E784F841700020BAE77047FEE732
:1022500001684A69D24352050FD46FF480624A6123
:10226000002140F8301F202242738173026942F03E
:1022700004020261017301207047002070470000D2
:102280002DE9F84F0446006889460B9D0168984681
:10229000174641F4806101602068016841F4807153
:1022A000016000954FF0011B0022594620460A9B11
:1022B00000F064F84FF4007A40B120680068C0056F
:1022C00001D5C4F840A00320BDE8F88F216809F0CB
:1022D000FE0008612B46284920460A9A00F096F82D
:1022E000F0BB20684169806900902A4620460A991F
:1022F00000F022F940B1206C04283AD1206801682E
:1023000041F40071016034E0FEB2B8F1010F09D070
:102310002168380A08612A4620460A9900F00CF91B
:102320000028E8D1206806612A4620460A9900F074
:1023300003F90028DFD12068016841F48071016051
:1023400000950022594620460A9B00F017F8002805
:10235000B3D1216809F0FF0040F00100086100E0FE
:1023600007E02B46044920460A9A00F04FF800285F
:10237000AAD00120A8E70000020001002DE9F047E3
:10238000984617460D460446C1F30746DDF82090EF
:102390002AE000BFB8F1FF3F26D0FEF715FCA0EB06
:1023A0000901414502D8B8F1000F1DD12068012E66
:1023B00016D0806925EA00000004000C12D000202D
:1023C000B84211D1002044F8300F20216173A0736E
:1023D000216941F02001216120730120BDE8F087CF
:1023E0004069E7E70120EBE72068012E0AD0806909
:1023F00025EA00000004000C06D00020B842C9D035
:102400000020EBE74069F3E70120F7E72DE9F0470B
:10241000984616460D4604464FF000094FF0200A34
:10242000C1F3074723E020684069C043400515D445
:102430002068016841F40071016021686FF48060D8
:102440004861C4F8309084F83DA084F83E90216C37
:1024500041F00401216484F83C9021E0701C06D016
:10246000FEF7B2FBA0EB0800B04203D816B1012F73
:102470001FD021E02068012F15D0806925EA0000D7
:102480000004000C18D000BF44F8309F84F80DA061
:1024900084F80E90216941F02001216184F80C90AC
:1024A0000120BDE8F087406925EA00000004000C27
:1024B000EAD12068406901E02068806925EA0000CF
:1024C0000004000CAFD1ECE72DE9F0410025904667
:1024D0000E460446202728E04069C043C0060CD4BD
:1024E00054F8301B6FF01000486144F810596777BA
:1024F000A577206A2062257714E0FEF765FBA0EB44
:102500000800B04200D886B920684069C043400640
:102510000BD544F8305F6773A573206940F0200045
:10252000206125730120BDE8F08120684169C9431D
:102530004906D1D40020F6E770B516460D4604468C
:102540001EE02046FFF784FE08B1012070BD681C24
:1025500016D0FEF739FB801BA84200D885B9206849
:102560004069C04300060BD5002044F8300F2021FD
:102570006173A073216941F0200121612073E4E7B8
:1025800020684069C0430006DBD4002070BD000015
:10259000094808B5016841F4001101600068002293
:1025A00000F40010009005210F20FEF7A5FDBDE806
:1025B00008400F20FEF792BD303802401CB5094A92
:1025C000002109482AF0CEFA08494860002101207C
:1025D000CDE900010B46C20205A1094836F078FD9D
:1025E0001CBD0000789503084D2C00080000002059
:1025F0006C76676C5F746573745F7461736B0000F5
:1026000091C302082DE9F04186B014216846FDF718
:10261000B4FE41480024016841F0040101600168F2
:1026200001F004010591016841F080010160016839
:1026300001F080010591016841F00101016001682C
:1026400001F001010591016841F01001016001688C
:1026500001F010010591016841F00201016001687B
:1026600001F002010591016841F008010160006874
:102670002A4E00F008000590002240213046FEF767
:102680009DFA274F00224FF420413846FEF796FA74
:10269000DFF89080002241F608014046FEF78EFAEE
:1026A00001254020CDE90005CDE9025469463046B8
:1026B000FEF78CF968030090CDE90154694638466D
:1026C0000394FEF783F9E803CDE90005CDE9025450
:1026D00069463846FEF77AF940F608000090CDE9E1
:1026E0000154694640460394FEF770F92803CDE98A
:1026F0000005CDE9025469464046FEF767F980209F
:1027000000904FF48810CDE9010469460648FEF7B1
:102710005DF906B0BDE8F0813038024000000240AB
:102720000010024000040240000C02400D4810B5A9
:102730000B4901600C49416000214FF480428160E7
:10274000C0E9031241618161C1610162FEF742FA91
:10275000002803D0BDE81040FDF716BF10BD0000F3
:102760000054004094010020A0860100104810B5DC
:102770000E4901604FF482714160002102228160A4
:10278000C0E90312012242615202C0E9062101623E
:10279000416281620A21C162FFF722F8002803D05A
:1027A000BDE81040FDF7F0BE10BD0000003800404D
:1027B000E80100200C4810B50A4901604FF4E131EE
:1027C0004160002181600C22C160C0E90412816176
:1027D000C161FFF759FC002803D0BDE81040FDF7A8
:1027E000D3BE10BD00100140A0020020FEE7FEE7AE
:1027F00035F052BF3EB5069C8DE81C000A460146E6
:1028000001230248FEF7AAFA3EBD00009401002011
:1028100008B1012200E0002208210148FEF7CEB9EC
:10282000000402400A4601460148FFF755B900007E
:10283000E80100200A4601464FF0FF330148FFF748
:1028400097B80000E801002008B1012200E0002252
:102850004FF400410148FEF7B1B9000000100240FA
:1028600008B1012200E000224FF400610148FEF7A8
:10287000A5B900000004024008B1012200E00022D6
:102880004FF400510148FEF799B9000000100240D2
:1028900008B1012200E000224FF480510148FEF708
:1028A0008DB90000000402400148FEF71BBF000084
:1028B000E801002010B5806B0021C187C186FEF7BA
:1028C0000FFF10BD10B5806B01684A6822F003024B
:1028D0004A60416D41F010014165012180F85110BD
:1028E000FEF7FEFE10BD10B5806BFFF76DF910BD51
:1028F00038B50546846BFEF767F90246286800681C
:10290000C00523D42068416821F02001416020687F
:10291000416821F0020141606421204600F01AF86C
:1029200018B1606D40F020006065A068002118B902
:102930002068C26880680090E186012084F8510018
:10294000606D18B12046FEF7CBFE38BD2046FFF77C
:1029500029F938BDF8B515460E460B4600920446D7
:102960000122022100F02CF8A0B913481349006895
:10297000B0FBF1F04FF47A71484300906068B0F515
:10298000827F0DD13346002280212046009500F041
:1029900017F870B1606D40F0200060650320F8BD4D
:1029A000009830B1401E009020688068C043000647
:1029B000F6D50020F8BD00001400002000366E019E
:1029C0002DE9F8431E46914688460446089DFEF7C9
:1029D000FBF8401B351AFEF7F7F807462648006853
:1029E000C0F3CB3068430AE0701C09D0FEF7ECF866
:1029F000C01BA8420FD275B10098B8B3401E00901A
:102A00002068816838EA010033D000214945EBD1C4
:102A10000020BDE8F8832068416821F0E0014160B2
:102A20006068B0F5827F0BD1A068B0F5004F02D08E
:102A3000B0F5806F04D12068016821F04001016089
:102A4000A06AB0F5005F09D12068016821F4005147
:102A500001602068016841F400510160012084F8A0
:102A60005100002084F850000320D2E7FFE7002542
:102A7000C6E70121CAE70000140000202DE9F04755
:102A800082468946A3EB0900A2EB0A05401C6D1C97
:102A900045431F4690460024089E06E036F8140081
:102AA000FDF7DCFB26F81400641CAC42F6D33B4671
:102AB00042464946504600F07BF8084C0120E16848
:102AC00088472169002088474FF6FF7000EA4501DA
:102AD00030466268BDE8F047104700007873002078
:102AE0002DE9F041010241EA102081B2124A002092
:102AF00022F81010401CF028FADB002140F23F13AE
:102B0000EF22084600F054F80C4D0120E968884790
:102B100029690020884700244FF4F0764FF4A0770D
:102B20002A68314604489047641CBC42F8DB296996
:102B3000BDE8F0410120084798710020787300201B
:102B400010B5164C0020A1688847A1696420884709
:102B5000A16801208847A169782088476169012020
:102B60008847A16964208847112000F04BF8A169CB
:102B700078208847362000F045F8C02000F054F84F
:102B80003A2000F03FF8052000F04EF8202000F039
:102B900039F8BDE81040292000F034B878730020DF
:102BA00001461C220148FDF7CFBB000078730020CE
:102BB0002DE9F04107461C4615460E462A2000F036
:102BC00021F8380A00F030F8F8B200F02DF8280AA1
:102BD00000F02AF8E8B200F027F82B2000F012F8F5
:102BE000300A00F021F8F0B200F01EF8200A00F0E0
:102BF0001BF8E0B200F018F8BDE8F0412C2000F01E
:102C000001B8000031B5074C0020E1688847216910
:102C100000208847226801216846904721690120E9
:102C2000884738BD7873002031B5074C0120E16832
:102C3000884721690020884722680121684690471B
:102C400021690120884738BD7873002001220C4992
:102C50000C48FFF789FA0C4D4FF4FA74002240211A
:102C60002846FDF7ABFF204635F016FD0122402136
:102C70002846FDF7A3FF204635F00EFDEEE70000E5
:102C800000000020A00200200000024010B54FF01C
:102C9000E020006936F074FA012803D0BDE8104046
:102CA00035F0A2BF10BD000030B593B030216846AA
:102CB000FDF763FB14210CA8FDF75FFB1D48002501
:102CC000016841F080510160006800F0805011906F
:102CD0001948016841F4804101600068022400F451
:102CE00080401190012003901020049000940694DD
:102CF0000820CDE90750A820CDE9090404200B9055
:102D00006846FEF737FB08B172B6FEE70CA90F2044
:102D100081E831004FF4A0500F904FF48050109094
:102D200005210CA8FEF71AFA002801D072B6FEE7BA
:102D300013B030BD403802400070004002480168C6
:102D400041F470010160704788ED00E00148FEF732
:102D5000AEBF0000E8020020F0B50268274B284D06
:102D6000284E294F294C4FF0804C984209D060459D
:102D700007D0A84205D0B04203D0B84201D0A0424B
:102D800004D122F0700E4A6842EA0E0298421BD02B
:102D9000604519D0A84217D0B04215D0B84213D020
:102DA000A04211D01A4DA8420ED01A4DA8420BD005
:102DB000194DA84208D0194DA84205D0184DA84277
:102DC00002D0184DA84203D122F44075CA682A43A4
:102DD0004D6922F080022A438D68C5620D688562C4
:102DE000984201D0A04201D109690163016841F014
:102DF00004010160012141610260F0BD0000014059
:102E00000004004000080040000C004000040140A5
:102E100000400140004401400048014000180040CB
:102E2000001C0040002000401CB504466846FDF729
:102E3000C9FB9DF800102170BDF802006080BDF84C
:102E40000420C0F1F0006080C2F5A070A0800129CC
:102E500001D000201CBD01201CBD000010B500F0F9
:102E60000BF804480068002802D0BDE81040004775
:102E700010BD0000A400002010B50448FDF7D0FBF1
:102E80000248BDE81040083800F00CB8DC00002013
:102E90000349496801B108474FF0FF30704700000F
:102EA000A40000200249D0E90020C1E900207047B9
:102EB000A400002010B5806B0021C185FEF7A2FFA1
:102EC00010BD01680C3151E8002F22F4907241E8E6
:102ED0000023002BF5D10168143151E8002F22F0B6
:102EE000010241E80023002BF5D1016B012909D132
:102EF00001680C3151E8002F22F0100241E8002354
:102F0000002BF5D1202180F8421000210163704789
:102F100008B590F84210222901D0022008BD82682D
:102F20004FF480539A4201D1016921B1816A9A42DA
:102F30001BD04AB10AE00268816A5268C2F30802F3
:102F40000A80816A891C08E0026972B102685268CD
:102F500002F07F020A70816A491C8162C18D491E9C
:102F60000904090CC18503D01BE002685268F1E72F
:102F70000168CA6822F02002CA600168CA6822F4A7
:102F80008072CA6001684A6922F001024A61202108
:102F900080F8421000214163026B012A03D0FFF741
:102FA000F1F8002008BD016301680C3151E8002FE1
:102FB00022F0100241E80023002BF5D101680A68D5
:102FC000D20602D50A6849680091818DFEF719FF83
:102FD000E7E7000070B5044600680169E26821F483
:102FE0004051114301612169A068E26908436169A8
:102FF000114308432168CA6849F20C639A430243AB
:10300000CA6020684169A26921F44071114341619D
:1030100031492068884202D03049884202D1FEF707
:1030200067F901E0FEF754F9E269002319216425EC
:103030003226B2F5004F626828D0A0FB0101930F41
:103040009200FDF71FF90146B0FBF5F06FF0180292
:10305000504301EB800006EB0010B0FBF5F000F0F0
:10306000F002B1FBF5F002EB0012B1FBF5F06FF0EE
:103070001803584301EB800006EB0010B0FBF5F09D
:1030800000F00F0021681044886070BDA0FB0101B2
:1030900092185B41FDF7F6F80146B0FBF5F002012E
:1030A000B1FBF5F06FF01803584301EB800006EB1D
:1030B000C000B0FBF5F000F0F80002EB4002B1FBFD
:1030C000F5F0584301EB800006EBC000B0FBF5F0D3
:1030D00000F00700D6E70000001001400014014096
:1030E00081628285C28500214164222180F84210DC
:1030F000016921B10168CA6842F48072CA6001683E
:103100004A6942F001024A610068C16841F0200149
:10311000C160002070472DE9F843984617460D46D8
:103120000446089E24E0701C22D0FDF74DFDA0EB64
:103130000800B0421AD8CEB12068C168490717D537
:10314000802D15D0402D13D00168C94309070FD435
:1031500001680025406800902046FFF7B2FE082075
:10316000606484F840500120BDE8F8830320FBE749
:103170002068006835EA000004D00020B842D2D0B0
:103180000020F1E70120F9E70148FEF73DBE00000D
:10319000A0020020FEE700000FB4054B10B503A904
:1031A000044A029800F088F910BC5DF814FB000096
:1031B00041E10008900100200907090E002804DB06
:1031C00000F1E02080F80014704700F00F0000F1DB
:1031D000E02080F8141D704702E008C8121F08C1E3
:1031E000002AFAD170477047002001E001C1121F88
:1031F000002AFBD1704770B5044600256FF02F06FA
:1032000008E02068411C2160007805EB850106EB91
:10321000410145182068007800F02CF80028F0D112
:10322000284670BD70B514460D461BB9114615F001
:10323000F9FA034603FB05F0142C0ED0E11F032915
:103240000AD8072C0DD0082C0DD0092C0DD00A2C33
:103250000DD0002100EB810070BD590801FB050075
:1032600070BD0221F6E70421F4E71021F2E74FF4E4
:103270008071EFE73038092801D80120704700201D
:1032800070472DE9FC5F9B460CAB8A468146DDE921
:10329000116093E81210DDE90F575FEA80784FF074
:1032A00030031AD45EB15FEAC07808D000F00C0891
:1032B00058EA0C0803D0761E01E00B55641CBC4292
:1032C00004D2202CF9D301E00B55641C5FEAC078CE
:1032D00003D0B44201D2202CF6D35FEAC06825D5D2
:1032E0005FEA40580AD44CB1BC4201D0B44205D187
:1032F000641E03D0102D03D1641E04E0102D02D0F3
:10330000022D0AD00EE0850603D4202C1ED278258B
:1033100006E0202C1AD2582502E0202C16D2622575
:103320000D55641C202C11D20B55641C202C0DD281
:10333000BCF1000F01D02D2306E0430701D52B235C
:1033400002E0030702D520230B55641CCDE900BA27
:10335000C846154681468B46AA46800714D12746A3
:1033600007E02A46DDE900316D1C2020C446E04715
:103370007F1CB742F5D307E02A466D1C641EDDE9C9
:1033800000311BF80400C047002CF5D15FEA8970BA
:1033900006D409E02A46DDE900316D1C2020C04733
:1033A000A5EB0A00B042F5D32846BDE8FC9F2DE905
:1033B000F04F8FB099468B46DDE91818DDE91C63A4
:1033C000DDE91A4792468646002209B923F0100328
:1033D000580507AD00D5C9B1B1FBF4F004FB1010DE
:1033E000C0B20A2801D2303009E05FEA836C02D50E
:1033F0004FF0410C01E04FF0610C60440A38B1FB22
:10340000F4F1A854521C09B1202AE5D3CDF8088064
:10341000CDE90563CDE90052CDE903474B4652465D
:1034200059467046FFF72DFF0FB0BDE8F08F2DE92C
:10343000FF4F8FB01CACDDE9239594E8030820AC66
:1034400094E8C004002450EA010201D125F01005DF
:103450006A050DF11C0802D550EA010217D0324668
:103460003B46FCF70FFFD2B20A2A01D2303206E007
:10347000AB0601D5412300E061231A440A3A08F85B
:103480000420641C50EA010201D0202CE7D3CDE9CE
:103490000084CDF808B0CDE90595CDE9036A0FAFFA
:1034A00097E80F00FFF7EDFE13B0BDE8F08F9A42EA
:1034B00000D28854704770472DE9FF4F89B09B4672
:1034C0000446002506E025280BD05A460B99904764
:1034D000641C6D1C20780028F5D10DB02846BDE88D
:1034E000F08F0027B8460122474900E0074314F84F
:1034F000013F203B02FA03F00842F7D120782E2842
:1035000019D114F8010F47F004072A280ED06FF0E4
:103510002F022078A0F1300109290CD808EB88018E
:1035200002EB410100EB0108641CF2E70A98641CFD
:1035300050F8048B0A9020780028CED0642808D058
:10354000692806D075281ED05A460B9990476D1CE5
:1035500058E00A994FF00A0901C90A91002802DAD5
:1035600040422D2102E0390504D52B218DF8201091
:10357000012103E0F90704D02021F7E78A4608AECD
:103580000DE00021FAE70A994FF00A0901C90A91F2
:10359000F7E74946FCF7FCFE303106F8011D00282C
:1035A000F7D1ADEB060000F12009780701D44FF008
:1035B0000108C84502DDA8EB090000E000208046B4
:1035C000002706E008A85A46C05D0B9990476D1C7D
:1035D0007F1C5745F6DB04E030205A460B99904794
:1035E0006D1CB8F10001A8F10108F5DC05E016F842
:1035F000010B5A460B9990476D1CB9F10001A9F1D6
:103600000109F4DC641C65E7092801002DE9F04F8D
:10361000D0E9014590F82160D0E906239A46D0F818
:103620000CB00168D0E9043086461BB1FD2E53D39F
:1036300000274EE0FD2E16D3002610E0002318468A
:1036400008E000BF11F803C0175CBC4500D2CF549E
:10365000401C5B1CA042F5DB59445244761CAE4230
:10366000ECDBBDE8F08F002716E0002318460EE0E3
:1036700011F8038012F800C01CFB06FCB8EB1C2FED
:1036800003D24FEA1C2C01F803C0401C5B1CA04273
:10369000EEDB594452447F1CAF42E6DBE1E70026F3
:1036A000304610E013F800C012F800801CFB08FC44
:1036B00011F80680B8EB1C2F03D24FEA1C2C01F83E
:1036C00006C0401C761CA042ECDB594452447344B3
:1036D0007F1CAF42E3DBC4E700201DE00027384633
:1036E00013E000BF13F800C012F800801CFB08FCB8
:1036F00011F807800CFB06FCB8EB1C4F03D24FEA15
:103700001C4C01F807C0401C7F1CA042EADB594456
:103710005244734409F101008146A842DEDBA0E770
:1037200070B50D46040011D08DB101F00EF90028DE
:103730000BD06168006912F008FC0646E16B284670
:103740008847E1680844E060304670BDFEE7FEE768
:103750002DE9FF4114460E4605460A461F462146FE
:103760006846DDF8288011F083F900281BD0019805
:1037700061682268411A08FB01500099891A0D18E6
:10378000009831683844441A684611F05FF9002106
:1037900007E0625C6B5C1A44FF2A00D9FF22625486
:1037A000491C8142F5D3BDE8FF8110B502004FF0FE
:1037B00000000CD04B1E194200D0FEE70A44521EF6
:1037C0009A43B2F5803F02D20C2A01D9104610BDAF
:1037D0000C2010BD2DE9F04FD0E9014590F8216093
:1037E000D0E906239A46D0F80CB00168D0E904303D
:1037F00086461BB1FD2E59D3002754E0FD2E18D369
:10380000002612E0002318460AE000BF02EB400742
:1038100011F803C07F78BC4500D2CF54401C5B1C1C
:10382000A042F3DB59445244761CAE42EADBBDE8C9
:10383000F08F002718E00023184610E002EB400C40
:1038400011F803809CF801C01CFB06FCB8EB1C2F90
:1038500003D24FEA1C2C01F803C0401C5B1CA042A1
:10386000ECDB594452447F1CAF42E4DBDFE7002627
:10387000304612E002EB400C13F800809CF801C0C7
:103880001CFB08FC11F80680B8EB1C2F03D24FEA92
:103890001C2C01F806C0401C761CA042EADB5944EF
:1038A000524473447F1CAF42E1DBC0E700201FE0BD
:1038B0000027384615E000BF02EB400C13F80080EB
:1038C0009CF801C01CFB08FC11F807800CFB06FCEF
:1038D000B8EB1C4F03D24FEA1C4C01F807C0401C48
:1038E0007F1CA042E8DB59445244734409F10100B3
:1038F0008146A842DCDB9AE72DE9F04F064691B0FD
:10390000D6E90170804696F821B03568F0680F90CE
:10391000D6E906400E90D6E904A009900AA813F053
:10392000CBFC96F8220008B10020C9E0BAF1000FE4
:1039300005D0BBF1FD0F4FF0000066D28DE0BBF16A
:10394000FD0F4FF0000017D21CE000260CE000BF76
:1039500004EB460005EB46010088ADF804000AAA16
:10396000019813F0F7F8761CBE42F1DB0F9805447E
:103970000E98044409F1010081464045E5DB11B091
:10398000BDE8F08F81464045F9DA002613E000BF1C
:1039900004EB46000088ADF804009DF8051011FB0B
:1039A0000BF0000A8DF8050005EB46010AAA019804
:1039B00013F0D0F8761CBE42EADB0F9805440E984F
:1039C000044409F10100DDE7002614E004EB4600A1
:1039D0000088ADF808009DF809101AF8060011FBE0
:1039E00000F0000A8DF8090005EB46010AAA0298CA
:1039F00013F0B0F8761CBE42E8DB0F980999054435
:103A00000E988A44044409F1010081464045DBDBFD
:103A1000B5E7002617E000BF04EB46000088ADF8CC
:103A200008009DF809101AF8060011FB00F101FBCF
:103A30000BF1080C8DF8090005EB46010AAA029863
:103A400013F088F8761CBE42E6DB0F98099905440E
:103A50000E988A44044409F1010081464045D8DBB0
:103A60008DE700201EE000BF04EB4900BAF1000F13
:103A70000088ADF8080027D09DF809201AF8090041
:103A800012FB00F101FB0BF15FEA11408DF8090018
:103A900096F8222005EB49000AAB029903F0F2FCEC
:103AA00009F101008146B842DEDBBAF1000F01D016
:103AB00009998A440F9805440E9804440398401CC1
:103AC00003904045CDDB5AE79DF8091011FB0BF040
:103AD000000ADBE72DE9F04F064695B0D6E9017004
:103AE000804696F821B03568F0680E90D6E9064019
:103AF0000C90D6E904900A9096F8220020B110A804
:103B000013F0EEFB0020D0E0B9F1000F05D0BBF1BF
:103B1000FD0F4FF0000064D289E0BBF1FD0F4FF0C4
:103B2000000019D21EE000BF4FF000094E460BE026
:103B300004EB460005EB8901427814F8160013F0F7
:103B40001CFA09F10109761CBE42F1DB0E9805440E
:103B50000C9804440AF1010082464045E4DB15B0AC
:103B6000BDE8F08F82464045F9DA4FF000094E4635
:103B70000FE000BF04EB4600417811FB0BF0020A96
:103B800005EB890114F8160013F0F7F909F10109A2
:103B9000761CBE42EEDB0E9805440C9804440AF1F4
:103BA0000100DFE74FF0000A564610E004EB460044
:103BB000417819F8060011FB00F0020A05EB8A01B2
:103BC00014F8160013F0D9F90AF1010A761CBE4266
:103BD000ECDB0E980A9905440C98894404440BF1D7
:103BE000010083464045DDDBB9E700BF4FF0000A26
:103BF000564612E004EB4600417819F8060011FB26
:103C000000F000FB0BF0020C05EB8A0114F8160023
:103C100013F0B3F90AF1010A761CBE42EADB0E98F2
:103C20000A9905440C98894404440598401C059061
:103C30004045DBDB93E70020039028E014F81A10DE
:103C40000298B9F1000F61F3174061F30F2061F39F
:103C5000070004EB4A012CD0039A4B7819F80210A4
:103C600013FB01F101FB0BF15FEA114161F31F60EE
:103C70000290039896F8222005EB800010AB029981
:103C800003F030FC0398401C03900AF101008246C7
:103C9000B842D3DBB9F1000F01D00A9881440E98E5
:103CA00005440C9804440598401C05904045C2DB2F
:103CB00055E74A7812FB0BF1090AD7E72DE9F04FD7
:103CC000054687B0D5E9016790F821B000680090FB
:103CD000E8680290D5E906400390D5E90490049085
:103CE000686AC11700EB517121F00701A0EB010ACE
:103CF00095F8220008B1002029E1B9F1000F05D0A4
:103D0000BBF1FD0F4FF0000070D2E2E0BBF1FD0F00
:103D10004FF000002ED233E04FF0000845461FE080
:103D200008EB0A018B4600980AF0BAFAC0EB0020B3
:103D30008DF8040004EB450001A9427814F8150041
:103D400013F038F99DF8040059467F28009802D9ED
:103D50002FF0AAFE01E005F0C7FA08F101086D1C7A
:103D6000B542DDDB029900980844009003980444B2
:103D700009F101008146B842CEDB07B0BDE8F08F03
:103D80008146B842F9DA4FF00008454623E000BF0B
:103D900008EB0A01019100980AF082FAC0EB0020BA
:103DA0008DF8100004EB4500417811FB0BF0020A7E
:103DB00014F8150004A913F0FDF89DF810007F28F1
:103DC000DDE9000102D92FF06FFE01E005F08CFA69
:103DD00008F101086D1CB542DADB0099029808442D
:103DE00000900398044409F10100C9E735E000BFE1
:103DF0004FF00008454624E008EB0A0101910098C5
:103E00000AF04EFAC0EB00208DF8140004EB4500D8
:103E1000417819F8050011FB00F0020A14F81500AA
:103E200005A913F0C7F89DF814007F28DDE900010B
:103E300002D92FF039FE01E005F056FA08F1010829
:103E40006D1CB542D8DB0299009808440090039895
:103E50000499044489440BF101008346B842C7DB4E
:103E60008BE700BF4FF00008454626E008EB0A014B
:103E7000019100980AF014FAC0EB00208DF81400AC
:103E800004EB4500417819F8050011FB00F101FB36
:103E90000BF10A0C14F8150005A913F08BF89DF826
:103EA00014007F28DDE9000102D92FF0FDFD01E0BB
:103EB00005F01AFA08F101086D1CB542D6DB02992B
:103EC0000098084400900398049904440698894493
:103ED000401C0690B842C5DB4FE70020059026E065
:103EE00014F818100198B9F1000F61F3174061F34D
:103EF0000F2061F3070004EB48012CD04B7819F830
:103F0000081013FB01F101FB0BF1090C61F31F60B9
:103F10000190059895F8223000EB0A01DDE90002D6
:103F200003F04EFB0598401C059008F10100804607
:103F3000B042D5DBB9F1000F01D004998944009952
:103F4000029808440090039804440698401C069088
:103F5000B842C2DB11E74A7812FB0BF1090AD5E738
:103F60002DE9F04F064691B0D6E90170804696F8EB
:103F700021B03568F0680F90D6E906400D90D6E97B
:103F800004900B9096F8220008B10020C7E0B9F128
:103F9000000F05D0BBF1FD0F4FF0000063D288E0A9
:103FA000BBF1FD0F4FF0000018D21DE04FF00009EB
:103FB0004E460BE004EB460005EB0901427814F88D
:103FC000160013F005F809F10109761CBE42F1DB79
:103FD0000F9805440D9804440AF1010082464045BB
:103FE000E4DB11B0BDE8F08F82464045F9DA4FF0CE
:103FF00000094E460FE000BF04EB4600417811FB7C
:104000000BF0020A05EB090114F8160012F0E0FFAC
:1040100009F10109761CBE42EEDB0F9805440D98AC
:1040200004440AF10100DFE74FF0000A564610E0B1
:1040300004EB4600417819F8060011FB00F0020A73
:1040400005EB0A0114F8160012F0C2FF0AF1010A8A
:10405000761CBE42ECDB0F980B9905440D98894401
:1040600004440BF1010083464045DDDBB9E700BFA6
:104070004FF0000A564612E004EB4600417819F86A
:10408000060011FB00F101FB0BF10A0C05EB0A0124
:1040900014F8160012F09CFF0AF1010A761CBE42C9
:1040A000EADB0F980B9905440D9889440444049861
:1040B000401C04904045DBDB93E70020039020E0A8
:1040C00014F81A100098B9F1000F61F3174061F36A
:1040D0000F2061F3070026D0039A19F8022012FB83
:1040E0000BF1090A61F31F600090039896F82220F3
:1040F0002844009903F0A5FA0398401C03900AF1A4
:1041000001008246B842DBDBB9F1000F01D00B9809
:1041100081440F9805440D9804440498401C049071
:104120004045CADB5DE76BF31F60DDE72DE9F04F2B
:10413000804687B0D8E90170814698F821B0D8F858
:104140000040D8F80C000290D8E906500190D8E958
:1041500004A0039098F8220008B1002058E1BAF1B9
:10416000000F05D0BBF1FD0F4FF0000067D28CE0CF
:10417000BBF1FD0F4FF000001AD21FE00026B04641
:104180000EE000BF05EB480034F81610427815F831
:10419000180012F077FE24F8160008F10108761CCA
:1041A000BE42EFDB02980444019805440AF1010085
:1041B00082464845E2DB07B0BDE8F08F82464845BD
:1041C000F9DA0026B04610E005EB4800417811FB13
:1041D0000BF0020A34F8161015F8180012F052FE0F
:1041E00024F8160008F10108761CBE42ECDB0298A8
:1041F0000444019805440AF10100DFE70026B046B7
:1042000013E000BF05EB480041781AF8060011FBE7
:1042100000F0020A34F8161015F8180012F032FEF9
:1042200024F8160008F10108761CBE42EADB029869
:104230000399044401988A4405440BF10100834624
:104240004845DBDBB7E70026B04614E005EB480045
:1042500041781AF8060011FB00F101FB0BF10A0C82
:1042600034F8161015F8180012F00CFE24F8160099
:1042700008F10108761CBE42E8DB0298044401986C
:104280000544039882440098401C00904845DADBBE
:1042900091E70026304600960494ABE015F8100034
:1042A00098F822104FEAD00E8008012927D0022961
:1042B00042D0032971D00429C4D1049931F81630B1
:1042C000CEEBD321002901DCAEEBD3214FF6FF72F8
:1042D00002EAC122C3F3451CACEB0001002901DC5A
:1042E000A0EB0C0102EB411082B203F01F01A1EB25
:1042F0000E00002801DCAEEB0100104439E0049907
:1043000031F816100EEBD1221F2A00D31F224FF6D0
:10431000FF7303EAC222C1F3451318443F2800D3B8
:104320003F2001F01F0102EB4010714480B21F29B1
:1043300000D31F2108441CE0049931F81610CEEB7D
:10434000D122002A00DC00224FF6FF7303EAC222CA
:10435000C1F34513181A002800DC002002EB4010BE
:1043600082B201F01F01A1EB0E000028C5DC002085
:10437000C3E780B2BAF1000F28D01AF80620BBF1CB
:10438000FD0F2DD2009905EB4101497812FB01F197
:1043900001FB0BF10A0C23E0FFE7049931F816103A
:1043A000CB0A13FB0EF253094FF6FF7202EAC32247
:1043B000C1F3451313FB00F0800902EB401001F03C
:1043C0001F0212FB0EF100EB5110D2E70099BBF176
:1043D000FD0F05EB41014A7802D212FB0BF10A0AEC
:1043E00034F8161012F098FB24F816000098001DFF
:1043F000761C0090BE42FFF651AF0298BAF1000F52
:1044000004440198054401D003998A440598401C4E
:1044100005904845FFF63DAFCDE600002DE9F04F91
:10442000804687B0D8E90170814698F821B0D8F865
:104430000040D8F80C000290D8E906500190D8E965
:1044400004A0039098F8220008B100206BE1BAF1B3
:10445000000F05D0BBF1FD0F4FF0000076D2A2E0B7
:10446000BBF1FD0F4FF000001FD224E00026B04644
:1044700013E000BF34F8160012F09EFF014605EB72
:104480004800427815F8180012F02CFD12F094FF45
:1044900024F8160008F10108761CBE42EADB0298F7
:1044A0000444019805440AF1010082464845DDDBD9
:1044B00007B0BDE8F08F82464845F9DA0026B046DD
:1044C00016E000BF34F8160012F076FF014605EB47
:1044D0004800427812FB0BF0020A15F8180012F09F
:1044E00001FD12F069FF24F8160008F10108761C9E
:1044F000BE42E7DB02980444019805440AF101003A
:10450000D9E70026B04617E034F8160012F054FF41
:10451000014605EB480042781AF8060012FB00F04D
:10452000020A15F8180012F0DDFC12F045FF24F81D
:10453000160008F10108761CBE42E5DB02980399DB
:10454000044401988A4405440BF101008346484520
:10455000D7DBADE70026B0461BE000BF34F81600FD
:1045600012F02AFF05EB48014A781AF8061012FBF0
:1045700001F101FB0BF10A0C15F818300146184641
:1045800012F0B0FC12F018FF24F8160008F1010830
:10459000761CBE42E2DB02980399044401988A44E7
:1045A00005440098401C00904845D3DB80E739461D
:1045B0002046049419F00AFB002630460096A4E039
:1045C00015F8100098F822104FEAD00E8008012943
:1045D00027D0022943D0032968D00429B9D10499EE
:1045E00031F81620CEEBD221002901DCAEEBD2212E
:1045F0004FF6FF7303EAC123C2F3451CACEB000185
:10460000002901DCA0EB0C0103EB411081B202F0A8
:104610001F02A2EB0E00002801DCAEEB02000844F2
:104620003AE0049931F816100EEBD1221F2A00D37C
:104630001F224FF6FF7303EAC222C1F34513184449
:104640003F2800D33F2002EB401082B201F01F014F
:1046500001EB0E001F2800D31F2010441CE004991A
:1046600031F81610CEEBD122002A00DC00224FF6E2
:10467000FF7303EAC222C1F34513181A002800DCB5
:10468000002002EB401001F01F02A2EB0E0180B2ED
:10469000002900DC0021084480B2BAF1000F1ED0CE
:1046A000BBF1FD0F44D31AF8062022E0049931F83B
:1046B0001610CB0A13FB0EF253094FF6FF7202EAF3
:1046C000C322C1F3451313FB00F0800902EB401035
:1046D00001F01F0212FB0EF100EB5110DCE7009914
:1046E000BBF1FD0F05EB41014A7802D212FB0BF141
:1046F0000A0A34F8161012F00FFA12F05DFE24F8D0
:1047000016000098001D761C0090BE42FFF658AFC0
:104710000298BAF1000F04440198054401D00398AF
:1047200082440598401C05904845FFF640AFBFE61F
:10473000009A1AF8061005EB4202527811FB02F1BA
:1047400001FB0BF10A0CD4E72DE9F34F064685B0C7
:10475000D6E90170804696F821B03568F06801907E
:10476000D6E906400090D6E90490039096F822001E
:1047700008B10020CAE0B9F1000F05D0BBF1FD0F70
:104780004FF0000063D288E0BBF1FD0F4FF0000056
:1047900018D21DE04FF000094E460BE004EB460036
:1047A00005EB0901427814F8160012F0CBFB0698CD
:1047B000761C8144BE42F1DB019805440098044414
:1047C0000AF1010082464045E4DB07B0BDE8F08F06
:1047D00082464045F9DA4FF000094E460FE000BF2F
:1047E00004EB4600417811FB0BF0020A05EB0901CE
:1047F00014F8160012F0A6FB0698761C8144BE42FF
:10480000EEDB01980544009804440AF10100DFE75B
:104810004FF0000A564610E004EB4600417819F8C4
:10482000060011FB00F0020A05EB0A0114F816005D
:1048300012F088FB0698761C8244BE42ECDB01989D
:10484000039905440098894404440BF10100834610
:104850004045DDDBB9E700BF4FF0000A564612E0E5
:1048600004EB4600417819F8060011FB00F000FB4C
:104870000BF0020C05EB0A0114F8160012F062FBB3
:104880000699761C8A44BE42EADB019803990544E6
:104890000098894404440298401C02904045DBDBA8
:1048A00093E70020029023E014F81A00B9F1000FFA
:1048B00060F3070160F30F2160F3174104EB4A0036
:1048C00029D04378029819F8000013FB00F000FB90
:1048D0000BF0000C60F31F61029896F82220284428
:1048E00002F0DEFE06990298084402900AF10100E7
:1048F0008246B842D8DBB9F1000F01D00399894450
:1049000001980544009804440498401C0146049012
:104910004045C6DB59E7427812FB0BF0000AD9E7A5
:1049200008444A1E401E9043114200D0FEE77047E3
:1049300010B540201EF008F8040005D040220021E8
:104940001EF093F9204610BDFEE72DE9FC410D460F
:1049500004002AD055B304F12400804623F041FC22
:10496000009008B307696168384611F0EEFA064610
:104970002946384662681EF0BDF804F130001DF08B
:1049800008FF019098B1042269461EF0B3F8204652
:1049900000990AF0ADF9042201A91EF0ABF82146F6
:1049A0003046626811F0E1FA07E0FEE7FEE74046B4
:1049B000009923F0E0FB002000900098BDE8FC8106
:1049C0002DE9F0410F460121002504462E460164E1
:1049D00009E01A4924F014FE08B16D1C02E0206CB5
:1049E000401C2064761C57F8260010B1017800297D
:1049F000EFD1E06BA8421FD0606B002610B11AF017
:104A000017FD6663A06B10B11AF012FDA6632801B2
:104A10001DF09AFF606338B168001DF095FFA06338
:104A200018B1616B11B102E0FEE7FEE700256A00F4
:104A300000211EF01AF9E563BDE8F081285C010849
:104A400070B5044690F85C10E26B8807606C04D483
:104A500020B1431C18D0401E6064A8B90AB1880771
:104A600012D5214619481DF039FF00F031F82169AF
:104A700009B120468847616909B120468847204628
:104A8000BDE870401AF0D4BC21F0080084F85C0046
:104A9000D4E90C1500238D4200DD6B1A256C5B1BDD
:104AA0006363002A10D0830702D4A36B5B42636365
:104AB00043105B1C63F3410084F85C00E36A606AA6
:104AC0006362E163C4E90B0270BD00006C740020F6
:104AD00070B5174C012504F1B00084F8A8501DF002
:104AE00033FE0028D4F8AC0004D0A8B1BDE8704073
:104AF00027F037B818B1BDE8704027F01FB894F818
:104B0000AA00002807D000220A49104613F080F8B6
:104B1000002084F8AA0070BD94F8AA000028FAD1F9
:104B200000220449104612F07FFF84F8AA5070BD9D
:104B3000BC7300209D4C00082DE9F047564D95F8B8
:104B4000A90038B15FF0000085F8A9005248B030E4
:104B5000814694E00120F7E7206D26F085FE94F869
:104B60005C10C9071ED0606D26F07EFE0146A06D68
:104B7000421C1AD0884218D8091A94F85C0020F018
:104B8000010084F85C00626B1144616395F8A91020
:104B900029B120F0040000BF84F85C0005E040F07B
:104BA0000400F9E7616B0844606326F063FE20654A
:104BB000002085F8A80094F85C00C10766D195F83C
:104BC000A910C0F380028A4260D061F3820084F8A9
:104BD0005C0001071ED4616B00294CDBC00609D4C0
:104BE000A16939B120468847616A01446162E16A7E
:104BF0000844E06220462AF081FAE16809B12046C3
:104C0000884794F85C0040F0080084F85C00204677
:104C10002AF0C6F8606B00282DDB216B80468842A5
:104C200000DD6163216A2046676B8847A16A0646FA
:104C3000B1420DD0A662626812B131462068904739
:104C400095F8A800D0B9A2682AB13146204690470D
:104C500095F8A80090B9606BB84205D1216BB8EB0C
:104C6000410F01DAC4F83480D4E90C01814202DB3F
:104C70002046FFF7E5FE95F8A80038B148461DF03C
:104C800063FD04007FF468AFBDE8F0872146484625
:104C90001DF06CFDF5E70000BC7300200020FFF75D
:104CA0004BBF00002DE9F043846AADB00546816F2B
:104CB000266800220AA81BF0CBF801280AD1159813
:104CC00000287DD00088C0F307200E2806D00628D3
:104CD00076D103E001202DB0BDE8F083159868354A
:104CE00025AF01891FFA81F92ECD87E82E00406893
:104CF0000022010C491E83B20091114606A85B1EDA
:104D000010F008F800252B46092206A925A80095D1
:104D10000FF0E7FC04F114000FC887E80F0025AA84
:104D200006A921A80FF0A4FE002859D01D951E95B4
:104D30001F95209520682699808880B2401E1F907C
:104D40002298401A401E20901DA9206813F0C7FA2F
:104D500026992498401A401C1E902068691E4068BD
:104D600001EB104020901DA9206813F0B8FA259996
:104D700021981E95401A401E1D951F901DA9206860
:104D800013F0ADFA23992598081A401C1D9020684D
:104D90001DA9808880B2401E1F90206813F09FFAE2
:104DA000229926980A1A25992198411A304613F01B
:104DB0003CFC064607992298421A0699219800E081
:104DC0002DE0411A159813F030FC054621A80FF08C
:104DD0002EFE074621A80FF039FE024600211CE0F6
:104DE0000AA81AF0D5FF002075E700200DE000BFEB
:104DF00006EB800315F800C093F803801CFB08FC49
:104E00004FEA1C2C83F803C0401C9042F0DB206862
:104E1000806816FA80F64D44491CB942E5DB0AA8C1
:104E20001AF0B6FF56E770B5054640680C4608B163
:104E3000FFF7F9FF2A68002A12D02146284690473A
:104E40000020042207E0E16802EBC003401CCD58BB
:104E500045F00065CD50618DC1F305118142F2D856
:104E600070BD70B50D6806460C46286838B1296AD1
:104E7000C90204D5206021463046FFF7F2FF2146E3
:104E800030462560BDE87040FFF7CDBF0FF098BBFE
:104E90000FF0DDBB2DE9F04FD0E9014590F821601E
:104EA000D0E906239946D0F80CA00168D0E9043077
:104EB00083461BB1FD2E4BD3002646E0FD2E4FF05E
:104EC00000030FD226E0002007E002EB80060F5C13
:104ED000F678B74200D20E54401CA042F5DB514494
:104EE0004A445B1CAB42EEDBBDE8F08F00200CE0D7
:104EF00002EB800711F800C0FF7817FB06F7BCEB48
:104F0000172F01D23F0A0F54401CA042F0DB51443E
:104F10004A445B1CAB42E9DBE6E700200FE000BF40
:104F200002EB800713F800C0FF7817FB0CF711F8AD
:104F300000C0BCEB172F01D23F0A0F54401CA04207
:104F4000EEDB51444A445B44761CAE42E5DBCBE7E2
:104F500000271BE0002013E002EB800C13F8008018
:104F60009CF803C01CFB08FC11F800800CFB06FC3D
:104F7000B8EB1C4F03D24FEA1C4C01F800C0401C98
:104F8000A042E9DB51444A445B447F1CAF42E1DB71
:104F9000AAE700002DE9F04F064691B0D6E901706E
:104FA000814696F8210008903568F0680F90D6E9A0
:104FB00006400E90D6E904B00A900BA812F07CF9D6
:104FC00096F8220008B10020DFE00898BBF1000F3E
:104FD00004D0FD284FF0000076D29FE0FD284FF06E
:104FE000000021D226E000BF4FF0000814E000BF0F
:104FF00004EB880BDBF8000011F06FFD60F307068F
:105000009BF80310304661F30F2005EB48010BAA13
:1050100011F0A0FD08F10108B845E9DB0F9805443F
:105020000E9804440AF1010082464845DCDB11B0C9
:10503000BDE8F08F82464845F9DA002617E000BF48
:1050400004EB860BDBF8000011F047FD60F3070866
:105050009BF80310089811FB00F0010A404661F329
:105060000F2005EB46010BAA11F074FD761CBE4221
:10507000E6DB0F9805440E9804440AF10100D9E7D5
:10508000002617E004EB86010791086811F025FD62
:10509000079960F307084046CA781BF8061012FB10
:1050A00001F1090A61F30F2005EB46010BAA11F08B
:1050B00051FD761CBE42E5DB0F980A9905440E9817
:1050C0008B4404440AF1010082464845D8DBAEE730
:1050D000002619E004EB86000790006811F0FDFC43
:1050E00060F307080798C1781BF8060011FB00F071
:1050F00008990BAA4843010C404661F30F2005EBC9
:10510000460111F027FD761CBE42E3DB0F980A9999
:1051100005440E988B4404440AF101008246484538
:10512000D6DB84E7002022E004EB8A0002900068CE
:1051300011F0D3FC414660F307010298BBF1000F68
:10514000C07860F30F2124D01BF80A2010FB02F076
:10515000089A50435FEA104060F30F2196F822202E
:1051600005EB4A000BAB02F08DF90AF10100824613
:10517000B842D9DBBBF1000F01D00A998B440F98DC
:1051800005440E9804440398401C03904845C9DB2D
:105190004DE7089A10FB02F0000ADDE72DE9F04F19
:1051A000064693B0D6E90170804696F821B035687E
:1051B000F0681190D6E906401090D6E904A00B9053
:1051C0000CA812F08DF896F8220008B10020C4E077
:1051D000BAF1000F05D0BBF1FD0F4FF0000066D211
:1051E0008DE0BBF1FD0F4FF0000018D21DE000264E
:1051F0000DE000BF05EB860A04EB8600DAF800102C
:1052000000680CAA11F09EFDCAF80000761CBE4290
:10521000F0DB119805441098044409F1010081461F
:105220004045E4DB13B0BDE8F08F81464045F9DA34
:10523000002612E004EB86000068020E12FB0BF160
:10524000090A05EB860A61F31F60DAF800100CAA60
:1052500011F078FDCAF80000761CBE42EADB119816
:1052600005441098044409F10100DEE7002614E02B
:1052700004EB86001AF806100068020E12FB01F11A
:10528000090A05EB860B61F31F60DBF800100CAA1E
:1052900011F058FDCBF80000761CBE42E8DB1198F7
:1052A0000B99054410988A44044409F10100814691
:1052B0004045DBDBB6E7002617E000BF04EB8600C5
:1052C0001AF806100068020E12FB01F101FB0BF147
:1052D000090C61F31F6005EB8601079109680CAAB0
:1052E00011F030FD0799761C0860BE42E6DB11988C
:1052F0000B99054410988A44044409F10100814641
:105300004045D8DB8EE7002019E000BF04EB8900A0
:10531000BAF1000F016824D01AF809000B0E13FB34
:1053200000F202FB0BF2100C60F31F6196F82220D2
:1053300005EB89000CAB02F0D5F809F101008146BC
:10534000B842E3DBBAF1000F01D00B998A441198FF
:105350000544109804440398401C03904045D2DB58
:1053600060E70A0E12FB0BF0000ADDE72DE9F04FB3
:10537000064695B0D6E90170804696F821B03468AB
:10538000F0681290D6E906501190D6E904A00C906E
:105390000DA811F0BAFF96F8220008B10020A3E191
:1053A000BAF1000F05D0BBF1FD0F4FF000007DD228
:1053B00058E1BBF1FD0F4FF000004CD251E0002648
:1053C00041E000BF05EB86000068010EFD2906D311
:1053D000FF2161F31F6004EB8601086032E00229BF
:1053E00030D904EB860AC0F307429AF802309342A0
:1053F0000FD19AF80130C0F3072C634509D114F896
:10540000263000F0FF0C634503D19AF803308B423D
:1054100018D012FB01F2120A62F31740C0F3072200
:1054200012FB01F2120A62F30F20C2B212FB01F169
:10543000090A61F30700DAF800100DAA11F0C9FC9F
:10544000CAF80000761CBE42BCDB129804441198D6
:10545000054409F1010081464045B0DB15B0BDE8C7
:10546000F08F81464045F9DA002645E005EB8600DD
:105470000068020E12FB0BF1090AFD2906D3FF2179
:1054800061F31F6004EB8601086034E0022932D921
:1054900004EB860AC0F3074E9AF802C0F44511D116
:1054A0009AF80130C0F3072C634500E082E009D18F
:1054B00014F8263000F0FF0C634503D19AF803304E
:1054C000934218D00EFB01F261F31F60120A62F3DF
:1054D0001740C0F307224A43120A62F30F20C2B2F8
:1054E0004A43110A61F30700DAF800100DAA11F01F
:1054F00070FCCAF80000761CBE42B7DB1298044468
:105500001198054409F10100ABE7002648E000BF0F
:1055100005EB86001AF806100068020E12FB01F176
:10552000090AFD2906D3FF2161F31F6004EB860100
:10553000086034E0022932D904EB860BC0F3074E31
:105540009BF802C0F4450FD19BF80130C0F3072C43
:10555000634509D114F8263000F0FF0C634503D1F0
:105560009BF8033093421AD061F31F601EFB01F2D7
:10557000120A62F31740C0F3072212FB01F2120A6B
:1055800062F30F20C2B212FB01F1090A61F30700B6
:10559000DBF800100DAA11F01CFCCBF80000761C03
:1055A000BE42B5DB12980C99044411988A44054414
:1055B00009F1010081464045A7DB4FE7002647E09F
:1055C00005EB86001AF806100068020E12FB01F3C4
:1055D00003FB0BF3190CFD2905D3FF2161F31F60B9
:1055E00004EB860132E0022931D904EB86030893EB
:1055F00093F802C0C0F3074EF4450FD1089BC0F3E7
:10560000072C5B78634509D114F8263000F0FF0CB5
:10561000634503D1089BDB78934218D00EFB01F25F
:1056200061F31F60120A62F31740C0F307224A4376
:10563000120A62F30F20C2B24A43110A61F3070053
:1056400008990DAA096811F0C4FB08990860761C36
:10565000BE42B5DB12980C99044411988A44054463
:1056600009F1010081464045A8DBF7E600202DE066
:1056700005EB8900BAF1000F016839D01AF809006A
:105680000B0E13FB00F202FB0BF2100C60F31F6118
:10569000C1F30742080E12FB00F2120A62F317412F
:1056A000C1F3072212FB00F2120A62F30F21CAB201
:1056B00012FB00F0000A60F3070196F8222004EBC9
:1056C00089000DAB02F053F809F101008146B842A0
:1056D000CEDBBAF1000F01D00C998A441298044431
:1056E000119805440498401C04904045BEDBB5E683
:1056F0000A0E12FB0BF0000AC8E72DE9F04F054631
:1057000089B0D5E9016790F821B000680090E86899
:105710000290D5E906400390D5E904900490686AA8
:10572000C11700EB517121F00701A0EB010A95F8B8
:10573000220008B100201BE1B9F1000F05D0BBF138
:10574000FD0F4FF0000071D2E3E0BBF1FD0F4FF011
:1057500000002FD234E0002522E004EB850BDBF8BB
:10576000000011F0BAF905EB0A010490894600988F
:1057700008F096FDC0EB00208DF804009BF8032094
:1057800001A9049811F016FC9DF8040049467F28F1
:10579000009802D92EF088F901E003F0A5FD6D1CF8
:1057A000B542DADB0099029808440090039804445B
:1057B00008F101008046B842CDDB09B0BDE8F08FAA
:1057C0008046B842F9DA002525E004EB8500059013
:1057D000006811F082F905EB0A01049089460098EF
:1057E00008F05EFDC0EB00208DF804000598C1783C
:1057F00011FB0BF0020A01A9049811F0DBFB9DF8E4
:10580000040049467F28009802D92EF04DF901E0A6
:1058100003F06AFD6D1CB542D7DB0299009808447D
:1058200000900398044408F10100C9E735E0002521
:1058300027E004EB85000690006811F04EF905EBB7
:105840000A0105908B46009808F02AFDC0EB002065
:105850008DF80400069819F80510C07811FB00F0C7
:10586000020A01A9059811F0A5FB9DF8040059460C
:105870007F28009802D92EF017F901E003F034FDDB
:105880006D1CB542D5DB029900980844009003983E
:1058900004990444894408F101008046B842C6DBFB
:1058A0008BE7002529E004EB85000790006811F0E4
:1058B00014F905EB0A0101910690009808F0F0FC3C
:1058C000C0EB00208DF81400079819F80510C07877
:1058D00011FB00F000FB0BF0020C05A9069811F07B
:1058E00069FB9DF814007F28DDE9000102D92EF044
:1058F000DBF801E003F0F8FC6D1CB542D3DB029944
:10590000009808440090039804990444894408F1DD
:1059100001008046B842C4DB4FE7002018E004EBEA
:105920008800B9F1000F026826D019F80800130E9C
:1059300013FB00F000FB0BF0000C60F31F6295F806
:10594000223008EB0A01009801F03AFE08F101004C
:105950008046B042E3DBB9F1000F01D004998944DD
:105960000299009808440090039804440198401C50
:105970000190B842D1DB20E7110E11FB0BF0000AB9
:10598000DBE700002DE9F04F06468FB0D6E9017045
:10599000804696F821B03568F0680D90D6E906404B
:1059A0000C90D6E904A0089096F8220008B10020D7
:1059B000B6E0BAF1000F05D0BBF1FD0F4FF00000CB
:1059C0005DD280E0BBF1FD0F4FF0000016D21BE06E
:1059D00000260BE004EB860ADAF8000011F07DF8EF
:1059E0009AF80320A91911F0F3FA761CBE42F1DBF4
:1059F0000D9805440C98044409F101008146404586
:105A0000E6DB0FB0BDE8F08F81464045F9DA0026AD
:105A10000FE000BF04EB860ADAF8000011F05DF831
:105A20009AF8032012FB0BF10A0AA91911F0D0FA17
:105A3000761CBE42EEDB0D9805440C98044409F137
:105A40000100E1E7002610E004EB860BDBF8000024
:105A500011F043F89BF803201AF8061012FB01F12D
:105A60000A0AA91911F0B4FA761CBE42ECDB0D98B3
:105A7000089905440C988A44044409F101008146C0
:105A80004045DFDBBDE7002613E000BF04EB8601E5
:105A90000691086811F021F80699CA781AF80610DC
:105AA00012FB01F101FB0BF10A0CA91911F090FA9C
:105AB000761CBE42EADB0D98089905440C988A448E
:105AC000044409F1010081464045DCDB99E70020F0
:105AD00018E000BF04EB8900BAF1000F016823D081
