:020000040800F2
:10000000A85000205D0200085F1E0008931C000835
:100010005D1E0008B90300083D270008000000002D
:100020000000000000000000000000009D0100082A
:100030006D04000800000000F9010008C12200085A
:1000400077020008770200087702000877020008AC
:10005000770200087702000877020008770200089C
:10006000770200087702000877020008770200088C
:10007000770200087702000877020008BD03000835
:10008000770200087702000877020008770200086C
:10009000770200087702000877020008770200085C
:1000A000770200087702000877020008770200084C
:1000B0007702000877020008812300087702000811
:1000C000770200087702000877020008770200082C
:1000D000611E000831270008770200087702000837
:1000E000770200087702000877020008770200080C
:1000F00077020008770200087702000877020008FC
:1001000077020008770200087702000877020008EB
:1001100077020008770200087702000877020008DB
:1001200077020008770200087702000877020008CB
:1001300077020008770200087702000877020008BB
:1001400077020008770200087702000877020008AB
:10015000770200087702000877020008770200089B
:10016000770200087702000877020008770200088B
:1001700077020008770200087702000800000000FC
:100180007702000877020008DFF80CD000F002F9CF
:100190000048004715290008A85000202C4B19687A
:1001A0000868B0E8F04F80F30988BFF36F8F4FF015
:1001B000000080F3118870470000000008480068C4
:1001C000006880F308884FF0000080F3148862B65E
:1001D00061B6BFF34F8FBFF36F8F00DF00BF00BF6B
:1001E00008ED00E0DFF80C00016841F470010160E7
:1001F000704700BF88ED00E0EFF30980BFF36F8F19
:10020000134B1A681EF0100F08BF20ED108A20E96A
:10021000F04F106009B44FF0500080F31188BFF325
:100220004F8FBFF36F8F03F03DFA4FF0000080F364
:10023000118809BC19680868B0E8F04F1EF0100F6B
:1002400008BFB0EC108A80F30988BFF36F8F704746
:1002500018000020EFF30580704700000648804733
:1002600006480047FEE7FEE7FEE7FEE7FEE7FEE79B
:10027000FEE7FEE7FEE7FEE77123000889010008BC
:100280002DE9F05F0546002092469B4688460646CB
:10029000814640241BE0284641464746224600F05E
:1002A00069F853465A46C01A914110D31146184670
:1002B000224600F050F82D1A67EB01084F462246FF
:1002C0000120002100F047F817EB00094E41201EE5
:1002D000A4F10104DFDC484631462A464346BDE826
:1002E000F09F40EA01039B0703D009E008C9121FF1
:1002F00008C0042AFAD203E011F8013B00F8013BE0
:10030000521EF9D27047D2B201E000F8012B491E0B
:10031000FBD270470022F6E710B513460A460446A2
:100320001946FFF7F0FF204610BD30B50B460146D9
:1003300000202022012409E021FA02F59D4205D384
:1003400003FA02F5491B04FA02F52844151EA2F12E
:100350000102F1DC30BD202A04DB203A00FA02F170
:10036000002070479140C2F1200320FA03F31943A3
:1003700090407047202A04DB203A21FA02F0002145
:10038000704721FA02F3D040C2F1200291400843A5
:1003900019467047064C074D06E0E06840F001033F
:1003A00094E8070098471034AC42F6D3FFF7F0FE0C
:1003B000A0410008C0410008FEE70000014800F02D
:1003C000B3B80000FC00002001681823CAB2103A3C
:1003D000B2FBF3F2054B6FF30901032A9B5CC36583
:1003E00000D9091D81650846704700007441000866
:1003F00010B5014600208B698A6A4FF0C07453B172
:10040000B3F5005F15D072B1012A0CD0022A0AD0D0
:10041000032A09D104E01AB1012A06D0022A03D125
:10042000C96AC90100D5012010BDC96AA142FAD02C
:1004300010BD002AF7D0012AF2D0022AF3D0032AF5
:10044000F3D010BD30B50468256825F480252560FB
:10045000046863608368402B036803D09960006878
:10046000C26030BD9A600068C16030BD704772B62E
:10047000FEE72DE9F0410446876D00F0D7FA064605
:1004800094F835000025022806D08020606584F8A5
:1004900034500120BDE8F0812068016821F0160188
:1004A00001602068416921F080014161206C08B938
:1004B000A06C20B12068016821F00801016020686B
:1004C000016821F0010101600CE000F0AFFA801B2F
:1004D000052807D920206065032084F8350084F8BA
:1004E0003450D7E720680068C007EED194F85C105C
:1004F0003F208840B860012084F8350084F83450EB
:100500000020C7E790F83510022903D0802141650B
:1005100001207047052180F835100068016821F03E
:1005200001010160002070472DE9F84304464FF0B7
:100530000009CDF8009063484FF41651A56D00688E
:10054000B0FBF1F72E6894F85C10082000FA01F176
:1005500031420FD021680A6852070BD50A6822F091
:1005600004020A6094F85C108840A860606D40F056
:100570000100606594F85C104FF0010808FA01F082
:10058000304208D021684969090604D5A860606D29
:1005900040F00200606594F85C100420884030420E
:1005A00008D021680968890704D5A860606D40F00B
:1005B0000400606594F85C1010208840304218D028
:1005C00021680968090714D5A860206801684903F3
:1005D00004D50068000308D5A16C07E00168C905CF
:1005E00003D4016821F008010160216C09B12046A3
:1005F000884794F85C1020208840304231D0216830
:100600000968C9062DD5A86094F83500052820682A
:10061000016806D0490347D5006800031DD4616C0A
:100620001CE021F0160101602068416921F0800181
:100630004161206C08B9A06C20B12068016821F0EC
:100640000801016094F85C103F208840A86084F89D
:10065000358084F83490216D1FE0E16B09B12046AC
:100660008847606D00282BD0606DC00714D005202E
:1006700084F835002068016821F0010101600098CC
:10068000401C0090B84203D820680068C007F6D12B
:1006900084F8358084F83490E16C002910D001B0E2
:1006A0002046BDE8F04308470168C905D5D4016874
:1006B00021F01001016084F8358084F83490CCE793
:1006C000BDE8F883140000202DE9F041044600F055
:1006D000ADF906465CB1022084F83500002584F8A7
:1006E00034502068016821F0010101600DE0012013
:1006F000BDE8F08100F09AF9801B052805D920207B
:100700006065032084F83500F2E720680068C007C0
:10071000F0D12268116820480140D4E90103184350
:10072000D4E903363343184363691843A369184374
:10073000E3691843236A18430843616A042903D113
:10074000D4E90B1319430843106020684069666AB6
:1007500020F0070130460E43012704280CD1A06A7F
:100760000643E06A40B12046FFF742FE20B1402038
:10077000606584F83570BAE7206846612046FFF767
:1007800023FE94F85C203F2191408160656584F8E8
:1007900035700020ACE700003F8010F02DE9F041FB
:1007A0000446866D90F83400002501280DD0012004
:1007B00084F8340094F835700020012F07D084F8B5
:1007C000340002252846BDE8F0810220FBE702271D
:1007D00084F8357060652046FFF734FE94F85C10AD
:1007E0003F208840B0602068016841F01601016038
:1007F000206C20B12068016841F008010160206888
:10080000016841F001010160DCE7000070B50446B9
:1008100000F00CF90546601C02D00448007804443E
:1008200000F004F9401BA042FAD370BD080000207C
:100830002DE9F84FDFF8BCA10022012503264FF077
:100840000F090AF1040BAAF1040E00BF0B6805FAA8
:1008500002F42340A34270D10F7907F00307012F60
:1008600001D0022F16D187684FEA420806FA08FC29
:1008700027EA0C07D1F80CC00CFA08FC4CEA070C6C
:10088000C0F808C04768A7430C79C4F3001494402B
:100890003C4344600C79E443A4070AD0C4684FEA9F
:1008A000420C06FA0CF7BC438F6807FA0CF7274393
:1008B000C7600C7904F00304022C12D1D40800EBB9
:1008C000840CDCF820405707FF0E09FA07F824EAE9
:1008D0000804D1F8108008FA07F848EA0408CCF8B0
:1008E000208004684FEA420C06FA0CF7BC430F79EB
:1008F00007F0030707FA0CF7274307604C6814F466
:10090000403F70D03C4C276847F4804727602468FC
:1009100022F0030704F480440094384C07EB040CE5
:10092000DCF8084897074FEA177809FA08F7BC433C
:10093000334FB84202D1002724E054E0314FB8428F
:1009400001D101271EE0304FB84201D1022719E042
:100950002E4FB84201D1032714E02D4FB84201D1E8
:1009600004270FE02B4FB84201D105270AE02A4F98
:10097000B84201D1062705E0284FB84201D1072728
:1009800000E0082707FA08F72743CCF80878DAF8D8
:1009900000405746D1F804C09C435FEACC2C00D5F8
:1009A0001C433C60DBF800405F46D1F804C09C4328
:1009B0005FEA8C2C00D51C433C60DEF80040774693
:1009C000D1F804C09C435FEA8C3C00D51C433C60DA
:1009D000084F083F3C68D1F804C09C435FEACC3C18
:1009E00000D51C433C60521C102AFFF42FAFBDE819
:1009F000F88F0000083C01404438024000300140BC
:100A0000000002400004024000080240000C0240C6
:100A1000001002400014024000180240001C024076
:100A20000AB1816170470904FBE700000148806852
:100A300070470000080000200248816802781144D5
:100A400081607047080000200B4810B5016841F430
:100A500000710160016841F480610160016841F446
:100A600080710160032000F09FF80F2000F006F86D
:100A700000F050F8002010BD003C024030B50546A3
:100A80001F4887B00024016841F00401016000683C
:100A900006A900F00400009001A800F031F90498C4
:100AA000A8B100F04DF940001649174AB0FBF1F12A
:100AB0001648491E026040F2E732C0E90324C0E94B
:100AC0000114846100F0AAFD040003D015E000F0D9
:100AD00037F9E9E70D4800F0CFFD04000DD11E20E5
:100AE00000F034F8102D07D2002229461E2000F015
:100AF0003BF80748056000E0012407B0204630BD00
:100B00004038024040420F0000080040A40100208D
:100B10000C0000200C4882B0016841F48041016063
:100B2000006800F4804000900748001F016841F011
:100B3000805101600068002200F0805000900F2179
:100B4000901E02B000F010B844380240002809DBC3
:100B500000F01F02012191404009800000F1E020D7
:100B6000C0F8001170470000F0B40E4B1B680C4633
:100B7000C3F30223C3F10705042D00D90425191D71
:100B8000072901D2002300E0DB1E012606FA05F149
:100B9000491E214099409E40761E16403143F0BCCC
:100BA00001F0DEBD0CED00E0064900F00702086828
:100BB0004FF6FF03184040EA0220034A1043086042
:100BC000704700000CED00E00000FA052DE9F04749
:100BD0000E46050065D0DFF81481D8F80000F7B2A2
:100BE00000F00700B04207D288F80070D8F8000083
:100BF00000F00700B04254D128683D4C810712D55F
:100C0000400703D5206840F4E050206028780007B2
:100C100003D5206840F4604020602068A96820F077
:100C2000F000084320602878C0072DD0304968685C
:100C30000839012812D0022813D0032811D00968DE
:100C4000890700292DDA216821F003010143216081
:100C5000FFF7ECFE814641F2883A0EE0096889030D
:100C6000EFE709688901ECE7FFF7E0FEA0EB090177
:100C7000514502D90320BDE8F0872068696800F07B
:100C80000C00B0EB810FEFD1D8F80010404601F016
:100C90000701B14207D90770006800F00700B042B1
:100CA00001D00120E7E72878400705D52068E968EA
:100CB00020F4E050084320602878000706D520681B
:100CC000296920F4604040EAC100206000F058F833
:100CD0002168084AC1F30311515CC8400649086005
:100CE00006480068FFF7CAFE0020C4E7003C024047
:100CF000083802407C410008140000200C0000204D
:100D00000F2202600C4A136803F003034360136868
:100D100003F0F0038360136803F4E053C3601268C8
:100D20004FF4E05303EAD20202610448006800F085
:100D3000070008607047000008380240003C02408D
:100D40000448054900680968044AC1F38221515CDE
:100D5000C840704714000020083802408C41000849
:100D60000448054900680968044AC1F34231515CEE
:100D7000C840704714000020083802408C41000829
:100D8000154810B5006810F00C02144813D014492F
:100D9000042A0FD0082A0ED10F4C241F2268236882
:100DA00002F03F025B0207D52068C0F38810A0FB69
:100DB000010106E0084610BD2168C1F38811A1FBBE
:100DC00000010023FFF75CFA2168C1F30141491CCF
:100DD0004900B0FBF1F010BD083802400024F400D7
:100DE00040787D012DE9F84F04006ED02078DFF8BF
:100DF0004C93C007A9F104054AD009F10400016829
:100E0000C1F38101012908D00068C0F381000228E4
:100E10000AD1D9F80000400206D52868800337D5EA
:100E200060680028E1D033E06068B0F5803F10D002
:100E3000B0F5A02F286810D020F4803028602868F2
:100E400020F4802028606068A8B1FFF7EFFD064617
:100E50000DE0286840F48030F4E740F480202860FA
:100E6000F7E700BFFFF7E2FD801B642873D828680E
:100E70008003F7D50CE0FFF7D9FD064605E000BF7B
:100E8000FFF7D4FD801B6428F0D828688003F7D4CE
:100E90002078DFF8AC8280074FF0000A3ED5A748E3
:100EA000001D016811F00C0F08D00068C0F381002C
:100EB00002280BD1D9F80000400207D42868800727
:100EC00016D5E068012800D112E033E1E068B8B13E
:100ED0000120C8F80000FFF7A9FD064605E000BFA5
:100EE000FFF7A4FD801B0228C0D828688007F7D52B
:100EF0002868216920F0F80040EAC10028600DE070
:100F0000C8F800A0FFF792FD064604E0FFF78EFD4B
:100F1000801B02281FD828688007F7D42078000794
:100F200022D5864F87486169703771B10121016010
:100F3000FFF77CFD064604E0FFF778FD801B0228E2
:100F400009D838688007F7D50EE0C0F800A0FFF791
:100F50006DFD064605E082E0FFF768FD801B022874
:100F60007DD838688007F7D42078400768D5DFF847
:100F7000CCB100270BF13C0BDBF80000C0000BD418
:100F8000DBF8001041F08051CBF80010DBF80000D6
:100F9000012700F0805000906B4E3068C00510D4DF
:100FA000306840F480703060FFF740FD009005E04D
:100FB000FFF73CFD0099401A022850D83068C00560
:100FC000F6D55E4EA0686C3601280FD00528306833
:100FD00010D020F001003060306820F00400306054
:100FE000A068B8B1FFF722FD00900FE0306840F034
:100FF0000100F4E740F004003060F7E7FFF716FD6A
:101000000099411A41F28830814266D830688007E1
:10101000F4D50EE0FFF70AFD009007E0FFF706FDAC
:101020000099411A41F28830814256D830688007D1
:10103000F4D42FB1DBF8001021F08051CBF8001070
:10104000A069C8B33D49091D0968C1F3810102299E
:101050004AD00228504607D0C8F8600000E03CE0C3
:10106000FFF7E4FC04463BE04746C8F86000FFF7A2
:10107000DDFC064605E000BFFFF7D8FC801B022818
:101080002BD828688001F7D4D4E907010843A16A66
:101090002E4A490802EB0141626A41EA8211084383
:1010A00094F82C1040EA0161C9F80010012038665C
:1010B000FFF7BCFC044606E03EE000BFFFF7B6FCCD
:1010C000001B022809D828688001F7D534E000BF4A
:1010D000FFF7ACFC001B022802D90320BDE8F88F03
:1010E00028688001F4D427E00128F7D0D9F800005F
:1010F000E26900F4800191421CD1226A00F03F01B4
:10110000914217D147F6C071626A0140B1EB821F6C
:1011100010D1A26A4FF0FF3300F4403103EB5202CA
:10112000B1EB024F06D194F82C1000F07060B0EBD8
:10113000016F01D00120D1E70020CFE70438024041
:1011400000004742800E4742007000400000FFFF51
:101150007047000038B5016804464A688868C04393
:10116000430606D5C30704D1D3435B0601D4216CE3
:1011700005E0830708D4D3431B0605D4616C01B096
:101180002046BDE830400847830603D5430601D515
:10119000C30551D4D3439B064ED443060AD494F8D6
:1011A0005130032B49D0636D43F004036365CB6872
:1011B0008B680093830609D4636D43F00103636574
:1011C0008B6800930B6823F040030B60C00506D4C6
:1011D000606D40F008006065206880680090606D78
:1011E000002829D02068416821F0E00141600120F9
:1011F00084F85100900701D4D00722D020684168BC
:1012000021F003014160114DE06C40B10565E06CD7
:10121000FFF778F918B1606D40F040006065A06C90
:10122000002809D00565A06CFFF76CF9002803D0F1
:10123000606D40F04000606538BDC8688868009007
:1012400038BD2046FFF784FF38BD00006D1E000842
:1012500070B5040009D0606A002540B12561656160
:10126000A56294F8510040B10CE0012070BD6068A7
:10127000B0F5827FF4D0E561F2E784F85050204663
:1012800000F044F8022084F851002068016821F041
:1012900040010160A088218900F4827001F40441BA
:1012A0000843A18901F400610843217C01F0020197
:1012B0000843217D01F001010843218B01F40071F5
:1012C0000843217F01F03801084394F8201001F011
:1012D00080010843218D01F4005108432168086012
:1012E000A069042101EA104094F8241001F01001D3
:1012F0000843216848602068C16921F40061C16128
:101300006565012084F85100002070BD2DE9F0438F
:1013100087B0064614216846FEF7FCFF2A4930686C
:1013200088424ED129480025016841F4804101607E
:101330000068264900F4804010390590086840F0A4
:1013400004000860086800F004000590086840F098
:10135000020008600868022400F0020005900C20DA
:1013600003274FF005088DE8B10169461848FFF7DB
:101370005FFA4FF4806901AACDF8009082E8B001CD
:1013800069461448FFF754FA144C1348E4E8020580
:101390004020A4E82102114844F81459A561E561F0
:1013A00025626562FFF790F908B1FFF760F8B46451
:1013B000002205212420A663FFF7D6FB2420FFF797
:1013C000C5FB07B0BDE8F08300380040403802405C
:1013D000000802400004024070600240FC0000204F
:1013E0002DE9F84F984616468A460446FFF71EFB3D
:1013F000814694F8510001281ED1BAF1000F73D034
:10140000002E71D094F85000012815D0012784F8DF
:101410005070032084F8510000256565C4F830A0A1
:10142000A686E686A563A587E58765642564A0682A
:10143000B0F5004F03D00CE00220BDE8F88F206823
:10144000016821F0400101602068016841F4804199
:10145000016020680168490603D4016841F0400139
:101460000160E068B0F5006F606803D048B3012EFA
:1014700027D047E008B1012E1FD1206B21680088DA
:10148000C86006E020688168890709D5216B098852
:10149000C160206B801C2063E08E401EE0860CE063
:1014A000FFF7C4FAA0EB0901414503D3B8F1FF3FB0
:1014B00003D035E0B8F1000F32D0E08E0028E1D142
:1014C00023E0206B21680078087306E020688168BB
:1014D00089070AD5216B09780173206B401C2063B2
:1014E000E08E401EE0860DE02BE0FFF79FFAA0EBB8
:1014F0000901414503D3B8F1FF3F03D010E0B8F133
:10150000000F0DD0E08E0028E0D14A46414620462B
:1015100000F0FCFC08B120206065A06830B109E053
:1015200084F8517084F85050032086E72068C16821
:101530008068009084F8517004F8505F606800285B
:10154000F3D0012079E7000070B5044690F851000F
:1015500001281CD1C9B1C2B194F85000012816D09D
:10156000012084F85000032084F8510000256565AF
:101570002163A286E286A56365642564A587E58765
:10158000A068B0F5004F04D00DE0012070BD02202E
:1015900070BD2068016821F0400101602068016889
:1015A00041F480410160A16C17480864A16C1748A0
:1015B000C863A16C1648C864A06C0565E38E2268F8
:1015C000216B0C32A06CFFF7E9F830B1606D40F090
:1015D0001000606584F85050D7E72068016849061C
:1015E00003D4016841F04001016084F85050206844
:1015F000416841F0200141602068416841F00201EA
:101600004160002070BD00009F1E0008A91E000858
:101610007D1E0008704770477047704710B5040082
:1016200003D094F83D0010B107E0012010BD002068
:1016300084F83C00204600F01EF8022084F83D00AB
:10164000211D206800F0A2FE012084F8460084F8E5
:101650003E0084F83F0084F8400084F8410084F89C
:10166000420084F8430084F8440084F8450084F87C
:101670003D00002010BD704790F83D10012901D0B9
:1016800001207047022180F83D100168CA6842F0CD
:101690000102CA6000681149884214D0B0F1804F3D
:1016A00011D00F4988420ED00E4988420BD00E4906
:1016B000884208D00D49884205D00D49884202D0A1
:1016C0000C49884204D1816801F00701062903D042
:1016D000016841F0010101600020704700000140F5
:1016E0000004004000080040000C004000040140DD
:1016F000004001400018004070472DE9F0410446C9
:101700000068C66805694FF00007A90713D5B1073F
:1017100011D5F91E016101202077206880698007BA
:10172000204602D0FFF7E8FF04E000F07EF82046F4
:1017300000F07CF82777680716D5700714D5216864
:101740006FF004000861022020772068806910F49F
:10175000407F204602D0FFF7CFFF04E000F065F89D
:10176000204600F063F82777280715D5300713D5F2
:1017700021686FF008000861042020772068C069A4
:101780008007204602D0FFF7B7FF04E000F04DF8D5
:10179000204600F04BF82777E80616D5F00614D55A
:1017A00021686FF010000861082020772068C06968
:1017B00010F4407F204602D0FFF79EFF04E000F0C7
:1017C00034F8204600F032F82777E80708D0F00711
:1017D00006D021686FF001000861204600F028F86B
:1017E000280608D5300606D521686FF0800008610C
:1017F0002046FFF711FF680608D5700606D5216858
:101800006FF040000861204600F01CF8A8060AD5D9
:10181000B00608D521686FF0200008612046BDE8B9
:10182000F041FFF7FABEBDE8F08170477047000055
:1018300000680349884201D1FFF7FEB870470000F5
:10184000000800407047704770470000F8B5016815
:1018500004460868CA684B6910F00F0F4FF0000586
:1018600059D003F0010602F49077374365D0C107E1
:1018700005D0D10503D5616C41F0010161644107D8
:1018800005D5D90703D0616C41F00201616481077D
:1018900005D5D90703D0616C41F0040161640107EB
:1018A00007D502F02001314303D0616C41F00801FB
:1018B0006164616C00293AD0800604D5900602D597
:1018C000204600F0F9FD20684069616CC0F380108B
:1018D000090700D460B3204600F0C7FD20684069C6
:1018E000400621D52068143050E8001F21F0400147
:1018F00040E80012002AF5D1E06BA8B172490165F9
:10190000E06BFEF7FFFD002811D0E06B016D01B028
:10191000BDE8F040084783060FD593060DD5204655
:10192000BDE8F84000F0C8BD2046FFF78DFFF8BDC8
:101930002046FFF789FF6564F8BD266B2023012E42
:101940007ED1C6067CD5D6067AD508684868009050
:1019500048694FF0020640064DD5E26B10684068BA
:101960004FF480770004000C3AD0A18D814237D922
:10197000E085D069B8422DD020680C3050E8001FB7
:1019800021F4807140E80012002AF5D1206814305B
:1019900050E8001F21F0010140E80012002AF5D1B3
:1019A0002068143050E8001F21F0400140E8001288
:1019B000002AF5D184F84230256320680C3050E8C5
:1019C000001F21F0100140E80012002AF5D1E06B61
:1019D000FEF74FFD6663A08DE18D401A81B206E0EF
:1019E000A18D8142A8D1D069B842A5D166632046B5
:1019F000FFF729FFF8BDA08DE18D401A81B2E08D7F
:101A00000028F7D00029F5D020680C3050E8002FCE
:101A100022F4907240E80027002FF5D1206814309E
:101A200050E8002F22F0010240E80027002FF5D1F6
:101A300084F84230256320680C3050E8002F00E025
:101A400006E022F0100240E80023002BF3D1CDE79E
:101A500005062BD5150629D594F841002128C9D1B2
:101A6000A068B0F5805F01D12069B0B1206A411C47
:101A70002162216800784860E08C401E0004000C60
:101A8000E084B7D12068C16821F08001C16020687E
:101A9000C16841F04001C160F8BD206A0088C0F310
:101AA00008004860206A801C2062E5E74006F3D504
:101AB0005006F1D5CA68204622F04002CA6084F878
:101AC000413000F0E5F8F8BD5D24000870B5040071
:101AD00004D094F84100002510B106E0012070BD4B
:101AE00084F84050204600F023F8242084F8410078
:101AF0002068C16821F40051C160204600F03EFD1D
:101B00002068016921F4904101612068416921F058
:101B10002A0141612068C16841F40051C1606564D7
:101B2000202084F8410084F842006563002070BDE5
:101B300010B586B0044614216846FEF7EBFB184941
:101B40002068884229D117480021026842F010021B
:101B50000260006800F01000059012481438026816
:101B600042F001020260006800F0010005904FF4AD
:101B7000C06000900220CDE90101032003900720FE
:101B8000049069460848FEF753FE002205212520EF
:101B9000FEF7EAFF2520FEF7D9FF06B010BD0000D2
:101BA00000100140443802400000024090F84230EA
:101BB000202B01D00220704721B11AB1002303630A
:101BC00000F062BD0120704710B50648017806A0FC
:101BD00000F0B6FDBDE81040012202490348FFF7BE
:101BE000E5BF000000000020256400005C0100202B
:101BF0002DE9F843044690F84100984616460D46F4
:101C0000202802D00220BDE8F88385B17EB10020F3
:101C10006064212084F84100FEF708FFA684814615
:101C2000E684A0682027B0F5805F02D003E00120A1
:101C3000E9E7206910B12E4600250EE000260CE0F1
:101C40008021204600F03BFDA8B9C6B116F8010B73
:101C500021684860E08C401EE084E08C4B464FF0E9
:101C60000002CDF800800028EAD14FF04001204664
:101C700000F025FD40B184F841700320C3E735F83A
:101C8000020BC0F30800E3E784F841700020BAE7D4
:101C90007047FEE7094808B5016841F4001101608A
:101CA0000068002200F40010009005210F20FEF7CC
:101CB0005BFFBDE808400F20FEF748BF3038024008
:101CC00010B5044A0021044800F066FE034948604C
:101CD00010BD000050410008512200080000002003
:101CE0002DE9F04186B014216846FEF713FB374812
:101CF0000025016841F004010160016801F0040160
:101D00000591016841F080010160016801F08001E6
:101D10000591016841F001010160016801F00101D4
:101D20000591016841F010010160016801F01001A6
:101D30000591016841F0020101600068244E00F045
:101D400002000590002240213046FEF769FE214F37
:101D500000224FF420413846FEF762FEDFF878801B
:101D600000224FF4C0514046FEF75AFE01244020A5
:101D7000CDE9000469463046CDE90245FEF758FD3D
:101D800060038DE83100694638460395FEF750FD43
:101D9000E003CDE9000469463846CDE90245FEF787
:101DA00047FDE0028DE83100694640460395FEF7A5
:101DB0003FFD2003CDE9000469464046CDE90245D8
:101DC000FEF736FD06B0BDE8F08100003038024075
:101DD000000002400010024000040240104810B50C
:101DE0000E4901604FF4827141600021022281603E
:101DF000C0E90312012242615202C0E906210162D8
:101E0000416281620A21C162FFF722FA002803D0F1
:101E1000BDE81040FEF72BBB10BD000000380040AD
:101E2000A40000200C4810B50A4901604FF4E131CC
:101E30004160002181600C22C160C0E9041281610F
:101E4000C161FFF743FE002803D0BDE81040FEF754
:101E50000EBB10BD001001405C010020FEE7FEE754
:101E60000148FFF777B90000A400002010B5806B8F
:101E70000021C187C186FFF76BF910BD10B5806BDB
:101E800001684A6822F003024A60416D41F0100186
:101E90004165012180F85110FFF75AF910BD10B5C6
:101EA000806BFFF7B8FB10BD38B50546846BFEF7B5
:101EB000BDFD024628680068C00523D4206841683B
:101EC00021F0200141602068416821F00201416059
:101ED0006421204600F01AF818B1606D40F020002F
:101EE0006065A068002118B92068C2688068009009
:101EF000E186012084F85100606D18B12046FFF79B
:101F000027F938BD2046FFF785FB38BDF8B51546E3
:101F10000E460B46009204460122022100F02CF8E6
:101F2000A0B9134813490068B0FBF1F04FF47A717F
:101F3000484300906068B0F5827F0DD1334600229F
:101F400080212046009500F017F870B1606D40F0D8
:101F5000200060650320F8BD009830B1401E00905D
:101F600020688068C0430006F6D50020F8BD000058
:101F70001400002000366E012DE9F8431E469146FC
:101F800088460446089DFEF751FD401B351AFEF7B2
:101F90004DFD074626480068C0F3CB3068430AE091
:101FA000701C09D0FEF742FDC01BA8420FD275B1CC
:101FB0000098B8B3401E00902068816838EA01009C
:101FC00033D000214945EBD10020BDE8F8832068DB
:101FD000416821F0E00141606068B0F5827F0BD17B
:101FE000A068B0F5004F02D0B0F5806F04D1206832
:101FF000016821F040010160A06AB0F5005F09D1DD
:102000002068016821F4005101602068016841F4F2
:1020100000510160012084F85100002084F8500034
:102020000320D2E7FFE70025C6E70121CAE7000049
:102030001400002070B5141A5E1A641C761C7443D8
:10204000049D00F097F80122D1020948FEF7E8FC50
:1020500000224FF400410748FEF7E2FC4FF6FF7004
:1020600000EA44022946BDE870400348FFF76CBA15
:102070000004024000100240A40000202DE9F047B7
:10208000010241EA102081B2194A002022F8101002
:10209000401CF028FADB002140F23F13EF220846F3
:1020A00000F068F80122D1021248FEF7B9FCDFF80F
:1020B00048904FF40045002229464846FEF7B0FC00
:1020C00000244FF0FF384FF4F0764FF4A0774346EA
:1020D000324607490948FFF783F9641CBC42F6DB26
:1020E00029464846BDE8F0470122FEF799BC0000AA
:1020F000C84A00200004024000100240A400002052
:1021000070B51A4D4FF48054002221462846FEF740
:1021100087FC6420FEF77AFB012221462846FEF761
:102120007FFC7820FEF772FB012251031048FEF776
:1021300077FC6420FEF76AFB112000F045F8782058
:10214000FEF764FB362000F03FF8002000F05EF858
:102150003A2000F039F8052000F058F8202000F06F
:1021600033F8BDE87040292000F02EB8000402408A
:10217000001002402DE9F04107461C4615460E4668
:102180002A2000F021F8380A00F040F8F8B200F0F8
:102190003DF8280A00F03AF8E8B200F037F82B20B2
:1021A00000F012F8300A00F031F8F0B200F02EF82A
:1021B000200A00F02BF8E0B200F028F8BDE8F0416A
:1021C0002C2000F001B8000031B500224FF400616E
:1021D0000B48FEF725FC0B4D4FF40044002221462E
:1021E0002846FEF71DFC4FF0FF33012269460648E2
:1021F000FFF7F6F8012221462846FEF711FC38BD0C
:102200000004024000100240A400002031B5012269
:10221000D1020C48FEF704FC0B4D4FF400440022A1
:1022200021462846FEF7FCFB4FF0FF3301226946AA
:102230000648FFF7D5F8012221462846FEF7F0FBB5
:1022400038BD00000004024000100240A40000203D
:10225000B4B0012217491848FFF7A8FC002001ACD0
:102260004EF2070124F81010401C6428FADB732694
:102270009B25FFF745FF0020FFF700FFA4237C22EA
:10228000294630460094FFF7D5FE0C4C4FF4FA7502
:10229000002240212046FEF7C3FB284601F04CF9FE
:1022A000012240212046FEF7BBFB284601F044F9FD
:1022B000EEE70000000000205C010020000002406A
:1022C00010B54FF0E020006901F084FD012803D033
:1022D000BDE8104001F0B2BA10BD000030B593B0B7
:1022E00030216846FEF716F814210CA8FEF712F804
:1022F0001D480025016841F080510160006800F030
:10230000805011901948016841F4804101600068D3
:10231000022400F4804011900120039010200490CA
:10232000009406940820CDE90750A820CDE90904BF
:1023300004200B906846FEF755FD08B172B6FEE723
:102340000CA90F2081E831004FF4A0500F904FF4FA
:102350008050109005210CA8FEF738FC002801D011
:1023600072B6FEE713B030BD403802400070004046
:102370000248016841F470010160704788ED00E097
:102380000148FFF7BAB90000A4010020F0B50268C7
:10239000274B284D284E294F294C4FF0804C98420E
:1023A00009D0604507D0A84205D0B04203D0B8425A
:1023B00001D0A04204D122F0700E4A6842EA0E0217
:1023C00098421BD0604519D0A84217D0B04215D012
:1023D000B84213D0A04211D01A4DA8420ED01A4DC7
:1023E000A8420BD0194DA84208D0194DA84205D0DB
:1023F000184DA84202D0184DA84203D122F44075CE
:10240000CA682A434D6922F080022A438D68C5625A
:102410000D688562984201D0A04201D1096901632B
:10242000016841F004010160012141610260F0BDD9
:10243000000001400004004000080040000C004083
:1024400000040140004001400044014000480140B8
:1024500000180040001C00400020004010B5806BB8
:102460000021C185FFF7F0F910BD01680C3151E87A
:10247000002F22F4907241E80023002BF5D101686F
:10248000143151E8002F22F0010241E80023002B13
:10249000F5D1016B012909D101680C3151E8002FF8
:1024A00022F0100241E80023002BF5D1202180F812
:1024B000421000210163704708B590F842102229AC
:1024C00001D0022008BD82684FF480539A4201D1A6
:1024D000016921B1816A9A421BD04AB10AE00268BF
:1024E000816A5268C2F308020A80816A891C08E086
:1024F000026972B10268526802F07F020A70816A52
:10250000491C8162C18D491E0904090CC18503D093
:102510001BE002685268F1E70168CA6822F02002F5
:10252000CA600168CA6822F48072CA6001684A6998
:1025300022F001024A61202180F84210002141630B
:10254000026B012A03D0FFF73FFB002008BD0163A7
:1025500001680C3151E8002F22F0100241E80023FD
:10256000002BF5D101680A68D20602D50A684968CD
:102570000091818DFFF767F9E7E7000070B5044629
:1025800000680169E26821F4405111430161216949
:10259000A068E26908436169114308432168CA6879
:1025A00049F20C639A430243CA6020684169A269F8
:1025B00021F440711143416131492068884202D0C1
:1025C0003049884202D1FEF7CBFB01E0FEF7B8FBB1
:1025D000E2690023192164253226B2F5004F6268B2
:1025E00028D0A0FB0101930F9200FDF749FE0146A0
:1025F000B0FBF5F06FF01802504301EB800006EBE2
:102600000010B0FBF5F000F0F002B1FBF5F002EBCA
:102610000012B1FBF5F06FF01803584301EB800096
:1026200006EB0010B0FBF5F000F00F00216810443D
:10263000886070BDA0FB010192185B41FDF720FE90
:102640000146B0FBF5F00201B1FBF5F06FF01803A5
:10265000584301EB800006EBC000B0FBF5F000F042
:10266000F80002EB4002B1FBF5F0584301EB8000AB
:1026700006EBC000B0FBF5F000F00700D6E7000065
:10268000001001400014014081628285C285002152
:102690004164222180F84210016921B10168CA68B1
:1026A00042F48072CA6001684A6942F001024A61DC
:1026B0000068C16841F02001C160002070472DE929
:1026C000F843984617460D460446089E24E0701CC1
:1026D00022D0FEF7ABF9A0EB0800B0421AD8CEB179
:1026E0002068C168490717D5802D15D0402D13D01B
:1026F0000168C94309070FD40168002540680090AC
:102700002046FFF7B2FE0820606484F840500120A4
:10271000BDE8F8830320FBE72068006835EA000085
:1027200004D00020B842D2D00020F1E70120F9E720
:102730000148FFF78BB800005C010020FEE70000B5
:102740000FB4054B10B503A9044A029800F028F80D
:1027500010BC5DF814FB0000F9280008A000002060
:102760000907090E002804DB00F1E02080F80014BE
:10277000704700F00F0000F1E02080F8141D704752
:1027800002E008C8121F08C1002AFAD1704770473A
:10279000002001E001C1121F002AFBD17047000098
:1027A0002DE9FF4F89B09B460446002506E0252809
:1027B0000BD05A460B999047641C6D1C207800285A
:1027C000F5D10DB02846BDE8F08F0027B8460122AC
:1027D000474900E0074314F8013F203B02FA03F0A9
:1027E0000842F7D120782E2819D114F8010F47F0AC
:1027F00004072A280ED06FF02F022078A0F13001B4
:1028000009290CD808EB880102EB410100EB010813
:10281000641CF2E70A98641C50F8048B0A90207834
:102820000028CED0642808D0692806D075281ED08C
:102830005A460B9990476D1C58E00A994FF00A09C7
:1028400001C90A91002802DA40422D2102E039052F
:1028500004D52B218DF82010012103E0F90704D0C5
:102860002021F7E78A4608AE0DE00021FAE70A9931
:102870004FF00A0901C90A91F7E74946FDF755FDEE
:10288000303106F8011D0028F7D1ADEB060000F14C
:102890002009780701D44FF00108C84502DDA8EBF4
:1028A000090000E000208046002706E008A85A46FC
:1028B000C05D0B9990476D1C7F1C5745F6DB04E00B
:1028C00030205A460B9990476D1CB8F10001A8F1D1
:1028D0000108F5DC05E016F8010B5A460B99904704
:1028E0006D1CB9F10001A9F10109F4DC641C65E774
:1028F000092801007047000013B54FF0FF33012293
:1029000069460248FFF774F900981CBD5C0100207D
:1029100000207047FEF798F8FFF7E0FCFFF7E0F9BA
:10292000FFF7B8F9FFF77EFAFFF758FA00F006F85C
:10293000FFF7C6F900F014F8FEE70000EFF305809A
:1029400010B16FF0050070470448016811B14FF0F5
:10295000FF307047012101600020704770000020A7
:1029600010B5EFF3058010B16FF0050010BD0848F9
:102970000168012902D04FF0FF3010BD054A002147
:1029800082F8141D0221016000F03EFE002010BDFF
:10299000700000200BE000E02DE9FF414FEA010349
:1029A0004FF00005EFF30581039549BB40B3802745
:1029B000182100244AB3166806B1344696691EB140
:1029C0003146761E382E02D21679F60703D0002043
:1029D00004B0BDE8F081566906B1B708D2F808C066
:1029E000BCF1000F0DD0D568602D18D312693AB133
:1029F00036B18DE806103A46214601F0C0F9039041
:102A00000DE0D6685EB912694AB903AACDE9001291
:102A1000BAB2214601F086F9012800D00395039847
:102A2000D6E700002DE9F041134C0F460546E66855
:102A30002068001D00F048FC681C07D137B12168F0
:102A4000BDE8F0410D48091D00F091BC20683544F7
:102A5000B5424560216805D2206CBDE8F041091DF2
:102A600000F06DBCE06B091D00F069FCA06A8542B6
:102A700000D2A562BDE8F08118000020DC0600202D
:102A80002DE9F041054600F07FFC2D4CA068401C6C
:102A9000A06020682B4F10B1606930B32BE0256037
:102AA000A068012827D1002606EB860007EB8000EE
:102AB00000F037FC761C382EF6D3234800F031FCAA
:102AC0002148143000F02DFC1F48283000F029FC6C
:102AD0001D483C3000F025FC1B48503000F021FC24
:102AE0001948E0631430206405E02068E96AC06A90
:102AF000884200D82560606A401C60626864E86AA9
:102B00002169884200D9206100EB800007EB80003A
:102B1000291D00F02CFC00F057FC606900280CD047
:102B20002068E96AC06A884207D208494FF080509D
:102B30000860BFF34F8FBFF36F8FBDE8F0810000D7
:102B4000180000202C0200208C06002004ED00E07C
:102B500038B500F019FC104C2068C8B90F4800F0D7
:102B6000E0FB0E48143000F0DCFB0C48E060143051
:102B700020610A4B0020F03B009003F1500210212D
:102B80000A2000F071FE206010B105A100F09EFC4B
:102B9000BDE8384000F018BC5C000020E0070020D1
:102BA000546D72510000000030B4026C0B46002AD4
:102BB0000BD0C1681144C1608468A14201D301688F
:102BC000C16030BC1846FDF78CBB30BC70472DE9A6
:102BD000F041856B174604460026026C82B1C7B1EE
:102BE000E068FDF77EFBE168206C091AE16022686D
:102BF000914202D2A168081AE060022F16D017E0B5
:102C00002068A8B9A06801F065F906460020A06018
:102C10000EE06068FDF765FB216C60680844606049
:102C2000A168884204D32068606001E005B16D1E90
:102C30006D1CA5633046BDE8F08110B5044690F8E0
:102C40005D0058B101280CD002280FD0502080F32D
:102C50001188BFF34F8FBFF36F8FFEE7206B00F03B
:102C6000C7FB2046BDE8104000F0C2BB10BD00000D
:102C700010484FF47051420706D0C01D0D4920F096
:102C80000700411AC1F570510B4A00230144C2E903
:102C900000030839183A21F0070111604B600B60FE
:102CA0000B1AC0E9001393604FF00040536050616D
:102CB00070470000C80E00208C000020154E164CF6
:102CC000A6F29C474FF08058DFF8509012E000BF0A
:102CD00000F05AFBF068C568281D00F0F5FAA068FE
:102CE000401EA0606068401E606000F06DFB2846DA
:102CF000FFF7A3FF60680028EAD13868012805D9EA
:102D0000C9F80080BFF34F8FBFF36F8F00F006FB51
:102D1000F0E70000C80600201800002004ED00E0E5
:102D200070B51D46049C51B1C4F80020C4E90F01E0
:102D30000121204600F0CCFD84F84C5070BD246089
:102D4000F4E700002DE9F05F8846DDE90B941546B5
:102D5000834691009A460A9EA522206BFDF7D3FA7E
:102D60006FF00301206B01EB8501084420F0070799
:102D7000780707D0502080F31188BFF34F8FBFF33F
:102D80006F8FFEE70025B8F1000F0FD05FF0000055
:102D9000221818F8001082F8341018F8001011B139
:102DA000401C1028F4D384F8435001E084F83450D8
:102DB000382E00D33726E662C4E91365201D00F0E3
:102DC000BBFA04F1180000F0B7FA2461C6F138002C
:102DD0006462A0616565A56584F85C5052465946F9
:102DE000384600F05BFA2060B9F1000F01D0C9F855
:102DF0000040BDE8F09F000030B5114900E01146E9
:102E00000A688242FBD34B685C18844203D1406855
:102E100018444860084643681C18944209D1084C7D
:102E2000183C2468A24209D052681A4442600A68D9
:102E300012680260814200D0086030BD0460F9E78A
:102E40008C00002070B5002441600B4D0061914260
:102E500006D8D11A8269914206D2011D286907E07D
:102E60009A4203D2994201D3012403E0011DE8688C
:102E700000F065FA204670BD5C00002010B50446E5
:102E800000F082FAA06B28B15FF0000400F09CFA19
:102E9000204610BD0124F9E730B589B03C4D6EE005
:102EA0000498002806DADDE90601059A904704989F
:102EB000002864DB069C606910B1201D00F004FA54
:102EC00003A800F0D7F8024604980A2857D2DFE892
:102ED00000F00505052D334A05052D3394F828002B
:102EE00040F0010084F828000599A069059B014481
:102EF0002046FFF7A7FF68B3216A2046884794F869
:102F0000280040073BD5002000900598A1690023C8
:102F100042181946204601F0E7F8D8B9502080F34E
:102F20001188BFF34F8FBFF36F8FFEE714F8280FA0
:102F300020F00100207022E094F8280040F0010009
:102F400084F828000598A06128B18118134620460E
:102F5000FFF778FF13E0502080F31188BFF34F8F05
:102F6000BFF36F8FFEE794F82800810703D4204653
:102F700000F03EFA03E020F0010084F8280000226F
:102F800004A9286800F0F8FD002889D109B030BDF7
:102F90005C0000202DE9FC410F46054600F07AFB5D
:102FA00001A800F067F80446019818B101F00AF88A
:102FB000BDE8FC81254EAFB130690068D0B3002771
:102FC000291B3A46306800F095FA00F0FBFF002814
:102FD000EED11F494FF080500860BFF34F8FBFF311
:102FE0006F8FE5E7A542EBD800F0ECFFF0682746CD
:102FF000C068C468201D00F067F994F828004107F4
:1030000019D5A0692B4641193A462046FFF71AFF09
:10301000A8B100200346014600902A46204601F050
:1030200063F860B9502080F31188BFF34F8FBFF36E
:103030006F8FFEE707E020F0010084F82800216A86
:1030400020468847B4E70127BAE700005C0000206B
:1030500004ED00E00648C16B096829B1C16BC9687D
:10306000C9684968816270474FF0FF31FAE7000094
:103070001800002070B5054600F0BAFE064E044662
:10308000B068844203D200F009F8012000E000207B
:1030900028602046B46070BD5C000020F8B5194D72
:1030A00020E0C068C4680668201D00F00DF9216AA0
:1030B0002046884794F82800400713D5A06930447B
:1030C000B04206D924616060211DE86800F037F93C
:1030D00008E000200346014600903246204601F0F9
:1030E00003F838B1E86801680029DAD12969C5E92F
:1030F0000310F8BD502080F31188BFF34F8FBFF34A
:103100006F8FFEE75C00002008484068401C4FF0CD
:10311000500080F3118804D0BFF34F8FBFF36F8F3F
:10312000FEE7BFF34F8FBFF36F8FFEE794000020E1
:10313000074CE068016841B1C0680021D0F8000088
:10314000FFF728FFFFF7A8FEF3E701210020F7E7CC
:103150005C0000202DE9F041044600F015F994F9D7
:10316000455004F1240609E0606A48B1304600F099
:10317000F1FE08B100F00EFA6D1E6DB2002DF3DC09
:103180004FF0FF3684F8456000F01EF900F0FCF8BF
:1031900094F9445004F1100709E0206948B1384619
:1031A00000F0D8FE08B100F0F5F96D1E6DB2002DEB
:1031B000F3DC84F84460BDE8F04100F005B900009C
:1031C0002DE9F0410546002700F064FA324E3068E0
:1031D00008B9FFF74DFD706905424ED1C5B30835FA
:1031E00068070ED005F00700C0F108000544680725
:1031F00007D0502080F31188BFF34F8FBFF36F8F3C
:10320000FEE72DB37068854237D823481830014651
:103210000C6801E020460C466168A94202D2216890
:103220000029F7D131688C4227D0076821680160F6
:1032300060680837411B10290FD96019420708D070
:10324000502080F31188BFF34F8FBFF36F8FFEE7DD
:1032500013E041606560FFF7CFFD61687068401A58
:103260007060B268904200D2B06070690143002083
:10327000C4E90001F068401CF06000F0A3FE78078C
:1032800007D0502080F31188BFF34F8FBFF36F8FAB
:10329000FEE73846BDE8F0817400002010B5031F3A
:1032A0004FF080741C601B1F21F001011960191F71
:1032B000044B0B6014390A60091F6FF00202443896
:1032C0000A6010BD09310008D0E9013201699A6035
:1032D000D0E901235A604A68824201D182684A607B
:1032E000002202610868401E0860086870470000FC
:1032F000034B036003F1600008608020106070479A
:1033000008080020044B036003F1600008604FF4DC
:103310008070106070470000680A00207047704796
:10332000704700F108014FF0FF32C0E90112C1609F
:10333000016100210160704700210161704730B5D3
:103340000B685A1C02D000F1080202E0026904E096
:103350002246546825689D42FAD953684B609960AB
:103360008A60516008610168491C016030BD426893
:103370004A6093688B609368596091600861016846
:10338000491C016070470000502080F31188BFF392
:103390004F8FBFF36F8F0A494868401C486001286F
:1033A0000CD10848006810F0FF0F07D0502080F3C0
:1033B0001188BFF34F8FBFF36F8FFEE77047000098
:1033C0009400002004ED00E00849486828B1401E40
:1033D000486001D180F311887047502080F3118834
:1033E000BFF34F8FBFF36F8FFEE700009400002004
:1033F00070B500282AD0164DA0F1080460686969EC
:10340000084207D1502080F31188BFF34F8FBFF3DC
:103410006F8FFEE722683AB1502080F31188BFF326
:103420004F8FBFF36F8FFEE78843606000F032F983
:1034300060686968084468602046FFF7DDFC286919
:10344000401C2861BDE8704000F0BCBD70BD0000AC
:10345000740000204FF0E0200021016181610549E6
:103460004FF47A720968B1FBF2F1491E41610721FC
:10347000016170471400002010B5FCF7EBFE114904
:1034800010280ED300F1E02090F8F0030A78904263
:1034900007D2502080F31188BFF34F8FBFF36F8F97
:1034A000FEE709480068896800F4E060884207D9AF
:1034B000502080F31188BFF34F8FBFF36F8FFEE76B
:1034C00010BD0000940000200CED00E010B5084B8A
:1034D000002200BF53F832401CB1521C082AF9D315
:1034E00010BD43F8321003EBC201486010BD00006C
:1034F000EC01002070B515460E460446FFF744FF68
:1035000094F944100020491C01D184F8440094F936
:103510004510491C01D184F84500FFF755FFA06B09
:1035200028B92A46314604F1240000F051F820461B
:10353000BDE87040FFF70EBE10B5020014D00F4872
:10354000006B38B1502080F31188BFF34F8FBFF369
:103550006F8FFEE700F09EF800211046FFF762FA39
:1035600000F030FD002807D105494FF08050086079
:10357000BFF34F8FBFF36F8F10BD00001800002006
:1035800004ED00E002490A6A0260C96841607047C0
:103590001800002001490120C86170471800002070
:1035A00010B50C4650B1094909681831FFF7C7FE3C
:1035B0002046BDE810400121FFF734BA502080F3C7
:1035C0001188BFF34F8FBFF36F8FFEE71800002005
:1035D00070B514460D4668B10A4909681831FFF7FD
:1035E000C6FE0CB14FF0FF3521462846BDE87040BD
:1035F000FFF718BA502080F31188BFF34F8FBFF345
:103600006F8FFEE71800002030B587B000240394C8
:1036100005AA04A903A80494FFF76AFEDDE90301E3
:103620000094CDE90110002316A11848059A00F076
:10363000A6FB174D0028E86221D000F025FD0128E7
:1036400009D0401C1BD1502080F31188BFF34F8F4D
:10365000BFF36F8FFEE7502080F31188BFF34F8FC9
:10366000BFF36F8F4FF0FF30A86201206861EC60FC
:10367000FFF740F907B0BDE8304000F065B807B08B
:1036800030BD000049444C4500000000BD2C00083E
:10369000180000200248016B491C016370470000BC
:1036A0001800002010B5264C206B10B10120E061FD
:1036B00010BD0020E061FFF72BF9A063626B904220
:1036C00004D92168821A4B6D1A444A6560632068E8
:1036D0004FF0A531006B02688A4208D142688A42E5
:1036E00005D182688A4202D1C068884204D021682C
:1036F00020683431FFF713FE2069124901E0B8B1A8
:10370000401E00EB800251F82220002AF7D000EB87
:10371000800201EB820101F108034A6852684A60A5
:103720009A4201D152684A60D1682160206110BD7F
:10373000502080F31188BFF34F8FBFF36F8FFEE7E8
:10374000180000202C0200201CB537480168374AB9
:10375000914207D1502080F31188BFF34F8FBFF300
:103760006F8FFEE700683149491E884207D150201B
:1037700080F31188BFF34F8FBFF36F8FFEE72C49A3
:1037800008780190FF20087008788DF800009DF8F7
:1037900000009DF8002000F0F000904207D050207B
:1037A00080F31188BFF34F8FBFF36F8FFEE79DF853
:1037B0000000204C00F0500020700720A06005E0C1
:1037C0009DF8002052008DF80020401E9DF800203A
:1037D0001206F5D4A060032807D0502080F311888A
:1037E000BFF34F8FBFF36F8FFEE74FF44070A060C1
:1037F000019808700C482030016841F470010160A4
:10380000016841F070410160FFF724FE0020606014
:10381000FCF7E8FC0848016841F040410160FCF712
:10382000CDFC00201CBD000000ED00E071C20F4186
:1038300000E400E09400002034EF00E010B55020D8
:1038400080F31188BFF34F8FBFF36F8F00F0D6FA6C
:1038500018B104494FF080500860002080F31188AF
:1038600010BD000004ED00E038B5049D18B153B15F
:10387000CAB181B120E0502080F31188BFF34F8F8F
:10388000BFF36F8FFEE7502080F31188BFF34F8F97
:10389000BFF36F8FFEE7502080F31188BFF34F8F87
:1038A000BFF36F8FFEE739B1502080F31188BFF36B
:1038B0004F8FBFF36F8FFEE750241C46012384F81F
:1038C00046302B460094FFF72BFA204638BD000007
:1038D00070B50D46040025D0FFF756FDD4E90F2042
:1038E000216802FB0011A1600021A16321686160D1
:1038F0000A46D4E90F01401E00FB0121E160214688
:103900004FF0FF3001F8440F487004F110008DB102
:10391000FFF707FD04F12400FFF703FDFFF754FD57
:10392000012070BD502080F31188BFF34F8FBFF38B
:103930006F8FFEE721690029F0D000F00BFB002813
:10394000ECD004494FF080500860BFF34F8FBFF3B5
:103950006F8FE3E704ED00E02DE9FF4782B01D46DD
:103960008A464FF00008040003D0BAF1000F08D0D7
:1039700011E0502080F31188BFF34F8FBFF36F8F9A
:10398000FEE7206C38B1502080F31188BFF34F8FD1
:10399000BFF36F8FFEE7022D0AD1E06B012807D03D
:1039A000502080F31188BFF34F8FBFF36F8FFEE776
:1039B00000F010FA3F4F4FF000094FF0805648B921
:1039C000049838B1502080F31188BFF34F8FBFF3B4
:1039D0006F8FFEE7FFF7D8FCA06BE16B884207D33F
:1039E000022D05D00498D0B1B8F1000F1AD01EE016
:1039F0002A4651462046FFF7EAF8616A19B104F1F8
:103A0000240000F0A7FA20B13E60BFF34F8FBFF350
:103A10006F8FFFF7D9FC012006B0BDE8F087FFF7F4
:103A2000D3FC22E06846FFF7ADFD4FF00108FFF739
:103A3000CBFCFFF72FFEFFF7A7FC94F94400401CD6
:103A400001D184F8449094F94500401C01D184F8D8
:103A50004590FFF7B9FC04A9684600F029F930B198
:103A60002046FFF777FB00F0ADFA0020D4E7FFF720
:103A70008BFCA06BE16B884213D1FFF7A5FC04F12E
:103A800010000499FFF78CFD2046FFF763FB00F060
:103A900099FA00289ED13E60BFF34F8FBFF36F8F1E
:103AA00098E7FFF791FC2046FFF754FB00F08AFAF5
:103AB00090E7000004ED00E02DE9F0471F46904636
:103AC0008946040003D0B9F1000F08D011E050205E
:103AD00080F31188BFF34F8FBFF36F8FFEE7206C29
:103AE00038B1502080F31188BFF34F8FBFF36F8F31
:103AF000FEE7022F0AD1E06B012807D0502080F3A7
:103B00001188BFF34F8FBFF36F8FFEE7FFF7B4FC51
:103B10005020EFF3118680F31188BFF34F8FBFF36E
:103B20006F8FA06BE16B884206D3022F04D0002078
:103B300086F31188BDE8F08794F94550A06B3A46AA
:103B400049462046FFF743F8681C04D06D1C84F8F2
:103B500045500120ECE7606A0028FAD004F1240007
:103B600000F0F8F90028F4D0B8F1000FF1D00121ED
:103B7000C8F80010EDE700002DE9F747002683B0F4
:103B80008A46040003D0BAF1000F08D011E050209B
:103B900080F31188BFF34F8FBFF36F8FFEE7206C68
:103BA00038B1502080F31188BFF34F8FBFF36F8F70
:103BB000FEE700F00FF9DFF8F4804FF000094FF056
:103BC000805748B9059838B1502080F31188BFF369
:103BD0004F8FBFF36F8FFEE7FFF7D6FBA56BC5B125
:103BE00051462046FEF7E0FF6D1EA563206950B1E7
:103BF00004F1100000F0AEF928B1C8F80070BFF36E
:103C00004F8FBFF36F8FFFF7DFFB012006B0BDE8DA
:103C1000F087059808B11EB106E0FFF7D5FB27E055
:103C20006846FFF7AFFC0126FFF7CEFBFFF732FD3A
:103C3000FFF7AAFB94F94400401C01D184F844909A
:103C400094F94500401C01D184F84590FFF7BCFB76
:103C500005A9684600F02CF8002820460AD0FFF796
:103C600079FA00F0AFF92046FFF708F90028B3D041
:103C70000020CBE7FFF702F990B104F12400059989
:103C8000FFF78EFC2046FFF765FA00F09BF900284D
:103C9000A2D1C8F80070BFF34F8FBFF36F8F9BE7BF
:103CA0002046FFF757FA00F08DF995E704ED00E0A4
:103CB0002DE9F0410C46050011D0C4B1FFF764FBBB
:103CC000174BDA686E682068911B471C17D02F6865
:103CD0001B6A9F4219D0964217D8012410E0502049
:103CE00080F31188BFF34F8FBFF36F8FFEE7502033
:103CF00080F31188BFF34F8FBFF36F8FFEE700246F
:103D0000FFF762FB2046BDE8F081884205D9401AE2
:103D100020602846FFF736FCF1E700202060DCE752
:103D2000180000202DE9FF5F8346DDE90E879946E4
:103D300016468A469000FFF743FA05001CD0602023
:103D4000FFF73EFA040014D00020256384F85D00DC
:103D5000CDE90240CDE900874B46324651465846F0
:103D6000FEF7F0FF2046FEF78BFE012004B0BDE811
:103D7000F09F2846FFF73CFB4FF0FF30F6E7F0B529
:103D800085B0DDE90B640A9DA6B1DCB16027009720
:103D90002663022684F85D60002604AFCDE9024662
:103DA000CDE90057FEF7CEFF2046FEF769FE0498E6
:103DB00005B0F0BD502080F31188BFF34F8FBFF3E3
:103DC0006F8FFEE7502080F31188BFF34F8FBFF352
:103DD0006F8FFEE70548416919B1006B18B10020EB
:103DE0007047012070470220704700001800002033
:103DF0000148C06870470000180000202DE9F0411C
:103E0000324C0027206B38B1A069401CA061FFF73D
:103E100087FA3846BDE8F081E668761CE66013D183
:103E2000E06B006838B1502080F31188BFF34F8FEA
:103E3000BFF36F8FFEE7E06B216CE1632064206AC3
:103E4000401C2062FFF706F9A06ADFF884808642F2
:103E500009D3E06B006890B1E06BC068C568686822
:103E600086420FD2A0622068C06A00EB800158F839
:103E70002100012800D90127A069F8B120E04FF006
:103E8000FF30EFE7281DFFF71FFAA86A18B105F108
:103E90001800FFF719FAE86A2169884200D9206101
:103EA00000EB800108EB8100291DFFF760FAE86A4A
:103EB0002168C96A8842CCD30127CAE7FFF730FAE4
:103EC000E0690028A5D00127A3E700001800002022
:103ED0002C02002070B504004FF0000133D01B4DC0
:103EE0002868844207D0502080F31188BFF34F8F99
:103EF000BFF36F8FFEE7206D38B1401E2065E36C85
:103F0000E26A9A421FD040B11DE0502080F3118830
:103F1000BFF34F8FBFF36F8FFEE7201DFFF7D4F97C
:103F2000E06CE062C0F13800A061E06A2969884273
:103F300000D92861064900EB800001EB8000211DBB
:103F4000FFF715FA0121084670BD00001800002097
:103F50002C02002070B5C068C46854B104F1180088
:103F60000646FFF7B1F9144D286B50B1314613489E
:103F700015E0502080F31188BFF34F8FBFF36F8F90
:103F8000FEE7201DFFF7A0F9E06A2969884200D901
:103F900028610B4900EB800001EB8000211DFFF739
:103FA000E6F9E06A2968C96A884202D90120E86115
:103FB00070BD002070BD000018000020B406002075
:103FC0002C0200202DE9F0472C4D00242746286BB9
:103FD00038B1FFF7D9F9286B401E2863286B40B130
:103FE00046E0502080F31188BFF34F8FBFF36F8FEF
:103FF000FEE7A968224E0120D1B3A6F5916980465B
:104000003068E0B1F068C46804F11800FFF75CF9AB
:10401000201DFFF759F9E06A2969884200D9286113
:1040200000EB800109EB8100211DFFF7A0F9E06A98
:104030002968C96A8842E3D3C5F81C80E0E70CB15F
:10404000FFF708F8AC694CB14FEA0806FFF7D6FE57
:1040500000B1EE61641EF9D10020A861E86938B1B1
:104060000849012738070860BFF34F8FBFF36F8FF0
:10407000FFF7AAF93846BDE8F087000018000020D5
:10408000B406002004ED00E010B586B0FEF760FD38
:10409000114C2068B8B100200390049005AA04A92F
:1040A00003A8FFF72FF9DDE9032102208DE80700BF
:1040B00000230AA10B48059AFFF761FE606010B16A
:1040C00006B0012010BD502080F31188BFF34F8F40
:1040D000BFF36F8FFEE700005C000020546D72207C
:1040E00053766300313100082DE9FF411E46134627
:1040F00002000A9D4FF0000016D0144C2768002FD4
:104100000FD0CDE900130292062917DAFFF762FEFD
:1041100002284FF000030FD0002269462068FFF705
:104120001BFC04B0BDE8F081502080F31188BFF380
:104130004F8FBFF36F8FFEE72A46EEE7002332462C
:1041400069463846FFF7B8FCEBE700005C0000204A
:104150009441000800000000000000000000000082
:104160000000000000020000180000000000000035
:1041700000000000000610160006101600000000E7
:104180000000000001020304060708090000000007
:104190000102030464656661756C745461736B009D
:1041A000C041000800000020A40000008027000893
:1041B00064420008A400002004500000902700087A
:1041C00000000000000000000100000010000000DE
:1041D000000000000024F4000000000000000000C7
:1041E00000000000000000000000000000000000CF
:1041F00000000000000000000000000000000000BF
:1042000000000000000000000000000000000000AE
:10421000000000000000000000000000000000009E
:10422000000000000000000000000000000000008E
:10423000000000000000000000000000000000007E
:10424000000000000000000000000000000000006E
:104250000000000000000000AAAAAAAA00000000B6
:04426000000000005A
:040000050800018965
:00000001FF
